:100000006F0000710000000060010000700100003E
:1000100000000000000000000000000000000000E0
:1000200000000000000000000000000000000000D0
:100030000E070000000000000E0700000000000096
:100040000E0700000E0700000E0700000E0700005C
:100050000E0700000E070000CA0100000E07000096
:100060000E0700000E0700000E0700000E0700003C
:100070000E0700000E0700000E0700000E0700002C
:10008000800100000E0700000E0700009001000034
:100090000E070000880100000E0700000E07000098
:0800A0000E0700000000000043
:1000A800511126C022C206C4828282441244A24050
:1000B80031018280634E050263C305042E86AA853A
:1000C8007D5515C285466378B6006356C00006069E
:1000D8008606E36CB6FE014563E4C500918D558D37
:1000E80085820582F5FA82808682C93F2E858282C2
:1000F8003305A0406347B000B305B040C1B7B305AE
:10010800B0408682653F3305A0408282868263C7FD
:100118000500634905005D372E858282B305B0402E
:10012800E35B05FE3305A040513F3305B0408282B2
:1001380000002A8309CA83830500230073007D1603
:10014800050385056DFA82802A8311C62300B30052
:100158007D16050365FE8280B707EFBE37E700E02E
:10016800938707083CC701A0B707EFBE37E700E051
:10017800938707083CC701A0EF30004F7300203079
:10018800EF30C0087300203037350140854513052E
:1001980005C0EF10B06019CDEF30201637070020EA
:1001A80083470709CD46850793F7F70F63E6F600FF
:1001B8002308F7087300203023080708EF3050623F
:1001C800D5BFEF10D07E73002030EFF27FED0545EC
:1001D800EF100030C129EF101074EF10E05913052B
:1001E8004006EF103079EF40D058EF20004CEF2058
:1001F800703AEF409062EF30E023EF201049EF2093
:10020800B05DEF203031EF20800CEF20D029EF30A7
:100218000013EF30A0571305800CEF10B075EF50A6
:10022800407DEF40F06AEF50D05BEF20700CEF306C
:100238003060F5BFAA873387B70041654207056676
:100248007D1541831306160293960701C182631335
:10025800D700828094238507A206358DA146931581
:10026800050106054205C185418163D30500318D2D
:10027800FD1693F6F60FE5F6C1BF1041B7464643A3
:10028800938616736311D60412258946AA870145F9
:10029800631DD602B627639AB60213070002636687
:1002A800D702945B3767A55A130757AA639FE600DE
:1002B800EFF21FDFC2371385C700AD3F3305A440F7
:1002C80013351500DDB3014582808280EFF25FDDD2
:1002D80051112EC032C22AC439C901450DCA37F49A
:1002E800000813050450513F8245AA841305046091
:1002F8006937224399EC01CD930404600246938543
:10030800C4001A853D35DC40124705451CC3310140
:1003180069BB93040450268675D193070460D440C2
:10032800D843BE84998EE35BD0FCB284C1BF01453B
:10033800F9BFEFF2FFD61301C1EB37F400082AC268
:10034800130504502EC032C40D3F82452AC613053A
:10035800046025379247324789E701451301411464
:10036800A9B382477D469386F7FFC206C182E3663A
:10037800D6FE9304045001CF9304046009C993077F
:100388000450D840D443158F6353E000BE8413064D
:1003980080029305F00F6808453BB74746439387AB
:1003A80017733EC8A247924568083ECA8947FC842D
:1003B80082473E86FC85B53B82456808A53DB76700
:1003C800A55A938757AA231EA1021306C00C9305AA
:1003D800F00FA818BEC08D3B130640030C08C800D8
:1003E800893B930500102685EF00100191472A8468
:1003F800E315F5F613060010CC002685EF00901BD8
:10040800E31D85F413060010CC002685EF60F00A82
:1004180013351500A1B7B707002003C7870993074D
:1004280040086316F702EFF2BFC7AD2737F500089B
:1004380013050570BD2FB7270240984BA1660145EB
:10044800558F98CB984B1367070898CBB9B90545D2
:100458008280EFF2FFC43704002083475409254700
:100468006111636DF7161D678A07130787CFBA975F
:100478009C4382879307A00A6311F5028547A30A64
:10048800F40821A893075005631AF5148947A30AAD
:10049800F408B707002023990708210139B1B707E5
:1004A800002037070020238CA70883572709AA971D
:1004B8002319F7088D47E1B7B706002003D72609A7
:1004C800B7070020938787092A972399E608982376
:1004D80088B385469307F70793F7F70F63EAF600A3
:1004E8009147A30AF408B7070020238A070875B7BD
:1004F800930700086316F70421C59547DDB737064B
:100508000020834746093707002013078709B306E9
:10051800F700B7050020A8A283D62509850793F719
:10052800F70FAA962399D508230AF6088D46E3F60D
:10053800F6F61423930720086394F6001C33D5FFBE
:10054800994735BF370600208347460937070020FB
:1005580013078709B306F700B7050020A8A283D6BA
:10056800250985071833AA9693F7F70F2399D50815
:10057800230AF608E3F6E7FC0DB7B707002083C7A0
:100588002709639DA7049D47DDBDB707002083D7D2
:100598002709A1836394A704A147D5B593075005FC
:1005A800631EF502A547E1BD9307A00A6318F5028B
:1005B8009D3589476304F50295679387A75A7D158A
:1005C800133515007C80ED77C881938757A5994529
:1005D8000A85230101007C82EF20907AA30A04088F
:1005E8006DBDEFF2FFAB8946B727024037140240D2
:1005F80094C31C403707FF68C17493E717001CC0F9
:100608005C40FD14F98F5CC01C403707D7FE6D179E
:10061800F98F37071000D98F1CC01C403707FCFF23
:100628007D17F98F1CC05C40E58F5CC0B7079D0043
:100638001CC41C4C93E707021CCCB71701409387D6
:10064800074098431377F7F098C398431367070850
:1006580098C394CBEF0070185C4037070001B706C9
:1006680000025CC05C40E58F5CC05C405CC01C4024
:10067800D98F1CC0B71702409843758F75DFD843D0
:10068800B7160240719BD8C3D84313672700D8C355
:100698002147DC42B18BE39EE7FEB72702400947BA
:1006A80098C321B4371702405C43A146B18B6392CB
:1006B800D7045C433775DC02130505C0B716024042
:1006C800D842B70700209387070011833D8BBA975C
:1006D8009C23D84293F5F70F13770708B357F50013
:1006E80011EFEFF2FF9BD93A370700202328A70024
:1006F8006DBA37356E0113050560C9B73707002095
:100708002328F700828001A0970100209381011817
:10071800172100201301818E177500001305C58964
:10072800970500209385858D1706002013060696E9
:1007380063FAC5008322050023A055001105910521
:10074800E3EAC5FE1705002013054594938501BB10
:100758006377B500232005001105E36DB5FE8962B6
:1007680093820288739002308D4273904280970280
:1007780000009382A28893E2320073905230EFF027
:100788005FE697020000938282A47390123473008C
:100798002030B7270140938707406310F502EFF236
:1007A8003F90854513050020EF00307981451305FA
:1007B8000020EF0090786FF05F8F82805841B70774
:1007C800F1FF9387F7EF7D8FDC419441A207D58F26
:1007D800D98F5CC11845B7F7F1FF9387D77FD44508
:1007E8007D8F9C49D58F94458606D58FD98F1CC59A
:1007F8005855B70710FFFD177D8FDC29FD1793F7B4
:10080800F70FD207D98F5CD582801C4589C593E73D
:1008180017001CC58280F99BEDBF1C4589C593E76D
:1008280007101CC5828093F7F7EFE5BF0D473387A4
:10083800E502032305019D47B397E70093C7F7FF38
:10084800B3F76700B396E600DD8E14C9994763E2F3
:10085800C70295477D163306F6025859FD47B397E8
:10086800C70093C7F7FFF98F3396C5005D8E50D93F
:100878008280B14763E2C702954765163306F602E0
:100888001859FD47B397C70093C7F7FFF98F3396F9
:10089800C5005D8E10D9828095474D163306F60245
:1008A8005855FD47B397C70093C7F7FFF98FB3951E
:1008B800C500DD8D4CD582801C4591C537071000D9
:1008C800D98F1CC582803707F0FF7D17F98FD5BFF8
:1008D8005C4189C593E707405CC1828093F7F7BF05
:1008E800E5BF1C4565777D17F98FCD8F1CC58280C4
:1008F8001C4589C52167D98F1CC5828061777D1702
:10090800F98FDDBF1C4591C537872000D98F1CC5DD
:1009180082803787DFFF7D17F98FD5BF0D47338773
:10092800E502032305019D47B397E70093C7F7FF47
:10093800B3F76700B396E600DD8E14C9145D93071C
:10094800260013D746010D8B998F93F7F70F15479C
:10095800B387E7027D473317F7001347F7FF758F13
:10096800B395F500D98D0CDD82801C5D3707D0FF6B
:100978007D17FD15F98FD205DD8D0CDD8280711193
:1009880002C02AC0824793878702AE973EC082473B
:10099800884311014205418182801C4133F5F500ED
:1009A8003335A000828093C5F5FF0CC182805C417D
:1009B80091C537070004D98F5CC18280370700FCD6
:1009C8007D17F98FD5BF3C49F99B3CC93C49CD8F70
:1009D8003CC982801C4141677917F98F1CC12320CB
:1009E80005002322050023240500B707024023261B
:1009F8000500138787006317E500D8431367F700DE
:100A0800D8C382801387C7016316E500D8431367EC
:100A1800070FFDB7138707036318E500D8438566FA
:100A2800938606F0558FE9BF138747046315E500E1
:100A3800D843BD66C5BF138787056316E500D8434D
:100A4800B7060F00C5B71387C7066316E500D84376
:100A5800B706F000C1BF13870708E314E5FAD843C7
:100A6800B706000FC1B71841E177BD0794517D8FD4
:100A78009C45D58F9449D58FD449D58F944DD58F22
:100A8800D44DD58FD451D58F9455D58FD98F1CC1BE
:100A9800DC455CC19C411CC5DC415CC582801C41B5
:100AA80089C593E717001CC1828041677917F98FC0
:100AB800DDBF1C4101C6CD8F1CC1828093C5F5FFE7
:100AC800FD8D0CC18280B70702409C437D8D333574
:100AD800A0008280B7070240C8C38280EDB7B7077D
:100AE8000240C8C38280B72602409C4A0177130798
:100AF800F7FDF98F9CCAA1676319F60037270240F2
:100B08001C4BB7068000D58F11A893070040631FC0
:100B1800F602372702401C4B93E727001CCBB72768
:100B28000240C8CB984B1367070498CBD847058B6E
:100B380075FF2167FD156315E602984BB70680FF20
:100B4800FD16758F98CB3295D5F9828093070010E2
:100B5800E317F6FC372702401C4BB706020065B7BF
:100B6800130700406319E600984B13050540759B71
:100B780098CBC1FD828013070010631BE600984BD9
:100B88008176FD16758F98CB13050510BDFD828003
:100B9800ADFD8280B7066745B727024093863612B7
:100BA8003797EFCDD4C31307B79AD8C3D4D3D8D3C4
:100BB8008280370700F8BD672A979387F77F63EC31
:100BC800E702B7270240984B81769386F6FD758F2A
:100BD80098CB984BB7060200558F98CBC8CB984B4B
:100BE8001367070498CBD847058B75FF984B817618
:100BF800FD16758F98CB8280B70600F83D67AA96D8
:100C08001307F77F6364D71AB70601083306B500E0
:100C180093860680AA871307D00F63EBC618EFF2F6
:100C28002FC8B364B50093F4F40F41111307E00F14
:100C3800639204146380051437066745372702401A
:100C480013063612B796EFCD50C39386B69A54C39F
:100C580050D354D3216663EFC5041303F6FF3373EF
:100C68006500B30666403384C5403307D5001A943F
:100C78006386C610B684636DC40433068700931573
:100C8800160193D215013A8381C5617333736600E7
:100C9800B30554403A852166BD813EC636C41AC2A2
:100CA80016C09135A24682421243B247B6841684D2
:100CB8001A8739A81307F03F637BB7089376F53F87
:100CC80093040040958C138405C03307950036942F
:100CD8009306F03F63F8960293F6F73F89C613062A
:100CE8000040B306D640B385D4403385F6001306DA
:100CF8000040A9813AC43EC236C0F5338246224735
:100D08009247B6849306F03F63F986023306E400FF
:100D18009376F63F3A8399C2137306C0B305D4405D
:100D28003A8513060040A9813EC41AC236C0653B05
:100D380082461243A24736841A87A5C013060010BC
:100D480093D584003E853AC0793B0247B9A0930702
:100D5800F00F63F6B70013060010A1816933B727B7
:100D68000240984BA166558F98CB984B136707089C
:100D780098CB11473A8541016FF02FB3216685451D
:100D880036C23AC02AC4853392460247A247637DD9
:100D9800D4009306F03FE3EB86F671D013060010FB
:100DA800935584003A855DBF8146C1BD1307F00F96
:100DB8003A858280B70600F83D67AA961307F77F41
:100DC8006365D70E37070108B306C5001307078008
:100DD800AA871305D00F636DD70C33E7C7001377C5
:100DE800F70F1305E00F69E761C65111370567452D
:100DF8003727024022C426C213053512B796EFCD15
:100E080048C39386B69A54C348D354D3144B017538
:100E18001305F5FDE98E14CB41777D173E859D8D31
:100E28002182B7270240C166370304003AC0984BB5
:100E380037040800B383A500558F98CB984B418F92
:100E480098CBD847058B75FF930200103384E300D5
:100E580004403304E50004C0804B3364640080CB55
:100E6800C047058875FC1107E31257FEC8CB984B9D
:100E7800930205101367070498CBD847058B75FFB5
:100E8800984B02457D16698F98CB11EE984BA16659
:100E98002244558F98CB984B924411451367070805
:100EA80098CB31018280168559B71305F00F8280DF
:100EB8008280944593F7060113F3F60081C7DC415D
:100EC8003363F30083D2050093F7F20FA9CF0C41E7
:100ED800611122C226C08147930380023D449304D6
:100EE800800405473317F70033F6E2006310C702A2
:100EF8006397760258C9139627003317C40013471F
:100F0800F7FF6D8F3316C300B365E60085072147E9
:100F1800E399E7FC12440CC1824421018280E39CDE
:100F280096FC18C9C9BF82801C4533F5F5003335D6
:100F3800A00082800CC9828037030140B7070008EF
:100F48008326C3001356050113170501E98F3D8A4F
:100F58004183BDC7B7073000B372F5006394F2024E
:100F6800370600F97D16B3F7C6008326C300F18E55
:100F78002326D30095C54581137505073317A700A8
:100F8800D98F39A8B7074000E98F99CF9D47B39704
:100F9800C70093C7F7FFF58F81C53316C700D18FF8
:100FA800370701405CC78280B70720006393F200CF
:100FB80041069D47B397C70093C7F7FFF58F5DBFFD
:100FC800B7071000E98F99C3BD47EDB793571501CF
:100FD80093F70707B317F700C5B7EFF26F8C5111F6
:100FE80085451305C00302C002C202C4092FB7F722
:100FF800FF1F03A74770B7065200938606609377D2
:10100800F7F06386D70A63E2F60CB70624009386E6
:1010180006606380D72063E0F604B7062200938653
:101028000660638FD72463EFF600C1779387F7F0E4
:10103800F98F3707200013070760639BE7009307C2
:10104800900F35A837072300130707606384E7204C
:1010580031016FF08F85B706500093860660638371
:10106800D71A63E0F604C1779387F7F07D8FB70747
:10107800400093870760E39DE7FC9307900E3714C1
:1010880001407C808A8593078002130504803EC452
:101098000D359307F0077C808A85130504C0113D40
:1010A80045BF3707510013070760E393E7FA930733
:1010B8009006371401407C808A85930780021305C7
:1010C80004803EC4FD33AD47F9B737076400130702
:1010D8000760E386E7F66361F706370762001307E0
:1010E8000760E38CE7F86364F704370753001307D6
:1010F8000760638DE70C3707610013070760E39902
:10110800E7F493070008371401407C808A85930729
:101118008002130504803EC4693B930740078A8513
:10112800130504C07C8071339307800CADA037078A
:1011380063001307076081B7371773001307078029
:101148006386E702636BF7003717700013070780A1
:101158006388E704370771004DB737177400130722
:101168000780E397E7EE9307000C71BF9307000C25
:10117800371401407C808A85930780021305048018
:101188003EC4053B930740078A85130504C07C804D
:101198000D339307900C7C808A853715014001B781
:1011A8009307000C371401407C808A8593078002DE
:1011B800130504803EC4F539930740078A85130553
:1011C80004C07C80FD319307B00CF1B793079006FB
:1011D800371401407C808A859307800213050480B8
:1011E8003EC4C139AD478A85130504C07C80D1311E
:1011F8009307C0028A85371501407C805D399307C3
:10120800C006A1A09307800C7C80930780023EC48F
:1012180061B79307900F371401407C808A85930744
:101228008002130504803EC469319307F0078A855C
:10123800130504C07C80B5399307900E8A8537154D
:1012480001407C80BD319307D0087C808A851305D6
:101258000440B1B59307900F371401407C808A850C
:1012680093078002130504803EC4A1319307F00759
:101278008A85130504C07C802D39930760029DBFC1
:101288009307900F371401407C808A85930780026A
:10129800130504803EC431399307F0078A85130586
:1012A80004C07C803931930700028A8537150140D4
:1012B8007C800131B54751BFEFE29FDE5E211111FD
:1012C800AA84C207C18393F707FCC207C183280019
:1012D8002E843EC2AD26C247B7450F00938505242C
:1012E8003E853EC0EFE09FDD92470C40C98FC207A4
:1012F800C183DEA09E20C207C183F99BC207C183B8
:101308009EA0E1679387076A63E5B70402458605EF
:10131800EFE0DFDAAA874205418191466373D50081
:101328009147C207C183DEAC9E205620322493E742
:1013380017009EA09E20D18EC207C18393F757BF86
:10134800D58F9EA016245E24D58F9EA471016FE0D0
:10135800DFD57620B167FD176393F6028D47B38515
:10136800F5020245EFE09FD593170501C1839396D7
:10137800470199E293E71700A166D58F6DB7E54756
:10138800B385F5020245EFE07FD393170501C183CA
:101398009166D58FE9BF1E2189C593E717001EA165
:1013A8008280C207C183F99BC207C183CDBF1E21BA
:1013B80089C593E707101EA18280C207C18393F7EE
:1013C800F7EFC207C183C5BF1E2189C593E7072070
:1013D8001EA18280C207C18393F7F7DFC207C183CA
:1013E800C5BF1E2189C593E707401EA18280C20799
:1013F800C18393F7F7BFC207C183C5BF0EA9828017
:101408000A291375F50F828093F7E50F19C293E740
:1014180015001EA982801E2189C52167D98F1EA1AA
:101428008280C607C583E5BF1E219385058089E9AB
:10143800056713070780D98FC207C1831EA1828061
:101448007D771307F77FF98FD5BF5E290A2D4205EF
:101458005D8D6D8D220521810D8D133515008280DE
:10146800611102C002C293D7C5012AC23EC0824799
:10147800A205A18199CB9247D1073EC292478843E2
:1014880021016D8D3335A00082809247C181E1072B
:10149800EDB7B737004088C38280B7370040C8C36C
:1014A8008280B737004088C78280AD6737370040F1
:1014B8009387A7AA1CC38280B567373700409387F4
:1014C800C7CC1CC3371702405C53898BF5DF828079
:1014D80023A6A184828003A7C184854714216310B1
:1014E800F7021C31639CE7023C219A0793E707F84F
:1014F80037E700E093F7F70F36972300F7400547E3
:1015080093D756003317D700544189CE93870704E1
:101518008A07B7E600E0B69798C38280EDF33C21CE
:101528009A07F9B793870706B7E600E08A07B697E0
:1015380098C30F1000008280B707674537470240FD
:10154800938737121CCBB797EFCD9387B79A1CCBED
:101558008280374702405C43B7060080D58F5CC362
:101568008280374702401C433706C1F1130626A084
:10157800F18F10410C595443D18F504192050A06FE
:10158800D18F10451206D18F50451606D18F1049BC
:101598001E06D18F50492206D18F104D2A06D18FB1
:1015A800504D4206D18F10514A06D18F50515206E4
:1015B800D18F105566065D8E5C558607CD8FB7E5D1
:1015C800E0FF9385950CED8ED58F5459A206D58FE3
:1015D800145DAE06D58F545DB206D58F3441C20670
:1015E800D58F7441C606D58F3445CA06D58F744544
:1015F80010C3D206D58F5CC3828085473747024027
:101608006317F5005C4393E717005CC382805C4373
:10161800F99BE5BFB7160240DC423707FF7F130787
:10162800F77FF98FC98FDCC28280371702405C537D
:1016380009C593E717005CD38280F99BEDBFEFE201
:101648003FA6371702405C43A1462A84B18B6394B6
:10165800D7085C43B777DC02938707C01CC03716EE
:101668000240544237070020130787029182BD8A3F
:101678003697082358429375F50F1377070833D523
:10168800A70001E73E85EFE07FA348C008C448C42F
:10169800B7170240DC438D46AD83FD8B13D7370067
:1016A8008A07F18BD98F13F6370113F7370063F4E4
:1016B800C600138747FFB7170240DC4363CA070019
:1016C800B707002093874701BA978C23EFE01F9F45
:1016D80008C86FE09F9DB7376E0193870760BDBF4D
:1016E80099C5371702405C4BC98F5CCB8280B7170E
:1016F8000240D84B1345F5FF798DC8CB828099C538
:10170800371702401C4FC98F1CCF8280B717024081
:10171800984F1345F5FF798D88CF828099C5371783
:1017280002405C4FC98F5CCF8280B7170240D84F08
:101738001345F5FF798DC8CF828099C537170240C8
:101748005C47C98F5CC78280B7170240D8471345EA
:10175800F5FF798DC8C782801357550085476319EF
:10176800F700B71702409C4333D5A700058982804C
:10177800B7170240DC53CDBF371702405C53B7069A
:101788000001D58F5CD382801E218D669386060466
:1017980033F7D700B6219E21D58FD621D58FF621D4
:1017A800D58F9625D58FB625D58FD625D58FF625F5
:1017B800D58FD98F1EA19E291EA982801E2189C579
:1017C80093E707041EA18280C207C18393F7F7FB42
:1017D800C207C183C5BF4EA582800A256D8D3335EA
:1017E800A00082801E319206C207C183F99BC207FE
:1017F800C1831EB11E2D1A3103538501C207C1834F
:101808003363C30093F7C7F0558ED18FB7360140C5
:101818004207C207231C6500938606C04183C18323
:101828006306D500B70600406316D500759BD98DB1
:1018380013E715001EAD1AB182801E31056313032C
:10184800F3CFC207C183BD9BC207C1831EB11A2D46
:1018580022061E3133776700035385014206418211
:10186800B2063363C300558E518FB7360140C207A5
:101878004207231C6500938606C0C1834183630623
:10188800D500B7060040631AD50093F7F7FD920517
:10189800DD8DC205C18193E705011AAD1EB18280B5
:1018A800B7370140938707C06306F500B7070040C4
:1018B800631DF5021E21BA21C207C18393F7F7F809
:1018C800D98FFA2193F7F7CFD98F1EA1DE215EB504
:1018D8009E211EB5B7370140938707C06314F500F2
:1018E8009C251EB985475EA98280B717004093875B
:1018F8000780631CF5001E21BA21C207C18393F734
:10190800F7F8D98F1EA1DE215EA582801E319A21AB
:1019180003D38500C207C183F99BC207C1831EB1E7
:101928001E315221162DC207C183C206C18293F609
:10193800C6F8D98EBA21F59B42063367E300D98FE2
:1019480037370140130707C041826316E502BA25FD
:10195800DD9B03D3E500D98FDA21ED9B1376F6CF13
:10196800D98FDA2533676700598EFA2152A116AD4F
:1019780058D91EB1828037070040E318E5FE0357A7
:101988004504060342074183499B420741832312CA
:10199800E50483524504DA2183D3A5000983B3E221
:1019A8007200336757003367670042074183231289
:1019B800E50465BF1E3165771307F7CFC207C183FA
:1019C800BD9BC207C1831EB11E315221162D03D300
:1019D8008500C207F98E9A21C18393F7F7FD220784
:1019E800D98EBA214206C2063367E3001207D98F9F
:1019F80037370140C207130707C04182C182C1833C
:101A08006314E504BA2593F7F7F703D3C500120763
:101A1800D98FDA21C207C183120793F7F7FBD98F51
:101A28007D771307F73F718FF225C207C1833366AD
:101A380066000A06518F131607014182FA2152A146
:101A480016AD18DD1EB1828037070040E318E5FEA9
:101A5800035745040E03420741831377D7FC420717
:101A680041832312E504BA25835245040A073367E4
:101A7800670003D345001353130033E36200336751
:101A88006700420741832312E5044DBF1E317D776D
:101A98007D17F98F1EB11E315221562D6577130718
:101AA800F7CFF98E9A2103D3850042062207D98EF3
:101AB80079777D17F98FBA21C206418233676700AB
:101AC8003207D98F37370140C207130707C0C182D1
:101AD800C183631BE50071777D17718FD2251A06C4
:101AE800518F131607014182FA2152A156AD38C110
:101AF8001EB1828023100500231105002312050062
:101B080023130500231405002315050023160500DB
:101B1800231705008280854723100500231105003F
:101B28005EA123130500231405008280B737014006
:101B3800938707C09DC16306F500B7070040631788
:101B4800F5001E2193E717001EA139A0B717004022
:101B580093870780E307F5FE82806306F500B707E1
:101B680000406319F5001E21C207C183F99BC20713
:101B7800C183D9BFB717004093870780E31EF5FCE0
:101B8800DDB78357450491C52167D98F2312F50422
:101B98008280C607C583DDBF5E2501C6CD8F5EA5E1
:101BA800828093C5F5FFED8FDDBF1E25C207C18377
:101BB80093F7F7F8CD8F1EA58280B737014093873A
:101BC80007C09DC16306F500B70700406317F5001D
:101BD8001E2193E707081EA139A0B7170040938775
:101BE8000780E307F5FE82806306F500B70700402B
:101BF800631AF5001E21C207C18393F7F7F7C207DE
:101C0800C183D1BFB717004093870780E31DF5FC58
:101C1800D5B7B7370140938707C06306F500B70704
:101C280000406319F5001E2DC207C183DD9BDD8DC1
:101C38000EAD8280B7170040938707806319F500BF
:101C48005E218D81C207C183F99BDD8D4EA1828003
:101C5800B7370140938707C06306F500B707004010
:101C6800631DF5001E2D7D771307F77FF98FA205F9
:101C7800CD8FC207C1831EAD8280B71700409387FE
:101C880007806319F5005E218981C207C183F59B2E
:101C9800DD8D4EA18280B7370140938707C02E871C
:101CA8006306F500B7070040631DF5004E2DFD776C
:101CB8009387F77FFD8D2207D98DC205C1814EAD6F
:101CC8008280B7170040938707806318F5005E216C
:101CD800C207C183DD9BDD8D4EA182801E31920536
:101CE800C207C18393F7F7FDCD8FC207C1831EB129
:101CF80082801A318547B397B70093C7F7FFF98FEA
:101D08001EB11E313316B600D18FC207C1831EB172
:101D180082805E21C207C18393F7F7F8C207C183A7
:101D28005EA15E21CD8F5EA18280B7370140938787
:101D380007C06306F500B7070040631DF5001E25C0
:101D4800C207C183E19BC207C1831EA51E25CD8F93
:101D58001EA58280B7170040938707806310F5029D
:101D68001E21A205C207C18393F7F78FC207C1835B
:101D78001EA11E21CD8FC207C1831EA18280B73745
:101D88000140938707C06306F500B7070040631456
:101D9800F5004CD98280B7170040938707806313FA
:101DA800F5000EA98280B7370140938707C0630604
:101DB800F500B70700406314F5000CDD8280B71703
:101DC8000040938707806313F5004EA98280B737D8
:101DD8000140938707C06306F500B7070040631406
:101DE800F5002CC18280B7170040938707806313E2
:101DF800F5004EAD82801E2DC207C183CD9BC20760
:101E0800C1831EAD1E2DCD8F1EAD82801E2D7D7708
:101E18001307F73FF98F1EAD1E2DA205CD8FC20700
:101E2800C1831EAD82805E2DC207C183CD9BC207D0
:101E3800C1835EAD5E2DCD8F5EAD82805E2D7D77D8
:101E48001307F73FF98F5EAD5E2DA205CD8FC20750
:101E5800C1835EAD8280EFE2AFA49A21BE21D22178
:101E680096252A84AE8409EBBE85EFF0BF97EE2055
:101E7800228551376FE06FA391456319B700BE857E
:101E8800EFF0BF9BEE2022855137EDB72145EE20BC
:101E98006314A7061A309206420741831377F7EFB7
:101EA800420741831AB05A2C0A300353C40142072F
:101EB80041831377C7F0518F558F3363C300B7360B
:101EC800014042054207231E6400938606C04181F3
:101ED80041836306D400B7060040631AD400137523
:101EE800F5DFA207C98FC207C18313E507105AACF3
:101EF8000AB022850D3FBDBF1A307D757D15698FEB
:101F08001AB04A2C05631303F3CF1A3033756500F2
:101F180022060353C40142064182B2063363C3005A
:101F2800558E518DB736014042074205231E640085
:101F3800938606C0418341816306D400B7060040FA
:101F4800631BD400F976FD16758FB207D98FC207C7
:101F5800C18305675D8F4AAC1AB02285C53519BFA4
:101F680037370140130707C0AA876306E50037071C
:101F780000406316E500885F42054181828037177B
:101F88000040130707800145E39AE7FECA2BEDB727
:101F980093C5F5FFC205C1810EA982801E294A2575
:101FA800ED8F4205418189C76D8D3335A000828050
:101FB8000145828093C5F5FFC205C1810EA98280C3
:101FC800EFE20F8E1629F577FD17FD8EFE21DA2533
:101FD8002111D58F1EA95625FD779387379FFD8E32
:101FE800DE212A84AE84D58F9625D58FB625D58F48
:101FF8005EA55E29C207C18393F7F7CFD98F5EA983
:102008004800EFF0CFE3B747014093870780631597
:10201800F404C24765453385A7028C408A05EFE082
:10202800EF89930540062AC0EFE04F8993144500D5
:10203800024593054006EFE02F8B120593054006F5
:1020480013052503EFE08F873D89458D42054181C2
:102058000AA461016FE06F85B2476DBF5E2589C52F
:102068000967D98F5EA5828079777D17F98FDDBFE3
:1020780013F7F50F85471583B395B7006319F70074
:102088009307C500984301CE4D8F98C38280894637
:1020980093074501E318D7FE93070501E5B793C5F4
:1020A800F5FFF98D8CC3828093F5F51F4EA18280D0
:1020B8004A211375F51F82805E2989C593E7870039
:1020C8005EA98280C207C183DD9BC207C183CDBFE1
:1020D8000A216D8D3335A000828013F7F50F8546F0
:1020E8001583AA873395B6006310D702DA279E2393
:1020F800798DC207C18301C9A18105473317B7008C
:10210800F98F3335F000828089466314D7009A2B03
:10211800F9BFDA2BE9BFEFD2BFF8B707002003A554
:102128000701B7157A0093850520EFD03FF913759D
:10213800F50F2389A1849307803E3305F502239880
:10214800A1846FD09FF6B7F700E0D843799BD8C336
:1021580003C721853307A70298CB23A40700984318
:102168001367170098C3D843058B75DF9843799B8D
:1021780098C38280B7F700E0D843799BD8C303D7C8
:1021880001853307A70298CB23A407009843136758
:10219800170098C3D843058B75DF9843799B98C37C
:1021A8008280732500308280731005308280EFD2E0
:1021B8003FEF2145EFE09F9211C90545EFE03F92BF
:1021C800A38A0184239C01846FD03FEE2A841145A1
:1021D800EFE0DF901DC11145EFE07F908147014797
:1021E80013860186A94593961700B296962285070D
:1021F8003697E39AB7FE23AEE1840945EFE01F8ED8
:1022080061D50945EFE0BF8D03C7318519C7A38A9A
:1022180001840547238AE18445BF03C7418501C777
:10222800238A018455B7A947938601865146139797
:10223800170036971A2385073A94E39AC7FE03A531
:10224800C185D14529052295EFD05FE703C75185A0
:1022580001CB03D781854205418105073A95058160
:1022680042054181239CA1848547A38AF184A9BFA3
:10227800EFD21FE33D379307800873B007300F1084
:102288000000239C018423AE0184A38A01840547AE
:10229800238AE184113F6FD05FE1EFD27FE02A8487
:1022A80009379307800873B007300F100000133404
:1022B8001400A389818483C7318599C7239C01842D
:1022C80023AE0184A38A0184C5356FD01FDEEFD207
:1022D8003FDD130181FA614681454808EFD0DFE60A
:1022E8001306C00281456810EFD01FE685450545F5
:1022F80002C402C602C802C002C2EFF06FBE854522
:1023080013050022EFF0AFBF0145EFF0AFB037156E
:102318000140930700042C001305054037240140B1
:102328007C8402C8EFE0FFB813050440EFE06FC6F5
:102338000547B70706004C08130504402304E102CB
:102348003ED002CA02CC02CE02D2EFE02FC78D46A1
:102358000546A54513050440EFE04FCD8545130517
:102368000440EFE08FE09D4605469945130504407B
:10237800EFE0CFDA9D6513050440EFE08FD6814585
:1023880013050440EFE0CFD6814513050440EFE084
:102398002FD4854513050440EFE0EFE2814513058E
:1023A8000440EFE0CFE0B704024013858400EFE07B
:1023B8006FE29307C4443ED6938701863ED8D1473F
:1023C8003EDC93070008BEC093070010BEC2930707
:1023D8000040BEC4930700026C10BEC6138584007B
:1023E8008967BEC802DA02DE82CAEFE0CFE7054598
:1023F800EFE04FEE0546B94513858400EFE06FEB3B
:10240800D94705470A857C803AC223010100EFF0CD
:102418008F8C239C0184239B018423AE0184A38A8F
:102428000184238A0184994513050440A389018402
:10243800EFE06FD7854513050440EFE00FBE8545F3
:1024480013858400EFE0AFE5854513050440EFE010
:10245800CFBB0945CD39854513050440EFE0CFC50D
:10246800056513050596EF00F031053D1135E16767
:102478009387076A83C6518581EEFD17E5FF0145FD
:10248800EF005030193DED33130181056FD0FFC1C6
:102498001145CD3183D78185C207C183239BF18440
:1024A800F9BFEFD2FFBF6111AA84E53991E48147F2
:1024B8003E8521016FD07FBF9307800873B0073036
:1024C8000F10000083C7518503D4818503D7618528
:1024D80093F7F70F3EC2420741833AC0F131924762
:1024E80042044180E9D70247814663568700198C28
:1024F80093160401C18296A065BFEFD27FBA372434
:102508000140814513050440EFE00FBB1145253913
:10251800130504409145EFE00FC9130504408545B4
:102528006164EFE02FBE1304046AB7240140B727A3
:102538000140914513850740EFE02FC61DE17D144A
:102548007DF4B7240140138504409145EFE0AFC501
:10255800138504408545EFE02FB6193B22856FD0DF
:10256800DFB4D14513850440EFE06FC12A84D1BFA1
:102578007111E147DC8198819307F7FF93F7F70F13
:10258800DC8119E3110182800100F5B7EFD25FB158
:102598005111231101009947371701401CCB7C804A
:1025A8002AC485478A85371501403EC2EFE07F90EF
:1025B80031016FD09FAFB757004005669306803E44
:1025C80093870740130606F0DA2B698F19C3014574
:1025D8008280DA2B718F19E3FD16FDF6054582809E
:1025E800EFD21FACB72706004111938707A83EC05A
:1025F800B7070040375400403EC2B70700043EC446
:102608008A859167130504403EC6EFE0FFCABD65A1
:10261800130504409385F57FEFE01FE18545130519
:102628000440EFE05FD741016FD03FA8EFD25FA72A
:1026380037550040814513050540EFE0DFD551458A
:10264800B137B7170140194798CB1D37254489453D
:1026580037150140EFE05F8D09ED9147B714014050
:10266800DCC8393791477D149CC81374F40F0937B7
:1026780079FC3714014099475CC8DD3D91471CC877
:10268800C53D89471CC8ED357145093737540040A9
:10269800130504408545EFE01FD881451305044024
:1026A800EFE07FD7353F6FD05FA0EFD27F9F83C722
:1026B800818851119DEB8545454502C002C202C47F
:1026C800EFF0EF83854537052000EFF02F85994718
:1026D8007C808544F1478A85371501403EC426C26F
:1026E800EFE02FFDF53D2384918831016FD0FF9BEA
:1026F800EFD21F9B41112AC22EC436C061CAF9C647
:1027080032849307803EB75400403EC6B757004016
:1027180013850740B7050200EFE09FD4B24745E5AF
:10272800854513850440EFE09FC8B704030093076D
:10273800803E93851400B7540040138504403EC67C
:10274800EFE0BFD0B707030093851700B24759C120
:1027580092471385044001469395170093F5E50FBA
:10276800EFE09FCAB70407009307803E93852408CB
:10277800B7540040138504403EC2EFE01FCDB707B1
:10278800070093852708924729C9A2451385044065
:10279800B7040700EFE09FC69307803E9384440880
:1027A80037550040A685130505403EC2EFE0FFC936
:1027B80092471DC53707001093070708A2843EC239
:1027C8001307803E1DA0FD17A9F38D35054541016E
:1027D8006FD0BF8DFD17A5F3CDBFFD17D1FBF5B7A2
:1027E800FD17DDFFDDB77D176DD39245B756004065
:1027F800138506403AC4EFE0BFC62247B7560040EB
:102808007DD18C20138506408504EFE03FBF8247C9
:1028180093F6F40F3307F4001377F70FE312D7FAA0
:10282800370407009304803E93054408375400405A
:1028380013050440EFE07FC1B707070093854708F9
:1028480001C9130504408545EFE01FB8014541B7AC
:10285800FD14E9FC9DBFEFD2BF8431112AC22EC4FA
:1028680036C06307061663850616375400401305FD
:1028780004408545B284EFE0DFB6BD65130504402A
:102888009385F57FEFE05FBA835744417D7713075F
:10289800F70FF98F130404401307803E5EA81E2C1F
:1028A800898B6392071222858545EFE05FB0054565
:1028B8001933631D0510924722850146860793F751
:1028C800F70FBE853EC2EFE03FB40945EFF0BFCE3B
:1028D800631E050E5E28A2452285C207C1837C8639
:1028E8001E2CC207C1837C863C86EFE03FB11145B0
:1028F800EFF07FCC631C050C22858545EFE03FABEC
:102908000545EFF05FCB79E1024789476318F70087
:102918008565938505802285EFE01FB19245375480
:102928000040054613050440EFE01FAE0945EFF0EF
:102938009FC82AC241ED02478547631EF708EFF09A
:102948005F862AC09307800873B007300F10000015
:10295800814513050440EFE0DFA883574441130481
:1029680004408545C207C1837C871E2C2285C20787
:10297800C1837C873C87EFE03FA50245EFF0DF820B
:1029880013050004EFF03FC331E12285EFE05FA7B4
:1029980088A0375500401307803E130505401E2DBB
:1029A800898B639307148545EFE0BFA3BD65B757CF
:1029B80000409385F57F13850740EFE0FFA6124599
:1029C80051016FD08FEE7D17E31B07ECEFF01FC6A8
:1029D80085473EC2EDB702478947631CF706EFF00B
:1029E8004FFC2AC09307800873B007300F1000000F
:1029F800814513050440EFE0DF9E835744410245BB
:102A080013040440C207C183FC801E2CC207C18383
:102A1800FC80BC80EFF04FF91145EFF0DFB95DF5B0
:102A2800EFF02FF82AC09307800873B007300F1013
:102A3800000085452285EFE03F992285EFE05F9C05
:102A480088A02285EFE0DF9B88B00245EFF0CFF544
:102A580089B783574441C207C183FC8183578441A6
:102A6800C207C183FC81BC818247A69713F4F70F84
:102A7800B307944093F7F70F0D476397E7041145A1
:102A8800EFF07FB321F5375400408145130504402A
:102A9800EFE03F9513050440EFE09F9688A01145AD
:102AA800EFF07FB1E31405F2854513050440EFE02C
:102AB800BF9113050440EFE0BF9488B013050440AC
:102AC800EFE01F94A8A0F1B513050004EFF0BFAE26
:102AD800E31E05EE37550040130505408504EFE079
:102AE8003F92A38FA4FE69B77D17E31A07EAF9BDE1
:102AF800EFD20FDB05456164EFE03FB31304046ACE
:102B080013051006EFE05FC509E57D1475F86FD071
:102B1800CFD9156513055555EFE0BF971945EFE077
:102B2800DF971305803EEFE0DF97EFE01F98EFE0B7
:102B3800BF98F1BF6FE07F97EFD28FD6FD7693866F
:102B4800066A3111AA84B6876343D500AA8713960B
:102B58000701856641869386069663D3C600B687C5
:102B68001397070141873AC6370700208316870362
:102B7800139707014187638EE60813950701854778
:102B88003EC04181634B900002C081C8B307A0409A
:102B980013950701FD5741813EC00564130404964F
:102BA800098C93170401C1833EC48386A18836C863
:102BB800D12E2AC2EFF06FEE8247C246638FD70448
:102BC800EFF00FEB9247814537050040A384F18869
:102BD800EFF06F9D373501408145130505C0EFF0D3
:102BE8000F9A85659385059663C4040437050040EC
:102BF800EFF06F9BA24537350140130505C0EFF094
:102C08000F9802472385E1883247B7070020239CA5
:102C1800E702324551016FD04FC983C69188924768
:102C2800E381F6FCEFF0CFE49247A384F18855BF27
:102C380037350140130505C0EFF06F94A2453705FD
:102C48000040EFF04F9675BFEFD28FC52A8401453B
:102C5800152EEFF08FE4EFF0AFE10DCC05643735BA
:102C6800014093050496130505C0EFF04F919305B5
:102C7800049637050040EFF00F9323850188856798
:102C88003707002093871796231CF702A38401882F
:102C98006FD0AFC1373501408145130505C0EFF04E
:102CA8000F8E8145F9B7EFD2AFBF71110A868946F9
:102CB8008D451945EFF03FBA11016FD00FBFEFD224
:102CC8002FBE711189460A868D451945EFF0BFB8A8
:102CD80011ED1C80988011659A070983D98F7D159D
:102CE8001D8D4205418111016FD02FBC41657D15B5
:102CF800DDBFEFD2EFBAE137C167FD17630AF50010
:102D0800A567938707CA3305F502398142054181D2
:102D18006FD0AFB9EFD2CFB8130141FA130600054F
:102D28008145680002C002C202C4EFD0EFC1EFE0E3
:102D3800BF8085451145EFE09F9C371501408A8586
:102D4800114413050580608002C4EFE08F96854723
:102D58006800BEC2BECCBEC6BEC8A2C002DC82C469
:102D680002DEEFE01F800545EFE03F89EFE06FFEF0
:102D78001301C1056FD06FB3EFD28FB281453735DC
:102D88000140EFE0BFA3854537350140EFE01FA3C1
:102D98006FD0AFB1EFD2CFB00565011185454105C0
:102DA80002C002C202C402C602C802CA02CC231E62
:102DB8000100EFE0DF94930700027C80E1473EC406
:102DC8008A858547371501403EC2EFE08F8E93070D
:102DD80000048A85371501407C80EFE08F8DB707A6
:102DE80004013EC6B70700023ECAC1473ECC6C008C
:102DF8009D4737350140FC8602C8EFE0FF988545BE
:102E080037350140EFE09F9B05616FD00FAAEFD2E5
:102E18002FA96111B307B5000964AA843EC0130441
:102E2800047182476394F402930500083735014022
:102E3800EFE0BF9A85476318F5007D1475F419A073
:102E48007D1711E7153F21016FD02FA622878945ED
:102E5800373501403AC2EFE05F98124775D18C20B0
:102E6800373501408504EFE01F9765BFA38E0188C1
:102E7800238E01883735014023AC0188814513052D
:102E880005C0238A01886FE07FE5EFD26FA11301A7
:102E980081FD85451305000202C602C802CA02C0A8
:102EA80002C22314010002CC02CE02D002D2EFE00B
:102EB8001F8585450545EFE07F86A1477C86371548
:102EC800014085473EC86C00E147130505403ECAEE
:102ED800EFD03FFE85679387F7958A8537050040D1
:102EE8003EC202C0EFE0DF9B2808EFE0BFC0C16729
:102EF800938707062C08370500403ECC231F0100A6
:102F080023100102EFE01FAB05469145370500404D
:102F1800EFE03FDEA14537050040EFE07FD3854570
:102F280037050040EFE07FC92808EFE0BFBC9307F2
:102F380000073ECC2C089307004B37050040FC8760
:102F480023100102EFE09FB4A14537050040EFE0F0
:102F58009FD49305000737050040EFE09FDB8145CC
:102F680037050040EFE07FC4914537050040EFE0AA
:102F7800DFDB854537050040EFE05FBB13018102C9
:102F88006FD0AF92EFD2CF9185679387079663EFA3
:102F9800A7009307300D63ECA700370500409305A1
:102FA800004BEFE0DFE201456FD02F903E8585674B
:102FB80013571500938507949387679C3385A7401B
:102FC800998D63F3A500AA85C20537050040C18124
:102FD800EFE0FFDF0545C9BFEFD28F8C056613010F
:102FE80041FC1305468285453714014002D002D2C0
:102FF80002D402C002C202C402C62318010002D6CB
:1030080002D802DA02DC02CA02CC231E0100EFE079
:103018000FEF1147E14785440C10130504402310B6
:10302800E1023ED426D2EFD0DFE8130504808945BB
:10303800EFD05FF089462310D1020C10D14613055A
:10304800048036D4EFD0FFE605661304F69522C651
:10305800373401402C00130504C002C423080100C2
:10306800EFE01F846810EFE0FFA8C16793870706A9
:103078006C10130504C03ED623190102231A01025D
:10308800EFE0DF88130504C08545EFE01FB31305A3
:1030980004C093050002EFE0DFC7A145130504C093
:1030A800EFE03FB74808EFE01FA711474C081305AA
:1030B80004C03ACA26CC231E0100EFE0DFD913056D
:1030C80004C09545EFE01FEF130504C093050040C9
:1030D800EFE01FEC05468545130504C0EFE0DFABC4
:1030E800930750020A857C80448102C2EFE0AFBE9C
:1030F800930730120A857C8026C223010100EFE085
:103108008FBD130504C08545EFE0BFA785451305AE
:1031180004C0EFE0BFA11301C1036FC01FF9EFC2E4
:103128003FF8EFF00F889307800873B007300F104F
:10313800000003D4C18823960188EFF0EF8642048B
:10314800418022856FC07FF6EFC29FF54111094784
:10315800373401402AC07882014605479145130556
:1031680004C02313010023160100231701003AC4E9
:10317800EFE09FA293040002B7E700E023A29718AC
:103188000F1000009145130504C0EFE0BFE293055E
:103198000040130504C0EFE0BFDF23A80188EFF06B
:1031A800FFCC824723960188B9C33715014093079E
:1031B80080044C00130505803EC6EFD09FCF914593
:1031C800130504C0EFE01FDF93050040130504C09A
:1031D800EFE01FDC05469145130504C0EFE0DF9BD7
:1031E800B7E700E023A2971041016FC01FEC371426
:1031F8000140130504808945EFD0DFD3D1474C0047
:10320800130504803EC6EFD0DFCAF9BFEFC25FE9FD
:1032180037350140835705C1130505C013940701CD
:1032280093F7474085C741809377044095C3EFF0F3
:10323800FFC33734014093050040130504C0EFE095
:103248003FD59145130504C0EFE0DFD66FC0FFE519
:10325800EFE01FD183A70189056713070796B38796
:10326800E7020588AA9711C49306F04A63E3A6000B
:10327800BA9703A5818903C7D1893385A74029E770
:1032880083C6C18981CE37D7F2FF13070710B7F677
:1032980002002A97938616E03337D700238AE188FD
:1032A800054723ACF188238EE188A38EE188894500
:1032B80037350140130505C0EFE05FA237350140FF
:1032C8009145130505C049B783C741899DC3E9776F
:1032D800938707245D67AA9713070770636BF70046
:1032E800930500036105EFC07FDD42054181239608
:1032F800A188A38E0188814565BFEFC27FDAB73404
:1033080001408545138504C0EFE05FC91DC5EFE0A6
:103318005FE92A849307800873B007300F10000014
:1033280083A70189138504C08545850723A8F188EB
:10333800EFE05FC82285EFE03FE76FC01FD7EFC21D
:103348003FD6711189460A86854513058004EFF03A
:103358008FD009C5054511016FC03FD5E97793871F
:10336800070689460A868545130580047C80EFF0A8
:103378002FB8D5B7EFC2DFD2711189460A868145C9
:1033880013058004EFF02FCDAA8761759DE338807F
:10339800130510279305803E931787002183D98F43
:1033A800C207C18791873385A702EFC0BFD0420506
:1033B800418511016FC07FCFEFC29FCE41113744C5
:1033C8000140B14702C42AC08145130504807C85A9
:1033D80002C202C6EFE09FC88A8513050480EFE0A9
:1033E8003FBE130504808545EFE01FCD85451305D5
:1033F8000480EFE0BFC641016FC03FCBEFC25FCA98
:10340800374401409305000213050480EFE05FCCC8
:1034180009C513050480EFE0BFC9374501400546DB
:103428009305505213050580EFE09FC4A382018ADB
:103438006FC0BFC7EFC2DFC6AA84116531118545C9
:10344800450502C402C602C802C002C2EFE02FABA3
:103458003705160085451305050CEFD0FFAD05446B
:103468002C00E147371501403EC8608422C6EFD0E2
:103478005FA41385C192EF0030081385818AEF009D
:10348800B0072685A382018A23A0018AEFF0DFF224
:103498003745014005469305505213050580EFE076
:1034A8003FBD930700120A857C80408122C2EFE06D
:1034B8008F822382818A51016FC03FBFEFC25FBEF6
:1034C8005111854423110100231401002315010023
:1034D800648026C21DCD61478A85371501403AC4EC
:1034E80037440140EFD0FF9C854513050480EFE089
:1034F800FFB6054693055052130504802382918A2E
:10350800EFE01FB737E700E02322971031016FC0C3
:10351800DFB9374401401305048001469305505232
:10352800EFE01FB513050480014693057072EFE0C4
:103538003FB401469305606213050480EFE05FB372
:1035480037E700E0232297180F1000008145130584
:103558000480EFE0BFB02382018A1385818AA382A9
:10356800018AEF00607991478A85371501403EC48A
:10357800EFD03F9461BFAA851385C1926F00407B4D
:1035880083C7418A99E701458280014521016FC0BF
:10359800DFB1EFC2FFB061112A8465D92EC0F5D51D
:1035A8001385818AEF00E07B82459307F0072E950B
:1035B800E3CDA7FCB307B4000C201385818A3EC075
:1035C800EF00407482470504E318F4FEEFE07FBD86
:1035D8002AC09307800873B007300F10000003C794
:1035E800518A39E7930571001385818AEF00407489
:1035F80021C1B74401400547014693055052138540
:103608000480A382E18AEFE0BFA6014693056062C9
:1036180013850480EFE0DFA58C8313850480EFE039
:10362800BFA805469305707213850480EFE05FA478
:103638000245EFE07FB7054591BF23A0A18A8280AC
:10364800EFC21FA683A7018A91CF83C7518A99EB3E
:103658001385818A392719E503A5018AEFF0DFD59B
:1036680023A0018A6FC07FA483C7418ACDC7EFC258
:103678003FA337440140711193055052130504804C
:10368800EFE0BFA511CD13050480EFE07FA293758D
:10369800F50F1385C192CC81B52511016FC0FFA02C
:1036A8009305707213050480EFE03FA331C59305BD
:1036B80031001385818AAD2D19C58C8113050480CD
:1036C800EFE09F9ED9BF93057072130504800146F1
:1036D800EFE01F9A9305000413050480EFE05F9F55
:1036E80001C5EFF0BFD155BF0546930560621305CC
:1036F8000480EFE0FF9755B79305606213050480D7
:10370800EFE0BF9D59D90146930560621305048017
:10371800EFE01F96F9B7828081472146131785018C
:1037280061879306800F634407009306000C338774
:10373800F500060514A385071375F50FE390C7FE7A
:103748008280EFC2FF957111AA842E859385019B13
:1037580032C0EFF07FFC26859385819BEFF0DFFB7D
:1037680002459385019CEFF03FFBE1451385019BE2
:10377800EFF0EFE91305C003EFE0FF9C11016FC004
:10378800DF920146814501456FF0BFFB6FF07FFF77
:103798009387819C23A007002382070023930700B7
:1037A80023A407002396070082809387819C130730
:1037B800902B98CB056713070796FAA76FF05FFD64
:1037C8009307F5FFC2070567C1839306F79563F46E
:1037D800F60013050796239BA19C8280EFC25F8C9D
:1037E8001301C1FC32CA630705502A830145638F60
:1037F800054CD04102C09357F64133C7C700B30701
:10380800F7403EC2D24799CB9C4513D7F741B98FB1
:10381800998F93A7470693C717003EC083A2050058
:103828008325430083270300B304B64093D3F441B0
:1038380013D7A40113956300598D13976400BA94A4
:1038480033B7E4001E952A974207C180D98C969415
:103858001167B384974013070765635A971E5D770E
:1038680013070736BA941167B387574013070765DC
:103878006358F71E5D7713070736BA971387819C3D
:103888000315E7001384819C2AD413D5F741A98F27
:10389800898F48235247631D051E63020720E542AE
:1038A80063CFF21E92431307401F634A771E7A20A4
:1038B800C163FD13631F771A054758A002476312B7
:1038C800071E6547638FE71C3D47635AF71EA947E4
:1038D80063DF971E938764FF0567130707303385F7
:1038E800E702B397E7022181E207C98F3EC6324754
:1038F800FD77938767E36353F7003EC632478567D2
:103908009387A71C63D3E7003EC60323830093076E
:10391800400C3307F302B317F3024183C2075D8FEC
:10392800B2472E973E97F1779387678D6353F700D9
:103938003E8791679387A77263D3E7003E87B247B4
:10394800124502D2AE97918F3EC49307F00263DC12
:10395800A700B317C30205452AD263C60700D2479A
:10396800B337F0003ED289679387A7D03305F702B3
:10397800B317F7024181C207C98F3ECC8567938789
:103988000713B302F302B317F30293D2420113955C
:10399800C700B36255003315B302D18763400514DD
:1039A80016D05C2005463EC8C245A2476399C500AB
:1039B80022469307400A63D0C7189307C6F50D66D9
:1039C80013069605B385C7020840B397C70213D6F6
:1039D8000501C207D18F10483ECE935705413306E3
:1039E800C7023ED6E1776353F6006176A16763D3D9
:1039F800C700216692459307701463D8B7148547AA
:103A08001CB4231604009307E004B305F60223153B
:103A18000400B317F602BD81C607CD8FE245825276
:103A28002256BE959695F2429695935205419695E3
:103A38006347B6003306C0406353B6002E86834200
:103A48008400638E0218232004000145A9A471771D
:103A58001307079BE3D9E4E02567130707CA19B5DD
:103A680071771307079BE3DBE7E02567130707CAAE
:103A780029B50507420741837AA0CD43E3EEE3E287
:103A8800024705E3638F57000547E312E5E42DBDC0
:103A980009C7130770026359F700230204002313B0
:103AA80004002304040025B5024765FF6147E34A83
:103AB800F7FE92421307401FE34557FEF1B712473E
:103AC8009307400AE3C5E7E085471CA409B55957A1
:103AD800A68763539700D957A907FDBB63D4050090
:103AE8003306C04001456357C00293057014216531
:103AF80063C2C502930580141315F6003ED816D686
:103B080036D01ACE3AC8EFC0EFDAC257B252825650
:103B1800724342471356F54133065602B387A7024C
:103B2800B29733065502333555023D82AA97C60728
:103B3800D18F3ED0BDB5A2471306C0F56354F60039
:103B48009307C0F59387470A9DBD92459307400A9E
:103B580063CCB7065E24CD4563E9F5008507C20747
:103B6800C1835EA41C3481C779BDA30404009357A4
:103B7800F741B3C5E700B387F5409305F00263D773
:103B8800F5048317A4009305300663C4F50089077C
:103B98003EA48257E245BE95F247BE95935705412C
:103BA800BE958317A4009387870CB382C702B39787
:103BB800C70293D2F200C607B3E75700635BF00071
:103BC80063DDF5008D8F99BD814761BF2315040022
:103BD800C9B7E38507E4E3C7B7FE814781B593D347
:103BE800F441B3C29300B382724016D4A94363C5AB
:103BF800530202436310030A1353C540330365405D
:103C080023206400424405456316A40812441305A2
:103C1800400A6341850815BD9353F34133C36300DC
:103C2800330373409D639383E31B63CF6304A24311
:103C38001303900B33836302D243638003029242DF
:103C48009303400A63CB5300A252BD4363D753008A
:103C5800A2421303402E338362026353B6026345C4
:103C680060021A953703E0FC635465003705E0FCF1
:103C7800370320036354A3003705200308C029A095
:103C8800E301B6FEE35F03FC424405456314A40068
:103C9800024529C13285420541858DCA9EAAE2475F
:103CA80022440D8EBEAA8257C0C23244DEAAF24711
:103CB8003336C00084C2FEAAB25780C6D8C69EAEAC
:103CC800C247AAAED0BEDCAE9257FCAE1301410388
:103CD8006FC0AFBD12441305400AE34D85FA135572
:103CE800F6413343C5003305A3401303700CE35E6C
:103CF800A3D44DB70145D9BF09C523000508A300C2
:103D080005088280AA871DC1034705088346150850
:103D1800014505071377F707638BE60083C6070895
:103D28000545BE968CA22380E708828001458280E3
:103D3800AA87014595C78DC583C6070803C7170815
:103D48006380E60203C7170805453E97182398A124
:103D580003C7170805071377F707A380E7088280CA
:103D6800828005C90347050883471508636BF70078
:103D780083470508034715083385E7401375F50F92
:103D880082808347050803471508138507F8198DAE
:103D9800F5B7014582809387819E23A0070023A25F
:103DA800070023A4070023A6070005679387C19D82
:103DB8001307078D98D31307B06E2205D8D31307BE
:103DC8003010238E070088C323A2070023A407000E
:103DD8009AB78280EFC2CFAC9387C19D83C7970201
:103DE80061112A849384C19D99E732C22EC0EFF0F5
:103DF8009FFA12468245DC2CD44013971700269769
:103E08004EA703C7840285079D8BDCAC998F9D075D
:103E18009D8B86073D67A697130757868395C7002E
:103E2800B387E6023397E602C1834207D98F6177E9
:103E380063D3E700E17721676353F700A167930233
:103E4800E0043383570288509844B39257021353BF
:103E5800F300C60233E3620033836540AE82930504
:103E680020FB63D4B200930220FB9305E00463D4E3
:103E780055009302E00493D3F741B3C5F300B3852B
:103E88007540A1678D8FB385F202B397F202BD81A9
:103E9800C607DD8DB307B340B387A702B305E502B4
:103EA8003315E502A1816205C98DC8508D8F958FA4
:103EB800B385A702B397A702C181C207DD8D8567C5
:103EC800938727063385F602B695B396F6029C408B
:103ED8005981AA06558DAA97B7A68C0063CCD70A34
:103EE800958F22041D8CB756460063D9860AB7669B
:103EF80073FF36948D669386A6913305D402B31664
:103F0800D4023D81C606558DAA97B7A68C0063CE0C
:103F1800D708958FB79613009386465F9CC0B30762
:103F2800D402B316D402BD83C606D58FB716A6FF32
:103F3800AE97938606C063D3D700B687B7F6590005
:103F48009386064063D3F600B687B785FBFF938553
:103F5800B5C0B306B402DCC03314B402BD82460453
:103F6800C18E3697B7E6FCFF6354D70037E7FCFFEE
:103F7800B726030063D4E6003727030098C401CAB4
:103F88009440A1872187A18614C25CC218C621016A
:103F98006FC0AF91E3D707F4B697A1B7B7B6B9FF2B
:103FA800E35AD4F4B7A68C00A9B7E3D507F6B697B9
:103FB80095B723A6A1A011E181452384B1A081472B
:103FC8006393B70082805A2123000500A3000500EF
:103FD8008507231305003AA193F7F70F4105CDB7DD
:103FE80003C581A083A7C1A0416681467D166313DE
:103FF800D5008280CE2399C5BA237D174207418315
:1040080019C7BAA3850693F6F60FC107CDB798234B
:10401800AEA319E3983311CBFA23E305C7FEFA23BD
:10402800050742074183FAA3F1BF054798A3D9BF03
:10403800EFC20F87EFE0EF969307800873B0073061
:104048000F10000003A7C1A003C381A0BA861306FE
:10405800F00F1304F00F8147631AF3009307F00F72
:104068006312F402EFE04F946FC02F848C2291C545
:104078008C2663F4C5002E863E84850793F7F70FD8
:10408800C106D9BF1204B30787002380070005477C
:1040980098B3EFE06F9183A7C1A0A297DC4791C3C3
:1040A8008297EFE00F909307800873B007300F10E6
:1040B800000083A7C1A0A297A380070065B7C146E7
:1040C800014781471356E5018A070607D18F0A057C
:1040D8006375F700998FFD170907FD16E5F6135567
:1040E8001700B337F0003E9582803707001093061B
:1040F800F6FF7917AA877D55636CD70463FAC50460
:104108009316160013132600931236002147014513
:1041180093D3C7019205B3E5B3009207120563E68E
:104128005500B38555401365850063E66500B38582
:1041380065401365450063E5D500958D1365250039
:1041480063E5C500918D136515007D1771F38280B5
:104158008280B306B5023315B5026347050293178B
:104168002500F98237470F0013070724DD8E79856C
:104178003306E502B3B7E6023387E602B297C20711
:10418800418333E5E70082803307D040B307A0407E
:10419800B336D000958F939627007983558FF9878A
:1041A800B366F700E9DEB7460F00938606243305A9
:1041B800D702B387D70241813337D702BA97C207EC
:1041C8005D8D3305A0408280138701A1032707096D
:1041D800938701A163C6E50003A747096356B700A3
:1041E80023A20700BA850146D4431307803E8CC337
:1041F800B307D7020CC110C53317D702C1834207D2
:10420800D98F5CC18280EFB2BFE931112A84BA82AA
:10421800BE846342B002B307A50223A0A2003314F0
:10422800A502C1834204C18F9CC0A16702571CC369
:1042380051016FB09FE7A1678D8F2E8563D88702E4
:104248001C0821653AC23EC038007C00018D653FDC
:10425800A247924232472165B303F540F177A2970E
:10426800BA9723A072009CC0C247C9B7B683330768
:10427800C4023283B316C4026358B4068255338627
:104288008302B39783023D82C6075D8EB307660239
:1042980033136602BD834603B367F3009CC193578B
:1042A800F641B387E702B386C602BE96B307E602B5
:1042B8003336E602FD833387C6000607D98F338677
:1042C800870223A0F200956693865655B397870216
:1042D8003307D602B387D7027D833336D602B29727
:1042E80086075D8F98C0A9B7825790C393D71540AA
:1042F800B307F4403386C702098CB39767023D823F
:10430800C6075D8E23A0C20033866502339365021B
:104318004182FD85931703015D8E93570341B38551
:10432800C502156313035355B387A702AE97B305A8
:10433800A6023336A602B297B387670233866502B0
:10434800B3B565027D82AE9786075D8E9357F441BB
:10435800B3868602B387E702B697B306E40233341E
:10436800E40213D7F601A29786075D8F3A9690C0AC
:10437800C1B5EFB2FFD29C41B28263C5A700084223
:104388006FB0BFD2DC552A87854631456348F700B0
:1043980003A5C202F5B78506E38CA6FE939726000F
:1043A8003386F50003230600E347E3FE9386C7FF41
:1043B800B6958C41969788433306B340E352C0FCC8
:1043C800969680429356F641B30785403305B74029
:1043D800B395A7023385A702EF20604122954DB718
:1043E800EFB21FCC01112AC893074006B28463D4E8
:1043F800B7009305400681461395E500130640066D
:104408008145EF20C03E938601A1C8CA2AC02ECAA2
:10441800930640062A87138401A163D49600930467
:1044280040061306400681461395E40081453ACEBE
:10443800EF20E03B8247A1642AC23386F4409356BA
:10444800F6412ECC2AC608CC814537050040EF201E
:10445800003A92472AC448CC3386F4409356F64132
:10446800370500408145EF208038724708D0AA847C
:10447800014309CB0246D246370500408145EF206B
:1044880000372A83B24723226402014591CB1246A2
:10449800E2463705004081451AC6EF2040353243D1
:1044A800A5664247938606CA08D423280408232A07
:1044B800D40863D1E6063687824718C02322040051
:1044C8007CD0924758D4232804023CD4A247232AFC
:1044D800040218DC58DC38C0232204042324040412
:1044E8002326040423280404232E0404232004067A
:1044F8007CD424D8232A640628DC232E040623200F
:104508000408232204082324040823260408056138
:104518006FB0BFB9E35207FA014779BF63C4A50476
:10452800138701A12328A708232AB70818439387CC
:1045380001A16346A7003A8563D3E5002E850547A8
:1045480088C323A20700C8D788DFC8DFA8C323AA67
:104558000702F8DF23A0070823A2E70823A4070817
:1045680023A607088280938601A103A706099387DB
:1045780001A183A646096346E50036876353D50043
:104588002A8798C3B8C3D8DF98DFD8D7054723A2AE
:10459800070023A0070623AE070423AA070223A8BF
:1045A800070223A2E708F8DF23A6070823A40708C1
:1045B80023A007088280EFB2BFAE938701A194437E
:1045C8005D71138701A1D4D736D2D4432ED63AC011
:1045D80094DB9387070836CA944BDC4B36CE634688
:1045E800D5003ECE6353F5002ACEF2471257998F75
:1045F8003EC663D10730BA877247998F3EC6D24705
:10460800B307F0403EC2FD573ED8B2471305803E7F
:1046180013066004B395A70281463385A702EF20ED
:10462800001D91679387A77263D4A72E3E85924792
:104638001247FD873D8FB307F7403ECCE24613078C
:10464800803EB387E7023397E602C18393160701DA
:104658004187D58F3AD43E8463D3A7002A84BEC04D
:104668009357F44113930701935504011306803EB1
:104678008146B3E56500131504013EC4EF202017F9
:104688002AC82ADC2AD01305803E2EDA2EDEB3157E
:10469800A402794681463305A402EF2040158247DB
:1046A800B7960B009386E6E8C44F2AC4864733863C
:1046B800D402B396D4023D8293951601BD864D8EE1
:1046C8006346D0006392062663000626BEC2B24740
:1046D80037853E00B395A7023385A702EF20201146
:1046E8001D669D65130606D8938505D5EFF07FC82E
:1046F8009357F4411397F700935514011566AAC010
:1047080059161315F4008146D98DEF20400E064343
:1047180096472A846353A3001A84A25613D7170115
:1047280015669395F6001395F700D98D59168146AD
:10473800EF20E00B2167AA876344E5009307F7FFA2
:1047480022856353F4003E851D669D65130606D2D7
:10475800938505D8EFF0FFC1B77708009387B711A5
:104768003307F502B317F5023D83C607D98F2246F2
:104778006346F6003E866343F00005469356F641CD
:1047880037054042BD45EF2080062246B7E70500C1
:10479800938757712A8463D3C7003E869356F641A0
:1047A80037054042BD45EF208004B3069402AA872E
:1047B8002E8733169402BD824606B362D60082461F
:1047C80023A45600945293D5F6413387E602B38565
:1047D800F50233B6F602BA953387F602B295C605E6
:1047E8003D834D8F3AC42246024750C763D38700A2
:1047F800A28733869702339797029357F60022468B
:104808009355F641124646075D8F824798CBE2479B
:10481800A1876350C012224662443385C7021353EE
:10482800F4413396C7023303A3023306F6021A96FD
:104838003303F5023335F5022A96324506056346F9
:10484800C500631DA60E630B030EBA8205473AD452
:1048580002470246584B64D634DA78D2585278DA8E
:10486800184E38D6185638DE225779CB338557027A
:1048780022473306570013D7F741B395570233073A
:10488800A702B385F502BA953337F502BA953247D0
:104898003305F5020607998D63D405000145814566
:1048A80016DAEFF09F84EFF09F8102572205D2526B
:1048B800B307A0406355A700C247B307F0401247AB
:1048C8001D8FB304570233175702B3349000BA94BC
:1048D8006343900085442247B307F0403384E702DE
:1048E800B397E702333480003E9463438000054465
:1048F8000145D5A8B24789EBD24799EF1255EFF099
:104908009FC661616FB06FFAD2473EC28547EDB965
:10491800E34FA0D0054521BBD24711651305A57209
:104928003EC285473ED821B3B70708009387C735ED
:104938003DBD124602D409DEBA8219BF02D409BFAE
:1049480042479246158FB304570233175702B334C0
:104958009000BA94634390008544D2562247424659
:104968003307D702C246B385D502A2463384C602AE
:10497800B28622462E97B3B6C602333480003697E5
:104988003A946343800005441247C2469355F44164
:1049980042453306D7004247B3069602B385E5027F
:1049A80052573307E402BA9542473335A402330716
:1049B800E4022E95331696023697B336D700458310
:1049C8002A96B296BE06558FB24663C4E624C247FD
:1049D8003387E64042071385F7FFBE853A9516DA16
:1049E800EFB0CFEDD252B257269533078500635307
:1049F800F70413958700BA8516C8EFB02FEC330477
:104A0800A402A257C242218063910728924763CE2D
:104A180007263385A4028544218111C1AA8432570F
:104A2800B38784006354F7003304974063438000DE
:104A380005443257B2470143BD873ED4B247C60743
:104A48003EC6B7070080FD173ECCB38784003ED62C
:104A58006353F7003E879246324593171700B38396
:104A68009602858F33868740B3959602B246B38601
:104A780076403335D50036C8A2568D8E898E63D2DE
:104A880006223245A2503385A340B3B3A300B385B1
:104A98001540B3857540FD53635606003306F44050
:104AA800B3037040B6C69EC49AC2BAC016DAEFF015
:104AB800CFE36246D25206471643A643B646AA87B4
:104AC8006373A600B28705466381C31E8255330609
:104AD800F04063C1F524B2878D466308D30492463B
:104AE80012469D8E6354F600B386C740338656023D
:104AF800B39656023336C00036966343C000054667
:104B080093D6F741B3C5F600958DA2462245B386E4
:104B1800D502B395A502B336D000AE966343D00054
:104B2800854663CDC41E634CD41EC2560246B305E7
:104B38009740B387D702824664DE818DDCDAD2469D
:104B48003383D74082461AC423AE6604B306F040C6
:104B580034D21306060818C602470CC240C22326E0
:104B680007083316930236C23307930246063D837D
:104B7800518F0246339586029353270178C63386B0
:104B88008602824646053D82498EB0CAD2461355F2
:104B9800F7413A053386D4023A0733E5A300B392C6
:104BA800D40232973336C70041839256AA9216969A
:104BB8004206518F3386B702369782463705004042
:104BC80098DEB397B70241828145C2075D8E32975E
:104BD800D8DE72472686B8C2EFF02FD182472286E8
:104BE800AA84E8C3814537050040EFF00FD082471B
:104BF80022432A84A8C7A6851A85EFF08FD5824755
:104C08009246A285E8CB3685EFF0AFD48247A8CF8D
:104C1800CDB93385570293D6F74116DA3397570241
:104C2800B386A6023307F7023697B336F502330583
:104C3800F5023697B24693951600A246BA95338682
:104C48005600EFF08FCAEFF08FC782572205D25275
:104C580063D3A700424592471247898F6354A70040
:104C6800B307E540B3845702B3975702B3349000B3
:104C7800BE94634390008544A2473304F50233157C
:104C8800F502333480002A948DB1E247B384570289
:104C9800B3975702B3349000BE94E34290D885444A
:104CA800BDBB4245B6858543C5BB0256E356F6E211
:104CB800BEC0C24713D5F6413346D500B343F5000D
:104CC800E257B385A340098E3385F500F257B3B692
:104CD800B300158E3E96B336B500B296625693353C
:104CE8001500B385B6407D159AC4BAC216DAEFF03E
:104CF800CFBFB2571647D252938617003695058113
:104D080086472643634BA7026348F0008257B307E0
:104D1800F040D9B3B28769BF82577DBBB284635371
:104D2800D4003684B38784000503E350F7D2B30771
:104D38009740E3CCD7D03E8409BB050311476304F1
:104D4800E3002A8719B32A87CDB3630E0516EFB29D
:104D58002FB5138701A18327C70883268708797190
:104D6800AA82138401A163DCD70099C5785C032665
:104D78000408329763C5E70085072326F4088323D0
:104D8800C40863C9D30234408327040903274409AC
:104D980063C6F600B6876353D700BA871CC02322C0
:104DA800040023A0F20023A2020023A4020045610C
:104DB8006FB0AFAF645C832704083387F4003ACA46
:104DC80063CB740A5C540323040368403EC87C4CDC
:104DD8006C5070543EC27C4474589E843EC47C48D7
:104DE8003EC63385A402A1673D8163F3A700216510
:104DF8007C103EC058103C1016D01ACE1ECCEFF0D6
:104E08008FC03257B246B24772433396E602924693
:104E1800E2438252B387E70246061257BD835D8E8E
:104E28009247B387E7023397E602BD83A246460757
:104E3800D98F9A9722475CC0A2573307F702B396D7
:104E4800F602B307930233139302BA9733B7E70016
:104E5800C1839A9636974207D98F4247B305F70020
:104E6800D24763DD770258583C40634B070463D749
:104E7800B702BE8525A0524703234403B384934059
:104E880063427702B38764020C5C23226400014604
:104E9800B3946402C183C204C58FBE951685EFF032
:104EA800AFB231B79D8C5C5C28442C543EC83C5052
:104EB8003058345C3EC23C483EC43C4C3EC615B7F4
:104EC800E3DEF5FC7DB78280938701A103A5C708BF
:104ED80083A787083325F50013451500828003A5AD
:104EE80081A9C1676344F5001385F7FF4205418135
:104EF800828005472386E1AA83A781AA91C398A344
:104F080082809306C05D138741AB23AAD1AA1827D4
:104F1800938741AB11C13A85054798B713075020CD
:104F2800BAA71307400688A723A20700DAA76FF0DD
:104F38005FFC23A4A1AA83C7C1AA81C719C1854759
:104F48001CA18280EFB2CF9583C7C1AA8DC303A6E7
:104F580001ABB9450506138541ABEFB08FBD01C95B
:104F680083A701AB238601AA850723A8F1AA6FB0FE
:104F7800CF93EFB2EF92138601ABB945138541ABDE
:104F8800EFB0CFB441C503D741AB9306007D9387FB
:104F980041AB1307C7E04207418363E9E606B6233E
:104FA80025671307F7C96363D70690279306F00FA1
:104FB800630ED6049037A9459306F6FF93F6F60FCD
:104FC80063E6D504D6236363D704F6236360D70466
:104FD800CC370547636CB7022D476316E600130705
:104FE80030066375D702B8279D467D171377F70FEC
:104FF80063EEE600B83789467D171377F70F63E746
:10500800E600D8279307400663F7E7000145EFF06D
:105018005FEFEFF03FF36FB04F8983C7E1AB9D4679
:105028001147FD1713F6F70F63E3C6003E879D6728
:105038000A07938707DBBA9788438280EFB24F86C7
:1050480003C701AC930640069307400663E3E600F6
:10505800BA87138741AC13F4F70F3CA38567138510
:1050680087BB3305A40293054006EFB02F858567FB
:10507800938707963304F402138741AC2AA7930752
:105088003006938441AC054563F9870093054006D3
:105098002285EFB0AF8242054185CAA481296FB04D
:1050A800CF809307400663EDA700EFA27FFF238020
:1050B800A1ACEFF01FE4EFF07FF805456FA0FFFE0D
:1050C8000145828003C561AC828003C541AC828002
:1050D800938741AC23A0070023A2070023A407005D
:1050E800239607006FF09FF5EFA29FFB938741ACD3
:1050F80003C701ACBC23411123110100138441AC47
:105108006304F700EFF09FF313052100E12A1E2442
:105118003481B1C3FD17C207C1831EA481E71C20D7
:10512800F59B1CA03C200317C400A1CFBA872DC94A
:105138003224637FD60A918E0D468547635AD6007E
:1051480013063064930700196344D60093D72640AA
:10515800B307F740B1A00317C4002C20BA8715CDB8
:105168000566130686BB6377D60230300945636C43
:10517800C50005061376F60F30B00D456305A60089
:10518800C5F9854751A010201366260010A0130604
:10519800200312A4A3010400E5B7A3010400F5D17C
:1051A80005456343F006420541856304E5004AA4CA
:1051B800352E5C300547850793F7F70F637EF70AAE
:1051C8004800A3020400A12E1C87B9E723030400AA
:1051D8005C206147850793F7F70F6361F70A5CA0C6
:1051E8001C20DDEB1C30DDCFA3000400AD235DA83F
:1051F80085661386F6956349E60093070703938649
:105208000696E3DFF6F8B6873E85856793870796A7
:10521800E3DBA7F83E8541BFA24713D7F741B98F13
:10522800998F12479356F741358F158F9306F007DC
:1052380063C6E600348639476377D702130700024E
:10524800634EF7007C201147850793F7F70F6373C8
:10525800F702930700107EA0E1299DBF23030400F5
:10526800A3030400B5B72303040013070002E351A6
:10527800F7F6FDB77CA0A9BF5CB099BF2302040074
:105288008520E177E30EF5F41307301F1C20635ED9
:10529800A70093E717001CA0B52C09C501456D218F
:1052A80085471CB041016FA05FE01307201CE3494C
:1052B800A7F2F99B1CA02DB76FD0BFA3EFA25FDEAA
:1052C800EFD0AFA3B77702009387477A3305F5028B
:1052D800B7450600EFA09FDE420541816FA0FFDCC5
:1052E8006FE04F89EFA2DFDB71112311010009E59F
:1052F800014511016FA07FDB2A8413052100EFD03F
:105308004F9A7DD53C8109671307B7ADB387E7028C
:105318003707001063F6E700B1831EA00545D1BF2B
:10532800C167FD17DDBF83A741AD19470545637503
:10533800F700D51713B517008280635A0500A567D3
:10534800938707CAAA971395070141818280256729
:105358001307F7C9AA87E358A7FEDD7693860636B2
:10536800B307D500E351F7FEB9779387076CD9BF28
:1053780083A641AD2D47938741AB6394E600CA23CA
:105388008280AA238280EFA2BFD1EFF0DFF9AA873B
:105398001305C05D9DC7938741AD8E2B9DC1CA2360
:1053A800FC2F99C33385A5409307007D3305F5028B
:1053B80093D715003E95EFA07FD01305451F4205F2
:1053C80041816FA09FCEEFA2BFCDEFF0FFEEC16786
:1053D8002A84FD1701456303F404A564138741ADCE
:1053E800938404CA40C7EFF0BFF826943305A4405D
:1053F800EFF0BFF4138741AD08C71A2B938741AD6F
:1054080011CB6359A700B306E540898C3A8563F34D
:10541800D4000145CAA3A38F070005456FA0FFC8A4
:10542800938741AD8E2B05470145D8BF239A0700C6
:10543800EEAB6FF0AF8EEFA2BFC6138441AD01C5CE
:105448000844EFE05F954A20EFF0EF91EFE04FB4AA
:105458008145138501B2EFF05F8F13060002814585
:10546800138581B3EFA05FCE5E203EA86FA0FFC377
:105478009306F5FF2947938741AD637FD70005471A
:1054880098C3238F070005451D677D157999130774
:1054980007DD2A971A2311A888C32D476319E50049
:1054A800138741AB54377A23F4AF9AAB8280134702
:1054B800F5FF058BF8AF99460147E3E8A6FEE9B783
:1054C800EFA21FBE938741AD03C55702138441ADB8
:1054D80019E5EFD06FE62314A4046FA01FBD79155A
:1054E80013351500EFD04FF60145F5B705671307DB
:1054F8000796BA876349A700AA87139707014187C8
:105508006343E0008547139507014185239DF1B06A
:105518006FE00FAB03C591AF1335150082804DC9FD
:10552800EFA21FB8AA84EFF01FE0138441AD8147B2
:1055380005C1583C11CF8346140203475402558FC6
:1055480083466402558F09E7EFF01F9893371500DB
:10555800704458589166938606653307E64093F57C
:10556800F70F63D5E604DD7693860636369708444A
:1055780098C0185C9166938606653307E54063D04A
:10558800E604DD76938606363697D8C07A349AA430
:1055980089C783470403B337F000BCA450D808DC9C
:1055A8002308B402231704026FA03FB0F176938654
:1055B800069BE35ED7FAA566938606CA45BFF176D1
:1055C8009386069BE353D7FCA566938606CA6DBFF0
:1055D8008280EFA2FFAC03C5D1AB138441ADEFF0DD
:1055E8003FE9EFF05FDE83476402A3040402232E41
:1055F8000402FD1793B71700A300F4022320040444
:105608002312040423110402EFF0FFD111C9EFF0B3
:105618003FE10545EFF03FE2EFF09FEA6FA0FFA8FA
:1056280023030402A3000402EFE08F96F5B7EFA26C
:105638003FA7138741AD8347570203471702D98F06
:105648008DEF138441AD8347240203479402D98F19
:105658008DC78547A300F4022301F402EFF0BFCC05
:1056680001C92628EFF03FD60145EFF0DFDC26A878
:105678000145EFD06FCC2314A4046FA01FA3EFA2A1
:105688003FA2938741AD83C71702A5C3138441ADD9
:1056980083472402B9CBEFF01FC90347640201CD49
:1056A8008547630AF700EFF01FD221C12628054578
:1056B800EFF07FD826A803476402A30004028547B9
:1056C8006305F702EFF03FC60DC1034734023C40C3
:1056D8002A28814519C7BE85C16763E4F50093850B
:1056E800F7FFC205C181EFE01FED6FA01F9CEFA27D
:1056F8003F9B938741AD03C76702A384070223AE8C
:1057080007027D1713371700A380E70223A00704B9
:105718002392070423910702EFF0FFC011C5EFF0B1
:105728009FCA0145EFF03FD1EFF09FD96FA0FF97D7
:10573800EFA21F97EFF03FBF11C583C791AF99E361
:10574800EFF0FFFA6FA07F963335A0000505A38C14
:10575800A1AE6FF0DFF9EFA2BF94EFF01F971DE540
:10576800938741AD83C75702138441AD85C3A30214
:105778000402EFF05FC5EFF01FBB01C50545EFF070
:105788009FCB0145EFD04FBB2314A4046FA0FF911A
:10579800EFA21F91138741AD8346170241112EC016
:1057A80036C48346670209476384E606AA841384DD
:1057B80041ADEFF09F9129EDEFF0FFB619C1583CCC
:1057C80021CB0347540219C3EFF0FFF8856693868F
:1057D800469C268763F39600368793160701C18295
:1057E8001306401F63F4C6001307401F93170701F1
:1057F80083466402C1833EC20546639EC600824753
:105808005ABCA304D4027EBCA30004022301D40220
:1058180041016FA09F89A24791CBEFF0DFB019C576
:10582800EFF07FBA75D50545EFF0FFC00547A30037
:1058380004022301E402EFF01FAF7C2C3EC679C5B9
:1058480092471A289305007D1385C7E03305E502C2
:105858003AC2EFA0BF86B247124799C33305A740A3
:105868005628131605014182B68463F3C600AA843C
:10587800762813960401418263F3C600B684034573
:105888000402C20485453228C180A9466313B502C3
:1058980099453307B7021305F77C15671307F75EB9
:1058A8006379A7009305007D32C2EFA03F811246BD
:1058B800AA86A247A1E3824781CFBE85268526A86E
:1058C800EFE07FCF0547A301E402EFF04FE10DA021
:1058D8003387C44063C6E600B306D040E35AD7F224
:1058E8008145268526A8EFE01FCDA30104020145C6
:1058F80028C039BF8245268526A8EFE0DFCB82473E
:105908003337F000A301E402E9F3D5B7056793063E
:10591800B05D1307079663F6960492479305803E99
:10592800138547A23305E502EFA04FF9B2474205B8
:10593800418589C73305A040420541858247231226
:10594800A4047D5799CB18408546651763F8E6028D
:1059580082471307803E3387E70238C0A30F04004D
:1059680045BD92471305C05D9305803E1D8D3305E7
:10597800E502EFA0AFF43305A0404DBF824725678D
:10598800130707CAB387E702A30F04003CC0EFF070
:10599800BF92417705072A973337E0002302E402D4
:1059A80041677D17E306E5E648C49DB5EFA24FEFD2
:1059B800138441AD4A3C11C56E3CEFF07FDD6FA00A
:1059C800CFEE938741ABB43705476395E6008A234A
:1059D8008145E5B78D476397F600A302E402EFF02F
:1059E8001FD1F1BFEFF03F9479D94A20EFE0BFB75C
:1059F800F9B7EFA2EFEA7111130640088145138544
:105A080041ADEFA06FF48567938441AD9387079606
:105A180001452393F404EFD07FAA0545EFD0CFF2D8
:105A28009304C003138441ADEFD06FEF2AC02DED6E
:105A38000545EFC02FF49387F4FF93F4F70FEDF4C7
:105A48000145EFD06FF00545EFD05FA782472300EF
:105A580094025EBC03C5D1ABEFF09FA1EFF0BF96F7
:105A680019E52326040023240400231204005E20E1
:105A780008443EA8EFE02FB24A2065468145EFE092
:105A88003F96EFF05F8A19C1EFF09F99EFD0FFD1F1
:105A98000145A3020402EFD02F8A2314A404EFF0D7
:105AA800FFF011016FA06FE085444DB79307F5FF34
:105AB80093F7F70F25476360F702EFA26FDE2A849A
:105AC800EFF0FFC2A38E81AAEFF0AFC2EFF07FB074
