:100000006F0000710000000060010000700100003E
:1000100000000000000000000000000000000000E0
:1000200000000000000000000000000000000000D0
:100030000E070000000000000E0700000000000096
:100040000E0700000E0700000E0700000E0700005C
:100050000E0700000E070000CA0100000E07000096
:100060000E0700000E0700000E0700000E0700003C
:100070000E0700000E0700000E0700000E0700002C
:10008000800100000E0700000E0700009001000034
:100090000E070000880100000E0700000E07000098
:0800A0000E0700000000000043
:1000A800511126C022C206C4828282441244A24050
:1000B80031018280634E050263C305042E86AA853A
:1000C8007D5515C285466378B6006356C00006069E
:1000D8008606E36CB6FE014563E4C500918D558D37
:1000E80085820582F5FA82808682C93F2E858282C2
:1000F8003305A0406347B000B305B040C1B7B305AE
:10010800B0408682653F3305A0408282868263C7FD
:100118000500634905005D372E858282B305B0402E
:10012800E35B05FE3305A040513F3305B0408282B2
:1001380000002A8309CA83830500230073007D1603
:10014800050385056DFA82802A8311C62300B30052
:100158007D16050365FE8280B707EFBE37E700E02E
:10016800938707083CC701A0B707EFBE37E700E051
:10017800938707083CC701A0EF30E04873002030A0
:10018800EF30800373002030373501408545130573
:1001980005C0EF10B06019CDEF30E0103707002030
:1001A80083470709CD46850793F7F70F63E6F600FF
:1001B8002308F7087300203023080708EF30303D84
:1001C800D5BFEF10D07E73002030EFF27FED0545EC
:1001D800EF100030C129EF101074EF10E05913052B
:1001E8004006EF103079EF40303CEF20C047EF2059
:1001F8007035EF40F045EF30A01EEF201044EF209F
:100208007058EF20302CEF20C008EF20D024EF30BA
:10021800C00DEF3080511305800CEF10B075EF5012
:100228006027EF40104EEF50A073EF20F007EF303B
:10023800103BF5BFAA873387B700416542070566BB
:100248007D1541831306160293960701C182631335
:10025800D700828094238507A206358DA146931581
:10026800050106054205C185418163D30500318D2D
:10027800FD1693F6F60FE5F6C1BF1041B7464643A3
:10028800938616736311D60412258946AA870145F9
:10029800631DD602B627639AB60213070002636687
:1002A800D702945B3767A55A130757AA639FE600DE
:1002B800EFF21FDFC2371385C700AD3F3305A440F7
:1002C80013351500DDB3014582808280EFF25FDDD2
:1002D80051112EC032C22AC439C901450DCA37F49A
:1002E800000813050450513F8245AA841305046091
:1002F8006937224399EC01CD930404600246938543
:10030800C4001A853D35DC40124705451CC3310140
:1003180069BB93040450268675D193070460D440C2
:10032800D843BE84998EE35BD0FCB284C1BF01453B
:10033800F9BFEFF2FFD61301C1EB37F400082AC268
:10034800130504502EC032C40D3F82452AC613053A
:10035800046025379247324789E701451301411464
:10036800A9B382477D469386F7FFC206C182E3663A
:10037800D6FE9304045001CF9304046009C993077F
:100388000450D840D443158F6353E000BE8413064D
:1003980080029305F00F6808453BB74746439387AB
:1003A80017733EC8A247924568083ECA8947FC842D
:1003B80082473E86FC85B53B82456808A53DB76700
:1003C800A55A938757AA231EA1021306C00C9305AA
:1003D800F00FA818BEC08D3B130640030C08C800D8
:1003E800893B930500102685EF00100191472A8468
:1003F800E315F5F613060010CC002685EF00901BD8
:10040800E31D85F413060010CC002685EF60C0229A
:1004180013351500A1B7B707002003C7870993074D
:1004280040086316F702EFF2BFC7AD2737F500089B
:1004380013050570BD2FB7270240984BA1660145EB
:10044800558F98CB984B1367070898CBB9B90545D2
:100458008280EFF2FFC43704002083475409254700
:100468006111636DF71619678A0713074767BA970B
:100478009C4382879307A00A6311F5028547A30A64
:10048800F40821A893075005631AF5148947A30AAD
:10049800F408B707002023990708210139B1B707E5
:1004A800002037070020238CA70883572709AA971D
:1004B8002319F7088D47E1B7B706002003D72609A7
:1004C800B7070020938787092A972399E608982376
:1004D80088B385469307F70793F7F70F63EAF600A3
:1004E8009147A30AF408B7070020238A070875B7BD
:1004F800930700086316F70421C59547DDB737064B
:100508000020834746093707002013078709B306E9
:10051800F700B7050020A8A283D62509850793F719
:10052800F70FAA962399D508230AF6088D46E3F60D
:10053800F6F61423930720086394F6001C33D5FFBE
:10054800994735BF370600208347460937070020FB
:1005580013078709B306F700B7050020A8A283D6BA
:10056800250985071833AA9693F7F70F2399D50815
:10057800230AF608E3F6E7FC0DB7B707002083C7A0
:100588002709639DA7049D47DDBDB707002083D7D2
:100598002709A1836394A704A147D5B593075005FC
:1005A800631EF502A547E1BD9307A00A6318F5028B
:1005B8009D3589476304F50295679387A75A7D158A
:1005C800133515007C80ED77C881938757A5994529
:1005D8000A85230101007C82EF20D074A30A040855
:1005E8006DBDEFF2FFAB8946B727024037140240D2
:1005F80094C31C403707FF68C17493E717001CC0F9
:100608005C40FD14F98F5CC01C403707D7FE6D179E
:10061800F98F37071000D98F1CC01C403707FCFF23
:100628007D17F98F1CC05C40E58F5CC0B7079D0043
:100638001CC41C4C93E707021CCCB71701409387D6
:10064800074098431377F7F098C398431367070850
:1006580098C394CBEF0070185C4037070001B706C9
:1006680000025CC05C40E58F5CC05C405CC01C4024
:10067800D98F1CC0B71702409843758F75DFD843D0
:10068800B7160240719BD8C3D84313672700D8C355
:100698002147DC42B18BE39EE7FEB72702400947BA
:1006A80098C321B4371702405C43A146B18B6392CB
:1006B800D7045C433775DC02130505C0B716024042
:1006C800D842B70700209387070011833D8BBA975C
:1006D8009C23D84293F5F70F13770708B357F50013
:1006E80011EFEFF2FF9BD93A370700202328A70024
:1006F8006DBA37356E0113050560C9B73707002095
:100708002328F700828001A0970100209381011817
:10071800172100201301818E17650000130585211C
:10072800970500209385858D1706002013060696E9
:1007380063FAC5008322050023A055001105910521
:10074800E3EAC5FE1705002013054594938501B912
:100758006377B500232005001105E36DB5FE8962B6
:1007680093820288739002308D4273904280970280
:1007780000009382A28893E2320073905230EFF027
:100788005FE697020000938282A47390123473008C
:100798002030B7270140938707406310F502EFF236
:1007A8003F90854513050020EF00307981451305FA
:1007B8000020EF0090786FF05F8F82805841B70774
:1007C800F1FF9387F7EF7D8FDC419441A207D58F26
:1007D800D98F5CC11845B7F7F1FF9387D77FD44508
:1007E8007D8F9C49D58F94458606D58FD98F1CC59A
:1007F8005855B70710FFFD177D8FDC29FD1793F7B4
:10080800F70FD207D98F5CD582801C4589C593E73D
:1008180017001CC58280F99BEDBF1C4589C593E76D
:1008280007101CC5828093F7F7EFE5BF0D473387A4
:10083800E502032305019D47B397E70093C7F7FF38
:10084800B3F76700B396E600DD8E14C9994763E2F3
:10085800C70295477D163306F6025859FD47B397E8
:10086800C70093C7F7FFF98F3396C5005D8E50D93F
:100878008280B14763E2C702954765163306F602E0
:100888001859FD47B397C70093C7F7FFF98F3396F9
:10089800C5005D8E10D9828095474D163306F60245
:1008A8005855FD47B397C70093C7F7FFF98FB3951E
:1008B800C500DD8D4CD582801C4591C537071000D9
:1008C800D98F1CC582803707F0FF7D17F98FD5BFF8
:1008D8005C4189C593E707405CC1828093F7F7BF05
:1008E800E5BF1C4565777D17F98FCD8F1CC58280C4
:1008F8001C4589C52167D98F1CC5828061777D1702
:10090800F98FDDBF1C4591C537872000D98F1CC5DD
:1009180082803787DFFF7D17F98FD5BF0D47338773
:10092800E502032305019D47B397E70093C7F7FF47
:10093800B3F76700B396E600DD8E14C9145D93071C
:10094800260013D746010D8B998F93F7F70F15479C
:10095800B387E7027D473317F7001347F7FF758F13
:10096800B395F500D98D0CDD82801C5D3707D0FF6B
:100978007D17FD15F98FD205DD8D0CDD8280711193
:1009880002C02AC0824793878702AE973EC082473B
:10099800884311014205418182801C4133F5F500ED
:1009A8003335A000828093C5F5FF0CC182805C417D
:1009B80091C537070004D98F5CC18280370700FCD6
:1009C8007D17F98FD5BF3C49F99B3CC93C49CD8F70
:1009D8003CC982801C4141677917F98F1CC12320CB
:1009E80005002322050023240500B707024023261B
:1009F8000500138787006317E500D8431367F700DE
:100A0800D8C382801387C7016316E500D8431367EC
:100A1800070FFDB7138707036318E500D8438566FA
:100A2800938606F0558FE9BF138747046315E500E1
:100A3800D843BD66C5BF138787056316E500D8434D
:100A4800B7060F00C5B71387C7066316E500D84376
:100A5800B706F000C1BF13870708E314E5FAD843C7
:100A6800B706000FC1B71841E177BD0794517D8FD4
:100A78009C45D58F9449D58FD449D58F944DD58F22
:100A8800D44DD58FD451D58F9455D58FD98F1CC1BE
:100A9800DC455CC19C411CC5DC415CC582801C41B5
:100AA80089C593E717001CC1828041677917F98FC0
:100AB800DDBF1C4101C6CD8F1CC1828093C5F5FFE7
:100AC800FD8D0CC18280B70702409C437D8D333574
:100AD800A0008280B7070240C8C38280EDB7B7077D
:100AE8000240C8C38280B72602409C4A0177130798
:100AF800F7FDF98F9CCAA1676319F60037270240F2
:100B08001C4BB7068000D58F11A893070040631FC0
:100B1800F602372702401C4B93E727001CCBB72768
:100B28000240C8CB984B1367070498CBD847058B6E
:100B380075FF2167FD156315E602984BB70680FF20
:100B4800FD16758F98CB3295D5F9828093070010E2
:100B5800E317F6FC372702401C4BB706020065B7BF
:100B6800130700406319E600984B13050540759B71
:100B780098CBC1FD828013070010631BE600984BD9
:100B88008176FD16758F98CB13050510BDFD828003
:100B9800ADFD8280B7066745B727024093863612B7
:100BA8003797EFCDD4C31307B79AD8C3D4D3D8D3C4
:100BB8008280370700F8BD672A979387F77F63EC31
:100BC800E702B7270240984B81769386F6FD758F2A
:100BD80098CB984BB7060200558F98CBC8CB984B4B
:100BE8001367070498CBD847058B75FF984B817618
:100BF800FD16758F98CB8280B70600F83D67AA96D8
:100C08001307F77F6364D71AB70601083306B500E0
:100C180093860680AA871307D00F63EBC618EFF2F6
:100C28002FC8B364B50093F4F40F41111307E00F14
:100C3800639204146380051437066745372702401A
:100C480013063612B796EFCD50C39386B69A54C39F
:100C580050D354D3216663EFC5041303F6FF3373EF
:100C68006500B30666403384C5403307D5001A943F
:100C78006386C610B684636DC40433068700931573
:100C8800160193D215013A8381C5617333736600E7
:100C9800B30554403A852166BD813EC636C41AC2A2
:100CA80016C09135A24682421243B247B6841684D2
:100CB8001A8739A81307F03F637BB7089376F53F87
:100CC80093040040958C138405C03307950036942F
:100CD8009306F03F63F8960293F6F73F89C613062A
:100CE8000040B306D640B385D4403385F6001306DA
:100CF8000040A9813AC43EC236C0F5338246224735
:100D08009247B6849306F03F63F986023306E400FF
:100D18009376F63F3A8399C2137306C0B305D4405D
:100D28003A8513060040A9813EC41AC236C0653B05
:100D380082461243A24736841A87A5C013060010BC
:100D480093D584003E853AC0793B0247B9A0930702
:100D5800F00F63F6B70013060010A1816933B727B7
:100D68000240984BA166558F98CB984B136707089C
:100D780098CB11473A8541016FF02FB3216685451D
:100D880036C23AC02AC4853392460247A247637DD9
:100D9800D4009306F03FE3EB86F671D013060010FB
:100DA800935584003A855DBF8146C1BD1307F00F96
:100DB8003A858280B70600F83D67AA961307F77F41
:100DC8006365D70E37070108B306C5001307078008
:100DD800AA871305D00F636DD70C33E7C7001377C5
:100DE800F70F1305E00F69E761C65111370567452D
:100DF8003727024022C426C213053512B796EFCD15
:100E080048C39386B69A54C348D354D3144B017538
:100E18001305F5FDE98E14CB41777D173E859D8D31
:100E28002182B7270240C166370304003AC0984BB5
:100E380037040800B383A500558F98CB984B418F92
:100E480098CBD847058B75FF930200103384E300D5
:100E580004403304E50004C0804B3364640080CB55
:100E6800C047058875FC1107E31257FEC8CB984B9D
:100E7800930205101367070498CBD847058B75FFB5
:100E8800984B02457D16698F98CB11EE984BA16659
:100E98002244558F98CB984B924411451367070805
:100EA80098CB31018280168559B71305F00F8280DF
:100EB8008280944593F7060113F3F60081C7DC415D
:100EC8003363F30083D2050093F7F20FA9CF0C41E7
:100ED800611122C226C08147930380023D449304D6
:100EE800800405473317F70033F6E2006310C702A2
:100EF8006397760258C9139627003317C40013471F
:100F0800F7FF6D8F3316C300B365E60085072147E9
:100F1800E399E7FC12440CC1824421018280E39CDE
:100F280096FC18C9C9BF82801C4533F5F5003335D6
:100F3800A00082800CC9828037030140B7070008EF
:100F48008326C3001356050113170501E98F3D8A4F
:100F58004183BDC7B7073000B372F5006394F2024E
:100F6800370600F97D16B3F7C6008326C300F18E55
:100F78002326D30095C54581137505073317A700A8
:100F8800D98F39A8B7074000E98F99CF9D47B39704
:100F9800C70093C7F7FFF58F81C53316C700D18FF8
:100FA800370701405CC78280B70720006393F200CF
:100FB80041069D47B397C70093C7F7FFF58F5DBFFD
:100FC800B7071000E98F99C3BD47EDB793571501CF
:100FD80093F70707B317F700C5B7EFF26F8C5111F6
:100FE80085451305C00302C002C202C4092FB7F722
:100FF800FF1F03A74770B7065200938606609377D2
:10100800F7F06386D70A63E2F60CB70624009386E6
:1010180006606380D72063E0F604B7062200938653
:101028000660638FD72463EFF600C1779387F7F0E4
:10103800F98F3707200013070760639BE7009307C2
:10104800900F35A837072300130707606384E7204C
:1010580031016FF08F85B706500093860660638371
:10106800D71A63E0F604C1779387F7F07D8FB70747
:10107800400093870760E39DE7FC9307900E3714C1
:1010880001407C808A8593078002130504803EC452
:101098000D359307F0077C808A85130504C0113D40
:1010A80045BF3707510013070760E393E7FA930733
:1010B8009006371401407C808A85930780021305C7
:1010C80004803EC4FD33AD47F9B737076400130702
:1010D8000760E386E7F66361F706370762001307E0
:1010E8000760E38CE7F86364F704370753001307D6
:1010F8000760638DE70C3707610013070760E39902
:10110800E7F493070008371401407C808A85930729
:101118008002130504803EC4693B930740078A8513
:10112800130504C07C8071339307800CADA037078A
:1011380063001307076081B7371773001307078029
:101148006386E702636BF7003717700013070780A1
:101158006388E704370771004DB737177400130722
:101168000780E397E7EE9307000C71BF9307000C25
:10117800371401407C808A85930780021305048018
:101188003EC4053B930740078A85130504C07C804D
:101198000D339307900C7C808A853715014001B781
:1011A8009307000C371401407C808A8593078002DE
:1011B800130504803EC4F539930740078A85130553
:1011C80004C07C80FD319307B00CF1B793079006FB
:1011D800371401407C808A859307800213050480B8
:1011E8003EC4C139AD478A85130504C07C80D1311E
:1011F8009307C0028A85371501407C805D399307C3
:10120800C006A1A09307800C7C80930780023EC48F
:1012180061B79307900F371401407C808A85930744
:101228008002130504803EC469319307F0078A855C
:10123800130504C07C80B5399307900E8A8537154D
:1012480001407C80BD319307D0087C808A851305D6
:101258000440B1B59307900F371401407C808A850C
:1012680093078002130504803EC4A1319307F00759
:101278008A85130504C07C802D39930760029DBFC1
:101288009307900F371401407C808A85930780026A
:10129800130504803EC431399307F0078A85130586
:1012A80004C07C803931930700028A8537150140D4
:1012B8007C800131B54751BFEFE29FDE5E211111FD
:1012C800AA84C207C18393F707FCC207C183280019
:1012D8002E843EC2AD26C247B7450F00938505242C
:1012E8003E853EC0EFE09FDD92470C40C98FC207A4
:1012F800C183DEA09E20C207C183F99BC207C183B8
:101308009EA0E1679387076A63E5B70402458605EF
:10131800EFE0DFDAAA874205418191466373D50081
:101328009147C207C183DEAC9E205620322493E742
:1013380017009EA09E20D18EC207C18393F757BF86
:10134800D58F9EA016245E24D58F9EA471016FE0D0
:10135800DFD57620B167FD176393F6028D47B38515
:10136800F5020245EFE09FD593170501C1839396D7
:10137800470199E293E71700A166D58F6DB7E54756
:10138800B385F5020245EFE07FD393170501C183CA
:101398009166D58FE9BF1E2189C593E717001EA165
:1013A8008280C207C183F99BC207C183CDBF1E21BA
:1013B80089C593E707101EA18280C207C18393F7EE
:1013C800F7EFC207C183C5BF1E2189C593E7072070
:1013D8001EA18280C207C18393F7F7DFC207C183CA
:1013E800C5BF1E2189C593E707401EA18280C20799
:1013F800C18393F7F7BFC207C183C5BF0EA9828017
:101408000A291375F50F828093F7E50F19C293E740
:1014180015001EA982801E2189C52167D98F1EA1AA
:101428008280C607C583E5BF1E219385058089E9AB
:10143800056713070780D98FC207C1831EA1828061
:101448007D771307F77FF98FD5BF5E290A2D4205EF
:101458005D8D6D8D220521810D8D133515008280DE
:10146800611102C002C293D7C5012AC23EC0824799
:10147800A205A18199CB9247D1073EC292478843E2
:1014880021016D8D3335A00082809247C181E1072B
:10149800EDB7B737004088C38280B7370040C8C36C
:1014A8008280B737004088C78280AD6737370040F1
:1014B8009387A7AA1CC38280B567373700409387F4
:1014C800C7CC1CC3371702405C53898BF5DF828079
:1014D80023A6A184828003A7C184854714216310B1
:1014E800F7021C31639CE7023C219A0793E707F84F
:1014F80037E700E093F7F70F36972300F7400547E3
:1015080093D756003317D700544189CE93870704E1
:101518008A07B7E600E0B69798C38280EDF33C21CE
:101528009A07F9B793870706B7E600E08A07B697E0
:1015380098C30F1000008280B707674537470240FD
:10154800938737121CCBB797EFCD9387B79A1CCBED
:101558008280374702405C43B7060080D58F5CC362
:101568008280374702401C433706C1F1130626A084
:10157800F18F10410C595443D18F504192050A06FE
:10158800D18F10451206D18F50451606D18F1049BC
:101598001E06D18F50492206D18F104D2A06D18FB1
:1015A800504D4206D18F10514A06D18F50515206E4
:1015B800D18F105566065D8E5C558607CD8FB7E5D1
:1015C800E0FF9385950CED8ED58F5459A206D58FE3
:1015D800145DAE06D58F545DB206D58F3441C20670
:1015E800D58F7441C606D58F3445CA06D58F744544
:1015F80010C3D206D58F5CC3828085473747024027
:101608006317F5005C4393E717005CC382805C4373
:10161800F99BE5BFB7160240DC423707FF7F130787
:10162800F77FF98FC98FDCC28280371702405C537D
:1016380009C593E717005CD38280F99BEDBFEFE201
:101648003FA6371702405C43A1462A84B18B6394B6
:10165800D7085C43B777DC02938707C01CC03716EE
:101668000240544237070020130787029182BD8A3F
:101678003697082358429375F50F1377070833D523
:10168800A70001E73E85EFE07FA348C008C448C42F
:10169800B7170240DC438D46AD83FD8B13D7370067
:1016A8008A07F18BD98F13F6370113F7370063F4E4
:1016B800C600138747FFB7170240DC4363CA070019
:1016C800B707002093874701BA978C23EFE01F9F45
:1016D80008C86FE09F9DB7376E0193870760BDBF4D
:1016E80099C5371702405C4BC98F5CCB8280B7170E
:1016F8000240D84B1345F5FF798DC8CB828099C538
:10170800371702401C4FC98F1CCF8280B717024081
:10171800984F1345F5FF798D88CF828099C5371783
:1017280002405C4FC98F5CCF8280B7170240D84F08
:101738001345F5FF798DC8CF828099C537170240C8
:101748005C47C98F5CC78280B7170240D8471345EA
:10175800F5FF798DC8C782801357550085476319EF
:10176800F700B71702409C4333D5A700058982804C
:10177800B7170240DC53CDBF371702405C53B7069A
:101788000001D58F5CD382801E218D669386060466
:1017980033F7D700B6219E21D58FD621D58FF621D4
:1017A800D58F9625D58FB625D58FD625D58FF625F5
:1017B800D58FD98F1EA19E291EA982801E2189C579
:1017C80093E707041EA18280C207C18393F7F7FB42
:1017D800C207C183C5BF4EA582800A256D8D3335EA
:1017E800A00082801E319206C207C183F99BC207FE
:1017F800C1831EB11E2D1A3103538501C207C1834F
:101808003363C30093F7C7F0558ED18FB7360140C5
:101818004207C207231C6500938606C04183C18323
:101828006306D500B70600406316D500759BD98DB1
:1018380013E715001EAD1AB182801E31056313032C
:10184800F3CFC207C183BD9BC207C1831EB11A2D46
:1018580022061E3133776700035385014206418211
:10186800B2063363C300558E518FB7360140C207A5
:101878004207231C6500938606C0C1834183630623
:10188800D500B7060040631AD50093F7F7FD920517
:10189800DD8DC205C18193E705011AAD1EB18280B5
:1018A800B7370140938707C06306F500B7070040C4
:1018B800631DF5021E21BA21C207C18393F7F7F809
:1018C800D98FFA2193F7F7CFD98F1EA1DE215EB504
:1018D8009E211EB5B7370140938707C06314F500F2
:1018E8009C251EB985475EA98280B717004093875B
:1018F8000780631CF5001E21BA21C207C18393F734
:10190800F7F8D98F1EA1DE215EA582801E319A21AB
:1019180003D38500C207C183F99BC207C1831EB1E7
:101928001E315221162DC207C183C206C18293F609
:10193800C6F8D98EBA21F59B42063367E300D98FE2
:1019480037370140130707C041826316E502BA25FD
:10195800DD9B03D3E500D98FDA21ED9B1376F6CF13
:10196800D98FDA2533676700598EFA2152A116AD4F
:1019780058D91EB1828037070040E318E5FE0357A7
:101988004504060342074183499B420741832312CA
:10199800E50483524504DA2183D3A5000983B3E221
:1019A8007200336757003367670042074183231289
:1019B800E50465BF1E3165771307F7CFC207C183FA
:1019C800BD9BC207C1831EB11E315221162D03D300
:1019D8008500C207F98E9A21C18393F7F7FD220784
:1019E800D98EBA214206C2063367E3001207D98F9F
:1019F80037370140C207130707C04182C182C1833C
:101A08006314E504BA2593F7F7F703D3C500120763
:101A1800D98FDA21C207C183120793F7F7FBD98F51
:101A28007D771307F73F718FF225C207C1833366AD
:101A380066000A06518F131607014182FA2152A146
:101A480016AD18DD1EB1828037070040E318E5FEA9
:101A5800035745040E03420741831377D7FC420717
:101A680041832312E504BA25835245040A073367E4
:101A7800670003D345001353130033E36200336751
:101A88006700420741832312E5044DBF1E317D776D
:101A98007D17F98F1EB11E315221562D6577130718
:101AA800F7CFF98E9A2103D3850042062207D98EF3
:101AB80079777D17F98FBA21C206418233676700AB
:101AC8003207D98F37370140C207130707C0C182D1
:101AD800C183631BE50071777D17718FD2251A06C4
:101AE800518F131607014182FA2152A156AD38C110
:101AF8001EB1828023100500231105002312050062
:101B080023130500231405002315050023160500DB
:101B1800231705008280854723100500231105003F
:101B28005EA123130500231405008280B737014006
:101B3800938707C09DC16306F500B7070040631788
:101B4800F5001E2193E717001EA139A0B717004022
:101B580093870780E307F5FE82806306F500B707E1
:101B680000406319F5001E21C207C183F99BC20713
:101B7800C183D9BFB717004093870780E31EF5FCE0
:101B8800DDB78357450491C52167D98F2312F50422
:101B98008280C607C583DDBF5E2501C6CD8F5EA5E1
:101BA800828093C5F5FFED8FDDBF1E25C207C18377
:101BB80093F7F7F8CD8F1EA58280B737014093873A
:101BC80007C09DC16306F500B70700406317F5001D
:101BD8001E2193E707081EA139A0B7170040938775
:101BE8000780E307F5FE82806306F500B70700402B
:101BF800631AF5001E21C207C18393F7F7F7C207DE
:101C0800C183D1BFB717004093870780E31DF5FC58
:101C1800D5B7B7370140938707C06306F500B70704
:101C280000406319F5001E2DC207C183DD9BDD8DC1
:101C38000EAD8280B7170040938707806319F500BF
:101C48005E218D81C207C183F99BDD8D4EA1828003
:101C5800B7370140938707C06306F500B707004010
:101C6800631DF5001E2D7D771307F77FF98FA205F9
:101C7800CD8FC207C1831EAD8280B71700409387FE
:101C880007806319F5005E218981C207C183F59B2E
:101C9800DD8D4EA18280B7370140938707C02E871C
:101CA8006306F500B7070040631DF5004E2DFD776C
:101CB8009387F77FFD8D2207D98DC205C1814EAD6F
:101CC8008280B7170040938707806318F5005E216C
:101CD800C207C183DD9BDD8D4EA182801E31920536
:101CE800C207C18393F7F7FDCD8FC207C1831EB129
:101CF80082801A318547B397B70093C7F7FFF98FEA
:101D08001EB11E313316B600D18FC207C1831EB172
:101D180082805E21C207C18393F7F7F8C207C183A7
:101D28005EA15E21CD8F5EA18280B7370140938787
:101D380007C06306F500B7070040631DF5001E25C0
:101D4800C207C183E19BC207C1831EA51E25CD8F93
:101D58001EA58280B7170040938707806310F5029D
:101D68001E21A205C207C18393F7F78FC207C1835B
:101D78001EA11E21CD8FC207C1831EA18280B73745
:101D88000140938707C06306F500B7070040631456
:101D9800F5004CD98280B7170040938707806313FA
:101DA800F5000EA98280B7370140938707C0630604
:101DB800F500B70700406314F5000CDD8280B71703
:101DC8000040938707806313F5004EA98280B737D8
:101DD8000140938707C06306F500B7070040631406
:101DE800F5002CC18280B7170040938707806313E2
:101DF800F5004EAD82801E2DC207C183CD9BC20760
:101E0800C1831EAD1E2DCD8F1EAD82801E2D7D7708
:101E18001307F73FF98F1EAD1E2DA205CD8FC20700
:101E2800C1831EAD82805E2DC207C183CD9BC207D0
:101E3800C1835EAD5E2DCD8F5EAD82805E2D7D77D8
:101E48001307F73FF98F5EAD5E2DA205CD8FC20750
:101E5800C1835EAD8280EFE2AFA49A21BE21D22178
:101E680096252A84AE8409EBBE85EFF0BF97EE2055
:101E7800228551376FE06FA391456319B700BE857E
:101E8800EFF0BF9BEE2022855137EDB72145EE20BC
:101E98006314A7061A309206420741831377F7EFB7
:101EA800420741831AB05A2C0A300353C40142072F
:101EB80041831377C7F0518F558F3363C300B7360B
:101EC800014042054207231E6400938606C04181F3
:101ED80041836306D400B7060040631AD400137523
:101EE800F5DFA207C98FC207C18313E507105AACF3
:101EF8000AB022850D3FBDBF1A307D757D15698FEB
:101F08001AB04A2C05631303F3CF1A3033756500F2
:101F180022060353C40142064182B2063363C3005A
:101F2800558E518DB736014042074205231E640085
:101F3800938606C0418341816306D400B7060040FA
:101F4800631BD400F976FD16758FB207D98FC207C7
:101F5800C18305675D8F4AAC1AB02285C53519BFA4
:101F680037370140130707C0AA876306E50037071C
:101F780000406316E500885F42054181828037177B
:101F88000040130707800145E39AE7FECA2BEDB727
:101F980093C5F5FFC205C1810EA982801E294A2575
:101FA800ED8F4205418189C76D8D3335A000828050
:101FB8000145828093C5F5FFC205C1810EA98280C3
:101FC800EFE20F8E1629F577FD17FD8EFE21DA2533
:101FD8002111D58F1EA95625FD779387379FFD8E32
:101FE800DE212A84AE84D58F9625D58FB625D58F48
:101FF8005EA55E29C207C18393F7F7CFD98F5EA983
:102008004800EFF0CFE3B747014093870780631597
:10201800F404C24765453385A7028C408A05EFE082
:10202800EF89930540062AC0EFE04F8993144500D5
:10203800024593054006EFE02F8B120593054006F5
:1020480013052503EFE08F873D89458D42054181C2
:102058000AA461016FE06F85B2476DBF5E2589C52F
:102068000967D98F5EA5828079777D17F98FDDBFE3
:1020780013F7F50F85471583B395B7006319F70074
:102088009307C500984301CE4D8F98C38280894637
:1020980093074501E318D7FE93070501E5B793C5F4
:1020A800F5FFF98D8CC3828093F5F51F4EA18280D0
:1020B8004A211375F51F82805E2989C593E7870039
:1020C8005EA98280C207C183DD9BC207C183CDBFE1
:1020D8000A216D8D3335A000828013F7F50F8546F0
:1020E8001583AA873395B6006310D702DA279E2393
:1020F800798DC207C18301C9A18105473317B7008C
:10210800F98F3335F000828089466314D7009A2B03
:10211800F9BFDA2BE9BFEFD2BFF8B707002003A554
:102128000701B7157A0093850520EFD03FF913759D
:10213800F50F2389A1849307803E3305F502239880
:10214800A1846FD09FF6B7F700E0D843799BD8C336
:1021580003C721853307A70298CB23A40700984318
:102168001367170098C3D843058B75DF9843799B8D
:1021780098C38280B7F700E0D843799BD8C303D7C8
:1021880001853307A70298CB23A407009843136758
:10219800170098C3D843058B75DF9843799B98C37C
:1021A8008280732500308280731005308280EFD2E0
:1021B8003FEF2145EFE09F9211C90545EFE03F92BF
:1021C800238A0184239C01846FD03FEE2A84114521
:1021D800EFE0DF901DC11145EFE07F908147014797
:1021E80013860186A94593961700B296962285070D
:1021F8003697E39AB7FE23AEE1840945EFE01F8ED8
:1022080061D50945EFE0BF8D03C7318501C7A389B3
:1022180001845DBFA947938601865146139717002D
:1022280036971A2385073A94E39AC7FE03A5C18512
:10223800D14529052295EFD07FE883C7418585C31D
:1022480083D78185420541818507AA978583C2077F
:10225800C183239CF1848547238AF184B5B742055D
:102268004181239CA184C5BFEFD29FE31D3F930703
:10227800800873B007300F100000239C018423AE40
:102288000184238A01840547A389E184313F6FD003
:10229800DFE1EFD2FFE0130181FA6146814548088A
:1022A800EFD09FEA1306C00281456810EFD0DFE93E
:1022B8008545054502C402C602C802C002C2EFF045
:1022C8002FC2854513050022EFF06FC30145EFF0DB
:1022D8006FB437150140930700042C00130505401F
:1022E800372401407C8402C8EFE0BFBC13050440DA
:1022F800EFE02FCA0547B70706004C08130504404E
:102308002304E1023ED002CA02CC02CE02D2EFE0A0
:10231800EFCA8D460546A54513050440EFE00FD1E9
:10232800854513050440EFE04FE49D460546994571
:1023380013050440EFE08FDE9D6513050440EFE0D0
:102348004FDA814513050440EFE08FDA8145130524
:102358000440EFE0EFD7854513050440EFE0AFE612
:10236800814513050440EFE08FE4B704024013856C
:102378008400EFE02FE69307C4443ED69387018696
:102388003ED8D1473EDC93070008BEC09307001033
:10239800BEC293070040BEC4930700026C10BEC6BD
:1023A800138584008967BEC802DA02DE82CAEFE0BC
:1023B8008FEB0545EFE00FF20546B945138584001C
:1023C800EFE02FEFD94705470A857C803AC2230101
:1023D8000100EFF04F90239C0184239B018423AEDE
:1023E8000184238A0184994513050440A389018443
:1023F800EFE06FDB854513050440EFE00FC285452C
:1024080013858400EFE0AFE9854513050440EFE04C
:10241800CFBF09450D3B854513050440EFE0CFC903
:10242800056513050596EF00F0303D3DE16793879C
:10243800076A83C6418599EAFD17E5FF0145EF0064
:10244800702F1D35130181056FD03FC611451D330F
:1024580083D78185C207C183239BF184C5B7EFD297
:102468003FC46111AA84353B91E481473E8521012F
:102478006FD0BFC39307800873B007300F100000F8
:1024880083C7418503D4818503D7618593F7F70F07
:102498003EC2420741833AC0013B92474204418011
:1024A800E9D70247814663568700198C93160401C1
:1024B800C18296A065BFEFD2BFBE372401408145D7
:1024C80013050440EFE04FBF1145B539130504402B
:1024D8009145EFE04FCD1305044085456164EFE079
:1024E8006FC21304046AB7240140B727014091451D
:1024F80013850740EFE06FCA1DE17D147DF4B72412
:102508000140138504409145EFE0EFC9138504406D
:102518008545EFE06FBA893B22856FD01FB9D14559
:1025280013850440EFE0AFC52A84D1BF7111E1479C
:10253800DC8198819307F7FF93F7F70FDC8119E3A4
:10254800110182800100F5B7EFD29FB55111231117
:1025580001009947371701401CCB7C802AC4854766
:102568008A85371501403EC2EFE0BF9431016FD034
:10257800DFB3B757004005669306803E9387074050
:10258800130606F0DA2B698F19C301458280DA2B0E
:10259800718F19E3FD16FDF605458280EFD25FB015
:1025A800B72706004111938707A83EC0B707004028
:1025B800375400403EC2B70700043EC48A8591677D
:1025C800130504403EC6EFE03FCFBD651305044048
:1025D8009385F57FEFE05FE5854513050440EFE05F
:1025E8009FDB41016FD07FACEFD29FAB37550040E6
:1025F800814513050540EFE01FDA5145B137B7179C
:102608000140194798CB1D372544894537150140A6
:10261800EFE09F9109ED9147B7140140DCC83937C5
:1026280091477D149CC81374F40F093779FC37144B
:10263800014099475CC8DD3D91471CC8C53D8947A5
:102648001CC8ED357145093737540040130504405F
:102658008545EFE05FDC814513050440EFE0BFDB13
:10266800353F6FD09FA4EFD2BFA383C78188511194
:102678009DEB8545454502C002C202C4EFF02F8894
:10268800854537052000EFF06F8999477C808544A0
:10269800F1478A85371501403EC426C2EFE07F81A5
:1026A800F53D2384918831016FD03FA0EFD25F9F21
:1026B80041112AC22EC436C061CAF9C632849307B2
:1026C800803EB75400403EC6B757004013850740C8
:1026D800B7050200EFE0DFD8B24745E58545138529
:1026E8000440EFE0DFCCB70403009307803E9385F6
:1026F8001400B7540040138504403EC6EFE0FFD4F1
:10270800B707030093851700B24759C1924713854D
:10271800044001469395170093F5E50FEFE0DFCEEF
:10272800B70407009307803E93852408B7540040F8
:10273800138504403EC2EFE05FD1B70707009385D9
:102748002708924729C9A24513850440B704070002
:10275800EFE0DFCA9307803E938444083755004072
:10276800A685130505403EC2EFE03FCE92471DC542
:102778003707001093070708A2843EC21307803E5C
:102788001DA0FD17A9F38D35054541016FD0FF91B7
:10279800FD17A5F3CDBFFD17D1FBF5B7FD17DDFF7D
:1027A800DDB77D176DD39245B756004013850640B7
:1027B8003AC4EFE0FFCA2247B75600407DD18C20CB
:1027C800138506408504EFE07FC3824793F6F40F34
:1027D8003307F4001377F70FE312D7FA370407002B
:1027E8009304803E93054408375400401305044081
:1027F800EFE0BFC5B70707009385470801C9130570
:1028080004408545EFE05FBC014541B7FD14E9FC94
:102818009DBFEFD2FF8831112AC22EC436C063058E
:102828000616638306163754004013050440854591
:10283800B284EFE01FBBBD65130504409385F57FA7
:10284800EFE09FBE835744417D771307F70FF98F59
:10285800130404401307803E5EA81E2C898B6390E6
:10286800071222858545EFE09FB405451933631BA0
:102878000510924722850146860793F7F70FBE8514
:102888003EC2EFE07FB80945ED31631D050E5E28B5
:10289800A2452285C207C1837C861E2CC207C1833C
:1028A8007C863C86EFE09FB51145E131631C050C41
:1028B80022858545EFE0BFAF0545EFF09FCB79E175
:1028C800024789476318F700856593850580228547
:1028D800EFE09FB592453754004005461305044084
:1028E800EFE09FB20945EFF0DFC82AC241ED024789
:1028F8008547631EF708EFF0DF8A2AC09307800830
:1029080073B007300F100000814513050440EFE055
:102918005FAD83574441130404408545C207C18312
:102928007C871E2C2285C207C1837C873C87EFE009
:10293800BFA90245EFF05F8713050004EFF07FC3DE
:1029480031E12285EFE0DFAB88A03755004013075F
:10295800803E130505401E2D898B6393071485451A
:10296800EFE03FA8BD65B75700409385F57F138515
:102978000740EFE07FAB124551016FD00FF37D1791
:10298800E31D07ECEFF05FC685473EC2EDB702478F
:102998008947631CF706EFF0DF802AC09307800899
:1029A80073B007300F100000814513050440EFE0B5
:1029B8005FA383574441024513040440C207C183FF
:1029C800FC801E2CC207C183FC80BC80EFF0CFFDC9
:1029D8001145EFF01FBA5DF5EFF0AFFC2AC0930781
:1029E800800873B007300F10000085452285EFE09E
:1029F800BF9D2285EFE0DFA088A02285EFE05FA0E1
:102A080088B00245EFF04FFA89B783574441C207AF
:102A1800C183FC8183578441C207C183FC81BC8187
:102A28008247A69713F4F70FB307944093F7F70F6D
:102A38000D476397E7041145EFF0BFB321F537540D
:102A48000040814513050440EFE0BF991305044099
:102A5800EFE01F9B88A01145EFF0BFB1E31405F22A
:102A6800854513050440EFE03F9613050440EFE069
:102A78003F9988B013050440EFE09F98A8A0F1B5EE
:102A880013050004EFF0FFAEE31E05EE37550040D6
:102A9800130505408504EFE0BF96A38FA4FE69B730
:102AA8007D17E31A07EAF9BDEFD28FDF05456164A8
:102AB800EFE0BFB71304046A13051006EFE0DFC99F
:102AC80009E57D1475F86FD04FDE1565130555556A
:102AD800EFE03F9C1945EFE05F9C1305803EEFE077
:102AE8005F9CEFE09F9CEFE03F9DF1BF6FE0FF9B95
:102AF800EFD20FDBFD769386066A4111AA84B6876A
:102B08006343D500AA871396070185664186938695
:102B1800069663D3C600B6871397070141873AC460
:102B28003707002083168703139707014187638CB3
:102B3800E6081395070185473EC04181634B900025
:102B480002C081C8B307A04013950701FD57418112
:102B58003EC0056413040496098C93170401C183CD
:102B68003EC28386A18836C6F1268247B246638074
:102B7800D7062AC6EFF04FEF32458145A384A188D6
:102B880037050040EFF02FA2373501408145130586
:102B980005C0EFF0CF9E85659385059663C4040450
:102BA80037050040EFF02FA0924537350140130557
:102BB80005C0EFF0CF9C02472385E1882247B7077D
:102BC8000020239CE702224541016FD00FCE83C627
:102BD80091882AC6E381A6FCEFF00FE93245A38469
:102BE800A18855BF37350140130505C0EFF02F996F
:102BF800924537050040EFF00F9B75BFEFD24FCAE3
:102C08002A840145052EEFF02FE60DCC05643735F3
:102C1800014093050496130505C0EFF04F96930500
:102C2800049637050040EFF00F98238501888567E3
:102C38003707002093871796231CF702A38401887F
:102C48006FD0AFC6373501408145130505C0EFF099
:102C58000F938145F9B7EFD2AFC471110A8689463F
:102C68008D451945EFF0FFBA11016FD00FC4EFD2AF
:102C78002FC3711189460A868D451945EFF07FB932
:102C880011ED1C80988011659A070983D98F7D15ED
:102C98001D8D4205418111016FD02FC141657D1500
:102CA800DDBFEFD2EFBFE137C167FD17630AF5005B
:102CB800A567938707CA3305F50239814205418123
:102CC8006FD0AFBEEFD2CFBD130141FA1306000596
:102CD8008145680002C002C202C4EFD0EFC6EFE02F
:102CE800BF8585451145EFE09FA1371501408A85CD
:102CF800114413050580608002C4EFE08F9B85476F
:102D08006800BEC2BECCBEC6BEC8A2C002DC82C4B9
:102D180002DEEFE01F850545EFE03F8EEFE07F83A1
:102D28001301C1056FD06FB8EFD28FB78145373522
:102D38000140EFE0BFA8854537350140EFE01FA807
:102D48006FD0AFB6EFD2CFB5056501118545410506
:102D580002C002C202C402C602C802CA02CC231EB2
:102D68000100EFE0DF99930700027C80E1473EC451
:102D78008A858547371501403EC2EFE08F93930758
:102D880000048A85371501407C80EFE08F92B707F1
:102D980004013EC6B70700023ECAC1473ECC6C00DC
:102DA8009D4737350140FC8602C8EFE0FF9D854509
:102DB80037350140EFE09FA005616FD00FAFEFD22C
:102DC8002FAE6111B307B5000964AA843EC013048D
:102DD800047182476394F402930500083735014073
:102DE800EFE0BF9F85476318F5007D1475F419A0BF
:102DF8007D1711E7153F21016FD02FAB2287894539
:102E0800373501403AC2EFE05F9D124775D18C20FB
:102E1800373501408504EFE01F9C65BFA38E01880C
:102E2800238E01883735014023AC0188814513057D
:102E380005C0238A01886FE07FEAEFD26FA61301ED
:102E480081FD85451305000202C602C802CA02C0F8
:102E580002C22314010002CC02CE02D002D2EFE05B
:102E68001F8A85450545EFE07F8BA1477C8637158E
:102E7800014085473EC86C00E147130505403ECA3E
:102E88000564EFE00F839307F4958A8537050040C2
:102E98003EC202C0EFE0DFA02808EFE0BFC5C1676F
:102EA800938707062C08370500403ECC231F0100F6
:102EB80023100102EFE01FB0054691453705004099
:102EC800EFE03FE3A14537050040EFE07FD88545B7
:102ED80037050040EFE07FCE2808EFE0BFC1930739
:102EE8000007130404962C08370500403ECCE08701
:102EF80023100102EFE09FB9A14537050040EFE03C
:102F08009FD99305000737050040EFE09FE0814512
:102F180037050040EFE07FC9914537050040EFE0F5
:102F2800DFE0854537050040EFE05FC0130181020F
:102F38006FD0AF97EFD2CF9685659385059663EDF1
:102F4800A5009307300D63EAA70037050040EFE0BE
:102F58001FE801456FD06F952E85856713571500BB
:102F6800938507949387679C3385A740998D63F36E
:102F7800A500AA85C20537050040C181EFE03FE5FD
:102F88000545C9BFEFD2CF910566130141FC130572
:102F9800468285453714014002D002D202D402C0CD
:102FA80002C202C402C62318010002D602D802DAFD
:102FB80002DC02CA02CC231E0100EFE04FF41147E5
:102FC800E14785440C10130504402310E1023ED468
:102FD80026D2EFD01FEE130504808945EFD09FF568
:102FE80089462310D1020C10D1461305048036D42B
:102FF800EFD03FEC05661304F69522C6373401403E
:103008002C00130504C002C423080100EFE05F8907
:103018006810EFE03FAEC167938707066C10130591
:1030280004C03ED623190102231A0102EFE01F8EC5
:10303800130504C08545EFE05FB8130504C0930588
:103048000002EFE01FCDA145130504C0EFE07FBCEF
:103058004808EFE05FAC11474C08130504C03ACAB2
:1030680026CC231E0100EFE01FDF130504C09545A1
:10307800EFE05FF4130504C093050040EFE05FF153
:1030880005468545130504C0EFE01FB193075002BC
:103098000A857C80448102C2EFE0EFC393073012B7
:1030A8000A857C8026C223010100EFE0CFC2130508
:1030B80004C08545EFE0FFAC8545130504C0EFE08B
:1030C800FFA61301C1036FC05FFEEFC27FFDEFF0E3
:1030D8004F8D9307800873B007300F10000003D49A
:1030E800C18823960188EFF02F8C42044180228505
:1030F8006FC0BFFBEFC2DFFA411109473734014007
:103108002AC07882014605479145130504C0231358
:10311800010023160100231701003AC4EFE0DFA7DE
:1031280093040002B7E700E023A297180F100000ED
:103138009145130504C0EFE0FFE793050040130530
:1031480004C0EFE0FFE423A80188EFF03FCD8247F9
:1031580023960188B9C337150140930780044C00B2
:10316800130505803EC6EFD0DFD49145130504C092
:10317800EFE05FE493050040130504C0EFE05FE172
:1031880005469145130504C0EFE01FA1B7E700E02D
:1031980023A2971041016FC05FF137140140130556
:1031A80004808945EFD01FD9D1474C00130504800E
:1031B8003EC6EFD01FD0F9BFEFC29FEE37350140B2
:1031C800835705C1130505C01394070193F74740BA
:1031D80085C741809377044095C3EFF03FC43734E7
:1031E800014093050040130504C0EFE07FDA9145E4
:1031F800130504C0EFE01FDC6FC03FEBEFE05FD6C4
:1032080083A70189056713070796B387E70205882F
:10321800AA9711C49306F04A63E3A600BA9703A5D8
:10322800818903C7D1893385A74029E783C6C18926
:1032380081CE37D7F2FF13070710B7F602002A9797
:10324800938616E03337D700238AE188054723ACF5
:10325800F188238EE188A38EE188894537350140BE
:10326800130505C0EFE09FA73735014091451305C9
:1032780005C049B783C741899DC3E9779387072468
:103288005D67AA9713070770636BF7009305000340
:103298006105EFC0BFE2420541812396A188A38E54
:1032A8000188814565BFEFC2BFDFB734014085455E
:1032B800138504C0EFE09FCE1DC5EFE09FEE2A8482
:1032C8009307800873B007300F10000083A70189A7
:1032D800138504C08545850723A8F188EFE09FCDB5
:1032E8002285EFE07FEC6FC05FDCEFC27FDB7111FE
:1032F80089460A86854513058004EFF08FD109C5F4
:10330800054511016FC07FDAE9779387070689467B
:103318000A868545130580047C80EFF02FB9D5B760
:10332800EFC21FD8711189460A86814513058004AA
:10333800EFF02FCEAA8761759DE33880130510271B
:103348009305803E931787002183D98FC207C187D1
:1033580091873385A702EFC0FFD54205418511014A
:103368006FC0BFD4EFC2DFD3411137440140B1472A
:1033780002C42AC08145130504807C8502C202C6A6
:10338800EFE0DFCD8A8513050480EFE07FC31305E6
:1033980004808545EFE05FD2854513050480EFE0A2
:1033A800FFCB41016FC07FD0EFC29FCF37440140B0
:1033B8009305000213050480EFE09FD109C51305AA
:1033C8000480EFE0FFCE3745014005469305505293
:1033D80013050580EFE0DFC9A382018A6FC0FFCC27
:1033E800EFC21FCCAA84116531118545450502C479
:1033F80002C602C802C002C2EFE06FB0370516006D
:1034080085451305050CEFD03FB305442C00E14773
:10341800371501403EC8608422C6EFD09FA91385A6
:10342800C19251251385818ABD2D2685A382018AE3
:1034380023A0018AEFF01FF33745014005469305A5
:10344800505213050580EFE0BFC2930700120A85AA
:103458007C80408122C2EFE00F882382818A51015B
:103468006FC0BFC4EFC2DFC35111854423110100EF
:103478002314010023150100648026C21DCD614775
:103488008A85371501403AC437440140EFD07FA2FE
:10349800854513050480EFE07FBC0546930550522F
:1034A800130504802382918AEFE09FBC37E700E090
:1034B8002322971031016FC05FBF374401401305C5
:1034C8000480014693055052EFE09FBA130504802B
:1034D800014693057072EFE0BFB90146930560623B
:1034E80013050480EFE0DFB837E700E023229718E0
:1034F8000F100000814513050480EFE03FB62382DA
:10350800018A1385818AA382018A712B91478A8552
:10351800371501403EC4EFD0DF9969BFAA851385EE
:10352800C19275AB83C7418A99E7014582800145FD
:1035380021016FC09FB7EFC2BFB661112A8465D958
:103548002EC0F5D51385818AE12382459307F007BC
:103558002E95E3CEA7FCB307B4000C201385818A0F
:103568003EC0812B82470504E319F4FEEFE07FC3D8
:103578002AC09307800873B007300F10000003C7F4
:10358800518A31E7930571001385818A892B21C1FE
:10359800B7440140054701469305505213850480FE
:1035A800A382E18AEFE0DFAC0146930560621385F0
:1035B8000480EFE0FFAB8C8313850480EFE0DFAE7F
:1035C80005469305707213850480EFE07FAA0245D3
:1035D800EFE09FBD0545A9BF23A0A18A8280EFC265
:1035E8003FAC83A7018A91CF83C7518A99EB138592
:1035F800818A392B19E503A5018AEFF0BFD623A0EC
:10360800018A6FC09FAA83C7418ACDC7EFC25FA94D
:103618003744014071119305505213050480EFE0BF
:10362800DFAB11CD13050480EFE09FA89375F50F6C
:103638001385C192CC81B52911016FC01FA79305CD
:10364800707213050480EFE05FA931C5930531005E
:103658001385818A692119C58C8113050480EFE0DF
:10366800BFA4D9BF93057072130504800146EFE02B
:103678003FA09305000413050480EFE07FA501C572
:10368800EFF09FD255BF054693056062130504808D
:10369800EFE01F9E55B79305606213050480EFE0C5
:1036A800DFA359D901469305606213050480EFE052
:1036B8003F9CF9B7828081472146131785016187AE
:1036C8009306800F634407009306000C3387F500C8
:1036D800060514A385071375F50FE390C7FE8280CE
:1036E800EFC21F9C7111AA842E859385019B32C05D
:1036F800EFF07FFC26859385819BEFF0DFFB024589
:103708009385019CEFF03FFBE1451385019BEFF0AA
:103718000FEB1305C003EFE01FA311016FC0FF9863
:103728000146814501456FF0BFFB6FF07FFF93872E
:10373800819C23A00700238207002393070082802F
:103748009387819C1307902BD8C7056713070796A3
:103758009AA76FF0DFFD9307F5FFC2070567C183DE
:103768009306F79563F4F600130507962398A19C32
:103778008280797122D626D432C463040532AA82A3
:103788000145638A052A03A3450003A54200935710
:10379800F341B3C36700B383F340B307A34013D423
:1037A800F74113D7A70113166400598E13976700C2
:1037B800BA9733B7E700229632974207C183D98F69
:1037C8009841BA9703A702001D8F916793870765F1
:1037D80063D4E71CDD77938707363E971386819C71
:1037E8008315860050229387819C2EC69355F741F6
:1037F80033C4E500B305B4402EC26310061C22464C
:103808006306061C65466343B61C1306401F634FD8
:10381800761AF223C165FD156319B6180546D0A3BB
:10382800D023BD4532CA524405466303C400A945A6
:103838003306B74063C9E5003304B040014663541A
:1038480087003386E500056413040430B304860258
:1038580033168602A1806206D18C7D76130606DDBA
:1038680063D3C400B2840566130606236353960027
:10387800B28403A682001304400CB30286023314F8
:10388800860293D202014204B3625400AA926D7474
:10389800A6921304D47363D38200A282156413041E
:1038A800348C63535400A2822695330565402AC0A0
:1038B80002CC1305F002635C7500331366020545FC
:1038C8002ACC6346030022453335A0002ACC524453
:1038D800054502CE6309A402C84761733385A20275
:1038E80063536500617521636353A30021659303E6
:1038F800E00433037502331575021353F3004605CC
:10390800336565002ACE09651305A5D03383A20265
:10391800B2433395A202135403014205418D2AC4D0
:103928000565130505133303A6023315A6021354C0
:10393800430102433205418D02442AC60D65130531
:1039480095053303A3023315A4021354030122433C
:103958004205418D2AC888431354054122D2724436
:1039680022933244229342442293135405412293D2
:1039780063D1630612446354B40C9355C540B30530
:10398800B5408CC39355F6412D8E0D8E9D6593855C
:10399800E51B63C3C506D5A0F1779387079BE35F53
:1039A800F7E2A567938707CA0DBD0506420641825F
:1039B800F2A3CD45E3F6C5E695B5224611C6924574
:1039C80013067002E35EB6E4238207002393070020
:1039D80081BD3304704022D0A283635364009A836C
:1039E8001244635EB4049355C540B305B5408CC317
:1039F8008255E349B3F89A8313950301418585CE2F
:103A080082473303734033336000DCC2F24798C205
:103A180084C69EAAA24723A65600AAAEBEAAB2474B
:103A2800A38E6600DEAAC247FEAA92579EAED24770
:103A3800DCAEE247FCAE3254A25445618280935515
:103A4800F6412D8E0D8E9D659385E51BE3C6C5FA5F
:103A580082451306900B3386C502B705E0FC2A960B
:103A68006354B6003706E0FCB705200363D4C500ED
:103A78003706200390C3E30173F88C433306734081
:103A880042063386C540B705E0FC6354B6003706E6
:103A9800E0FCB705200363D4C5003706200390C3B4
:103AA800A1BF014549BF09C523000508A3000508B2
:103AB8008280AA871DC1034705088346150801456A
:103AC80005071377F707638BE60083C607080545E4
:103AD800BE968CA22380E708828001458280AA874F
:103AE800014595C78DC583C6070803C717086380B6
:103AF800E60203C7170805453E97182398A103C790
:103B0800170805071377F707A380E70882808280E4
:103B180005C90347050883471508636BF700834702
:103B28000508034715083385E7401375F50F8280AC
:103B38008347050803471508138507F8198DF5B756
:103B4800014582809387419E23A0070023A2070096
:103B580023A4070023A6070005679387819D130701
:103B6800078D98D31307B06E2205D8D313073010EA
:103B7800238E070088C323A2070023A407009AB74F
:103B88008280EFC2EFD19387819D83C7970261112D
:103B98002A849384819D99E732C22EC0EFF09FFA60
:103BA80012468245DC2CD4401397170026974EA75F
:103BB80003C7840285079D8BDCAC998F9D079D8B7D
:103BC80086073D67A697130757868395C700B3876F
:103BD800E6023397E602C1834207D98F617763D340
:103BE800E700E17721676353F700A1679302E004D8
:103BF8003383570288509844B39257021353F30003
:103C0800C60233E3620033836540AE82930520FB2E
:103C180063D4B200930220FB9305E00463D45500FB
:103C28009302E00493D3F741B3C5F300B38575401D
:103C3800A1678D8FB385F202B397F202BD81C607E3
:103C4800DD8DB307B340B387A702B305E50233158B
:103C5800E502A1816205C98DC8508D8F958FB38506
:103C6800A702B397A702C181C207DD8D8567938735
:103C780027063385F602B695B396F6029C4059811D
:103C8800AA06558DAA97B7A68C0063CCD70A958F3C
:103C980022041D8CB756460063D9860AB76673FF9F
:103CA80036948D669386A6913305D402B316D40252
:103CB8003D81C606558DAA97B7A68C0063CED70856
:103CC800958FB79613009386465F9CC0B307D402BE
:103CD800B316D402BD83C606D58FB716A6FFAE9716
:103CE800938606C063D3D700B687B7F65900938684
:103CF800064063D3F600B687B785FBFF9385B5C04A
:103D0800B306B402DCC03314B402BD824604C18ECB
:103D18003697B7E6FCFF6354D70037E7FCFFB726B2
:103D2800030063D4E6003727030098C401CA94400F
:103D3800A1872187A18614C25CC218C621016FC061
:103D4800CFB6E3D707F4B697A1B7B7B6B9FFE35A2A
:103D5800D4F4B7A68C00A9B7E3D507F6B69795B7FC
:103D680023A4A1A011E181452382B1A081476393D7
:103D7800B70082805A2123000500A30005008507AB
:103D8800231305003AA193F7F70F4105CDB703C5F3
:103D980041A083A781A0416681467D166313D500A3
:103DA8008280CE2399C5BA237D174207418319C75C
:103DB800BAA3850693F6F60FC107CDB79823AEA32D
:103DC80019E3983311CBFA23E305C7FEFA23050755
:103DD80042074183FAA3F1BF054798A3D9BFEFC2B1
:103DE8002FACEFE00FBC9307800873B007300F10BB
:103DF800000003A781A003C341A0BA861306F00FF1
:103E08001304F00F8147631AF3009307F00F63124E
:103E1800F402EFE06FB96FC04FA98C2291C58C26D0
:103E280063F4C5002E863E84850793F7F70FC10615
:103E3800D9BF1204B307870023800700054798B34A
:103E4800EFE08FB683A781A0A297DC4791C3829742
:103E5800EFE02FB59307800873B007300F1000000C
:103E680083A781A0A297A380070065B7C146014731
:103E780081471356E5018A070607D18F0A0563753E
:103E8800F700998FFD170907FD16E5F6135517007A
:103E9800B337F0003E958280370700109306F6FF8F
:103EA8007917AA877D55636CD70463FAC5049316FE
:103EB800160013132600931236002147014593D3A9
:103EC800C7019205B3E5B3009207120563E65500F2
:103ED800B38555401365850063E66500B385654085
:103EE8001365450063E5D500958D1365250063E5E9
:103EF800C500918D136515007D1771F3828082804E
:103F0800B306B5023315B5026347050293172500BA
:103F1800F98237470F0013070724DD8E79853306AA
:103F2800E502B3B7E6023387E602B297C2074183D8
:103F380033E5E70082803307D040B307A040B336AB
:103F4800D000958F939627007983558FF987B366AC
:103F5800F700E9DEB7460F00938606243305D7023B
:103F6800B387D70241813337D702BA97C2075D8D2D
:103F78003305A04082801387C1A00327C709938710
:103F8800C1A063C6E50003A7070A6356B70023A2CA
:103F98000700BA850146D4431307803E8CC3B30794
:103FA800D7020CC110C53317D702C1834207D98F76
:103FB8005CC18280EFC2CF8E31112A84BA82BE845E
:103FC8006342B002B307A50223A0A2003314A502DE
:103FD800C1834204C18F9CC0A16702571CC3510111
:103FE8006FC0AF8CA1678D8F2E8563D887021C08A0
:103FF80021653AC23EC038007C00018D653FA2476A
:10400800924232472165B303F540F177A297BA97F8
:1040180023A072009CC0C247C9B7B6833307C40245
:104028003283B316C4026358B406825533868302BA
:10403800B39783023D82C6075D8EB30766023313CA
:104048006602BD834603B367F3009CC19357F641EC
:10405800B387E702B386C602BE96B307E6023336D5
:10406800E602FD833387C6000607D98F33868702A9
:1040780023A0F200956693865655B39787023307B7
:10408800D602B387D7027D833336D602B297860726
:104098005D8F98C0A9B7825790C393D71540B307CF
:1040A800F4403386C702098CB39767023D82C6077E
:1040B8005D8E23A0C2003386650233936502418278
:1040C800FD85931703015D8E93570341B385C502A0
:1040D800156313035355B387A702AE97B305A6021A
:1040E8003336A602B297B387670233866502B3B543
:1040F80065027D82AE9786075D8E9357F441B3863D
:104108008602B387E702B697B306E4023334E402C3
:1041180013D7F601A29786075D8F3A9690C0C1B56E
:10412800EFB21FF89C41B28263C5A70008426FB086
:10413800DFF7DC552A87854631456348F70003A534
:10414800C202F5B78506E38CA6FE93972600338650
:10415800F50003230600E347E3FE9386C7FFB69501
:104168008C41969788433306B340E352C0FC969639
:1041780080429356F641B30785403305B740B3955F
:10418800A7023385A702EF10707E22954DB7EFB2D4
:104198003FF101112AC893074006B28463D4B700DF
:1041A8009305400681461395E500130640068145B0
:1041B800EF10D07B9386C1A0C8CA2AC02ECA930626
:1041C80040062A871384C1A063D49600930440064E
:1041D8001306400681461395E40081453ACEEF1058
:1041E800F0788247A1642AC23386F4409356F64198
:1041F8002ECC2AC608CC8145370500405CCCEF1090
:10420800F07692472AC408D03386F4409356F64194
:10421800370500408145EF107075A247724748D0B6
:104228001CD4AA84014309CB0246D2463705004074
:104238008145EF10B0732A83B247232664020145F3
:1042480091CB1246E2463705004081451AC6EF1069
:10425800F071324379671307B77718C437970200AC
:104268001307775C58C418C8A5664247938606CAE0
:1042780008D8232A6402232E04082320D40A63D3EF
:10428800E6063687824718C018DC3CD8924778C0C3
:1042980038C47CD8A24778C4130704082322040032
:1042A800232E04022320040423280404232A0404BC
:1042B800232C0404232E04042324040623260406A2
:1042C8003CDC64DC2320670048C32324040823263D
:1042D800040823280408232A0408232C0408056159
:1042E8006FB0BFDCE35007FA014769BF6355B504F7
:1042F8001387C1A0232EA7082320B70A1843938742
:10430800C1A06346A7003A8563D3E5002E8585469C
:104318001387070888C323A2070088DFE8C3A8C754
:10432800E8C723A0070414C723A6070814CB23AAA9
:10433800070823AC070882809386C1A003A7C60993
:104348009387C1A083A6060A6346E50036876353B0
:10435800D5002A87854698C3F8C7B8C7F8C398DF39
:104368001387070823A2070023A6070623A4070626
:1043780023A0070423AE070214CB14C723AC0708F5
:1043880023AA070823A607088280EFB27FD11387E4
:10439800C1A01443130141FB2ED414DF36D054437B
:1043A80054DF1307070836CA544F185336CC6346F0
:1043B800D5003ACC6353E5002ACC62478256158F64
:1043C8003AC6635707243687E246158F3AC65247DE
:1043D8003307E0403AC07D57B2471305803E1306C5
:1043E8006004B395A70281463AD63385A702EF1039
:1043F800F05715671307378CAA846351A722BA842C
:104408001303803EB39564027946814613D4F44180
:1044180033856402EF1090551317040193D50401F6
:104428002AC21306803E8146D98D13950401EF10E8
:10443800F05382471303803E2ED893D6F741B58FA9
:10444800958FB38267023EC82EDC2ADA2ACE2A87E5
:104458003393670293D202019387C1A09316030195
:10446800B3E2560094531353034136D29255125671
:10447800B7960B009386E6E83306D602B396D502C4
:104488003D8293951601BD864D8E6346D000639399
:10449800061A6301061AB24737853E00BAC2B395B9
:1044A800A7029AC016DE3E043385A702EF10104C0F
:1044B800196699651306C66F9385C56CEFF05FC6DC
:1044C80093D5140115662AC4C18D591681461395D2
:1044D800F400EF10B049A243F252064316472A846B
:1044E80063D3A3001E8493D512013E0315665916A3
:1044F80081461395F200B3E565003AC4EF10104702
:1045080021662247AA866344C5009306F6FF2285E2
:104518006353D4003685196699651306C669938571
:10452800C56F3AC4EFF0DFBFB77608009386B611BF
:104538003306D5022247B316D5023D82C606D18E70
:10454800124663D3C60036866343C00005469356B9
:10455800F64137054042BD453AC4EF103041124696
:10456800B7E605009386567122472A8463D3C600AE
:1045780036869356F64137054042BD453AC2EF109C
:10458800F03E9257AE863306F4023313F402938753
:10459800C1A083A247023D8293D5F241B386D202DD
:1045A80046033363C30023A46700B385A50233B66B
:1045B800A202B695B386A202B295C605BD8233E7BC
:1045C800D5003AC4D8C78C57124763538500228553
:1045D800B306B5023315B502BD824605C98E36C28B
:1045E80094CBB246ADE68246B9EA025723A0070447
:1045F80023A60708F8C7054723A4E70823A8E70860
:1046080023AA070823AC07081301C1046FB0FFA948
:10461800324709CB52473AC005477DBBE342A0DE8B
:104628008544F9BB524795649384348C3AC0054756
:104638003AD6F9B3B70608009386C63511B7C2460D
:104648000246A186634AC000D04F014391A0C246EA
:104658000246A1866354C00E224522463244B31353
:10466800D50213D5F6413306D602B383D3023305F8
:10467800C502AA933305D6023336D6021E96931383
:10468800140063C5C300631D760A5DC9D04F054396
:10469800ACDFCC5BB0DB138607080CC28C4F23AEB3
:1046A8005706ECDB8C5B4CC2630B030A924522462F
:1046B80093D2F6413385B6022E963244B395B602AC
:1046C800B382A202B385D5029695B332D5029695E8
:1046D80093121400B38555403305D50263D4050001
:1046E800014581453AD81AD2EFF00FFBEFF00FF8E9
:1046F800724722051253B306A0406355A7004257DC
:10470800B306E04002471246158FB304C7023317B9
:10471800C702B3349000BA946343900085443307CA
:10472800D040A2463304D7023317D702333480006F
:104738003A94634380000544014575A8024609F68A
:10474800D04BCC5723AE5706B0DB12561AC2B0DF97
:10475800138607080CC28C4FECDB8C5B4CC20246FC
:1047680092453306C740B304B6023316B602B334D3
:104778009000B2946343900085442246A245425576
:104788007D863306E602B385A5022E96A2453384BC
:10479800E502B3B5E502333480002E9632946343C4
:1047A8008000054402461355F4413305E5023303FE
:1047B800E60042563306C402B30593023295B3327B
:1047C800E4023306E402AA92331393022E96B33519
:1047D800B600458216939A95BE054D8EB24563C3C1
:1047E800C5243386C54042061305F7FFBA853295BE
:1047F800EFB0DF8C0143225726951AD2B306850005
:1048080063D1E604B68513158700EFB03F8B3304F8
:10481800A40212532180631B032802476348072818
:104828003385A4028544218111C1AA84A256338705
:10483800840063D4E60033849640634380000544D3
:10484800A25632473D873AD4324702C646073AC88D
:10485800370700807D173AD2338784003AD863D36C
:10486800E600BA86824542452253B38395021397E0
:104878001600058F33068740B3959502B30275403D
:10488800333555003303B3403303A340635D03223C
:104898004245A2503385A340B3B3A300B385154066
:1048A800B3857540FD53635606003306E440B303F1
:1048B800704096C49AC29EC036DEEFF0EFDD125605
:1048C800F25686431643A6422A879387C1A063738C
:1048D800A60032870546638CC31EF2453306E040C6
:1048E80063CBE524328732468D45630AB604024617
:1048F8008245198E63D4E5003306B74092451245C8
:10490800B385C5023316C502B335B000B29563430B
:10491800B00085451355F7413346E500098E224519
:1049280022433305A602331666023335A0002A96C1
:104938006343C000054663C4B4206343C4203256B1
:10494800B3859640818D3307C702524623AC0708CA
:10495800B302C7401386070804C64CC600CA54CA27
:10496800B38692023303E040B8C323A6670623A4A4
:1049780057061AC016C233969202BD8246063315F0
:104988008302D18E93D02601B4CF33068302460525
:104998003D82498EF0CF524652453386C402B393C6
:1049A800A40213D5F6413A05BA0633E5A000B2963B
:1049B80033B6C600C182AA931E964206D18E02560D
:1049C80037050040B2963306B702F4C33317B7026F
:1049D800418281454207598E6247B2962686B4C7FE
:1049E800F8C7EFF06FCB1387C1A02286AA8428CB23
:1049F800814537050040EFF02FCA92421387C1A0C6
:104A080068CBA6852A841685EFF08FCF024393875B
:104A1800C1A0A8D3A2851A85EFF08FCE9387C1A035
:104A2800E8D3DDB6924793D5F6413AD23385F602FC
:104A380012473396F602B2473306D602B385A5026B
:104A48002E96B335D5023305D5023303B6009395B8
:104A58001700A2479A953386E700EFF0EFC3EFF00F
:104A6800EFC0724722056354A70012573A850247E0
:104A78008246098F63D4A6003307D5409246B38493
:104A8800E6023397E602B3349000BA946343900089
:104A9800854422473304A7023315A7023334800024
:104AA8002A94634380000544014379B14247924602
:104AB800B304D7023317D702B3349000BA94E3474C
:104AC80090D68544A5B316859A858543E9BB724679
:104AD800E35BE6E01356F341D257B3425600B38581
:104AE800C2403385F50033436600E257B3B2B200E3
:104AF8003303C340330353403E935256B335B50096
:104B08009A9513331500B38565407D15B6C03ADE16
:104B1800EFF08FB8C2578646725713861700329542
:104B280005819387C1A063CFA6026348E00072475E
:104B38003307E0404DBB328771BF72476DB3AE8417
:104B48006353C40032843247B3858400050763C4C5
:104B5800B6003AC611B3B3859640E3CCC5FE3AC653
:104B68002E84DDB9B2461146850636C66384C60072
:104B7800AA86DDB1AA86E1B363020518EFB24FD267
:104B88001387C1A083278709832647097971AA82D9
:104B98001384C1A063DDD70081C9032784080326D5
:104BA800C408329763C5E7008507232CF4088323DC
:104BB800840963C9D30274448327C4090327040AF8
:104BC80063C6F600B6876353D700BA871CC0232292
:104BD800040023A0F20023A2020023A402004561DE
:104BE8006FB0AFCC832484088327C4083387F400CC
:104BF8003ACA63CC740A1C5C0323C40328483EC821
:104C08003C542C58305C3EC23C4C832604089E849D
:104C18003EC43C503EC63385A402A1673D8163F380
:104C2800A70021657C103EC058103C1016D01ACE43
:104C38001ECCEFF02FB83257B246B24772433396C4
:104C4800E6029246E2438252B387E70246061257CB
:104C5800BD835D8E9247B387E7023397E602BD8333
:104C6800A2464607D98F9A9722475CC0A2573307B6
:104C7800F702B396F602B307930233139302BA9777
:104C880033B7E700C1839A9636974207D98F4247D0
:104C9800B305F700D24763DD770238407C44634CA4
:104CA800070463D7B702BE8525A05247032304042F
:104CB800B384934063427702B38764026C40232233
:104CC80064000146B3946402C183C204C58FBE95D3
:104CD8001685EFF04FAA21B79D8C3C4468486C5864
:104CE8003EC87C54705C832644083EC27C4C3EC45B
:104CF8007C503EC60DB7E3DDF5FC75B7828093871F
:104D0800C1A003A5870983A747093325F5001345E3
:104D18001500828003A501AAC1676344F5001385C5
:104D2800F7FF4205418182800547238AE1AA83A7CC
:104D380001AB91C398A382809306C05D1387C1AB72
:104D480023AED1AA18279387C1AB11C13A8505476D
:104D580098B713075020BAA71307200388A723A2E0
:104D68000700DAA76FF05FFC23A8A1AA83C741ABAD
:104D780081C719C185471CA18280EFB26FB283C772
:104D880041AB8DC303A681ABB94505061385C1ABFD
:104D9800EFB02FDA01C983A781AB238A01AA85075F
:104DA80023ACF1AA6FB06FB0EFB28FAF138681ABAF
:104DB800B9451385C1ABEFB06FD141C503D7C1ABBE
:104DC8009306007D9387C1AB1307C7E04207418371
:104DD80063E9E606B62325671307F7C96363D706B1
:104DE80090279306F00F630ED6049037A9459306D3
:104DF800F6FF93F6F60F63E6D504D6236363D7046C
:104E0800F6236360D704CC370547636CB7022D4798
:104E18006316E600130730066375D702B8279D4668
:104E28007D171377F70F63EEE600B83789467D17CD
:104E38001377F70F63E7E600D8279307400663F771
:104E4800E7000145EFF05FEFEFF03FF36FB0EFA53C
:104E580083C761AC9D461147FD1713F6F70F63E34F
:104E6800C6003E8799670A079387C772BA9788432F
:104E78008280EFB2EFA203C781AC93064006930786
:104E8800400663E3E600BA871387C1AC93F4F70FD3
:104E98003CA38567138587BB3385A4029305400629
:104EA800EFB0CFA1856793870796B384F402138781
:104EB800C1AC0AA7930730061384C1AC054563F952
:104EC8009700930540062685EFB04F9F4205418520
:104ED8002AA44AA4052E6FB04F9D9307400663EDA0
:104EE800A700EFB2EF9B2384A1ACEFF0FFE3EFF054
:104EF8005FF805456FB06F9B0145828003C5E1AC43
:104F080082809387C1AC23A0070023A2070023A4B3
:104F18000700239607006FF0DFF5EFB26F989387CD
:104F2800C1AC03C781ACBC237111231101001384E8
:104F3800C1AC6304F700EFF0DFF313052100A92AE1
:104F48007E20348191CFFD17C207C1837EA081E7FF
:104F58001C20F59B1CA00317C400BA8721E145A0BB
:104F68000317C400BA8751C90566130686BB637D5B
:104F7800D6003030894563FCC50010201366260032
:104F880010A01306200372A0A301040001A80506BF
:104F98001376F60F30B08D45E301B6FE1224637A1E
:104FA800D606918E0D468547635AD600130630649F
:104FB800930700196344D60093D72640B307F740F8
:104FC80085669386069663D1F606B687139507011C
:104FD80041856304E5004AA435245C2061478507C0
:104FE80093F7F70F6366F7045CA01C20A5E31C3059
:104FF800A5C7A3000400252E85A0A30104008316DD
:10500800A400635CD70093070703E3DBF6FAB687CF
:1050180045BF856693860696EDB7E3D3E6FA930710
:1050280007FDE3DFD7F8E5B7E342F0FA854779BF34
:10503800230204008520E177E309F5FA1307301FFE
:105048001C20635EA70093E717001CA0C52209C5B2
:105058000145F92485471CB011016FB00F8513076E
:10506800201CE344A7F8F99B1CA041B76FD07FC36D
:10507800EFB20F83EFD02FC4B77702009387477A38
:105088003305F502B7450600EFB04F83420541816D
:105098006FB0AF816FE0CFA8EFB28F80711123118D
:1050A800010009E5014511016FB02F802A8413051D
:1050B8002100EFD0CFBA7DD53C8109671307B7AD82
:1050C800B387E7023707001063F6E700B1831EA035
:1050D8000545D1BFC167FD17DDBF83A7C1AD19471E
:1050E80005456375F700D51713B51700828083A6A9
:1050F800C1AD2D479387C1AB6394E600CA23828074
:10510800AA238280EFA2DFF9EFF05FF6C1672A8455
:10511800FD170145630BF4049387C1AD82A7EFF037
:105128001FFDA566938706CAA297898F9386F6C93D
:105138001387C1AD63F6F6009D6693860636B6976B
:10514800C2073227C1837EA309CE637CF600A56619
:10515800938606CAB385C7409D8EB28763F3B600AF
:1051680081475EA3A307070005456FA01FF4EFA2C0
:105178003FF31384C1AD01C56A20EFE0BF9C4A200C
:10518800EFF08F9BEFE0AFDA6FA03FF29306F5FFE9
:1051980029479387C1AD637FD700054798C3238705
:1051A8000700054519677D1579991307C7742A976C
:1051B8001A2311A888C32D476319E5001387C1ABCB
:1051C80054377A23F4A7BAA782801347F5FF058BD3
:1051D800F8A799460147E3E8A6FEE9B7EFA25FEC16
:1051E8009387C1ADC83B1384C1AD11E5EFD05F9083
:1051F8000AB06FA09FEB791513351500EFD01FA0EB
:105208000145FDB7056713070796BA876349A700E5
:10521800AA871397070141876343E00085471395E1
:1052280007014185239DF1AE6FE0EFD203C511AFB1
:10523800133515008280EFA2BFE603C551AC138475
:10524800C1ADEFF0BFF4EFF0FFEB232C0400231EF9
:105258000400A308040023090400EFF01FE801CDAF
:105268002E240145EFF08F880545EFF05FF0EFF051
:10527800FFF66FA09FE3EFE08FCBD5BFEFA25FE211
:105288001387C1AD5C3B183BD98F9DE31384C1AD37
:105298003C2899CF85471CB8EFF03FE411C5EFF0E3
:1052A8007FE60145EFF0BFEC0145EFD07F840AB0FF
:1052B8006FA0BFDFEFA2DFDE1384C1AD1C389DC72E
:1052C8003C288DC7A3080400EFF03FE105C138383A
:1052D8001C4C4A24814519C7BE85C16763E4F500A3
:1052E8009385F7FFC205C181EFF02F8A6FA0FFDB1E
:1052F800EFA21FDB9387C1ADA388070023890700AE
:1053080023AC0700239E0700EFF03FDD11C5EFF047
:105318007FDF0145EFF0BFE5EFF05FEC6FA0FFD84E
:105328003335A0000505A388A1AE6FF07FFCEFA27E
:105338003FD79387C1ADDC3B8DC31384C1ADA30AAE
:105348000400EFF03FDCEFF05FD901C50545EFF051
:105358001FE20145EFD0CFF90AB06FA01FD5EFA229
:105368003FD405671307479C51112A862E84BA87B4
:105378006363A700AA871397070141839306401F19
:105388006374D7009307401F939607011387C1AD35
:10539800583BC1829384C1AD19C732C236C0EFF001
:1053A8001FF912468246054732C436C2A388040054
:1053B800B8A8EFF09FD2FC24924622463EC029C1ED
:1053C800BA249386C6E09305007D3385E6023AC287
:1053D800EFA0DFCE824781C712473305A740CAA492
:1053E80042054181A285EFE05FFA33378000B8B803
:1053F800014519C0EFF01F9288CC31016FA0FFCA98
:1054080005679305B05D1307079663F1C504938696
:1054180046A23385E6029305803EEFA03FCA824745
:105428004205418589C73305A04042054185CAAC7C
:1054380025C098408546651763F6E6021307803E47
:105448003307E40298CCA387040045BF1305C05D69
:10545800158D3305E5029305803EEFA03FC6330561
:10546800A04075BF2567130707CA3304E402A38762
:10547800040080CCEFF09FBF417705072A973337A8
:10548800E000D8A841677D17E309E5F68AA4B5B717
:105498007D574DBFEFA2DFC071111306C0058145CE
:1054A8001385C1ADEFA05FCA85679384C1AD9387AB
:1054B80007960145FEACEFD0FFFA0545EFD09FC334
:1054C8009304C0031384C1ADEFD03FC02AC03DEDA3
:1054D8000545EFC03FCA9387F4FF93F4F70FEDF447
:1054E8000145EFD03FC10545EFD0DFF71387C1ABCA
:1054F800083704A8EFF09FC9EFF0DFC09387C1AB6E
:10550800BE8409E523220400231404006A20EFE086
:105518006FE34A2065468145EFE07FC7EFF0FFBBA8
:1055280009C52E240145EFE07FDCEFE06FA10145BE
:10553800A30A0400EFD0CFDB82470AB091CB8145A4
:105548003E85EFF0DFE111016FA03FB6854479BFDA
:10555800B83485476315F7008A208145DDB78D4645
:105568006316D7005CB8EFF0BFD8F1BFEFF0FFB615
:1055780079D94A20EFE05FDCF9B79307F5FF93F795
:10558800F70F25476360F702EFA29FB12A84EFF077
:105598003FD6A38281ACEFF02FF9EFF0DFC90545C4
:1055A8006FA0BFB001458280EFA29FAFEFF0FFB2BE
:1055B800AA871305C05D8DCF9387C1ADBE2713841D
:1055C800C1AD9DC7EFF01FB47C244A2081C73E249B
:1055D8003385A7409307007D3305F5022E2493D722
:1055E80015003E95EFA09FAD1305451F420541816B
:1055F8006FA0BFABEFA2DFAA7111EFF03FA72AC0DF
:10560800EFF0BFAD35C10247C167FD170145630D16
:10561800F7049387C1ADA627A566938706CA858038
:10562800858FBA97139607019386F6C9418213842A
:10563800C1AD63F9F6009D6793870736B297139655
:10564800070141820C40AD469387C1AB6391D502F7
:10565800D2A33AC0EFF04FED0247054566A01AA461
:1056680046A0EFF0DFB0054511016FA01FA4B2A35B
:10567800CDB7EFA2FFA27111AA84EFF01FA609E52A
:10568800014511016FA07FA2EFF05F9EC167FD1772
:105698002A84E307F5FEEFF09FA52567930707CA5D
:1056A8003E94B307A440139407011307F7C9418038
:1056B8006379F7009D6793870736A29713940701CC
:1056C80041801387C1AD3E277027B9C363F28704B1
:1056D8002567130707CAB305F440018F6379B7023A
:1056E8000144E38FC4F825673306A4001307F7C9FC
:1056F800637AC7041D67130707362A97229713157D
:105708000701818F139407014181418021A03E84C4
:10571800E39BC4FC2AC093073006E3F387F6EFF057
:105728003FBD9386C1ADF82602459387C1ABD8B774
:105738002D47CAA3E2A398B7EFF00FDFEFF0BFAF92
:10574800054581B7131506016DBFEFA27F95EFF0F0
:10575800DF9801C9EFF05FE5239EA1AAEFF0CFDC47
:1057680005456FA09F94EFA2BF939387C1AD982B77
:1057780085471384C1AD6318F700EFD01F9501C5A5
:105788008145EFF0DFBD5C3899E71C3899C70145C2
:10579800EFD00FB60AB06FA05F91EFF01F9471EDD4
:1057A800184C75D78317C401FDD31C408546E517EF
:1057B80063E7F602FD576304F702EFF03F8BC1671A
:1057C800FD17631FF5047C3411476364F7008507F0
:1057D8007CB478349547E30CF7FA1C4CCDDB5A2C93
:1057E8008317E4013A854207418763D3E7003E8582
:1057F80042054185B307F0406355F500139507014D
:105808004185EFD0EFAE1C400AB00547E517E374B9
:10581800F7F81C4C7D57E380E7F8FD171CCCA5BFB3
:105828005C288DCF1E24116713070765B307F54061
:10583800635CF7025D7713070736BA970317C4014D
:1058480063540700B307F04063D307008147144C43
:10585800014763F4D7003387F64018CC85470AA47C
:105868005CA8A307040095BF71771307079BE3D7CC
:10587800E7FC2567130707CAC9B7EFF0BF8815E12A
:105888007C3411476364F70085077CB47834954706
:105898006319F7000145EFD0AFA50AB0EFD03FE993
:1058A800DDBD831504026A201386C1B0EFE06FAD39
:1058B80083479405814585C3585C1454B307D702C0
:1058C8003317D7029355F741B387F540B3B7F500BF
:1058D800998D9D8DFD81138501B0EFF0EFA9EFF053
:1058E8000FC22A86938681B1138501B09385C1B012
:1058F800EFD03FE8EFD0CF9F3C380AB0E38D07E800
:105908001C4CE38A07E811BFEFA28FF983C791B354
:10591800A546850793F7F70F63E8F600A38CF1B265
:10592800EFD0CF9C6FA06FF883C781B3A38C01B26F
:1059380085C31306F00F9305F00F1305F00FEFD092
:105948003FDA83C781B393B71700238CF1B2C9BF7D
:10595800EFD01FDDFDB76FF04FDC0DAC6FF0BFE08F
:10596800EFA20FF43705002095451305C503EFE0B6
:105978002FBF370500201305C507EFF0EFBE6FA056
:10598800CFF2EFA2EFF183C441AC1384C1B3930704
:1059980030029305400626851CA0EFA02FF21305C0
:1059A800050308B0A9452685EFA04FF1A945137551
:1059B800F50FEFA06FF31305050328A0A945268569
:1059C800EFA08FF295472308F40213050503930708
:1059D800000528B05CA06FA04FED9387C1B303C743
:1059E80007039306F00263E8E6009306170023888E
:1059F800D702BA9788A382801387C1B31306F0022F
:105A08008306050089C6834707036373F60082800F
:105A180093851700BA9705052308B70294A3CDB755
:105A2800EFA20FE821116400AA872E87A6860144F9
:105A3800A9453E853AC436C23EC0EFA0EFEA924679
:105A480082471305050388A2A9453E85EFA00FE705
:105A5800024605042543924622471374F40FAA8789
:105A68006367C304B307874093F7F70F014663637F
:105A780087003E8693050003338584003AC23EC002
:105A8800EFA08FEC12478146636487008247BE8689
:105A98007D1436941374F40F26940820EFF0FFF366
:105AA800A2877D14E39B97FE61016FA00FE0294652
:105AB8008506E31FC4F67DB7EFA28FDE7111AA84B5
:105AC80032852EC03284EF00703982459377F50F06
