:100000006F0000710000000060010000700100003E
:1000100000000000000000000000000000000000E0
:1000200000000000000000000000000000000000D0
:100030000E070000000000000E0700000000000096
:100040000E0700000E0700000E0700000E0700005C
:100050000E0700000E070000CA0100000E07000096
:100060000E0700000E0700000E0700000E0700003C
:100070000E0700000E0700000E0700000E0700002C
:10008000800100000E0700000E0700009001000034
:100090000E070000880100000E0700000E07000098
:0800A0000E0700000000000043
:1000A800511126C022C206C4828282441244A24050
:1000B80031018280634E050263C305042E86AA853A
:1000C8007D5515C285466378B6006356C00006069E
:1000D8008606E36CB6FE014563E4C500918D558D37
:1000E80085820582F5FA82808682C93F2E858282C2
:1000F8003305A0406347B000B305B040C1B7B305AE
:10010800B0408682653F3305A0408282868263C7FD
:100118000500634905005D372E858282B305B0402E
:10012800E35B05FE3305A040513F3305B0408282B2
:1001380000002A8309CA83830500230073007D1603
:10014800050385056DFA82802A8311C62300B30052
:100158007D16050365FE8280B707EFBE37E700E02E
:10016800938707083CC701A0B707EFBE37E700E051
:10017800938707083CC701A0EF3060547300203014
:10018800EF30A00E73002030373501408545130548
:1001980005C0EF10B06019CDEF30001C3707002004
:1001A80083470709CD46850793F7F70F63E6F600FF
:1001B8002308F7087300203023080708EF30F05AA7
:1001C800D5BFEF20400173002030EFF27FED0545E9
:1001D800EF100030C129EF101074EF10E05913052B
:1001E8004006EF103079EF40305AEF202057EF20CB
:1001F8005040EF40F063EF30C029EF20F04EEF2081
:100208009063EF201037EF20A010EF201035EF306B
:10021800E018EF30005D1305800CEF10B075EF505B
:100228002058EF40106CEF50D02FEF20B017EF3070
:10023800D058F5BFAA873387B700416542070566DE
:100248007D1541831306160293960701C182631335
:10025800D700828094238507A206358DA146931581
:10026800050106054205C185418163D30500318D2D
:10027800FD1693F6F60FE5F6C1BF1041B7464643A3
:10028800938616736311D60412258946AA870145F9
:10029800631DD602B627639AB60213070002636687
:1002A800D702945B3767A55A130757AA639FE600DE
:1002B800EFF21FDFC2371385C700AD3F3305A440F7
:1002C80013351500DDB3014582808280EFF25FDDD2
:1002D80051112EC032C22AC439C901450DCA37F49A
:1002E800000813050450513F8245AA841305046091
:1002F8006937224399EC01CD930404600246938543
:10030800C4001A853D35DC40124705451CC3310140
:1003180069BB93040450268675D193070460D440C2
:10032800D843BE84998EE35BD0FCB284C1BF01453B
:10033800F9BFEFF2FFD61301C1EB37F400082AC268
:10034800130504502EC032C40D3F82452AC613053A
:10035800046025379247324789E701451301411464
:10036800A9B382477D469386F7FFC206C182E3663A
:10037800D6FE9304045001CF9304046009C993077F
:100388000450D840D443158F6353E000BE8413064D
:1003980080029305F00F6808453BB74746439387AB
:1003A80017733EC8A247924568083ECA8947FC842D
:1003B80082473E86FC85B53B82456808A53DB76700
:1003C800A55A938757AA231EA1021306C00C9305AA
:1003D800F00FA818BEC08D3B130640030C08C800D8
:1003E800893B930500102685EF00100191472A8468
:1003F800E315F5F613060010CC002685EF00901BD8
:10040800E31D85F413060010CC002685EF6000601C
:1004180013351500A1B7B707002003C7870993074D
:1004280040086316F702EFF2BFC7AD2737F500089B
:1004380013050570BD2FB7270240984BA1660145EB
:10044800558F98CB984B1367070898CBB9B90545D2
:100458008280EFF2FFC43704002083475409254700
:100468006111636DF7161D678A07130787A4BA978A
:100478009C4382879307A00A6311F5028547A30A64
:10048800F40821A893075005631AF5148947A30AAD
:10049800F408B707002023990708210139B1B707E5
:1004A800002037070020238CA70883572709AA971D
:1004B8002319F7088D47E1B7B706002003D72609A7
:1004C800B7070020938787092A972399E608982376
:1004D80088B385469307F70793F7F70F63EAF600A3
:1004E8009147A30AF408B7070020238A070875B7BD
:1004F800930700086316F70421C59547DDB737064B
:100508000020834746093707002013078709B306E9
:10051800F700B7050020A8A283D62509850793F719
:10052800F70FAA962399D508230AF6088D46E3F60D
:10053800F6F61423930720086394F6001C33D5FFBE
:10054800994735BF370600208347460937070020FB
:1005580013078709B306F700B7050020A8A283D6BA
:10056800250985071833AA9693F7F70F2399D50815
:10057800230AF608E3F6E7FC0DB7B707002083C7A0
:100588002709639DA7049D47DDBDB707002083D7D2
:100598002709A1836394A704A147D5B593075005FC
:1005A800631EF502A547E1BD9307A00A6318F5028B
:1005B8009D3589476304F50295679387A75A7D158A
:1005C800133515007C80ED77C881938757A5994529
:1005D8000A85230101007C82EF304000A30A040849
:1005E8006DBDEFF2FFAB8946B727024037140240D2
:1005F80094C31C403707FF68C17493E717001CC0F9
:100608005C40FD14F98F5CC01C403707D7FE6D179E
:10061800F98F37071000D98F1CC01C403707FCFF23
:100628007D17F98F1CC05C40E58F5CC0B7079D0043
:100638001CC41C4C93E707021CCCB71701409387D6
:10064800074098431377F7F098C398431367070850
:1006580098C394CBEF0070185C4037070001B706C9
:1006680000025CC05C40E58F5CC05C405CC01C4024
:10067800D98F1CC0B71702409843758F75DFD843D0
:10068800B7160240719BD8C3D84313672700D8C355
:100698002147DC42B18BE39EE7FEB72702400947BA
:1006A80098C321B4371702405C43A146B18B6392CB
:1006B800D7045C433775DC02130505C0B716024042
:1006C800D842B70700209387070011833D8BBA975C
:1006D8009C23D84293F5F70F13770708B357F50013
:1006E80011EFEFF2FF9BD93A370700202328A70024
:1006F8006DBA37356E0113050560C9B73707002095
:100708002328F700828001A0970100209381011817
:10071800172100201301818E176500001305C55E9F
:10072800970500209385858D1706002013060696E9
:1007380063FAC5008322050023A055001105910521
:10074800E3EAC5FE17050020130545949385C1BC4F
:100758006377B500232005001105E36DB5FE8962B6
:1007680093820288739002308D4273904280970280
:1007780000009382A28893E2320073905230EFF027
:100788005FE697020000938282A47390123473008C
:100798002030B7270140938707406310F502EFF236
:1007A8003F90854513050020EF00307981451305FA
:1007B8000020EF0090786FF05F8F82805841B70774
:1007C800F1FF9387F7EF7D8FDC419441A207D58F26
:1007D800D98F5CC11845B7F7F1FF9387D77FD44508
:1007E8007D8F9C49D58F94458606D58FD98F1CC59A
:1007F8005855B70710FFFD177D8FDC29FD1793F7B4
:10080800F70FD207D98F5CD582801C4589C593E73D
:1008180017001CC58280F99BEDBF1C4589C593E76D
:1008280007101CC5828093F7F7EFE5BF0D473387A4
:10083800E502032305019D47B397E70093C7F7FF38
:10084800B3F76700B396E600DD8E14C9994763E2F3
:10085800C70295477D163306F6025859FD47B397E8
:10086800C70093C7F7FFF98F3396C5005D8E50D93F
:100878008280B14763E2C702954765163306F602E0
:100888001859FD47B397C70093C7F7FFF98F3396F9
:10089800C5005D8E10D9828095474D163306F60245
:1008A8005855FD47B397C70093C7F7FFF98FB3951E
:1008B800C500DD8D4CD582801C4591C537071000D9
:1008C800D98F1CC582803707F0FF7D17F98FD5BFF8
:1008D8005C4189C593E707405CC1828093F7F7BF05
:1008E800E5BF1C4565777D17F98FCD8F1CC58280C4
:1008F8001C4589C52167D98F1CC5828061777D1702
:10090800F98FDDBF1C4591C537872000D98F1CC5DD
:1009180082803787DFFF7D17F98FD5BF0D47338773
:10092800E502032305019D47B397E70093C7F7FF47
:10093800B3F76700B396E600DD8E14C9145D93071C
:10094800260013D746010D8B998F93F7F70F15479C
:10095800B387E7027D473317F7001347F7FF758F13
:10096800B395F500D98D0CDD82801C5D3707D0FF6B
:100978007D17FD15F98FD205DD8D0CDD8280711193
:1009880002C02AC0824793878702AE973EC082473B
:10099800884311014205418182801C4133F5F500ED
:1009A8003335A000828093C5F5FF0CC182805C417D
:1009B80091C537070004D98F5CC18280370700FCD6
:1009C8007D17F98FD5BF3C49F99B3CC93C49CD8F70
:1009D8003CC982801C4141677917F98F1CC12320CB
:1009E80005002322050023240500B707024023261B
:1009F8000500138787006317E500D8431367F700DE
:100A0800D8C382801387C7016316E500D8431367EC
:100A1800070FFDB7138707036318E500D8438566FA
:100A2800938606F0558FE9BF138747046315E500E1
:100A3800D843BD66C5BF138787056316E500D8434D
:100A4800B7060F00C5B71387C7066316E500D84376
:100A5800B706F000C1BF13870708E314E5FAD843C7
:100A6800B706000FC1B71841E177BD0794517D8FD4
:100A78009C45D58F9449D58FD449D58F944DD58F22
:100A8800D44DD58FD451D58F9455D58FD98F1CC1BE
:100A9800DC455CC19C411CC5DC415CC582801C41B5
:100AA80089C593E717001CC1828041677917F98FC0
:100AB800DDBF1C4101C6CD8F1CC1828093C5F5FFE7
:100AC800FD8D0CC18280B70702409C437D8D333574
:100AD800A0008280B7070240C8C38280EDB7B7077D
:100AE8000240C8C38280B72602409C4A0177130798
:100AF800F7FDF98F9CCAA1676319F60037270240F2
:100B08001C4BB7068000D58F11A893070040631FC0
:100B1800F602372702401C4B93E727001CCBB72768
:100B28000240C8CB984B1367070498CBD847058B6E
:100B380075FF2167FD156315E602984BB70680FF20
:100B4800FD16758F98CB3295D5F9828093070010E2
:100B5800E317F6FC372702401C4BB706020065B7BF
:100B6800130700406319E600984B13050540759B71
:100B780098CBC1FD828013070010631BE600984BD9
:100B88008176FD16758F98CB13050510BDFD828003
:100B9800ADFD8280B7066745B727024093863612B7
:100BA8003797EFCDD4C31307B79AD8C3D4D3D8D3C4
:100BB8008280370700F8BD672A979387F77F63EC31
:100BC800E702B7270240984B81769386F6FD758F2A
:100BD80098CB984BB7060200558F98CBC8CB984B4B
:100BE8001367070498CBD847058B75FF984B817618
:100BF800FD16758F98CB8280B70600F83D67AA96D8
:100C08001307F77F6364D71AB70601083306B500E0
:100C180093860680AA871307D00F63EBC618EFF2F6
:100C28002FC8B364B50093F4F40F41111307E00F14
:100C3800639204146380051437066745372702401A
:100C480013063612B796EFCD50C39386B69A54C39F
:100C580050D354D3216663EFC5041303F6FF3373EF
:100C68006500B30666403384C5403307D5001A943F
:100C78006386C610B684636DC40433068700931573
:100C8800160193D215013A8381C5617333736600E7
:100C9800B30554403A852166BD813EC636C41AC2A2
:100CA80016C09135A24682421243B247B6841684D2
:100CB8001A8739A81307F03F637BB7089376F53F87
:100CC80093040040958C138405C03307950036942F
:100CD8009306F03F63F8960293F6F73F89C613062A
:100CE8000040B306D640B385D4403385F6001306DA
:100CF8000040A9813AC43EC236C0F5338246224735
:100D08009247B6849306F03F63F986023306E400FF
:100D18009376F63F3A8399C2137306C0B305D4405D
:100D28003A8513060040A9813EC41AC236C0653B05
:100D380082461243A24736841A87A5C013060010BC
:100D480093D584003E853AC0793B0247B9A0930702
:100D5800F00F63F6B70013060010A1816933B727B7
:100D68000240984BA166558F98CB984B136707089C
:100D780098CB11473A8541016FF02FB3216685451D
:100D880036C23AC02AC4853392460247A247637DD9
:100D9800D4009306F03FE3EB86F671D013060010FB
:100DA800935584003A855DBF8146C1BD1307F00F96
:100DB8003A858280B70600F83D67AA961307F77F41
:100DC8006365D70E37070108B306C5001307078008
:100DD800AA871305D00F636DD70C33E7C7001377C5
:100DE800F70F1305E00F69E761C65111370567452D
:100DF8003727024022C426C213053512B796EFCD15
:100E080048C39386B69A54C348D354D3144B017538
:100E18001305F5FDE98E14CB41777D173E859D8D31
:100E28002182B7270240C166370304003AC0984BB5
:100E380037040800B383A500558F98CB984B418F92
:100E480098CBD847058B75FF930200103384E300D5
:100E580004403304E50004C0804B3364640080CB55
:100E6800C047058875FC1107E31257FEC8CB984B9D
:100E7800930205101367070498CBD847058B75FFB5
:100E8800984B02457D16698F98CB11EE984BA16659
:100E98002244558F98CB984B924411451367070805
:100EA80098CB31018280168559B71305F00F8280DF
:100EB8008280944593F7060113F3F60081C7DC415D
:100EC8003363F30083D2050093F7F20FA9CF0C41E7
:100ED800611122C226C08147930380023D449304D6
:100EE800800405473317F70033F6E2006310C702A2
:100EF8006397760258C9139627003317C40013471F
:100F0800F7FF6D8F3316C300B365E60085072147E9
:100F1800E399E7FC12440CC1824421018280E39CDE
:100F280096FC18C9C9BF82801C4533F5F5003335D6
:100F3800A00082800CC9828037030140B7070008EF
:100F48008326C3001356050113170501E98F3D8A4F
:100F58004183BDC7B7073000B372F5006394F2024E
:100F6800370600F97D16B3F7C6008326C300F18E55
:100F78002326D30095C54581137505073317A700A8
:100F8800D98F39A8B7074000E98F99CF9D47B39704
:100F9800C70093C7F7FFF58F81C53316C700D18FF8
:100FA800370701405CC78280B70720006393F200CF
:100FB80041069D47B397C70093C7F7FFF58F5DBFFD
:100FC800B7071000E98F99C3BD47EDB793571501CF
:100FD80093F70707B317F700C5B7EFF26F8C5111F6
:100FE80085451305C00302C002C202C4092FB7F722
:100FF800FF1F03A74770B7065200938606609377D2
:10100800F7F06386D70A63E2F60CB70624009386E6
:1010180006606380D72063E0F604B7062200938653
:101028000660638FD72463EFF600C1779387F7F0E4
:10103800F98F3707200013070760639BE7009307C2
:10104800900F35A837072300130707606384E7204C
:1010580031016FF08F85B706500093860660638371
:10106800D71A63E0F604C1779387F7F07D8FB70747
:10107800400093870760E39DE7FC9307900E3714C1
:1010880001407C808A8593078002130504803EC452
:101098000D359307F0077C808A85130504C0113D40
:1010A80045BF3707510013070760E393E7FA930733
:1010B8009006371401407C808A85930780021305C7
:1010C80004803EC4FD33AD47F9B737076400130702
:1010D8000760E386E7F66361F706370762001307E0
:1010E8000760E38CE7F86364F704370753001307D6
:1010F8000760638DE70C3707610013070760E39902
:10110800E7F493070008371401407C808A85930729
:101118008002130504803EC4693B930740078A8513
:10112800130504C07C8071339307800CADA037078A
:1011380063001307076081B7371773001307078029
:101148006386E702636BF7003717700013070780A1
:101158006388E704370771004DB737177400130722
:101168000780E397E7EE9307000C71BF9307000C25
:10117800371401407C808A85930780021305048018
:101188003EC4053B930740078A85130504C07C804D
:101198000D339307900C7C808A853715014001B781
:1011A8009307000C371401407C808A8593078002DE
:1011B800130504803EC4F539930740078A85130553
:1011C80004C07C80FD319307B00CF1B793079006FB
:1011D800371401407C808A859307800213050480B8
:1011E8003EC4C139AD478A85130504C07C80D1311E
:1011F8009307C0028A85371501407C805D399307C3
:10120800C006A1A09307800C7C80930780023EC48F
:1012180061B79307900F371401407C808A85930744
:101228008002130504803EC469319307F0078A855C
:10123800130504C07C80B5399307900E8A8537154D
:1012480001407C80BD319307D0087C808A851305D6
:101258000440B1B59307900F371401407C808A850C
:1012680093078002130504803EC4A1319307F00759
:101278008A85130504C07C802D39930760029DBFC1
:101288009307900F371401407C808A85930780026A
:10129800130504803EC431399307F0078A85130586
:1012A80004C07C803931930700028A8537150140D4
:1012B8007C800131B54751BFEFE29FDE5E211111FD
:1012C800AA84C207C18393F707FCC207C183280019
:1012D8002E843EC2AD26C247B7450F00938505242C
:1012E8003E853EC0EFE09FDD92470C40C98FC207A4
:1012F800C183DEA09E20C207C183F99BC207C183B8
:101308009EA0E1679387076A63E5B70402458605EF
:10131800EFE0DFDAAA874205418191466373D50081
:101328009147C207C183DEAC9E205620322493E742
:1013380017009EA09E20D18EC207C18393F757BF86
:10134800D58F9EA016245E24D58F9EA471016FE0D0
:10135800DFD57620B167FD176393F6028D47B38515
:10136800F5020245EFE09FD593170501C1839396D7
:10137800470199E293E71700A166D58F6DB7E54756
:10138800B385F5020245EFE07FD393170501C183CA
:101398009166D58FE9BF1E2189C593E717001EA165
:1013A8008280C207C183F99BC207C183CDBF1E21BA
:1013B80089C593E707101EA18280C207C18393F7EE
:1013C800F7EFC207C183C5BF1E2189C593E7072070
:1013D8001EA18280C207C18393F7F7DFC207C183CA
:1013E800C5BF1E2189C593E707401EA18280C20799
:1013F800C18393F7F7BFC207C183C5BF0EA9828017
:101408000A291375F50F828093F7E50F19C293E740
:1014180015001EA982801E2189C52167D98F1EA1AA
:101428008280C607C583E5BF1E219385058089E9AB
:10143800056713070780D98FC207C1831EA1828061
:101448007D771307F77FF98FD5BF5E290A2D4205EF
:101458005D8D6D8D220521810D8D133515008280DE
:10146800611102C002C293D7C5012AC23EC0824799
:10147800A205A18199CB9247D1073EC292478843E2
:1014880021016D8D3335A00082809247C181E1072B
:10149800EDB7B737004088C38280B7370040C8C36C
:1014A8008280B737004088C78280AD6737370040F1
:1014B8009387A7AA1CC38280B567373700409387F4
:1014C800C7CC1CC3371702405C53898BF5DF828079
:1014D80023A6A184828003A7C184854714216310B1
:1014E800F7021C31639CE7023C219A0793E707F84F
:1014F80037E700E093F7F70F36972300F7400547E3
:1015080093D756003317D700544189CE93870704E1
:101518008A07B7E600E0B69798C38280EDF33C21CE
:101528009A07F9B793870706B7E600E08A07B697E0
:1015380098C30F1000008280B707674537470240FD
:10154800938737121CCBB797EFCD9387B79A1CCBED
:101558008280374702405C43B7060080D58F5CC362
:101568008280374702401C433706C1F1130626A084
:10157800F18F10410C595443D18F504192050A06FE
:10158800D18F10451206D18F50451606D18F1049BC
:101598001E06D18F50492206D18F104D2A06D18FB1
:1015A800504D4206D18F10514A06D18F50515206E4
:1015B800D18F105566065D8E5C558607CD8FB7E5D1
:1015C800E0FF9385950CED8ED58F5459A206D58FE3
:1015D800145DAE06D58F545DB206D58F3441C20670
:1015E800D58F7441C606D58F3445CA06D58F744544
:1015F80010C3D206D58F5CC3828085473747024027
:101608006317F5005C4393E717005CC382805C4373
:10161800F99BE5BFB7160240DC423707FF7F130787
:10162800F77FF98FC98FDCC28280371702405C537D
:1016380009C593E717005CD38280F99BEDBFEFE201
:101648003FA6371702405C43A1462A84B18B6394B6
:10165800D7085C43B777DC02938707C01CC03716EE
:101668000240544237070020130787029182BD8A3F
:101678003697082358429375F50F1377070833D523
:10168800A70001E73E85EFE07FA348C008C448C42F
:10169800B7170240DC438D46AD83FD8B13D7370067
:1016A8008A07F18BD98F13F6370113F7370063F4E4
:1016B800C600138747FFB7170240DC4363CA070019
:1016C800B707002093874701BA978C23EFE01F9F45
:1016D80008C86FE09F9DB7376E0193870760BDBF4D
:1016E80099C5371702405C4BC98F5CCB8280B7170E
:1016F8000240D84B1345F5FF798DC8CB828099C538
:10170800371702401C4FC98F1CCF8280B717024081
:10171800984F1345F5FF798D88CF828099C5371783
:1017280002405C4FC98F5CCF8280B7170240D84F08
:101738001345F5FF798DC8CF828099C537170240C8
:101748005C47C98F5CC78280B7170240D8471345EA
:10175800F5FF798DC8C782801357550085476319EF
:10176800F700B71702409C4333D5A700058982804C
:10177800B7170240DC53CDBF371702405C53B7069A
:101788000001D58F5CD382801E218D669386060466
:1017980033F7D700B6219E21D58FD621D58FF621D4
:1017A800D58F9625D58FB625D58FD625D58FF625F5
:1017B800D58FD98F1EA19E291EA982801E2189C579
:1017C80093E707041EA18280C207C18393F7F7FB42
:1017D800C207C183C5BF4EA582800A256D8D3335EA
:1017E800A00082801E319206C207C183F99BC207FE
:1017F800C1831EB11E2D1A3103538501C207C1834F
:101808003363C30093F7C7F0558ED18FB7360140C5
:101818004207C207231C6500938606C04183C18323
:101828006306D500B70600406316D500759BD98DB1
:1018380013E715001EAD1AB182801E31056313032C
:10184800F3CFC207C183BD9BC207C1831EB11A2D46
:1018580022061E3133776700035385014206418211
:10186800B2063363C300558E518FB7360140C207A5
:101878004207231C6500938606C0C1834183630623
:10188800D500B7060040631AD50093F7F7FD920517
:10189800DD8DC205C18193E705011AAD1EB18280B5
:1018A800B7370140938707C06306F500B7070040C4
:1018B800631DF5021E21BA21C207C18393F7F7F809
:1018C800D98FFA2193F7F7CFD98F1EA1DE215EB504
:1018D8009E211EB5B7370140938707C06314F500F2
:1018E8009C251EB985475EA98280B717004093875B
:1018F8000780631CF5001E21BA21C207C18393F734
:10190800F7F8D98F1EA1DE215EA582801E319A21AB
:1019180003D38500C207C183F99BC207C1831EB1E7
:101928001E315221162DC207C183C206C18293F609
:10193800C6F8D98EBA21F59B42063367E300D98FE2
:1019480037370140130707C041826316E502BA25FD
:10195800DD9B03D3E500D98FDA21ED9B1376F6CF13
:10196800D98FDA2533676700598EFA2152A116AD4F
:1019780058D91EB1828037070040E318E5FE0357A7
:101988004504060342074183499B420741832312CA
:10199800E50483524504DA2183D3A5000983B3E221
:1019A8007200336757003367670042074183231289
:1019B800E50465BF1E3165771307F7CFC207C183FA
:1019C800BD9BC207C1831EB11E315221162D03D300
:1019D8008500C207F98E9A21C18393F7F7FD220784
:1019E800D98EBA214206C2063367E3001207D98F9F
:1019F80037370140C207130707C04182C182C1833C
:101A08006314E504BA2593F7F7F703D3C500120763
:101A1800D98FDA21C207C183120793F7F7FBD98F51
:101A28007D771307F73F718FF225C207C1833366AD
:101A380066000A06518F131607014182FA2152A146
:101A480016AD18DD1EB1828037070040E318E5FEA9
:101A5800035745040E03420741831377D7FC420717
:101A680041832312E504BA25835245040A073367E4
:101A7800670003D345001353130033E36200336751
:101A88006700420741832312E5044DBF1E317D776D
:101A98007D17F98F1EB11E315221562D6577130718
:101AA800F7CFF98E9A2103D3850042062207D98EF3
:101AB80079777D17F98FBA21C206418233676700AB
:101AC8003207D98F37370140C207130707C0C182D1
:101AD800C183631BE50071777D17718FD2251A06C4
:101AE800518F131607014182FA2152A156AD38C110
:101AF8001EB1828023100500231105002312050062
:101B080023130500231405002315050023160500DB
:101B1800231705008280854723100500231105003F
:101B28005EA123130500231405008280B737014006
:101B3800938707C09DC16306F500B7070040631788
:101B4800F5001E2193E717001EA139A0B717004022
:101B580093870780E307F5FE82806306F500B707E1
:101B680000406319F5001E21C207C183F99BC20713
:101B7800C183D9BFB717004093870780E31EF5FCE0
:101B8800DDB78357450491C52167D98F2312F50422
:101B98008280C607C583DDBF5E2501C6CD8F5EA5E1
:101BA800828093C5F5FFED8FDDBF1E25C207C18377
:101BB80093F7F7F8CD8F1EA58280B737014093873A
:101BC80007C09DC16306F500B70700406317F5001D
:101BD8001E2193E707081EA139A0B7170040938775
:101BE8000780E307F5FE82806306F500B70700402B
:101BF800631AF5001E21C207C18393F7F7F7C207DE
:101C0800C183D1BFB717004093870780E31DF5FC58
:101C1800D5B7B7370140938707C06306F500B70704
:101C280000406319F5001E2DC207C183DD9BDD8DC1
:101C38000EAD8280B7170040938707806319F500BF
:101C48005E218D81C207C183F99BDD8D4EA1828003
:101C5800B7370140938707C06306F500B707004010
:101C6800631DF5001E2D7D771307F77FF98FA205F9
:101C7800CD8FC207C1831EAD8280B71700409387FE
:101C880007806319F5005E218981C207C183F59B2E
:101C9800DD8D4EA18280B7370140938707C02E871C
:101CA8006306F500B7070040631DF5004E2DFD776C
:101CB8009387F77FFD8D2207D98DC205C1814EAD6F
:101CC8008280B7170040938707806318F5005E216C
:101CD800C207C183DD9BDD8D4EA182801E31920536
:101CE800C207C18393F7F7FDCD8FC207C1831EB129
:101CF80082801A318547B397B70093C7F7FFF98FEA
:101D08001EB11E313316B600D18FC207C1831EB172
:101D180082805E21C207C18393F7F7F8C207C183A7
:101D28005EA15E21CD8F5EA18280B7370140938787
:101D380007C06306F500B7070040631DF5001E25C0
:101D4800C207C183E19BC207C1831EA51E25CD8F93
:101D58001EA58280B7170040938707806310F5029D
:101D68001E21A205C207C18393F7F78FC207C1835B
:101D78001EA11E21CD8FC207C1831EA18280B73745
:101D88000140938707C06306F500B7070040631456
:101D9800F5004CD98280B7170040938707806313FA
:101DA800F5000EA98280B7370140938707C0630604
:101DB800F500B70700406314F5000CDD8280B71703
:101DC8000040938707806313F5004EA98280B737D8
:101DD8000140938707C06306F500B7070040631406
:101DE800F5002CC18280B7170040938707806313E2
:101DF800F5004EAD82801E2DC207C183CD9BC20760
:101E0800C1831EAD1E2DCD8F1EAD82801E2D7D7708
:101E18001307F73FF98F1EAD1E2DA205CD8FC20700
:101E2800C1831EAD82805E2DC207C183CD9BC207D0
:101E3800C1835EAD5E2DCD8F5EAD82805E2D7D77D8
:101E48001307F73FF98F5EAD5E2DA205CD8FC20750
:101E5800C1835EAD8280EFE2AFA49A21BE21D22178
:101E680096252A84AE8409EBBE85EFF0BF97EE2055
:101E7800228551376FE06FA391456319B700BE857E
:101E8800EFF0BF9BEE2022855137EDB72145EE20BC
:101E98006314A7061A309206420741831377F7EFB7
:101EA800420741831AB05A2C0A300353C40142072F
:101EB80041831377C7F0518F558F3363C300B7360B
:101EC800014042054207231E6400938606C04181F3
:101ED80041836306D400B7060040631AD400137523
:101EE800F5DFA207C98FC207C18313E507105AACF3
:101EF8000AB022850D3FBDBF1A307D757D15698FEB
:101F08001AB04A2C05631303F3CF1A3033756500F2
:101F180022060353C40142064182B2063363C3005A
:101F2800558E518DB736014042074205231E640085
:101F3800938606C0418341816306D400B7060040FA
:101F4800631BD400F976FD16758FB207D98FC207C7
:101F5800C18305675D8F4AAC1AB02285C53519BFA4
:101F680037370140130707C0AA876306E50037071C
:101F780000406316E500885F42054181828037177B
:101F88000040130707800145E39AE7FECA2BEDB727
:101F980093C5F5FFC205C1810EA982801E294A2575
:101FA800ED8F4205418189C76D8D3335A000828050
:101FB8000145828093C5F5FFC205C1810EA98280C3
:101FC800EFE20F8E1629F577FD17FD8EFE21DA2533
:101FD8002111D58F1EA95625FD779387379FFD8E32
:101FE800DE212A84AE84D58F9625D58FB625D58F48
:101FF8005EA55E29C207C18393F7F7CFD98F5EA983
:102008004800EFF0CFE3B747014093870780631597
:10201800F404C24765453385A7028C408A05EFE082
:10202800EF89930540062AC0EFE04F8993144500D5
:10203800024593054006EFE02F8B120593054006F5
:1020480013052503EFE08F873D89458D42054181C2
:102058000AA461016FE06F85B2476DBF5E2589C52F
:102068000967D98F5EA5828079777D17F98FDDBFE3
:1020780013F7F50F85471583B395B7006319F70074
:102088009307C500984301CE4D8F98C38280894637
:1020980093074501E318D7FE93070501E5B793C5F4
:1020A800F5FFF98D8CC3828093F5F51F4EA18280D0
:1020B8004A211375F51F82805E2989C593E7870039
:1020C8005EA98280C207C183DD9BC207C183CDBFE1
:1020D8000A216D8D3335A000828013F7F50F8546F0
:1020E8001583AA873395B6006310D702DA279E2393
:1020F800798DC207C18301C9A18105473317B7008C
:10210800F98F3335F000828089466314D7009A2B03
:10211800F9BFDA2BE9BFEFD2BFF8B707002003A554
:102128000701B7157A0093850520EFD03FF913759D
:10213800F50F2389A1849307803E3305F502239880
:10214800A1846FD09FF6B7F700E0D843799BD8C336
:1021580003C721853307A70298CB23A40700984318
:102168001367170098C3D843058B75DF9843799B8D
:1021780098C38280B7F700E0D843799BD8C303D7C8
:1021880001853307A70298CB23A407009843136758
:10219800170098C3D843058B75DF9843799B98C37C
:1021A8008280732500308280731005308280131777
:1021B80015003A96AA871387818601456393B7006D
:1021C800828093161600BA969622850793F7F70F22
:1021D80036950906E5B7EFD2BFEC2145EFE01F9031
:1021E80001CD0545EFE0BF8F238F01842391018640
:1021F800A38901846FD07FEB1145EFE03F8E05C1C5
:102208001145EFE0DF8D0146A94501454D3723A271
:10221800A1860546A9450145593F23ACA184094536
:10222800EFE0DF8B61D90945EFE07F8B0546D145AB
:102238002945B53F83A78185D1453E9512052905D6
:10224800EFD0DFE742054181239AA1840547A3899E
:10225800E18483C6C18591C6238F0184A38EE1845E
:1022680051BF03C7D18501C7A38E018461B7014659
:10227800D14529452D3F83A74186D145A9073E95DC
:10228800EFD0DFE383C7E18585C383D72186420585
:1022980041818507AA978583C207C1832391F18667
:1022A8008547238FF184B9B7420541812391A186DF
:1022B800C5BFEFD2FFDEF5359307800873B007304E
:1022C8000F1000002391018623A20186238F018429
:1022D8000547A38EE184C93D6FD03FDDEFD25FDCB7
:1022E8002A84C1359307800873B007300F100000A7
:1022F80013341400238E818483C7C18599C7239121
:10230800018623A20186238F0184793D6FD0FFD9EE
:10231800EFD21FD9130181FA614681454808EFD0F1
:10232800BFE21306C00281456810EFD0FFE1854582
:10233800054502C402C602C802C002C2EFF04FBA85
:10234800854513050023EFF08FBB0145EFF08FACF7
:1023580037150140930700042C00130505407C84C1
:1023680002C8EFE01FB5C1472C00371501403724DC
:1023780001407C84EFE0FFB313050440EFE06FC138
:10238800B707060005473ED04C08894713050440A7
:102398003ACC2304F10202CA02CE02D2EFE00FC205
:1023A8008D460546A54513050440EFE02FC89D4618
:1023B8000946894513050440EFE04FC785451305D5
:1023C8000440EFE08FDA9D46054699451305044021
:1023D800EFE0CFD49D6513050440EFE08FD0814531
:1023E80013050440EFE0CFD0814513050440EFE02A
:1023F8002FCE854513050440EFE0EFDC814513053A
:102408000440EFE0CFDAB704024013858400EFE020
:102418006FDC9307C4443ED6938781863ED89307E2
:1024280080023EDC93070008BEC093070010BEC2BE
:1024380093070040BEC4930700026C10BEC6138504
:1024480084008967BEC802DA02DE82CAEFE0AFE123
:102458000545EFE02FE80546B94513858400EFE010
:102468004FE5D94705470A857C803AC22301010018
:10247800EFF06F86239101862390018623A20186BF
:10248800238F0184A38E0184238E018423AC0184CD
:10249800239A0184994513050440A3890184EFE038
:1024A8008FD0854513050440EFE02FB78545138588
:1024B8008400EFE0CFDE854513050440EFE0EFB47C
:1024C80009455131854513050440EFE0EFBE056528
:1024D80013050596EF00F0301135E13BE16793876E
:1024E800076A83C6E18581EEFD17E5FF0145EF0028
:1024F800502FED337D3B130181056FD01FBB114574
:10250800953983D72186C207C1832390F186F9BF05
:10251800EFD21FB96111AA84693191E481473E85E0
:1025280021016FD09FB89307800873B007300F1050
:10253800000083C7E18503D4218603D7018693F77A
:10254800F70F3EC2420741833AC0B9399247420465
:102558004180E9D70247814663568700198C931654
:102568000401C18296A065BFEFD29FB37111AA84FE
:10257800EFF03FC391E40144228511016FD0FFB20F
:102588009307800873B007300F10000003C431852B
:1025980083D741851374F40FC207C1833EC0EFF09F
:1025A800BFC071D882479EA0C1BFEFD27FAF37248A
:1025B8000140814513050440EFE00FB01145EFF0ED
:1025C8009FB8130504409145EFE0EFBD13050440A3
:1025D80085456164EFE00FB31304046AB724014032
:1025E800B7270140914513850740EFE00FBB1DE178
:1025F8007D147DF4B7240140138504409145EFE034
:102608008FBA138504408545EFE00FAB5D31228515
:102618006FD0BFA9D14513850440EFE04FB62A8497
:10262800D1BF7111E147DC8198819307F7FF93F7D8
:10263800F70FDC8119E3110182800100F5B7EFD2B1
:102648003FA65111231101009947371701401CCBB0
:102658007C802AC485478A85371501403EC2EFE051
:102668005F8531016FD07FA4B75700400566930698
:10267800803E93870740130606F0DA2B698F19C34B
:1026880001458280DA2B718F19E3FD16FDF60545A9
:102698008280EFD2FFA0B72706004111938707A8D1
:1026A8003EC0B7070040375400403EC2B707000499
:1026B8003EC48A859167130504403EC6EFE0DFBF3C
:1026C800BD65130504409385F57FEFE0FFD585458B
:1026D80013050440EFE03FCC41016FD01F9DEFD2BE
:1026E8003F9C37550040814513050540EFE0BFCAC0
:1026F8005145B137B7170140194798CB1D372544C5
:10270800894537150140EFE03F8209ED9147B7143D
:102718000140DCC8393791477D149CC81374F40F05
:10272800093779FC3714014099475CC8DD3D91476A
:102738001CC8C53D89471CC8ED3571450937375454
:102748000040130504408545EFE0FFCC81451305A3
:102758000440EFE05FCC353F6FD03F95EFD25F94F8
:1027680083C7818B51119DEB8545454502C002C247
:1027780002C4EFE0DFF8854537052000EFE01FFAD7
:1027880099477C808544F1478A85371501403EC4C6
:1027980026C2EFE00FF2F53D238C918A31016FD00C
:1027A800DF90EFD2FF8F41112AC22EC436C061CA12
:1027B800F9C632849307803EB75400403EC6B757E7
:1027C800004013850740B7050200EFE07FC9B24714
:1027D80045E5854513850440EFE07FBDB704030058
:1027E8009307803E93851400B75400401385044036
:1027F8003EC6EFE09FC5B707030093851700B247B1
:1028080059C192471385044001469395170093F5E3
:10281800E50FEFE07FBFB70407009307803E93857D
:102828002408B7540040138504403EC2EFE0FFC1BE
:10283800B707070093852708924729C9A24513853A
:102848000440B7040700EFE07FBB9307803E938402
:10285800440837550040A685130505403EC2EFE001
:10286800DFBE92471DC53707001093070708A284EB
:102878003EC21307803E1DA0FD17A9F38D350545FF
:1028880041016FD09F82FD17A5F3CDBFFD17D1FB86
:10289800F5B7FD17DDFFDDB77D176DD39245B75648
:1028A8000040138506403AC4EFE09FBB2247B75665
:1028B80000407DD18C20138506408504EFE01FB4CD
:1028C800824793F6F40F3307F4001377F70FE312F8
:1028D800D7FA370407009304803E93054408375419
:1028E800004013050440EFE05FB6B7070700938583
:1028F800470801C9130504408545EFE0FFAC0145D1
:1029080041B7FD14E9FC9DBFEFD28FF931112AC2FE
:102918002EC436C063080616638606163754004070
:10292800130504408545B284EFE0BFABBD651305D0
:1029380004409385F57FEFE03FAF835744417D77AF
:102948001307F70FF98F130404401307803E5EA89E
:102958001E2C898B6393071222858545EFE03FA5DE
:102968000545EFF07FD0631D05109247228501468B
:10297800860793F7F70FBE853EC2EFE0FFA809452B
:10298800EFF09FCE631E050E5E28A2452285C20782
:10299800C1837C861E2CC207C1837C863C86EFE0FF
:1029A800FFA51145EFF05FCC631C050C228585451A
:1029B800EFE0FF9F0545EFF03FCB79E102478947FC
:1029C8006318F7008565938505802285EFE0DFA50C
:1029D800924537540040054613050440EFE0DFA256
:1029E8000945EFF07FC82AC241ED02478547631EBB
:1029F800F708EFF00FFB2AC09307800873B0073081
:102A08000F100000814513050440EFE09F9D835798
:102A18004441130404408545C207C1837C871E2CAA
:102A28002285C207C1837C873C87EFE0FF99024576
:102A3800EFF08FF713050004EFF01FC331E1228593
:102A4800EFE01F9C88A0375500401307803E130510
:102A580005401E2D898B639307148545EFE07F9809
:102A6800BD65B75700409385F57F13850740EFE0B4
:102A7800BF9B124551016FD04FE37D17E31A07EC56
:102A8800EFF0FFC585473EC2EDB702478947631C93
:102A9800F706EFF00FF12AC09307800873B00730EC
:102AA8000F100000814513050440EFE09F93835702
:102AB8004441024513040440C207C183FC801E2C14
:102AC800C207C183FC80BC80EFF00FEE1145EFF028
:102AD800BFB95DF5EFF0EFEC2AC09307800873B03B
:102AE80007300F10000085452285EFE0FF8D228515
:102AF800EFE01F9188A02285EFE09F9088B0024503
:102B0800EFF08FEA89B783574441C207C183FC813C
:102B180083578441C207C183FC81BC818247A69741
:102B280013F4F70FB307944093F7F70F0D47639724
:102B3800E7041145EFF05FB321F5375400408145B4
:102B480013050440EFE0FF8913050440EFE05F8BB5
:102B580088A01145EFF05FB1E31405F28545130530
:102B68000440EFE07F8613050440EFE07F8988B0DA
:102B780013050440EFE0DF88A8A0F1B513050004B1
:102B8800EFF09FAEE31E05EE3755004013050540F4
:102B98008504EFE0FF86A38FA4FE69B77D17E31ACB
:102BA80007EAF9BDEFD2CFCF05456164EFE0FFA793
:102BB8001304046A13051006EFE01FBA09E57D1433
:102BC80075F86FD08FCE156513055555EFE07F8CDE
:102BD8001945EFE09F8C1305803EEFE09F8CEFE0F6
:102BE800DF8CEFE07F8DF1BF6FE03F8CEFD24FCBF2
:102BF800FD769386066A3111AA84B6876343D500A9
:102C0800AA8713960701856641869386069663D33D
:102C1800C600B6871397070141873AC637070020D1
:102C280083168703139707014187638EE608139578
:102C3800070185473EC04181634B900002C081C8AF
:102C4800B307A04013950701FD5741813EC00564B5
:102C580013040496098C93170401C1833EC4838628
:102C6800A18B36C8BD2E2AC2EFF04FE78247C24675
:102C7800638FD704EFF0EFE39247814537050040B3
:102C8800A38CF18AEFF02F92373501408145130567
:102C980005C0EFF0CF8E85659385059663C404045F
:102CA80037050040EFF02F90A24537350140130556
:102CB80005C0EFF0CF8C0247238DE18A3247B70772
:102CC8000020239CE702324551016FD00FBE83C616
:102CD800918B9247E381F6FCEFF0AFDD9247A38C2E
:102CE800F18A55BF37350140130505C0EFF02F892C
:102CF800A24537050040EFF00F8B75BFEFD24FBAF2
:102D08002A840145F92CEFF06FDDEFF08FDA0DCC56
:102D180005643735014093050496130505C0EFF0A7
:102D28000F869305049637050040EFF0CF87238D73
:102D3800018A85673707002093871796231CF702B7
:102D4800A38C018A6FD06FB63735014081451305D2
:102D580005C0EFF0CF828145F9B7EFD26FB471119A
:102D68000A8689468D451945EFF01FBA11016FD0C3
:102D7800CFB3EFD2EFB2130141FA13060005814534
:102D8800680002C002C202C4EFD00FBCEFE0CFFA65
:102D980085451145EFE0BF96371501408A851144F6
:102DA80013050580608002C4EFE0AF908547680096
:102DB800BEC2BECCBEC6BEC8A2C002DC82C402DE91
:102DC800EFE02FFA0545EFE05F83EFE08FF813019E
:102DD800C1056FD08FADEFD2AFAC8145373501401B
:102DE800EFE0DF9D854537350140EFE03F9D6FD02F
:102DF800CFABEFD2EFAA056501118545410502C0A9
:102E080002C202C402C602C802CA02CC231E0100C2
:102E1800EFE0FF8E930700027C80E1473EC48A857D
:102E28008547371501403EC2EFE0AF88930700049D
:102E38008A85371501407C80EFE0AF87B70704012A
:102E48003EC6B70700023ECAC1473ECC6C009D474C
:102E580037350140FC8602C8EFE01F9385453735BA
:102E68000140EFE0BF9505616FD02FA4EFD24FA3CB
:102E78006111B307B5000964AA843EC01304047144
:102E880082476394F4029305000837350140EFE068
:102E9800DF9485476318F5007D1475F419A07D1734
:102EA80011E7153F21016FD04FA02287894537359B
:102EB80001403AC2EFE07F92124775D18C20373536
:102EC80001408504EFE03F9165BFA386018C23860E
:102ED800018C3735014023A4018C8145130505C0B9
:102EE8002382018C6FE09FDFEFD28F9B130181FD5E
:102EF80085451305000202C602C802CA02C002C202
:102F08002314010002CC02CE02D002D2EFE02FFF40
:102F180085450545EFE09F80A1477C863715014030
:102F280085473EC86C00E147130505403ECAEFD00F
:102F38005FF885679387F7958A85370500403EC215
:102F480002C0EFE0FF952808EFE0DFBAC16793877A
:102F580007062C08370500403ECC231F010023102C
:102F68000102EFE03FA50546914537050040EFE037
:102F78005FD8A14537050040EFE09FCD854537056F
:102F88000040EFE09FC32808EFE0DFB69307000793
:102F98003ECC2C089307004B37050040FC872310D4
:102FA8000102EFE0BFAEA14537050040EFE0BFCE1C
:102FB8009305000737050040EFE0BFD58145370589
:102FC8000040EFE09FBE914537050040EFE0FFD598
:102FD800854537050040EFE07FB5130181026FD0CA
:102FE800CF8CEFD2EF8B85679387079663EFA700A7
:102FF8009307300D63ECA700370500409305004B9D
:10300800EFE0FFDC01456FD04F8A3E858567135797
:103018001500938507949387679C3385A740998DFE
:1030280063F3A500AA85C20537050040C181EFE01A
:103038001FDA0545C9BFEFD2AF860566130141FC0B
:103048001305468285453714014002D002D202D4C6
:1030580002C002C202C402C62318010002D602D866
:1030680002DA02DC02CA02CC231E0100EFE02FE9DB
:103078001147E14785440C10130504402310E10271
:103088003ED426D2EFD0FFE2130504808945EFD065
:103098007FEA89462310D1020C10D146130504801B
:1030A80036D4EFD01FE105661304F69522C63734EF
:1030B80001402C00130504C002C423080100EFE0FE
:1030C8002FFE6810EFE01FA3C167938707066C10F7
:1030D800130504C03ED623190102231A0102EFE0AA
:1030E800FF82130504C08545EFE03FAD130504C01A
:1030F80093050002EFE0FFC1A145130504C0EFE00E
:103108005FB14808EFE03FA111474C08130504C020
:103118003ACA26CC231E0100EFE0FFD3130504C0F2
:103128009545EFE03FE9130504C093050040EFE043
:103138003FE605468545130504C0EFE0FFA5930764
:1031480050020A857C80448102C2EFE0CFB8930721
:1031580030120A857C8026C223010100EFE0AFB758
:10316800130504C08545EFE0DFA18545130504C0BC
:10317800EFE0DF9B1301C1036FC03FF3EFC25FF2C3
:10318800EFF02F829307800873B007300F1000000C
:1031980003D4C18B239E018AEFF00F814204418042
:1031A80022856FC09FF0EFC2BFEF41110947373446
:1031B80001402AC07882014605479145130504C09D
:1031C8002313010023160100231701003AC4EFE07E
:1031D800BF9C93040002B7E700E023A297180F10E2
:1031E80000009145130504C0EFE0DFDC93050040C3
:1031F800130504C0EFE0DFD923A0018CEFF0FFCC6A
:103208008247239E018AB9C337150140930780047A
:103218004C00130505803EC6EFD0BFC99145130584
:1032280004C0EFE03FD993050040130504C0EFE068
:103238003FD605469145130504C0EFE0FF95B7E773
:1032480000E023A2971041016FC03FE63714014008
:10325800130504808945EFD0FFCDD1474C001305F5
:1032680004803EC6EFD0FFC4F9BFEFC27FE3373515
:103278000140835705C1130505C01394070193F74F
:10328800474085C741809377044095C3EFF0FFC35B
:103298003734014093050040130504C0EFE05FCFC9
:1032A8009145130504C0EFE0FFD06FC01FE0EFE0C9
:1032B8003FCB83A7018C056713070796B387E702FF
:1032C8000588AA9711C49306F04A63E3A600BA9743
:1032D80003A5818C03C7D18C3385A74029E783C612
:1032E800C18C81CE37D7F2FF13070710B7F602005B
:1032F8002A97938616E03337D7002382E18C054757
:1033080023A4F18C2386E18CA386E18C894537358B
:103318000140130505C0EFE07F9C3735014091451A
:10332800130505C049B783C7418C9DC3E9779387C7
:1033380007245D67AA9713070770636BF700930567
:1033480000036105EFC09FD742054181239EA18AF2
:10335800A386018C814565BFEFC29FD4B734014075
:103368008545138504C0EFE07FC31DC5EFE07FE30B
:103378002A849307800873B007300F10000083A7D2
:10338800018C138504C08545850723A0F18CEFE0E7
:103398007FC22285EFE05FE16FC03FD1EFC25FD00F
:1033A800711189460A86854513058004EFF0CFD54B
:1033B80009C5054511016FC05FCFE97793870706F7
:1033C80089460A868545130580047C80EFF06FBD29
:1033D800D5B7EFC2FFCC711189460A86814513051E
:1033E8008004EFF06FD2AA8761759DE338801305DA
:1033F80010279305803E931787002183D98FC20732
:10340800C18791873385A702EFC0DFCA420541858E
:1034180011016FC09FC9EFC2BFC8411137440140B5
:10342800B14702C42AC08145130504807C8502C2C5
:1034380002C6EFE0BFC28A8513050480EFE05FB8DB
:10344800130504808545EFE03FC7854513050480D3
:10345800EFE0DFC041016FC05FC5EFC27FC43744F2
:1034680001409305000213050480EFE07FC609C5FB
:1034780013050480EFE0DFC3374501400546930597
:10348800505213050580EFE0BFBEA38A018C6FC0C0
:10349800DFC1EFC2FFC0AA8411653111854545051A
:1034A80002C402C602C802C002C2EFE04FA5370537
:1034B800160085451305050CEFD01FA805442C0000
:1034C800E147371501403EC8608422C6EFD07F9E91
:1034D8001385C195EF00007B1385818DEF00807AFD
:1034E8002685A38A018C23A8018CEFF0DFF23745EB
:1034F800014005469305505213050580EFE05FB77C
:10350800930700120A857C80408122C2EFD0BFFC5D
:10351800238A818C51016FC05FB9EFC27FB8511106
:103528008544231101002314010023150100648040
:1035380026C21DCD61478A85371501403AC43744F4
:103548000140EFD01F97854513050480EFE01FB1B8
:1035580005469305505213050480238A918CEFE0A9
:103568003FB137E700E02322971031016FC0FFB366
:103578003744014013050480014693055052EFE09B
:103588003FAF13050480014693057072EFE05FAE0C
:1035980001469305606213050480EFE07FAD37E7CD
:1035A80000E0232297180F100000814513050480BE
:1035B800EFE0DFAA238A018C1385818DA38A018C11
:1035C800EF00406C91478A85371501403EC4EFD023
:1035D8005F8E61BFAA851385C195CDA583C7418D2F
:1035E80099E701458280014521016FC01FACEFC2F8
:1035F8003FAB61112A8465D92EC0F5D51385818D1D
:10360800FD2582459307F0072E95E3CEA7FCB30767
:10361800B4000C201385818D3EC09D2D8247050482
:10362800E319F4FEEFE0FFB72AC09307800873B0F0
:1036380007300F10000003C7518D31E79305710063
:103648001385818DA52D21C1B74401400547014649
:103658009305505213850480A38AE18CEFE05FA1A3
:1036680001469305606213850480EFE07FA08C8398
:1036780013850480EFE05FA30546930570721385F8
:103688000480EFE0FF9E0245EFE01FB20545A9BFA9
:1036980023A8A18C8280EFC2BFA083A7018D91CF00
:1036A80083C7518D99EB1385818D912519E503A564
:1036B800018DEFF05FD623A8018C6FC01F9F83C7D1
:1036C800418DCDC7EFC2DF9D37440140711193058D
:1036D800505213050480EFE05FA011CD130504805C
:1036E800EFE01F9D9375F50F1385C195CC814D2390
:1036F80011016FC09F9B9305707213050480EFE062
:10370800DF9D31C5930531001385818D452B19C582
:103718008C8113050480EFE03F99D9BF930570723F
:10372800130504800146EFE0BF94930500041305D8
:103738000480EFE0FF9901C5EFF03FD255BF054681
:103748009305606213050480EFE09F9255B79305D7
:10375800606213050480EFE05F9859D9014693052C
:10376800606213050480EFE0BF90F9B7828081475B
:1037780021461317850161879306800F634407006C
:103788009306000C3387F500060514A38507137507
:10379800F50FE390C7FE8280EFC29F907111AA8453
:1037A8002E859385019E32C0EFF07FFC2685938598
:1037B800819EEFF0DFFB02459385019FEFF03FFB11
:1037C800E1451385019EEFF06FEA1305C003EFE0B2
:1037D8009F9711016FC07F8D0146814501456FF0AC
:1037E800BFFB6FF07FFF9387819F23A00700238291
:1037F8000700239307002384070082809387819F13
:103808001307701CD8C7514798CB0567130707964D
:10381800BAA76FF05FFD9307F5FFC2070567C1837D
:103828009306F79563F4F600130507962391A1A074
:10383800828063060544AA83014563840544EFC278
:103848003F8683A24500368383A6430093D7F2417F
:1038580033C557001D8DB387D24093D4F74113D792
:10386800A70113946400598C13976700BA9733B76C
:10387800E700269422974207C183D98F984179712E
:10388800BA9703A703001D8F91679387076563D0D5
:10389800E706DD77938707363E979387819F839561
:1038A800A700DC231384819F2ED09355F741B3C41E
:1038B800E500B385B4402EC8B9EF63040624930726
:1038C800000563C3B7069307006463CCA7227E2074
:1038D800C165FD156396B70285475CA09307000292
:1038E80063C8E70281576347F7048147B1A0F177BE
:1038F8009387079BE353F7FAA567938707CA69BFBE
:103908008507C207C1837EA0CD45E3F9F5FCE9B779
:10391800930707FE15A06304061EC2459307F00728
:10392800E3DEB7FA2302040023130400930700021E
:10393800E3C0E7FE93070702856593850590B38486
:10394800B702B397B702A180E207C58F3EC4A2456C
:10395800F9779387B75463D3F5003EC4A2458967C6
:10396800938757AB63D3B7003EC483A48300930502
:103978003008B387B402B395B402C183C205CD8FB2
:10398800A245B697AE973EC08245E5779387B75272
:1039980063D3F5003EC082459D67938757AD63D3D7
:1039A800B7003EC0A24702C6B697B38757403EC28B
:1039B8009307800463DBA700B397540285452EC69E
:1039C80063C50700B337C0003EC61C486176B3071D
:1039D800F50263D3C700E17721666353F600A16758
:1039E8009305200B3386B702B397B7023D82824511
:1039F800C6075D8E9307B00E918F50443386C5027B
:103A0800E1756353B6006176A16563D3C50021668D
:103A1800B385C7020245B397C70213D6F50082459E
:103A2800C607D18F3ECC85671386C726B385C502E6
:103A38003316C502C18142064D8E32CA3396D4026E
:103A48006344060C938737F5B386F402B397F40200
:103A5800D182B2074C20D58F3ECE854692476399D6
:103A6800D50092469307801063DED710938786EFC0
:103A7800B2460566639206121306365113D5F7410E
:103A8800B382C7028256B3B7C70293D20201330585
:103A9800C50210403E95420593570641B362550052
:103AA8003ED26245D247AA977245AA979697135570
:103AB8000641AA9763D5F60EC2437D45635B750E32
:103AC80013D5F441A98C898C21651305A50B634096
:103AD800951812459303B002B30375026349701633
:103AE8001E963705E0FC6354A6003706E0FC370550
:103AF80020036354C5003706200310C089AA230297
:103B0800040023130400D9BB9387F7F9B383F402A5
:103B1800B397F40293D343011396C700B3637600B7
:103B2800D18763D40600B30250400145635D50025B
:103B38009306F063216563C8560293D5F24193D08A
:103B48001201BE051306006481461395F200B3E521
:103B5800B0003ED61ED41AD23ACEEF20701EB2570D
:103B6800A253125372479356F541B3867602B38730
:103B7800A702B697B306750233357502BD82AA97B8
:103B8800C607C9BD9247930680EF63D4F600930732
:103B980080EF93878710E9BD1306C657C5B5B306EE
:103BA800D04036D063D3F600BE864245FD4363C994
:103BB800A3061355C6403305A64008C00546639DB5
:103BC800C50A23040400014542054185630703042F
:103BD8002320E3001247958FB337F0002322E30038
:103BE8002247A30EF300B2472324E3000247231B16
:103BF8005300231DA3002326E3006247230EB300CE
:103C0800230FF3002318E30052472319E3007247F8
:103C1800231AE3001257231CE30045616FC0EFC865
:103C280093D3F441B3C49300B3847440A1639383E2
:103C3800A30B63CE930012459303B002B30375023E
:103C4800E3CEF6E8025563D7A702E3DB03E80546AF
:103C58006394C502102419EA13D5F6413346D500FA
:103C6800098E9303F00A0145E3D0C3F6054610A474
:103C7800368599BFBE86ADB523040400D5BF01457E
:103C88008280828009C523000508A3000508828078
:103C9800AA871DC10347050883461508014505077E
:103CA8001377F707638BE60083C607080545BE96BA
:103CB8008CA22380E708828001458280AA8701457B
:103CC80095C78DC583C6070803C717086380E60232
:103CD80003C7170805453E97182398A103C7170877
:103CE80005071377F707A380E7088280828005C954
:103CF8000347050883471508636BF70083470508E2
:103D0800034715083385E7401375F50F828083470D
:103D1800050803471508138507F8198DF5B70145F8
:103D28008280938781A123A0070023A2070023A4F0
:103D3800070023A6070005679387C1A0130757DE6E
:103D480098D31307C04E2205D8D313072010238E0B
:103D5800070088C323A2070023A407009AB782801C
:103D6800EFC20FB49387C1A083C7970261112A8459
:103D78009384C1A099E732C22EC0EFF09FFA124691
:103D88008245DC2CD4401397170026974EA703C70B
:103D9800840285079D8BDCAC998F9D079D8B8607D8
:103DA8002567A6971307477B8395C700B387E60265
:103DB8003397E602C1834207D98F617763D3E7005F
:103DC800E17721676353F700A16793029003338378
:103DD800570288509844B39257021353F300C6020F
:103DE80033E3620033836540AE82930570FC63D48D
:103DF800B200930270FC9305900363D455009302BC
:103E0800900393D3F741B3C5F300B3857540A16719
:103E18008D8FB385F202B397F202BD81C607DD8D9F
:103E2800B307B340B387A702B305E5023315E5022C
:103E3800A1816205C98DC8508D8F958FB385A70262
:103E4800B397A702C181C207DD8D856793872706CF
:103E58003385F602B695B396F6029C405981AA06B8
:103E6800558DAA97B7A68C0063CBD70A958F2204E5
:103E78001D8CB756460063D8860AB76673FF36941A
:103E880085669386D65E3305D402B316D4023D8187
:103E9800C606558DAA97B7A68C0063CDD708958F0F
:103EA800B7E604009386964A9CC0B307D402B316BB
:103EB800D402BD83C606D58FB7F670FFAE9793863A
:103EC80006C063D3D700B687B7168F00938606401F
:103ED80063D3F600B687DD759385F515B306B4028E
:103EE800DCC03314B402BD824604C18E3697B7E6EF
:103EF800FCFF6354D70037E7FCFFB726030063D401
:103F0800E6003727030098C401CA9440A187218797
:103F1800A18614C25CC218C621016FC00F99E3D8EC
:103F280007F4B697A9B7B7B6B9FFE35BD4F4B7A659
:103F38008C00B1B7E3D607F6B6979DB723AEA1A21A
:103F480011E18145238CB1A281476393B700828038
:103F58005A2123000500A300050085072313050047
:103F68003AA193F7F70F4105CDB703C581A383A7FE
:103F7800C1A3416681467D166313D5008280CE2396
:103F880099C5BA237D174207418319C7BAA3850685
:103F980093F6F60FC107CDB79823AEA319E398336C
:103FA80011CBFA23E305C7FEFA230507420741832D
:103FB800FAA3F1BF054798A3D9BFEFC26F8EEFE010
:103FC8004F9E9307800873B007300F10000003A7B7
:103FD800C1A303C381A3BA861306F00F1304F00F1D
:103FE8008147631AF3009307F00F6312F402EFE0BE
:103FF800AF9B6FC08F8B8C2291C58C2663F4C50054
:104008002E863E84850793F7F70FC106D9BF1204A1
:10401800B307870023800700054798B3EFE0CF98E0
:1040280083A7C1A3A297DC4791C38297EFE06F975C
:104038009307800873B007300F10000083A7C1A34F
:10404800A297A380070065B7C14601478147135669
:10405800E5018A070607D18F0A056375F700998F6E
:10406800FD170907FD16E5F613551700B337F000DD
:104078003E958280370700109306F6FF7917AA87C6
:104088007D55636CD70463FAC504931616001313A1
:104098002600931236002147014593D3C7019205A4
:1040A800B3E5B3009207120563E65500B3855540A2
:1040B8001365850063E66500B385654013654500B3
:1040C80063E5D500958D1365250063E5C500918DE1
:1040D800136515007D1771F382808280B306B502DF
:1040E8003315B5026347050293172500F982374750
:1040F8000F0013070724DD8E79853306E502B3B771
:10410800E6023387E602B297C207418333E5E70048
:1041180082803307D040B307A040B336D000958FD4
:10412800939627007983558FF987B366F700E9DE00
:10413800B7460F00938606243305D702B387D70204
:1041480041813337D702BA97C2075D8D3305A04046
:104158008280138701A40327C709938701A463C634
:10416800E50003A7070A6356B70023A20700BA852C
:104178000146D4431307803E8CC3B307D7020CC152
:1041880010C53317D702C1834207D98F5CC182801B
:10419800EFB21FF131112A84BA82BE846342B002A1
:1041A800B307A50223A0A2003314A502C1834204C9
:1041B800C18F9CC0A16702571CC351016FB0FFEEAD
:1041C800A1678D8F2E8563D887021C0821653AC2A6
:1041D8003EC038007C00018D653FA24792423247BD
:1041E8002165B303F540F177A297BA9723A072002F
:1041F8009CC0C247C9B7B6833307C4023283B3161B
:10420800C4026358B406825533868302B397830287
:104218003D82C6075D8EB307660233136602BD830F
:104228004603B367F3009CC19357F641B387E7028F
:10423800B386C602BE96B307E6023336E602FD83AE
:104248003387C6000607D98F3386870223A0F2007A
:10425800956693865655B39787023307D602B38778
:10426800D7027D833336D602B29786075D8F98C012
:10427800A9B7825790C393D71540B307F440338644
:10428800C702098CB39767023D82C6075D8E23A0DB
:10429800C20033866502339365024182FD85931718
:1042A80003015D8E93570341B385C502156313035C
:1042B8005355B387A702AE97B305A6023336A602B5
:1042C800B297B387670233866502B3B565027D820C
:1042D800AE9786075D8E9357F441B3868602B387FF
:1042E800E702B697B306E4023334E40213D7F601C3
:1042F800A29786075D8F3A9690C0C1B5EFB25FDA94
:104308009C41B28263C5A70008426FB01FDADC5532
:104318002A87854631456348F70003A5C202F5B7E9
:104328008506E38CA6FE939726003386F5000323C3
:104338000600E347E3FE9386C7FFB6958C41969740
:1043480088433306B340E352C0FC969680429356A6
:10435800F641B30785403305B740B395A7023385C7
:10436800A702EF20E01D22954DB7EFB27FD30111D0
:104378002AC893074006B28463D4B7009305400661
:1043880081461395E500130640068145EF20401B42
:10439800938601A4C8CA2AC02ECA930640062A8753
:1043A800138401A463D496009304400613064006C0
:1043B80081461395E40081453ACEEF206018824784
:1043C800A1642AC23386F4409356F6412ECC2AC6FD
:1043D80008CC8145370500405CCCEF206016924739
:1043E8002AC408D03386F4409356F6413705004076
:1043F8008145EF20E014A247724748D01CD4AA8414
:10440800014309CB0246D246370500408145EF20DB
:1044180020132A83B24723266402014591CB124612
:10442800E2463705004081451AC6EF206011324345
:104438006D671307B7EB18C4375702001307C78B0C
:1044480058C418C8A5664247938606CA08D8232ABE
:104458006402232E04082320D40A63D3E606368791
:10446800824718C018DC3CD8924778C038C47CD83A
:10447800A24778C41307040823220400232E040249
:104488002320040423280404232A0404232C0404DA
:10449800232E040423240406232604063CDC64DCBF
:1044A8002320670048C3232404082326040823285C
:1044B8000408232A0408232C040805616FB0FFBEF2
:1044C800E35007FA014769BF6355B504138701A490
:1044D800232EA7082320B70A1843938701A463460D
:1044E800A7003A8563D3E5002E858546138707081C
:1044F80088C323A2070088DFE8C3A8C7E8C723A0AA
:10450800070414C723A6070814CB23AA070823AC5B
:1045180007088280938601A403A7C609938701A48C
:1045280083A6060A6346E50036876353D5002A87C3
:10453800854698C3F8C7B8C7F8C398DF1387070834
:1045480023A2070023A6070623A4070623A007041F
:1045580023AE070214CB14C723AC070823AA070805
:1045680023A607088280EFB2BFB3138701A41443C0
:10457800130141FB2ED414DF36D0544354DF130704
:10458800070836CA544F185336CC6346D5003ACC80
:104598006353E5002ACC62478256158F3AC66359A1
:1045A80007243687E246158F3AC652473307E0405C
:1045B8003AC07D57B2471305803E13066004B39591
:1045C800A70281463AD63385A702EF1070771D6798
:1045D800130757ADAA846353A722BA841303803EF6
:1045E800B39564027946814613D4F4413385640255
:1045F800EF1010751317040193D504012AC213068E
:10460800803E8146D98D13950401EF10707382475F
:104618001303803E2ED893D6F741B58F958FB3827A
:1046280067023EC82EDC2ADA2ACE2A87339367022D
:1046380093D20201938701A493160301B3E25600B3
:1046480094531353034136D292551256B7D61900D4
:104658009386C6583306D602B396D5023D82939503
:104668001601BD864D8E6346D0006395061A630316
:10467800061AB24737853E00BAC2B395A7029AC058
:1046880016DE3E043385A702EF10906B1D669D650C
:10469800130606AD938505AAEFF05FC693D51401FE
:1046A80021662AC4C18D1306F6F281461395F400DB
:1046B800EF101069A243F252064316472A8463D3C7
:1046C800A3001E8493D512013E0321661306F6F259
:1046D80081461395F200B3E565003AC4EF105066C1
:1046E80021662247AA866344C5009306F6FF228501
:1046F8006353D40036851D669D65130606A793850A
:1047080005AD3AC4EFF09FBFB7960900938666DD02
:104718003306D5022247B316D5023D82C606D18E8E
:10472800124663D3C60036866343C00005469356D7
:10473800F64137054042BD453AC4EF107060124655
:10474800B7B606009386C6E222472A8463D3C6001A
:1047580036869356F64137054042BD453AC2EF10BA
:10476800305E9257AE863306F4023313F402938711
:1047780001A483A247023D8293D5F241B386D202B7
:1047880046033363C30023A46700B385A50233B689
:10479800A202B695B386A202B295C605BD8233E7DA
:1047A800D5003AC4D8C78C57124763538500228571
:1047B800B306B5023315B502BD824605C98E36C2A9
:1047C80094CBB246ADE68246B9EA025723A0070465
:1047D80023A60708F8C7054723A4E70823A8E7087E
:1047E80023AA070823AC07081301C1046FB0FF8B85
:1047F800324709CB52473AC005476DBBE340A0DEBC
:104808008544E9BB52479D64938454AD3AC005473B
:104818003AD6E9B3B71609009386261A11B7C246E5
:104828000246A186634AC000D04F014391A0C24608
:104838000246A1866354C00E224522463244B31371
:10484800D50213D5F6413306D602B383D302330516
:10485800C502AA933305D6023336D6021E969313A1
:10486800140063C5C300631D760A5DC9D04F0543B4
:10487800ACDFCC5BB0DB138607080CC28C4F23AED1
:104888005706ECDB8C5B4CC2630B030A924522464D
:1048980093D2F6413385B6022E963244B395B602CA
:1048A800B382A202B385D5029695B332D502969506
:1048B80093121400B38555403305D50263D405001F
:1048C800014581453AD81AD2EFF0CFFAEFF0CFF789
:1048D800724722051253B306A0406355A7004257FA
:1048E800B306E04002471246158FB304C7023317D8
:1048F800C702B3349000BA946343900085443307E9
:10490800D040A2463304D7023317D702333480008D
:104918003A94634380000544014575A8024609F6A8
:10492800D04BCC5723AE5706B0DB12561AC2B0DFB5
:10493800138607080CC28C4FECDB8C5B4CC202461A
:1049480092453306C740B304B6023316B602B334F1
:104958009000B2946343900085442246A245425594
:104968007D863306E602B385A5022E96A2453384DA
:10497800E502B3B5E502333480002E9632946343E2
:104988008000054402461355F4413305E50233031C
:10499800E60042563306C402B30593023295B33299
:1049A800E4023306E402AA92331393022E96B33537
:1049B800B600458216939A95BE054D8EB24563C3DF
:1049C800C5243386C54042061305F7FFBA853295DC
:1049D800EFB0CFEE0143225726951AD2B3068500D1
:1049E80063D1E604B68513158700EFB02FED3304C5
:1049F800A40212532180631B032802476348072837
:104A08003385A4028544218111C1AA84A256338723
:104A1800840063D4E60033849640634380000544F1
:104A2800A25632473D873AD4324702C646073AC8AB
:104A3800370700807D173AD2338784003AD863D38A
:104A4800E600BA86824542452253B38395021397FE
:104A58001600058F33068740B3959502B30275405B
:104A6800333555003303B3403303A340635D03225A
:104A78004245A2503385A340B3B3A300B385154084
:104A8800B3857540FD53635606003306E440B3030F
:104A9800704096C49AC29EC036DEEFF0AFDD125663
:104AA800F25686431643A6422A87938701A4637366
:104AB800A60032870546638CC31EF2453306E040E4
:104AC80063CBE524328732468D45630AB604024635
:104AD8008245198E63D4E5003306B74092451245E6
:104AE800B385C5023316C502B335B000B29563432A
:104AF800B00085451355F7413346E500098E224538
:104B080022433305A602331666023335A0002A96DF
:104B18006343C000054663C4B4206343C4203256CF
:104B2800B3859640818D3307C702524623AC0708E8
:104B3800B302C7401386070804C64CC600CA54CA45
:104B4800B38692023303E040B8C323A6670623A4C2
:104B580057061AC016C233969202BD82460633150E
:104B68008302D18E93D02601B4CF33068302460543
:104B78003D82498EF0CF524652453386C402B393E4
:104B8800A40213D5F6413A05BA0633E5A000B29659
:104B980033B6C600C182AA931E964206D18E02562B
:104BA80037050040B2963306B702F4C33317B7028D
:104BB800418281454207598E6247B2962686B4C71C
:104BC800F8C7EFF02FCB138701A42286AA8428CB3D
:104BD800814537050040EFF0EFC99242138701A4E1
:104BE80068CBA6852A841685EFF04FCF02439387BA
:104BF80001A4A8D3A2851A85EFF04FCE938701A40C
:104C0800E8D3DDB6924793D5F6413AD23385F6021A
:104C180012473396F602B2473306D602B385A50289
:104C28002E96B335D5023305D5023303B6009395D6
:104C38001700A2479A953386E700EFF0AFC3EFF06D
:104C4800AFC0724722056354A70012573A8502473E
:104C58008246098F63D4A6003307D5409246B384B1
:104C6800E6023397E602B3349000BA9463439000A7
:104C7800854422473304A7023315A7023334800042
:104C88002A94634380000544014379B14247924620
:104C9800B304D7023317D702B3349000BA94E3476A
:104CA80090D68544A5B316859A858543E9BB724697
:104CB800E35BE6E01356F341D257B3425600B3859F
:104CC800C2403385F50033436600E257B3B2B20001
:104CD8003303C340330353403E935256B335B500B4
:104CE8009A9513331500B38565407D15B6C03ADE35
:104CF800EFF04FB8C25786467257138617003295A1
:104D08000581938701A463CFA6026348E000724738
:104D18003307E0404DBB328771BF72476DB3AE8435
:104D28006353C40032843247B3858400050763C4E3
:104D3800B6003AC611B3B3859640E3CCC5FE3AC671
:104D48002E84DDB9B2461146850636C66384C60090
:104D5800AA86DDB1AA86E1B363020518EFB24FB4A3
:104D6800138701A483278709832647097971AA82B3
:104D7800138401A463DDD70081C9032784080326AF
:104D8800C408329763C5E7008507232CF4088323FA
:104D9800840963C9D30274448327C4090327040A16
:104DA80063C6F600B6876353D700BA871CC02322B0
:104DB800040023A0F20023A2020023A402004561FC
:104DC8006FB0AFAE832484088327C4083387F40008
:104DD8003ACA63CC740A1C5C0323C40328483EC83F
:104DE8003C542C58305C3EC23C4C832604089E84BC
:104DF8003EC43C503EC63385A402A1673D8163F39F
:104E0800A70021657C103EC058103C1016D01ACE61
:104E18001ECCEFF0EFB73257B246B2477243339623
:104E2800E6029246E2438252B387E70246061257E9
:104E3800BD835D8E9247B387E7023397E602BD8351
:104E4800A2464607D98F9A9722475CC0A2573307D4
:104E5800F702B396F602B307930233139302BA9795
:104E680033B7E700C1839A9636974207D98F4247EE
:104E7800B305F700D24763DD770238407C44634CC2
:104E8800070463D7B702BE8525A05247032304044D
:104E9800B384934063427702B38764026C40232251
:104EA80064000146B3946402C183C204C58FBE95F1
:104EB8001685EFF00FAA21B79D8C3C4468486C58C2
:104EC8003EC87C54705C832644083EC27C4C3EC479
:104ED8007C503EC60DB7E3DDF5FC75B7828093873D
:104EE80001A403A5870983A747093325F5001345BE
:104EF8001500828003A541ADC1676344F5001385A1
:104F0800F7FF42054181828005472384E1AE83A7EC
:104F180041AE91C398A382809306C05D138701AF09
:104F280023A8D1AE1827938701AF11C13A85054749
:104F380098B713075020BAA71307400688A723A2DB
:104F48000700DAA76FF05FFC23A2A1AE83C781AE8A
:104F580081C719C185471CA18280EFB26F9483C7AE
:104F680081AE8DC303A6C1AEB9450506138501AF51
:104F7800EFB02FBC01C983A7C1AE238401AE85075A
:104F880023A6F1AE6FB06F92EFB28F911386C1AEC8
:104F9800B945138501AFEFB06FB341C503D701AF72
:104FA8009306007D938701AF1307C7E0420741834B
:104FB80063E9E606B62325671307F7C96363D706CF
:104FC80090279306F00F630ED6049037A9459306F1
:104FD800F6FF93F6F60F63E6D504D6236363D7048A
:104FE800F6236360D704CC370547636CB7022D47B7
:104FF8006316E600130730066375D702B8279D4687
:105008007D171377F70F63EEE600B83789467D17EB
:105018001377F70F63E7E600D8279307400663F78F
:10502800E7000145EFF05FEFEFF03FF36FB0EF8778
:1050380083C7A1AF9D461147FD1713F6F70F63E32A
:10504800C6003E879D670A07938707B0BA978843CB
:105058008280EFB2EF8403C7C1AF9306400693077F
:10506800400663E3E600BA87138701B093F4F70FAD
:105078003CA38567138587BB3385A4029305400647
:10508800EFB0CF83856793870796B384F4021387BD
:1050980001B00AA793073006138401B0054563F9E8
:1050A8009700930540062685EFB04F81420541855C
:1050B8002AA44AA4FD2E6FA05FFF9307400663ED64
:1050C800A700EFA2FFFD238EA1AEEFF0FFE3EFF004
:1050D8005FF805456FA07FFD0145828003C521B0BB
:1050E8008280938701B023A0070023A2070023A48E
:1050F8000700239607006FF0DFF5EFA27FFA93878A
:1051080001B003C7C1AFBC2371112311010013847F
:1051180001B06304F700EFF0DFF313052100C522A7
:105128007E20348191CFFD17C207C1837EA081E71D
:105138001C20F59B1CA00317C400BA8721E1A5A079
:105148000317C400BA8731CD0566130686BB637D95
:10515800D6003030894563FCC50010201366260050
:1051680010A01306200372A0A301040001A80506DD
:105178001376F60F30B08D45E301B6FE1224637145
:10518800D606918E0D468547635AD60013063064BD
:10519800930700196344D60093D72640B307F74016
:1051A80019A0A301040085669386069663DEF604BB
:1051B800B6871395070141856304E5004AA4D52CF9
:1051C8005C206147850793F7F70F6363F7045CA0DA
:1051D8001C20A9EF1C30ADC3A3000400F52EA9A81C
:1051E80085661386F695938606966348E6009307C8
:1051F8000703E3DAF6FAB6877DB7E306D7FA93072B
:1052080007FDE3D2D7FAC5BFE345F0FA854755B79E
:1052180023020400DD20E177E30CF5FA1307301FC1
:105228001C20635EA70093E717001CA07D2409C516
:105238000145612E85471CB011016FA01FE71307B8
:10524800201CE347A7F8F99B1CA059B7EFA25FE51C
:1052580071111305210023110100EFD0EFB02DC902
:1052680028819307F06363F5A706FD77938707A264
:105278003E959D67138787973305E50263460502C8
:10528800138707A4B706CB5A2A979386F647138540
:1052980007D663C8E600B565938505483A85EFA04B
:1052A8007FE111016FA07FE0E5779387075C330406
:1052B800F500B565938505482285EFA0BFDFB717D0
:1052C800C1FC93871778E35EF4FC130580C1D1BF56
:1052D80041657D15F9B7EFA2BFDCEFD00FADB77709
:1052E80002009387477A3305F502B7450600EFA019
:1052F800FFDC420541816FA05FDB6FE08F8DEFA27D
:105308003FDA71112311010009E5014511016FA070
:10531800DFD92A8413052100EFD08F9F7DD53C81EA
:1053280009671307B7ADB387E7023707001063F6BD
:10533800E700B1831EA00545D1BFC167FD17DDBFDA
:1053480083A701B1194705456375F700D51713B54C
:105358001700828083A601B12D47938701AF63941C
:10536800E600CA238280AA238280938701B11307AB
:105378001010FAAB238C0700239D0700239E07001B
:10538800A38707008280EFA2BFD1EFF03FECC16492
:105398002A84FD140145630D9404138701B102A703
:1053A800EFF05FFB2567930607CA658C36943305D3
:1053B800A4401307F7C9938701B16376A7001D6757
:1053C800130707363A954205B6274181EAA389CEE5
:1053D80063FCA6002567130707CA3306D540098F63
:1053E80036856373C7000145CAA3A387070005452F
:1053F8006FA0BFCB83D5A1B193070019014563D630
:10540800B700938585F31305800C6FF0EF8BEFA23F
:105418003FC9138401B101C56A20EFE09F904A207B
:10542800EFF04F8FEFE02FBC5E205EA46FA0FFC7A8
:105438009306F5FF2947938701B16367D7001307E0
:10544800B5FF854663EFE600054798C32387070045
:1054580005451D677D157999130707B22A971A2301
:1054680011A888C32D476319E500138701AF543786
:105478007A23F4A7BAA782801347F5FF058BF8A70C
:1054880099460147E3E8A6FEE9B7EFA27FC19387F3
:1054980001B1C83B138401B111E5EFD02FF50AB46F
:1054A8006FA0BFC0791513351500EFD03F850145B2
:1054B800FDB7056713070796BA876349A700AA8748
:1054C8001397070141876343E00085471395070158
:1054D8004185239BF1B26FE00FB403C551B2133578
:1054E80015008280EFA2DFBB03C591AFEFF05FF438
:1054F800EFF07FE9938701B123A007022392070207
:10550800A388070023890700EFF09FE311C9EFF094
:105518007FEE0545EFF0BFEFEFF03FF76FA0FFB864
:10552800EFE06FACD5BFEFA2BFB7138701B15C3B0B
:10553800183BD98F9DE3138401B13C2899CF854747
:105548001CB8EFF0FFDF11C5EFF0FFE30145EFF006
:105558001FEC0145EFD08FE90AB46FA01FB5EFA289
:105568003FB4138401B11C389DC73C288DC7A308DC
:105578000400EFF0FFDC05C138381C504A2481458F
:1055880019C7BE85C16763E4F5009385F7FFC205B7
:10559800C181EFE05FFD6FA05FB1EFA27FB093879D
:1055A80001B1A38807002389070023A007022392DB
:1055B8000702EFF0FFD811C5EFF0FFDC0145EFF06F
:1055C8001FE5EFF09FEC6FA05FAE3335A000050537
:1055D800A382A1B26FF07FFCEFA29FAC938701B1C9
:1055E800DC3B8DC3138401B1A30A0400EFF0BFD9DB
:1055F800EFF01FD501C50545EFF07FE10145EFD07C
:10560800EFDE0AB46FA07FAAEFA29FA90567130770
:10561800479C51112A862E84BA876363A700AA87FC
:105628001397070141839306401F6374D7009307BC
:10563800401F93960701138701B1583BC182938499
:1056480001B119C732C236C0EFF01FF912468246BF
:10565800054732C436C2A3880400B8A8EFF05FCE6D
:10566800FC24924622463EC035C1BA249386C6E041
:105678009305007D3385E6023AC2EFA03FA4824736
:1056880081C712473305A740DA2493160501C18262
:1056980036853387E64009CCA285D6A4EFE0BFEC77
:1056A8000547B8B8EFF01F8588D031016FA0FF9F7C
:1056B8007D466345E6000556E359C7FE8145D6A4F5
:1056C800EFE07FEA0145A3890400F9BF0567930568
:1056D800B05D1307079663F2C504938646A2338527
:1056E800E6029305803EEFA07F9D824742054185F3
:1056F80089C73305A04042054185CAB07D5711C806
:1057080098408546651763F6E6021307803E33071F
:10571800E40298D0A387040049BF1305C05D158D26
:105728003305E5029305803EEFA05F993305A0405D
:105738006DBF2567130707CA3304E402A387040073
:1057480080D0EFF0BFB0417705072A973337E000E4
:10575800D8A841677D17E30AE5F48AA4B9B7EFA290
:105768003F94138401B16A2C814509E9938701AFFD
:10577800B43705476398E6008A238145EFF0DFE8F0
:105788006FA0BF928D476396F60058B8EFF0FFE020
:10579800C5BFEFF0FFBA6DD54A20EFE0BFD7CDB750
:1057A800EFA21F907111130640068145138501B1C0
:1057B800EFA09F998567938401B193870796014568
:1057C800FEB0EFD09FD50545EFD0FF9D9304C003F1
:1057D800138401B1EFD09F9A2AC02DED0545EFC083
:1057E8007F999387F4FF93F4F70FEDF40145EFD019
:1057F8009F9B0545EFD07FD2824704A87EAC03C5A6
:1058080091AFEFF0FFC2EFF01FB8AA8409E5232299
:105818000400231404005E206A205EA4EFE06FD029
:105828004A2065468145EFE05FB4EFF07FB119C1CA
:10583800EFF05FBCEFD09FFC0145A30A0400EFD056
:10584800EFBA0AB491E885471CBCEFF01FB211010A
:105858006FA0BF8585444DB7EFF07FF0CDBF9307AC
:10586800F5FF93F7F70F2947636BF702EFA25F8302
:105878009307B5FF93F7F70F05472A840145637E21
:10588800F700AD47630BF400EFF03FD1A38C81AE76
:10589800EFF08FE7EFF01FC505456FA01F810145A9
:1058A8008280EFA2EFFFEFF0BFA9AA871305C05DC2
:1058B8008DCF938701B1BE27138401B19DC7EFF047
:1058C8009FAC7C244A2081C73E243385A740930798
:1058D800007D3305F5022E2493D715003E95EFA0E1
:1058E800EFFD1305451F420541816FA00FFCEFA294
:1058F8002FFB7111EFF09F952AC0EFF07FA435C1FF
:105908000247C167FD170145630DF704938701B18D
:10591800A627A566938706CA8580858FBA971396AA
:1059280007019386F6C94182138401B163F9F60031
:105938009D6793870736B2971396070141820C40FB
:10594800AD46938701AF6391D502D2A33AC0EFF079
:10595800AFDB0247054566A01AA446A0EFF03FABAF
:10596800054511016FA06FF4B2A3CDB7EFA24FF3B5
:105978007111AA84EFF0DF9C09E5014511016FA0C0
:10598800CFF2EFF0BF8CC167FD172A84E307F5FE5D
:10599800EFF05F9CC1672567FD17E18F930607CA83
:1059A800B697898F139407011307F7C94180637964
:1059B800F7009D6793870736A297139407014180E4
:1059C800138701B13E277027B9C363F2870425679F
:1059D800130707CAB305F440018F6379B70201447E
:1059E800E38DC4F825673306A4001307F7C9637A63
:1059F800C7041D67130707362A972297131507014F
:105A0800818F139407014181418021A03E84E39B4B
:105A1800C4FC2AC093073006E3F187F6EFF0FFB71E
:105A2800938601B1F8260245938701AFD8B72D4771
:105A3800CAA3E2A398B7EFF02FCDEFF0BFAA0545B0
:105A480035BF131506016DBFEFA28FE5EFF05F8F2D
:105A580001C9EFF01FE52398A1AEEFF0EFCA0545A5
:105A68006FA0AFE4EFA2CFE3938701B1982B8547EE
:105A7800138401B16318F700EFD04FF001C58145D9
:105A8800EFF09FB864280946639EC400EFF0BF8F0B
:105A980001C90545230B0400A3070400EFF03F9755
:105AA8006FA0AFE05C38EDFF8546639BD40AEFF04A
:105AB8009F8D094605CD5E2C130770078507C20721
:105AC800C1835EAC6372F7040145EFD02F920AB42C
