:100000006F60C07E0000000002480000124800003F
:1000100000000000000000000000000000000000E0
:1000200000000000000000000000000000000000D0
:10003000EA67000000000000EA670000000000001E
:10004000EA670000EA670000EA670000EA6700006C
:10005000EA670000EA67000068480000EA670000FD
:10006000EA670000EA670000EA670000EA6700004C
:10007000EA670000EA670000EA670000EA6700003C
:1000800022480000EA670000EA67000032480000EA
:10009000EA6700002A480000EA670000EA670000FB
:0800A000EA6700000000000007
:1000A800511126C022C206C4828282441244A24050
:1000B80031018280634E050263C305042E86AA853A
:1000C8007D5515C285466378B6006356C00006069E
:1000D8008606E36CB6FE014563E4C500918D558D37
:1000E80085820582F5FA82808682C93F2E858282C2
:1000F8003305A0406347B000B305B040C1B7B305AE
:10010800B0408682653F3305A0408282868263C7FD
:100118000500634905005D372E858282B305B0402E
:10012800E35B05FE3305A040513F3305B0408282B2
:1001380000002A8309CA83830500230073007D1603
:10014800050385056DFA82802A8311C62300B30052
:100158007D16050365FE8280B70700200547238AC0
:10016800E708B707002083A7070991C398A38280EF
:10017800B70700209306C05D1387C70923AED708C9
:1001880018279387C70911C13A85054798B71307F8
:100198005020BAA71307400688A723A20700DAA7AA
:1001A80065BFB707002023A8A708B707002083C7A3
:1001B800470981C719C185471CA18280EFF25FEE0C
:1001C800B704002083C744098DC7370400200326DD
:1001D800840937050020B94505061305C509EF4010
:1001E800807F01C983278409238A04088507232C73
:1001F800F40865BDEFF2DFEA370600203704002077
:1002080013068609B9451305C409EF40E07541C5D1
:100218000357C4099306007D9307C4091307C7E071
:100228004207418363E9E606B62325671307F7C942
:100238006363D70690279306F00F630ED6049037B2
:10024800A9459306F6FF93F6F60F63E6D504D62381
:100258006363D704F6236360D704CC370547636C20
:10026800B7022D476316E600130730066375D702F9
:10027800B8279D467D171377F70F63EEE600B8376A
:1002880089467D171377F70F63E7E600D8279307AA
:10029800400663F5E7000145E13D0D3739B583C7F1
:1002A80061819D461147FD1713F6F70F63E3C600FA
:1002B8003E879D670A07938787D7BA9788438280C6
:1002C800EFF21FDE03C781819306400693074006BD
:1002D80063E3E600BA871387C18113F4F70F3CA3E1
:1002E8008567138587BB3305A40293054006F93358
:1002F8008567938707963304F4021387C1812AA779
:10030800930730069384C181054563F887009305F8
:1003180040062285653342054185CAA4292B71B35D
:100328009307400663EAA700EFF29FD7238CA180CA
:1003380025357937054595BB0145828003C5E1819F
:10034800828003C5C18182809387C18123A0070071
:1003580023A2070023A407002396070095B7EFF20E
:100368003FD49387C18103C78181BC2341112311E5
:1003780001001384C1816303F70099371305210035
:10038800892C1E243481B1C3FD17C207C1831EA462
:1003980081E71C20F59B1CA03C200317C400A1CFBB
:1003A800BA872DC93224637FD60A918E0D468547B8
:1003B800635AD60013063064930700196344D600C5
:1003C80093D72640B307F740B1A00317C4002C20E9
:1003D800BA8715CD0566130686BB6377D60230301B
:1003E8000945636CC50005061376F60F30B00D4558
:1003F8006305A600C5F9854751A01020136626009D
:1004080010A01306200312A4A3010400E5B7A3015A
:100418000400F5D105456343F006420541856304B0
:10042800E5004AA409295C300547850793F7F70FCB
:10043800637EF70A4800A30204000D291C87B9E768
:10044800230304005C206147850793F7F70F636176
:10045800F70A5CA01C20DDEB1C30DDCFA3000400F4
:10046800FD235DA885661386F6956349E600930724
:10047800070393860696E3DFF6F8B6873E85856719
:1004880093870796E3DBA7F83E8541BFA24713D7BA
:10049800F741B98F998F12479356F741358F158FCA
:1004A8009306F00763C6E600348639476377D702B8
:1004B80013070002634EF7007C201147850793F766
:1004C800F70F6373F702930700107EA0A92B9DBF57
:1004D80023030400A3030400B5B723030400130790
:1004E8000002E351F7F6FDB77CA0A9BF5CB099BF45
:1004F80023020400E928E177E30EF5F41307301F1F
:100508001C20635DA70093E717001CA0892E09C56E
:100518000145352385471CB0410141BE1307201C06
:10052800E34AA7F2F99B1CA035B7EFF27FB7711128
:100538001305210023110100EF30E00135C52881A2
:100548009307F06363F2A706FD77938707A23E95AA
:100558009D67138787973305E50263440502138770
:1005680007A4B706CB5A2A979386F647138507D66A
:1005780063C7E600B565938505483A85253E1101B0
:100588002DB6E5779387075C3304F500B565938549
:10059800054822850536B717C1FC93871778E350BD
:1005A800F4FE130580C1E1BF41657D15C9BFEFF2B7
:1005B8003FAFEF20707EB77702009387477A330505
:1005C800F502B7450600DD3C42054181F9BC6F30B4
:1005D800D060EFF2FFAC71112311010001E5014574
:1005E8001101E1B42A8413052100EF20107165D9A7
:1005F8003C8109671307B7ADB387E70237070010D7
:1006080063F6E700B1831EA00545D9BFC167FD1792
:10061800DDBFB707002083A7C70B194705456375DA
:10062800F700D51713B517008280B707002083A6F7
:10063800C70B2D47B70700209387C709639DE600BE
:10064800CA239D67938707D663D6A700DD7793876C
:1006580007363E958280AA23EDB7B7070020938717
:10066800C70B13071010FAB3238407022395070258
:1006780023960702A38F07008280EFF27FA2513FE3
:10068800AA871305C05D85CBB70700209387C70BE2
:100698008E2B95C1CA23FC2F99C33385A540930798
:1006A800007D3305F50293D715003E95013C1305EF
:1006B800451F42054181D5BAEFF29F9E37040020BD
:1006C8001304C40B01C50844EF10D0194A20EF20C9
:1006D800E011EF106043814513858187EF20900F6B
:1006E80013060002814513850189B93C5E203EA8A6
:1006F8006DBAB70700209306F5FF29479387C70B04
:100708006367D7001307B5FF854663EFE600054723
:1007180098C3238F070005451D677D157999130731
:1007280087D92A971A2321A888C32D47631BE50078
:10073800370700201307C70954377A23F4AF9AAB59
:1007480082801347F5FF058BF8AF99460147E3E828
:10075800A6FED9B7EFF2DF94370400209307C40B45
:10076800862B9307001971111304C40B814663D6B5
:100778009700938484F39306800C36C07D358246B7
:10078800930700CE2A873385A7406353D500368563
:100798009D65938585C9998D63D3B400A685B3A754
:1007A800A50093C717005CBC63D7A500232A0400E3
:1007B80011016FF09F8F4AA86EA8EF10907ECDBFF1
:1007C800EFF21F8E9D33C1672A84FD170145630A26
:1007D800F402B70400209387C40BC0C7B9353305AA
:1007E800A4409387C40B88C70147634805009A2B28
:1007F8006345A700131705014183DAA3A38F0700F8
:1008080005456FF09F8AEFF2BF89370400209307F0
:10081800C40B03C557021304C40B19E5EF30603D40
:100828002314A4046FF07F88791513351500EF3071
:10083800404D0145F5B7056713070796BA87634921
:10084800A700AA871397070141876343E0008547FC
:100858001395070141852399F1866F10C02DB707BD
:10086800002003C5170E13351500828035C5EFF239
:100878003F83AA8437040020693B1304C40B8147D3
:1008880005C1583C11CF8346140203475402558FC3
:1008980083466402558F09E7EF20B00B93371500A4
:1008A80070445858144493F5F70F3307E64098C03E
:1008B800185C3387E640D8C07A349AA489C783473E
:1008C8000403B337F000BCA450D814DC2308B402E6
:1008D800231704026FF06FFD8280EFF26FFC03C5EF
:1008E8005181370400201304C40B2135D13D8347BF
:1008F8006402A3040402232E0402FD1793B7170011
:10090800A300F40223200404231204042311040284
:10091800093319C5813505454533F5356FF0EFF8CD
:1009280023030402A3000402EF10001EFDB7EFF238
:100938002FF7370400201307C40B834757020347D8
:100948001702D98F95EB1304C40B8347240203477E
:100958009402D98F95C38547A300F4022301F402BA
:100968004D3911C52628A93D0145B93326A80145A9
:10097800EF3020282314A4046FF02FF3EFF24FF286
:10098800370400209307C40B83C71702A1CF1304B1
:10099800C40B83472402B9C7AD390347640211C9A0
:1009A80085476308F700293D15CD262805452933D5
:1009B80026A803476402A300040285476304F702DC
:1009C80089390DC1034734023C402A28814519C79B
:1009D800BE85C16763E4F5009385F7FFC205C18151
:1009E800EF10D0656FF06FECEFF28FEBB7070020D8
:1009F8009387C70B03C76702A384070223AE0702C6
:100A08007D1713371700A380E70223A0070423925A
:100A1800070423910702F53E01C55D330145693995
:100A2800DD336FF08FE8EFF2AFE7E53619C5B707AA
:100A3800002083C7170E91E3453F6FF00FE733356A
:100A4800A0000505B7070020A380A70E71BFEFF22D
:100A58002FE5EFF01F8F15E5370400209307C40B2F
:100A680083C757021304C40B89CFA3020402893B2E
:100A78004D3619C1054589310145EF3080172314DA
:100A8800A4046FF08FE2EFF2AFE1B70700201387FD
:100A9800C70B8346170241112EC036C4834667022E
:100AA80009476382E606AA841384C70BEFF07F899F
:100AB80039E9853619C1583C39C70347540211C36F
:100AC800793785669386469C268763F39600368732
:100AD80093160701C1821306401F63F4C60013076B
:100AE800401F9317070183466402C1833EC205462F
:100AF800639EC60082475ABCA304D4027EBCA300EE
:100B080004022301D40241016FF02FDAA24799C7EA
:100B1800093609C5753165D90545793E0547A300EC
:100B280004022301E402F5347C2C3EC661C99247D5
:100B38001A289305007D1385C7E03305E5023AC2FC
:100B4800EFF0CFD7B247124799C33305A7405628CD
:100B5800131605014182B68463F3C600AA84762879
:100B680013960401418263F3C600B6840345040268
:100B7800C20485453228C180930600026313B5027A
:100B880099453307B7021305F77C41671307F71C2C
:100B98006379A7009305007D32C2EFF02FD2124689
:100BA800AA86A247A1E3824781CFBE85268526A8CB
:100BB800EF10D0480547A301E402EF20E05A0DA04A
:100BC8003387C44063C6E600B306D040E35DD7F27E
:100BD8008145268526A8EF107046A3010402014529
:100BE80028C015B78245268526A8EF1030458247CC
:100BF8003337F000A301E402E9F3D5B7056793069C
:100C0800B05D1307079663F6960492479305803EF6
:100C1800138547A23305E502EFF04FCAB2474205F4
:100C2800418589C73305A040420541858247231283
:100C3800A4047D5799CB18408546651763F8E602EA
:100C480082471307803E3387E70238C0A30F0400AA
:100C58005DBD92471305C05D9305803E1D8D33052C
:100C6800E502EFF0AFC53305A0404DBF82472567C9
:100C7800130707CAB387E702A30F04003CC0EFF0CD
:100C8800DF8A417705072A973337E0002302E40219
:100C980041677D17E309E5E648C4B5B5EFF24FC0F3
:100CA800370400201304C40B4A3C09C56E3CE13BE1
:100CB8006FF0AFBFB70700209387C709B437054760
:100CC8006395E6008A238145DDB78D476396F60074
:100CD800A302E402113BE9BFEFF0BF9371D94A20A8
:100CE800EF10D030F1B7EFF2AFBB3704002071112D
:100CF8001306400881451305C40BEFF0EFC4856760
:100D08009304C40B9387079601452393F404EF30AB
:100D180050010545EF30A0499304C0031304C40BE8
:100D2800EF3040462AC059E10545EF40800C9387D3
:100D3800F4FF93F4F70FEDF40145EF304047054514
:100D4800EF30207E8247230094025EBC03C55181A8
:100D5800EFF03F9AEFF0DFA6AA8419E523260400F6
:100D680023240400231204005E2008443EA8EF1048
:100D7800602F4A201306C0038145EF10D00EEFF014
:100D88005F8919C1EFF01F9DEF0070590145A3025B
:100D98000402EF2010662314A40499E88547A304ED
:100DA800F402EFF09F8B11016FF02FB0854459BF0B
:100DB800F535D5BF9307F5FF93F7F70F2947636A12
:100DC800F702EFF2EFAD9307B5FF93F7F70F05477B
:100DD8002A840145637DF700AD47630AF400293191
:100DE800A38A8180EFF04FB7EFF03FAF05456FF072
:100DF800CFAB01458280EFF2AFAAEFF09F8119C116
:100E0800EFF01F9CEFF07F876FF02FAAEFF24FA94A
:100E18007111EFF08FF1AA84EFF0AFFF59C1C167EC
:100E2800FD170145638FF406370400209307C40BB0
:100E38009E2B130680C11304C40B93D61700338767
:100E4800D4406340C7063E979D67138607D6634A1A
:100E5800E604A565138705CA158F2697131607019B
:100E68009385F5C9418263F8E50093870736B29701
:100E78001396070141820C40B70700202D4793873E
:100E8800C7096393E502D2A336C0EFF0EFAC824600
:100E980044C414C456A0EFF0FF8B0545EFF0DF8182
:100EA800054511016FF06FA0B2A3F9BFEFF24F9F94
:100EB8002A84EFF00FF601E501456FF00F9FEFF080
:100EC800CFE6C167FD17AA84E308F5FEEFF0EFF55A
:100ED800AA87B70600203385A4409386C60B8144B1
:100EE80063480500862A63C5A40093140501C180E0
:100EF800EC2E2567130607CA63818506A697B29765
:100F0800139407011307F7C941806379F7009D67B8
:100F180093870736A2971394070141809E2A858FED
:100F280093940701C18093073006E3F797F8EFF031
:100F3800BFAB370700209306C70BF82EB707002072
:100F48009387C709D8B72D47C2A3E6A398B7EFF090
:100F5800AFA0EFF09F9805458DB7B297139407019E
:100F68001307F7C94180E370F7FC9D67938707363D
:100F7800A2971394070141807DB7EFF26F92EFF0CB
:100F88004FE901E501456FF04F92EFF07F837DD97E
:100F9800EFF0AFEEB7070020239EA708EFF0CF9B36
:100FA8000545D5B7EFF2CF8F370400209307C40B60
:100FB80083C4070285471304C40B6393F404EF301A
:100FC800601C1DCD5C2C81E72AAC0AAC44AC3A2CE1
:100FD800162C2AAC1AAC6375D700B687BA863E873A
:100FE800AA876373A700BA873E8593170501C18353
:100FF80063F3D7003685420581454181EFF0BFA8EC
:10100800834464028947639EF400EFF06FFB01C9D3
:10101800054523030402A30F0400EFF0EFE96FF086
:10102800CF8883475402E5FF8347140291E7EFF026
:101038004FDE41C55C3C99E301459DA88547639C0B
:10104800F41C3E34034784028507C207C1833EB4BB
:101058006DC30567130777BB636FF70EEFF04FF6A5
:1010680005C158448D679387C74BB327F700A3037F
:10107800F4029D6713070732938787FB63F8E70E2F
:101088002316040283477402130780DA99C31307EF
:101098008025831764043E856353F7003A8542052B
:1010A8004185B307F0406355F50013950701418565
:1010B800EF2030342314A4049DB78546E383D4F885
:1010C80038403DDB83174404A5DB1C40E51763EF7C
:1010D800F600FD57630CF700EFF02FC5C167FD1749
:1010E800631EF50E230204023C40B9D7035744049B
:1010F800831764043A854207418763D3E7003E8536
:1011080042054185B307F0406355F5001395070183
:101118004185EF20102E1C402314A4040547E51731
:10112800E37FF7EE3C407D57E38BE7EEFD173CC0CD
:10113800FDB51307B05DE373F7F285472304F402A6
:1011480083477402231504022316040293B7170079
:10115800A303F40221B789472303F4028547A304B4
:101168000402A302F402EFF03F8855BD5E34130772
:1011780070078507C207C1835EB4E375F7F00145C0
:101188002628EF2010272314A4040545230304026E
:10119800A30F0400EFF04FD28347940291C7A30432
:1011A8000402EFF0BFAFA5BD83472402E38907E639
:1011B800EFF02FC6E30505E60347340226A83C40B6
:1011C800814519C7BE85C16763E4F5009385F7FFBC
:1011D800C205C1812685EF10606691B58347440238
:1011E80085C7584483164404B307A74063C4060060
:1011F800B307E54063D3070081473440014763F4F0
:10120800D7003387F64038C0854748C42302F40224
:10121800A30F0400D1BDEFF0AFDA0DE57C3C114718
:101228006364F70085077CBC783C9547631CF7002E
:101238000145EF20101C2314A404EF00F00CEFF07C
:10124800CFC1F1BB83158404084413864188EF009D
:101258005065834514088DC17C503848B386E70231
:10126800B397E7026344F000B1E7A9C67E3441674B
:101278007D17639EE702854513858187EF1090559A
:10128800EF10306D2A8693860189138581879385AF
:101298004188EF00100CEF20D01583473402231447
:1012A800A404E38E07D63C40E38B07D641B58507F7
:1012B8007EB4D1B78145C9B7EFE29FDE83C7118BF2
:1012C800A546850793F7F70F63E8F600A388F18A28
:1012D800EF20F0116FE07FDD83C7018BA388018ABF
:1012E80085C31306F00F9305F00F1305F00FEF30C9
:1012F800004C83C7018B93B717002388F18AC9BFB5
:10130800EF30C04EFDB76FF08F8539AC61B9EFE2B1
:101318003FD937050020954513050500EF00D0712A
:101328003705002013050504EFE0BFE76FE0FFD79E
:10133800EFE21FD783C441811384418B93073002A6
:101348009305400626851CA0EFE05FD7130505032B
:1013580008B0A9452685EFE07FD6A9451375F50F96
:10136800EFE09FD81305050328A0A9452685EFE0DF
:10137800BFD795472308F402130505039307000513
:1013880028B05CA06FE07FD29387418B03C7070327
:101398009306F00263E8E600930617002388D70255
:1013A800BA9788A382801387418B1306F0028306BD
:1013B800050089C6834707036373F6008280938517
:1013C8001700BA9705052308B70294A3CDB7EFE233
:1013D8003FCD21116400AA872E87A6860144A9451E
:1013E8003E853AC436C23EC0EFE01FD092468247DF
:1013F8001305050388A2A9453E85EFE03FCC0246C8
:1014080005042543924622471374F40FAA8763669E
:10141800C304B307874093F7F70F01466363870058
:101428003E8693050003338584003AC23EC0EFE050
:10143800BFD112478146636487008247BE867D1408
:1014480036941374F40F269408203D3FA2877D1428
:10145800E39C97FE61016FE05FC529468506E310AE
:10146800C4F845BFEFE2DFC37111AA8432852EC0EC
:101478003284EF50D00E82459377F50F014563997A
:10148800B7003E86A2852685EF50300B1335150030
:1014980011016FE09FC1EFE2BFC013051002ED35E7
:1014A8009387418B83C507031385418BEF30A013C6
:1014B8006FE0BFBFEFE2DFBE61112E8432C02AC2E7
:1014C800853D1245CD35824522851137E937210101
:1014D8006FE0BFBDEFE2DFBCA13D1D65130505DA76
:1014E800D935553F6FE07FBC014781472543A94265
:1014F8009376F70F63E5B6001EA205458280B30612
:10150800E50083C306000507938603FD93F6F60FEF
:10151800636AD300B3875702938707FD9E97C20774
:10152800C183F9B701458280EFE29FB72111130506
:10153800B100EF30A00A11E5EF30E01661016FE06D
:10154800DFB6988593053002631DB7008547A382EF
:10155800F18E2383F18E2384E18E8885EF30A05AA3
:10156800F9B783C7518EF5DB83C7618E3EC002464B
:10157800FD4763F5C700A382018EC5B782470245C0
:10158800850793F7F70F2383F18E1386818E2A96AA
:1015980018A2130610021383818EE310C7FC1946A4
:1015A800E37BF6FC83C6818EE397B6FC03464300D3
:1015B80093060005E311D6FC9386718EB6979C239B
:1015C800E39BE7FA70008D451385918E313F45D531
:1015D800370700209306C7093C8694261307C709D6
:1015E8003AC21383818E6386F6001307F00FE394E3
:1015F800E7F8824702C802CA9384B7FF93F4F40F4E
:10160800A547639DF40403479300930740056317B8
:10161800F704500891451385D18EF93521C1130679
:10162800610191451385218FC1350DC9BC8213070E
:10163800007D9387C7E0C207C183E36EF7F2854751
:101648003EC8424565479307F5FFE366F7F21D6715
:101658008A071307C7E1BA979C4382871D6613065A
:1016680046DAA6851385D18EF53B894719E99D672A
:10167800138687DAA6851385D18EED339D6701C55C
:101688008D473EC81DA81547639DE402094693850A
:1016980087DA1385D18EEF50406A05E51306E1001D
:1016A8008D451385F18E893509CD3C871307E00FE9
:1016B8006369F70011473AC8FC83C247E38D07EA1C
:1016C80049B71D661306C6DAA6851385D18E593B20
:1016D800954745F91D66130606DBA6851385D18E49
:1016E8005133994759FD1D66130646DBA6851385B8
:1016F800D18E8D3B9D4751F51D67130687DBA68567
:101708001385D18E85331D67A14725FD8247854600
:10171800DD1793F7F70F63E3F6040D46930587DBB0
:101728001385D18EEF50606115E982471306E100F9
:10173800938587FF93F5F50F1385018F753319CDC1
:101748003C87A9461387F7FF4207418363E8E60011
:101758001947636DF7061147637DF7061D66130683
:10176800C6DBA6851385D18EEFF0DFCFA947E31A34
:1017780005F01D66130606DCA6851385D18EEFF0ED
:101788007FCEAD47E31F05EE1D66130646DCA68532
:101798001385D18EEFF01FCDB147E31405EE1D661A
:1017A800130686DCA6851385D18EEFF0BFCBB5472F
:1017B800E31905EC9D671386C7DCA6851385D18ED2
:1017C800EFF05FCA9D6701C9B94765BD2D47E3873B
:1017D800E7F82547CDB50D476399E4040946938595
:1017E800C7DC1385D18EEF5040550DE51306E10097
:1017F80085451385F18EEFF03FCF09CD38879D469B
:101808009307F7FFC207C18363E6F600BD473EC8EA
:10181800F88365B51D66130606DD8D451385D18EE3
:10182800EFF05FC439C5DD47A9BD9D67138607DDA5
:10183800A6851385D18EEFF0FFC275F51547639A1B
:10184800E4029D670946938507DD1385D18EEF5025
:10185800C04E05E11306E1008D451385F18EEFF0CA
:10186800BFC801C93C87130740066364F700614796
:1018780099B51D66130646DDA6851385D18EEFF052
:101888007FBEE547E31F05DE1D66130686DDA685D8
:101898001385D18EEFF01FBDE947E31405DE1D6601
:1018A8001306C6DDA6851385D18EEFF0BFBBC147F1
:1018B800E31905DC1D66130606DEA6851385D18EA1
:1018C800EFF05FBAC547E31E05DA9D67138647DE6A
:1018D800A6851385D18EEFF0FFB89D6719C1C9475A
:1018E8004DB31147639CE4020D46938547DE13858B
:1018F800D18EEF5080441DE11306E1008545138524
:10190800018FEFF07FBE19C9388789469307F7FF23
:10191800C207C18363E4F600CD47D5BD1D66130633
:1019280086DEA6851385D18EEFF0DFB3D147E31AA3
:1019380005D41D66130606DFA6851385D18EEFF044
:101948007FB2D547E31F05D21D66130646DFA6857D
:101958001385D18EEFF01FB1E30105D6D94715B332
:10196800AC83A882EFF02F9239B1EFF07F9C1D6510
:10197800130585DFEFF03FA3EFF0FFB1EDBEEFF009
:101988003F9BDDBFBC8312471CA7EFE0EFFC21A003
:101998000145EFF0CF8AEFF0FFB3F1BE0545D5BFA3
:1019A800EFF0EF8ACDBFEFE09FF8F5B7EFE01FFD4E
:1019B800DDB7EFF06F83C1B692471D6501468C37DE
:1019C800130585DBEFF01FAF7DB692471D65014615
:1019D800AC37130545DEFDB7EFE07F8CAA851D65A2
:1019E8000146130505E1F9BFEFF0EFC0AA851D65B3
:1019F80011461305C5E0F9B7EFE05F94AA851D65A8
:101A08000D46130505DD7DBF03456101EFF08FBA73
:101A1800E30305B649B703456101EFE07F90CDBF09
:101A2800EFF0CFBEF5B70545EFF04FC8D5B7014584
:101A3800E5BFEFF08FD4E9BFBC8312473CB7B1B71D
:101A4800BC8312473CA7EFE02FF1EFF0BFA8EFE00F
:101A58001F85EF20F04405B6311513351500EFE06A
:101A68002FF1EFE09FE7D5B7EFE07FB6AA84EFE06C
:101A78001FB4A9451505EFE06FE493170501C1836D
:101A88003EC0EFF0FF8A1D65130585E1EFF0BF91B9
:101A9800EFF06FB69145EFF09F9313054005EFF017
:101AA800BF8E617701446382E402A9452685EFE091
:101AB8006FE0131405015D57418463D8E4001305F2
:101AC800D002EFF07F8C3304804081452285EFF00F
:101AD8001F9013056005EFF03F8B0245A945EFE025
:101AE800EFDD420581454181EFF07F8E1305E0026D
:101AF800EFF09F890245A945EFE00FDF42058545D4
:101B08004181EFF0DF8C8DBD9387819023A0070082
:101B1800238207002393070023840700828093878A
:101B280081901307701CD8C7514798CB05671307D6
:101B38000796BAA7D1BF9307F5FFC2070567C18308
:101B48009306F79563F4F600130507962399A19079
:101B58008280EFE2EFD4130181FC32CA63030546A9
:101B68002A830145638B0542B684D44102C093D7CA
:101B7800F64133C7D700B307F7403EC419CA9C459E
:101B880013D7F741B98F998F93A7570793C71700B2
:101B98003EC083A20500832543009303C0203386FB
:101BA800B64033077602138581908317A500138406
:101BB80081903ECE83270300331676024183420686
:101BC800518F16973387E7405021B38757403AC65D
:101BD80013D7F741B98F998F5247631B06206300CB
:101BE800072213050005634CF520A2421307006481
:101BF800634757207A20C162FD12631C571C0547B2
:101C080058A00247631F071E13070005638BE71ED2
:101C1800130700036356F72032479307000263D97E
:101C2800E720930707FE0567130707903386E70247
:101C3800B397E7022182E207D18F3EC84247F9777E
:101C48009387B7546353F7003EC842478967938721
:101C580057AB63D3E7003EC8032783001306300859
:101C6800B307C7023316C702C1834206D18F424663
:101C7800AE97B2973EC21246E5779387B752635341
:101C8800F6003EC212469D67938757AD63D3C700DF
:101C98003EC2C247224602CC3383F5009307800434
:101CA8003303D34063DCC700B317D702054632CCF1
:101CB80063C60700D247B337F0003ECC22461C4823
:101CC800B307F602617663D3C700E17721666353F1
:101CD800F600A1671305200B3386A702B397A70266
:101CE8003D821245C6075D8E9307B00E918F504412
:101CF8003306C50261756353A60061762165635397
:101D0800C50021663385C7029242B397C7021356AE
:101D1800F5001245C607D18F3ED285671386C726C0
:101D28003305C5023396C20241814206498E32D03C
:101D38003316B70263460610938737F5B306F702E2
:101D4800B317F702D182B2074C20D58F3ED485470E
:101D58009A866391F50293078010930683EF63CB0D
:101D68006700930780EF9A8663D46700930680EF35
:101D780093868610E2470566639807121306365164
:101D880013D5F641B382C602F247B3B6C60293D260
:101D980002013305C50210403695420593560641A7
:101DA800B362550036D612558256AA962255AA967F
:101DB800969613550641AA9663C7D700B307F04015
:101DC80063D3D700B68708247DC1232004000145CA
:101DD80041AA0507420741837AA0CD42E3E1E2E246
:101DE800024705E3638FA7000547E317E6E20DB551
:101DF80009C71307F0076359F700230204002313E8
:101E080004002304040009BD024765FF1307F0041A
:101E1800E349F7FE224513070064E344A7FEE9B748
:101E2800224793078010E3C9E7DE85471CA4EDB37A
:101E3800B24701576353F700815793870702E5B309
:101E48009387F7F93306F702B317F7025182139510
:101E5800C700498ED18763D40500B306D040014539
:101E68006355D0029305F063216563C0D5029305DD
:101E780000641395F6003EDA32D81AD63AD4EFE069
:101E88006FA3D2574256325322579356F541B38621
:101E9800C602B387A702B697B306C5023335C50293
:101EA800BD82AA97C6074DB51306C657D1BD3245A0
:101EB8009353F54133C5A300330575402ACE9303E8
:101EC800000263C2A302024759EB1357C640330707
:101ED800E64018C005476394E508224613078010BA
:101EE800634FC706EDB59353F74133C7E300330794
:101EF8007740A1639383A30B63CEE304D243130714
:101F0800B0023307E3026380030222459303801083
:101F180063CBA30072459303000363D6A3001307A2
:101F2800C00A3307E30263D3D7026345E0023A9657
:101F38003707E0FC6354E6003706E0FC3707200368
:101F48006354C7003706200310C029A0E381D7FED9
:101F5800E35F07FC05476394E500024739C33E8504
:101F6800420541859DC83247958FB337F00098C028
:101F78004247DCBCE24798C4124723A26400239B73
:101F88005400D8C41257AAACCCAC9AA80257FCACDF
:101F9800BAA82257DAA832579AAC130181036FE026
:101FA800CF90224613078010E34BC7FA13D7F741A7
:101FB8003346F7003307E6401306A00EE359E6E080
:101FC80079BF0145D9BF09C523000508A300050845
:101FD8008280AA871DC10347050883461508014565
:101FE80005071377F707638BE60083C607080545DF
:101FF800BE968CA22380E708828001458280AA874A
:10200800014595C78DC583C6070803C717086380B0
:10201800E60203C7170805453E97182398A103C78A
:10202800170805071377F707A380E70882808280DF
:1020380005C90347050883471508636BF7008347FD
:102048000508034715083385E7401375F50F8280A7
:102058008347050803471508138507F8198DF5B751
:10206800014582809387819223A0070023A207005D
:1020780023A4070023A6070005679387C1911307C8
:1020880057DE98D31307C04E2205D8D31307201064
:10209800238E070088C323A2070023A407009AB74A
:1020A8008280EFD2FFFF9387C19183C797026111A6
:1020B8002A849384C19191E732C22EC065371246B3
:1020C8008245DC2CD4401397170026974EA703C7E8
:1020D800840285079D8BDCAC998F9D079D8B8607B5
:1020E8002567A6971307477B8395C700B387E60242
:1020F8003397E602C1834207D98F617763D3E7003C
:10210800E17721676353F700A16793029003338354
:10211800570288509844B39257021353F300C602EB
:1021280033E3620033836540AE82930570FC63D469
:10213800B200930270FC9305900363D45500930298
:10214800900393D3F741B3C5F300B3857540A167F6
:102158008D8FB385F2022204B397F202BD81C607C0
:10216800DD8DB307B340B387A702B305E502331586
:10217800E502A1816205C98DC8508D8F958FB38501
:10218800A702B397A702C181C207DD8D85671383B4
:102198002706B695338566029387D75EB39666029F
:1021A8005981AA06558D9440AA96158C3305F402D8
:1021B800B317F4023D81C6075D8DAA9637E5040082
:1021C8001305954AB307A40294C03315A402BD832E
:1021D8004605C98FAE97B7F570FF938505C063D3E1
:1021E800B700AE87B7158F009385054063D3F50018
:1021F800AE875D751305F515B305A402DCC033146D
:10220800A402BD814604C18D2E97B7E5FCFF635437
:10221800B70037E7FCFFB725030063D4E50037278D
:10222800030098C419C6A186A187218714C25CC27D
:1022380018C621016FD07FE723A6A19411E181453B
:102248002384B19481476393B70082805A21230085
:102258000500A30005008507231305003AA193F79D
:10226800F70F4105CDB703C5819483A7C194416693
:1022780081467D166313D5008280CE2399C5BA2383
:102288007D174207418319C7BAA3850693F6F60F4F
:10229800C107CDB79823AEA319E3983311CBFA231E
:1022A800E305C7FEFA23050742074183FAA3F1BFF6
:1022B800054798A3D9BFEFD2BFDEEF20F02C9307D4
:1022C800800873B007300F10000003A7C19403C340
:1022D8008194BA861306F00F1304F00F8147631A2E
:1022E800F3009307F00F6312F402EF20502A6FD027
:1022F800DFDB8C2291C58C2663F4C5002E863E84D4
:10230800850793F7F70FC106D9BF1204B3078700F3
:1023180023800700054798B3EF20702783A7C1944F
:10232800A297DC4791C38297EF2010269307800875
:1023380073B007300F10000083A7C194A297A38041
:10234800070065B7C146014781471356E5018A076B
:102358000607D18F0A056375F700998FFD170907DE
:10236800FD16E5F613551700B337F0003E95828049
:10237800370700109306F6FF7917AA877D55636C17
:10238800D70463FAC5049316160013132600931294
:1023980036002147014593D3C7019205B3E5B30041
:1023A8009207120563E65500B3855540136585000D
:1023B80063E66500B38565401365450063E5D500B0
:1023C800958D1365250063E5C500918D136515008E
:1023D8007D1771F382808280B306B5023315B5028A
:1023E8006347050293172500F98237470F00130743
:1023F8000724DD8E79853306E502B3B7E602338715
:10240800E602B297C207418333E5E70082803307CB
:10241800D040B307A040B336D000958F93962700DD
:102428007983558FF987B366F700E9DEB7460F0061
:10243800938606243305D702B387D7024181333701
:10244800D702BA97C2075D8D3305A04082801387F3
:102458000195032707099387019563C6E50003A73C
:1024680047096356B70023A20700BA850146D4433B
:102478001307803E8CC3B307D7020CC110C53317AE
:10248800D702C1834207D98F5CC18280EFD25FC176
:1024980031112A84BA82BE846342B002B307A5020E
:1024A80023A0A2003314A502C1834204C18F9CC09B
:1024B800A16702571CC351016FD03FBFA1678D8F21
:1024C8002E8563D887021C0821653AC23EC03800B1
:1024D8007C00018D653FA247924232472165B303D4
:1024E800F540F177A297BA9723A072009CC0C24723
:1024F800C9B7B6833307C4023283B316C40263581C
:10250800B406825533868302B39783023D82C60799
:102518005D8EB307660233136602BD834603B36755
:10252800F3009CC19357F641B387E702B386C6020E
:10253800BE96B307E6023336E602FD833387C6004C
:102548000607D98F3386870223A0F2009566938603
:102558005655B39787023307D602B387D7027D83D0
:102568003336D602B29786075D8F98C0A9B78257CF
:1025780090C393D71540B307F4403386C702098C3C
:10258800B39767023D82C6075D8E23A0C2003386DB
:102598006502339365024182FD85931703015D8EC1
:1025A80093570341B385C502156313035355B38786
:1025B800A702AE97B305A6023336A602B297B38731
:1025C800670233866502B3B565027D82AE978607DA
:1025D8005D8E9357F441B3868602B387E702B697B8
:1025E800B306E4023334E40213D7F601A297860750
:1025F8005D8F3A9690C0C1B5EFD29FAA9C41B28236
:1026080063C5A70008426FD05FAADC552A878546B4
:1026180031456348F70003A5C202F5B78506E38C88
:10262800A6FE939726003386F50003230600E347AA
:10263800E3FE9386C7FFB6958C4196978843330689
:10264800B340E352C0FC969680429356F641B307D6
:1026580085403305B740B395A7023385A702EF40FD
:10266800002122954DB7EFD2BFA301112AC89307C5
:102678004006B28463D4B70093054006814613959B
:10268800E500130640068145EF40601E93860195DC
:10269800C8CA2AC02ECA930640062A871384019501
:1026A80063D49600930440061306400681461395AA
:1026B800E40081453ACEEF40801B8247A1642AC2DC
:1026C8003386F4409356F6412ECC2AC608CC814571
:1026D80037050040EF40A01992472AC448CC3386FA
:1026E800F4409356F641370500408145EF402018E5
:1026F800724708D0AA84014309CB0246D24637055F
:1027080000408145EF40A0162A83B2472322640285
:10271800014591CB1246E2463705004081451AC66D
:10272800EF40E0143243A5664247938606CA08D4B0
:1027380023280408232AD40863D1E606368782476B
:1027480018C0232204007CD0924758D423280402BE
:102758003CD4A247232A040218DC58DC38C02322C0
:102768000404232404042326040423280404232E15
:102778000404232004067CD424D8232A640628DCF5
:10278800232E0406232004082322040823240408F3
:102798002326040805616FD05F91E35207FA0147C9
:1027A80079BF63C4A504138701952328A708232AA2
:1027B800B7081843938701956346A7003A8563D302
:1027C800E5002E85054788C323A20700C8D788DF00
:1027D800C8DFA8C323AA0702F8DF23A0070823A29B
:1027E800E70823A4070823A6070882809386019593
:1027F80003A706099387019583A646096346E50062
:1028080036876353D5002A8798C3B8C3D8DF98DFC3
:10281800D8D7054723A2070023A0070623AE07043D
:1028280023AA070223A8070223A2E708F8DF23A6A2
:10283800070823A4070823A007088280EFD25F8631
:102848009387019594435D7113870195D4D736D248
:10285800D4432ED63AC094DB9387070836CA944BE4
:10286800DC4B36CE6346D5003ECE6353F5002ACE08
:10287800F2471257998F3EC663D30730BA8772471B
:10288800998F3EC6D247B307F0403EC2FD573ED8A7
:10289800B2471305803E13066004B395A70281462C
:1028A8003385A702EF30B07C9D67938757AD63D619
:1028B800A72E3E8592471247FD873D8FB307F74005
:1028C8003ECCE2461307803EB387E7023397E60221
:1028D800C183931607014187D58F3AD43E8463D3C9
:1028E800A7002A84BEC09357F44113930701935558
:1028F80004011306803E8146B3E565001315040103
:102908003EC4EF30D0762AC82ADC2AD01305803E90
:102918002EDA2EDEB315A402794681463305A402C9
:10292800EF30F0748247B7D619009386C658C44F63
:102938002AC486473386D402B396D4023D8293953F
:102948001601BD864D8E6346D00063940626630249
:102958000626BEC2B24737853E00B395A702338527
:10296800A702EF30D0701D669D65130646EE93856D
:1029780045EBEFF07FC89357F4411397F700935551
:1029880014012166AAC01306F6F21315F400814655
:10299800D98DEF30D06D064396472A846353A30040
:1029A8001A84A25613D7170121669395F60013953A
:1029B800F700D98D1306F6F28146EF30506B216788
:1029C800AA876344E5009307F7FF22856353F40061
:1029D8003E851D669D65130646E8938545EEEFF036
:1029E800BFC1B7970900938767DD3307F502B317AF
:1029F800F5023D83C607D98F22466346F6003E8618
:102A08006343F00005469356F64137054042BD45FD
:102A1800EF30F0652246B78704009387A7402A84E1
:102A280063D3C7003E869356F64137054042BD45FD
:102A3800EF30F063B3069402AA872E873316940208
:102A4800BD824606B362D600824623A4560094523D
:102A580093D5F6413387E602B385F50233B6F6021D
:102A6800BA953387F602B295C6053D834D8F3AC4B1
:102A78002246024750C763D38700A287338697024E
:102A8800339797029357F60022469355F64112461C
:102A980046075D8F824798CBE247A1876350C012F3
:102AA800224662443385C7021353F4413396C70262
:102AB8003303A3023306F6021A963303F5023335BD
:102AC800F5022A96324506056346C500631DA60E23
:102AD800630B030EBA8205473AD402470246584BA5
:102AE80064D634DA78D2585278DA184E38D618566E
:102AF80038DE225779CB33855702224733065700F1
:102B080013D7F741B39557023307A702B385F502E8
:102B1800BA953337F502BA9532473305F5020607F9
:102B2800998D63D405000145814516DAEFF05F847D
:102B3800EFF05F8102572205D252B307A0406355D8
:102B4800A700C247B307F04012471D8FB3045702CE
:102B580033175702B3349000BA9463439000854406
:102B68002247B307F0403384E702B397E7023334D0
:102B780080003E946343800005440145D5A8B247D0
:102B880089EBD24799EF1255EFF05FC661616FD0BC
:102B9800CFD1D2473EC28547DDB9E34DA0D0054528
:102BA80011BBD2471D65130555AD3EC285473ED8BA
:102BB80011B3B71709009387271A3DBD124602D4EF
:102BC80009DEBA8219BF02D409BF42479246158F5F
:102BD800B304570233175702B3349000BA946343CF
:102BE80090008544D256224742463307D702C24650
:102BF800B385D502A2463384C602B28622462E97F2
:102C0800B3B6C6023334800036973A9463438000E3
:102C180005441247C2469355F44142453306D7004E
:102C28004247B3069602B385E50252573307E402DA
:102C3800BA9542473335A4023307E4022E9533167A
:102C480096023697B336D70045832A96B296BE06C3
:102C5800558FB24663C4E624C2473387E64042072D
:102C68001385F7FFBE853A9516DAEFD02FC5D252F5
:102C7800B2572695330785006353F70413958700E9
:102C8800BA8516C8EFD08FC33304A402A257C24234
:102C9800218063910728924763CE07263385A402D3
:102CA8008544218111C1AA843257B38784006354B3
:102CB800F700330497406343800005443257B24716
:102CC8000143BD873ED4B247C6073EC6B70700805A
:102CD800FD173ECCB38784003ED66353F7003E878A
:102CE8009246324593171700B3839602858F338631
:102CF8008740B3959602B246B38676403335D50001
:102D080036C8A2568D8E898E63D206223245A250CD
:102D18003385A340B3B3A300B3851540B38575408D
:102D2800FD53635606003306F440B3037040B6C63D
:102D38009EC49AC2BAC016DAEFF08FE36246D25246
:102D480006471643A643B646AA876373A600B2870A
:102D580005466381C31E82553306F04063C1F524DE
:102D6800B2878D466308D304924612469D8E6354FB
:102D7800F600B386C74033865602B39656023336FA
:102D8800C00036966343C000054693D6F741B3C5E5
:102D9800F600958DA2462245B386D502B395A502C5
:102DA800B336D000AE966343D000854663CDC41ECB
:102DB800634CD41EC2560246B3059740B387D70268
:102DC800824664DE818DDCDAD2463383D740824680
:102DD8001AC423AE6604B306F04034D213060608BC
:102DE80018C602470CC240C22326070833169302AE
:102DF80036C23307930246063D83518F0246339508
:102E080086029353270178C6338686028246460592
:102E18003D82498EB0CAD2461355F7413A053386EA
:102E2800D4023A0733E5A300B392D402329733367B
:102E3800C70041839256AA9216964206518F33864E
:102E4800B702369782463705004098DEB397B70237
:102E580041828145C2075D8E3297D8DE7247268649
:102E6800B8C2EFF0EFD082472286AA84E8C3814532
:102E780037050040EFF0CFCF824722432A84A8C706
:102E8800A6851A85EFF04FD582479246A285E8CBF2
:102E98003685EFF06FD48247A8CFCDB93385570276
:102EA80093D6F74116DA33975702B386A60233074B
:102EB800F7023697B336F5023305F5023697B24670
:102EC80093951600A246BA9533865600EFF04FCA7E
:102ED800EFF04FC782572205D25263D3A70042456D
:102EE80092471247898F6354A700B307E540B3841C
:102EF8005702B3975702B3349000BE9463439000CF
:102F08008544A2473304F5023315F50233348000B3
:102F18002A948DB1E247B3845702B3975702B3346A
:102F28009000BE94E34290D88544BDBB4245B68527
:102F38008543C5BB0256E356F6E2BEC0C24713D569
:102F4800F6413346D500B343F500E257B385A340B5
:102F5800098E3385F500F257B3B6B300158E3E9649
:102F6800B336B500B296625693351500B385B640B0
:102F78007D159AC4BAC216DAEFF08FBFB25716475A
:102F8800D252938617003695058186472643634BB0
:102F9800A7026348F0008257B307F040D9B3B2875D
:102FA80069BF82577DBBB2846353D4003684B3872C
:102FB80084000503E350F7D2B3079740E3CCD7D09A
:102FC8003E8409BB050311476304E3002A8719B34C
:102FD8002A87CDB3630E0516EFD28F8C1387019520
:102FE8008327C708832687087971AA8213840195E5
:102FF80063DCD70099C5785C03260408329763C55B
:10300800E70085072326F4088323C40863C9D3028D
:103018003440832704090327440963C6F600B687AA
:103028006353D700BA871CC02322040023A0F200F0
:1030380023A2020023A4020045616FD00F87645CBD
:10304800832704083387F4003ACA63CB740A5C54B4
:103058000323040368403EC87C4C6C5070543EC245
:103068007C4474589E843EC47C483EC63385A40282
:10307800A1673D8163F3A70021657C103EC058100D
:103088003C1016D01ACE1ECCEFF04FC03257B246C5
:10309800B24772433396E6029246E2438252B387BE
:1030A800E70246061257BD835D8E9247B387E70253
:1030B8003397E602BD83A2464607D98F9A972247DF
:1030C8005CC0A2573307F702B396F602B307930220
:1030D80033139302BA9733B7E700C1839A963697AA
:1030E8004207D98F4247B305F700D24763DD77021D
:1030F80058583C40634B070463D7B702BE8525A0E8
:10310800524703234403B384934063427702B3874F
:1031180064020C5C232264000146B3946402C183F8
:10312800C204C58FBE951685EFF06FB231B79D8C7E
:103138005C5C28442C543EC83C503058345C3EC239
:103148003C483EC43C4C3EC615B7E3DEF5FC7DB7B3
:1031580082809387019503A5C70883A7870833252D
:10316800F50013451500828003A5819DC16763445E
:10317800F5001385F7FF420541818280131715007A
:103188003A96AA871387C19F01456393B700828047
:1031980093161600BA969622850793F7F70F369579
:1031A8000906E5B7EFC2DFEF2145EF10107C01CD2E
:1031B8000545EF10D07B2389019E239B019E238424
:1031C800019E6FC09FEE1145EF10307A15C1114571
:1031D800EF10F0790146A9450145EFF03FFA23AC1D
:1031E800A19E0546A9450145EFF05FF923A6A19EDA
:1031F8000945EF10907771D50945EF1050770546CE
:10320800D1452945EFF09FF783A7C19ED1453E954B
:1032180012052905EFC09FEA420541812395A19E29
:1032280005472384E19E83C6019F91C62389019E99
:10323800A388E19E79B703C7119F01C7A388019EA0
:1032480049B70146D1452945EFF05FF383A7819F30
:10325800D145A9073E95EFC07FE683C7219F85C367
:1032680083D7619F420541818507AA978583C20755
:10327800C183239BF19E85472389F19E99B7420517
:103288004181239BA19EC5BFEFC29FE1EF10D02FC4
:103298009307800873B007300F100000239B019E2E
:1032A80023AC019E2389019E0547A388E19EEF1068
:1032B800102E6FC09FDFEFC2BFDE2A84EF10D02C24
:1032C8009307800873B007300F1000001334140000
:1032D8002388819E83C7019F99C7239B019E23ACA6
:1032E800019E2389019EEF10902A6FC01FDCEFC258
:1032F8003FDB130181FA614681454808EFC0DFE4EE
:103308001306C00281456810EFC01FE485450545D6
:1033180002C402C602C802C002C2EF20B028854516
:1033280013050023EF20F0290145EF20F01A371587
:103338000140930700042C00130505407C8402C853
:10334800EF20E020C1472C00371501403724014009
:103358007C84EF20C01F13050440EF10702CB707C2
:10336800060005473ED04C088947130504403ACC6F
:103378002304F10202CA02CE02D2EF10102D8D46AC
:103388000546A54513050440EF1030339D46094610
:10339800894513050440EF10503285451305044054
:1033A800EF1090459D460546994513050440EF10DA
:1033B800D03F9D6513050440EF10903B81451305F0
:1033C8000440EF10D03B814513050440EF1030391D
:1033D800854513050440EF10F04781451305044067
:1033E800EF10D045B704024013858400EF107047F2
:1033F8009307C4443ED69387C19F3ED89307800263
:103408003EDC93070008BEC093070010BEC29307B6
:103418000040BEC4930700026C10BEC6138584002A
:103428008967BEC802DA02DE82CAEF10B04C0545D1
:10343800EF1030530546B94513858400EF105050FE
:10344800D94705470A857C803AC223010100EF204D
:10345800C074239B019E239A019E23AC019E23895D
:10346800019EA388019E2388019E23A6019E239581
:10347800019E9945130504402384019EEF10903B5B
:10348800854513050440EF103022854513858400D7
:10349800EF10D049854513050440EF10F01F09458A
:1034A800EF105012854513050440EF10D02905652B
:1034B80013050596EF007033EFF0FFDFEFF0DFDC68
:1034C800E1679387076A83C6219F91EEFD17E5FFA1
:1034D8000145EF009031EFF01FDEEFF0FFDA130146
:1034E80081056FC09FBC1145EF10B01083D7619F55
:1034F800C207C183239AF19EE1BFEFC27FBA61116F
:10350800AA84EF10700891E481473E8521016FC0BD
:10351800DFB99307800873B007300F10000083C726
:10352800219F03D4619F03D7419F93F7F70F3EC2B2
:10353800420741833AC0EF10900592474204418008
:10354800E1D70247814663568700198C9316040118
:10355800C18296A05DBFEFC2BFB47111AA84EF10FB
:10356800B00291E40144228511016FC01FB4930792
:10357800800873B007300F10000003C4819E83D702
:10358800A19E1374F40FC207C1833EC0EF10300030
:1035980071D882479EA0C1BFEFC29FB037240140B7
:1035A800814513050440EF10101A1145EF109001E2
:1035B800130504409145EF10F02713050440854595
:1035C8006164EF10101D1304046AB7240140B72783
:1035D8000140914513850740EF10102505E57D143E
:1035E8007DF4B7240140138504409145EF109024E1
:1035F800138504408545EF101015EFF0FFC82285AC
:103608006FC0BFAAD14513850440EF1030202A842B
:10361800C9BF7111E147DC8198819307F7FF93F7E0
:10362800F70FDC8119E3110182800100F5B7EFC2C1
:103638003FA75111231101009947371701401CCBAF
:103648007C802AC485478A85371501403EC2EF1021
:10365800107031016FC07FA5B7570040056693060B
:10366800803E93870740130606F0DA2B698F19C34B
:1036780001458280DA2B718F19E3FD16FDF60545A9
:103688008280EFC2FFA1B72706004111938707A8E0
:103698003EC0B7070040375400403EC2B707000499
:1036A8003EC48A859167130504403EC6EF20002D6D
:1036B800BD65130504409385F57FEF2020438545BC
:1036C80013050440EF20603941016FC01F9EEFC20F
:1036D8003F9D37550040814513050540EF20E037F1
:1036E8005145EFF0DFF4B7170140194798CBEFF0D9
:1036F8005FF22544894537150140EF10B06C19ED8C
:103708009147B7140140DCC8EFF0BFF091477D1432
:103718009CC81374F40FEFF0DFEF69FC3714014015
:1037280099475CC8EFF0FFEE91471CC8EFF07FEEB9
:1037380089471CC8EFF0FFED7145EFF05FEF375494
:103748000040130504408545EF20203981451305C5
:103758000440EF208038EFF0DFF26FC01F95EFC212
:103768003F9483C7C1A4511185EF8545454502C0E3
:1037780002C202C4EF20E064854537052000EF202F
:10378800206699477C808544F1478A853715014032
:103798003EC426C2EF10B05BEFF0BFEE238691A4C3
:1037A80031016FC09F90EFC2BF8F41112AC22EC452
:1037B80036C069CAE1CA32849307803EB7540040D4
:1037C8003EC6B757004013850740B7050200EF20F3
:1037D8006035B24745E5854513850440EF206029EB
:1037E800B70403009307803E93851400B754004044
:1037F800138504403EC6EF208031B7070300938548
:103808001700B24741C59247138504400146939576
:10381800170093F5E50FEF20602BB7040700930717
:10382800803E93852408B7540040138504403EC267
:10383800EF20E02DB707070093852708924731C985
:10384800A24513850440B7040700EF2060279307BB
:10385800803E9384440837550040A68513050540EB
:103868003EC2EF20C02A924705C9370700109307C8
:103878000708A2843EC21307803E25A0FD17A9F3BE
:10388800EFF0FFE4054541016FC03F82FD17B9FF26
:10389800C5BFFD17C9FBEDB7FD17D5FFD5B77D1718
:1038A80065D39245B7560040138506403AC4EF20C9
:1038B80060272247B75600407DD18C2013850640EB
:1038C8008504EF20E01F824793F6F40F3307F400D6
:1038D8001377F70FE311D7FA370407009304803EF4
:1038E800930544083754004013050440EF20202274
:1038F800B70707009385470801C9130504408545A4
:10390800EF20C018014541B7FD14E9FC95BFEFC28F
:103918002FF931112AC22EC436C0630806166386F1
:10392800061637540040130504408545B284EF203D
:103938008017BD65130504409385F57FEF20001BB4
:10394800835744417D771307F70FF98F1304044019
:103958001307803E5EA81E2C898B6393071222856D
:103968008545EF2000110545EFF01FCF631D0510B9
:10397800924722850146860793F7F70FBE853EC218
:10398800EF20C0140945EFF03FCD631E050E5E28F9
:10399800A2452285C207C1837C861E2CC207C1832B
:1039A8007C863C86EF20C0111145EFF0FFCA631CEE
:1039B800050C22858545EF20C00B0545EFF0DFC9D2
:1039C80079E1024789476318F70085659385058083
:1039D8002285EF20A0119245375400400546130573
:1039E8000440EF20A00E0945EFF01FC72AC241EDA1
:1039F80002478547631EF708EF1000392AC093076E
:103A0800800873B007300F1000008145130504408B
:103A1800EF20600983574441130404408545C207D9
:103A2800C1837C871E2C2285C207C1837C873C8783
:103A3800EF20C0050245EF10803513050004EFF0B4
:103A4800BFC131E12285EF20E00788A0375500404B
:103A58001307803E130505401E2D898B63930714B9
:103A68008545EF204004BD65B75700409385F57F35
:103A780013850740EF208007124551016FC0EFE220
:103A88007D17E31A07ECEFF09FC485473EC2EDB7F8
:103A980002478947631CF706EF10002F2AC09307D7
:103AA800800873B007300F100000814513050440EB
:103AB800EF10707F83574441024513040440C20746
:103AC800C183FC801E2CC207C183FC80BC80EF1020
:103AD800002C1145EFF05FB85DF5EF10E02A2AC021
:103AE8009307800873B007300F10000085452285C2
:103AF800EF10D0792285EF10F07C88A02285EF1096
:103B0800707C88B00245EF10802889B783574441FC
:103B1800C207C183FC8183578441C207C183FC81EA
:103B2800BC818247A69713F4F70FB307944093F725
:103B3800F70F0D476397E7041145EFF0FFB121F543
:103B480037540040814513050440EF10D075130524
:103B58000440EF10307788A01145EFF0FFAFE31471
:103B680005F2854513050440EF1050721305044013
:103B7800EF10507588B013050440EF10B074A8A07A
:103B8800F1B513050004EFF03FADE31E05EE375520
:103B98000040130505408504EF10D072A38FA4FEE2
:103BA80069B77D17E31A07EAF9BDEFC26FCF05457C
:103BB8006164EF20C0131304046A13051006EF2094
:103BC800E02509E57D1475F86FC02FCE156513053E
:103BD8005555EF1050781945EF1070781305803E51
:103BE800EF107078EF10B078EF105079F1BF6F10C8
:103BF8001078EFC2EFCAFD769386066A3111AA845F
:103C0800B6876343D500AA87139607018566418660
:103C18009386069663D3C600B68713970701418734
:103C28003AC637070020831607051397070141870F
:103C3800638EE6081395070185473EC04181634BB3
:103C4800900002C081C8B307A04013950701FD5733
:103C580041813EC0056413040496098C931704013E
:103C6800C1833EC48386E1A436C841262AC2EFF048
:103C78008FE48247C246638FD704EFF0EFE09247A4
:103C8800814537050040A386F1A4EF20007E373533
:103C980001408145130505C0EF20A07A856593850D
:103CA800059663C4040437050040EF20007CA24554
:103CB80037350140130505C0EF20A0780247238758
:103CC800E1A43247B70700202398E70432455101A1
:103CD8006FC0AFBD83C6D1A49247E381F6FCEFF075
:103CE800AFDA9247A386F1A455BF373501401305D3
:103CF80005C0EF200075A24537050040EF20E076AB
:103D080075BFEFC2EFB92A840145C524EFF0AFDAD9
:103D1800EFF08FD70DCC0564373501409305049635
:103D2800130505C0EF20E0719305049637050040A0
:103D3800EF20A073238701A48567370700209387A6
:103D480017962318F704A38601A46FC00FB637355A
:103D580001408145130505C0EF20A06E8145F9B7E4
:103D6800EFC20FB471110A8689468D451945EFF0E7
:103D78001FBA11016FC06FB3EFC28FB2130141FABE
:103D8800130600058145680002C002C202C4EFC0E4
:103D9800AFBBEF10B06685451145EF20800237159F
:103DA80001408A85114413050580608002C4EF1024
:103DB800007A85476800BEC2BECCBEC6BEC8A2C0D7
:103DC80002DC82C402DEEF1010660545EF10306F8A
:103DD800EF1070641301C1056FC02FADEFC24FAC77
:103DE800814537350140EF20A00985453735014029
:103DF800EF2000096FC06FABEFC28FAA05650111F4
:103E08008545410502C002C202C402C602C802CAF0
:103E180002CC231E0100EF10D07A930700027C80A9
:103E2800E1473EC48A858547371501403EC2EF10F9
:103E38000072930700048A85371501407C80EF10D3
:103E48000071B70704013EC6B70700023ECAC14762
:103E58003ECC6C009D4737350140FC8602C8EF1008
:103E6800F07E854537350140EF20800105616FC040
:103E7800CFA3EFC2EFA26111B307B5000964AA840A
:103E88003EC01304047182476395F4029305000849
:103E980037350140EF20A00085476319F5007D14F0
:103EA80075F419A07D1719E7EFF05FF321016FC0D2
:103EB800CF9F22878945373501403AC2EF10307EBF
:103EC80012476DD18C20373501408504EF10F07C06
:103ED8005DBFA38001A6238001A63735014023AE2C
:103EE80001A48145130505C0238C01A46F20404B14
:103EF800EFC20F9B130181FD85451305000202C621
:103F080002C802CA02C002C22314010002CC02CEB7
:103F180002D002D2EF10F06A85450545EF10506CCB
:103F2800A1477C863715014085473EC86C00E147AC
:103F3800130505403ECAEF10806185679387F795A2
:103F48008A85370500403EC202C0EF20A00128083C
:103F5800EF208026C167938707062C0837050040A5
:103F68003ECC231F010023100102EF20E01005467C
:103F7800914537050040EF200044A1453705004032
:103F8800EF204039854537050040EF20402F2808AD
:103F9800EF208022930700073ECC2C089307004BA4
:103FA80037050040FC8723100102EF20601AA14565
:103FB80037050040EF20603A9305000737050040B9
:103FC800EF206041814537050040EF20402A9145A8
:103FD80037050040EF20A041854537050040EF2018
:103FE8002021130181026FC04F8CEFC26F8B856750
:103FF8009387079663EFA7009307300D63ECA7003C
:10400800370500409305004BEF20A04801456FC0DD
:10401800CF893E8585671357150093850794938745
:10402800679C3385A740998D63F3A500AA85C205CF
:1040380037050040C181EF20C0450545C9BFEFC223
:104048002F860566130141FC130546828545371402
:10405800014002D002D202D402C002C202C402C687
:104068002318010002D602D802DA02DC02CA02CC06
:10407800231E0100EF10F0541147E14785440C104E
:10408800130504402310E1023ED426D2EF10204C41
:10409800130504808945EF10A05389462310D102E7
:1040A8000C10D1461305048036D4EF10404A05663B
:1040B8001304F69522C6373401402C00130504C0BA
:1040C80002C423080100EF10F0696810EF20C00E49
:1040D800C167938707066C10130504C03ED62319E1
:1040E8000102231A0102EF10B06E130504C08545C2
:1040F800EF20E018130504C093050002EF20A02D5F
:10410800A145130504C0EF20001D4808EF20E00C6E
:1041180011474C08130504C03ACA26CC231E0100D7
:10412800EF20A03F130504C09545EF206055130507
:1041380004C093050040EF206052054685451305ED
:1041480004C0EF20A011930750020A857C804481A7
:1041580002C2EF109024930730120A857C8026C291
:1041680023010100EF107023130504C08545EF20DB
:10417800800D8545130504C0EF2080071301C10396
:104188006FB0BFF2EFB2DFF1EF0010409307800885
:1041980073B007300F10000003D401A5239801A4C1
:1041A800EF00F03E4204418022856FB01FF0EFB26D
:1041B8003FEF41110947373401402AC07882014650
:1041C80005479145130504C0231301002316010078
:1041D800231701003AC4EF20600893040002B7E7F0
:1041E80000E023A297180F1000009145130504C0A2
:1041F800EF20004993050040130504C0EF20004656
:1042080023AA01A4EFF0FFCC8247239801A4B9C3E5
:1042180037150140930780044C00130505803EC6FE
:10422800EF10E0329145130504C0EF206045930577
:104238000040130504C0EF20604205469145130570
:1042480004C0EF20A001B7E700E023A297104101C6
:104258006FB0BFE537140140130504808945EF109E
:104268002037D1474C00130504803EC6EF10202E9E
:10427800F9BFEFB2FFE237350140835705C1130597
:1042880005C01394070193F7474085C7418093778A
:10429800044095C3EFF0FFC3373401409305004055
:1042A800130504C0EF20803B9145130504C0EF209F
:1042B800203D6FB09FDFEF20603783A741A50567DA
:1042C80013070796B387E7020588AA9711C49306D0
:1042D800F04A63E3A600BA9703A5C1A503C711A6D0
:1042E8003385A74029E783C601A681CE37D7F2FFD9
:1042F80013070710B7F602002A97938616E033379C
:10430800D700238CE1A4054723AEF1A42380E1A6BE
:10431800A380E1A6894537350140130505C0EF2084
:104328002008373501409145130505C049B783C7B3
:1043380081A59DC3E977938707245D67AA9713072B
:104348000770636BF700930500036105EFB01FD793
:10435800420541812398A1A4A38001A6814565BF98
:10436800EFB21FD4B73401408545138504C0EF2050
:10437800A02F1DC5EF0050212A849307800873B031
:1043880007300F10000083A741A5138504C0854599
:10439800850723AAF1A4EF20A02E2285EF00301F65
:1043A8006FB0BFD0EFB2DFCF711189460A8685455D
:1043B80013058004EFF0AFD509C5054511016FB0AD
:1043C800DFCEE9779387070689460A868545130570
:1043D80080047C80EFF02FBDD5B7EFB27FCC711190
:1043E80089460A86814513058004EFF04FD2AA87D3
:1043F80061759DE33880130510279305803E931758
:1044080087002183D98FC207C18791873385A70287
:10441800EFB05FCA4205418511016FB01FC9EFB205
:104428003FC8411137440140B14702C42AC0814501
:10443800130504807C8502C202C6EF20E02E8A851F
:1044480013050480EF208024130504808545EF20A0
:104458006033854513050480EF20002D41016FB0BE
:10446800DFC4EFB2FFC337440140930500021305D0
:104478000480EF20A03209C513050480EF20003026
:104488003745014005469305505213050580EF2036
:10449800E02AA38401A66FB05FC1EFB27FC0AA84EF
:1044A800116531118545450502C402C602C802C01E
:1044B80002C2EF1010113705160085451305050CCB
:1044C800EF10401105442C00E147371501403EC864
:1044D800608422C6EF10A007138501AFEFD0BFAEEE
:1044E8001385C1A6EFD03FAE2685A38401A623A2DB
:1044F80001A6EFF0DFF2374501400546930550521B
:1045080013050580EF208023930700120A857C801D
:10451800408122C2EF106068238481A651016FB0E8
:10452800DFB8EFB2FFB751118544231101002314FE
:10453800010023150100648026C21DCD61478A85CC
:10454800371501403AC437440140EF104000854513
:1045580013050480EF20401D0546930550521305AE
:104568000480238491A6EF20601D37E700E0232212
:10457800971031016FB07FB33744014013050480B1
:10458800014693055052EF20601B13050480014635
:1045980093057072EF20801A014693056062130537
:1045A8000480EF20A01937E700E0232297180F10A6
:1045B8000000814513050480EF200017238401A61D
:1045C8001385C1A6A38401A6EFD0FF9F91478A85D2
:1045D800371501403EC4EF00907761BFAA85138567
:1045E80001AF6FD0DFA183C781A699E7014582801B
:1045F800014521016FB07FABEFB29FAA61112A84F8
:1046080065D92EC0F5D51385C1A6EFD07FA2824506
:104618009307F0072E95E3CDA7FCB307B4000C2051
:104628001385C1A63EC0EFD0DF9A82470504E31880
:10463800F4FEEF0060752AC09307800873B0073056
:104648000F10000003C791A639E793057100138581
:10465800C1A6EFD0DF9A21C1B74401400547014602
:104668009305505213850480A384E1A6EF20000D22
:1046780001469305606213850480EF20200C8C832B
:1046880013850480EF20000F05469305707213858B
:104698000480EF20A00A0245EF00606F054591BF36
:1046A80023A2A1A68280EFB2BF9F83A741A699CF7C
:1046B80083C791A681EF1385C1A6EFD07F9719E52F
:1046C80003A541A6EFF0BFD523A201A66FB0FF9DB9
:1046D80083C781A6DDC7EFB2BF9C37440140711183
:1046E8009305505213050480EF20E00B19CD1305F4
:1046F8000480EF20A0089375F50F138501AFCC81D6
:10470800EFD03F8D11016FB05F9A9305707213055A
:104718000480EF20400939C5930531001385C1A6EF
:10472800EFD0FF8D19C58C8113050480EF2080041C
:10473800D1BF93057072130504800146EF20000075
:104748009305000413050480EF20400501C5EFF030
:104758005FD14DBF05469305606213050480EF10D5
:10476800F07D4DB79305606213050480EF20A00328
:1047780051D901469305606213050480EF10107C3F
:10478800F9B782808147214613178501618793060F
:10479800800F634407009306000C3387F500060575
:1047A80014A385071375F50FE390C7FE8280EFB257
:1047B8003F8F7111AA842E85938541B732C0EFF0DF
:1047C8007FFC26859385C1B7EFF0DFFB0245938513
:1047D80041B8EFF03FFBE145138541B7EFF06FE9D2
:1047E8001305C003C52311016FB03F8C01468145F5
:1047F80001456FF0DFFB6FF07FFFB707EFBE37E7CC
:1048080000E0938707083CC701A0B707EFBE37E76A
:1048180000E0938707083CC701A0EFF07FEB730027
:104828002030EFF01FA57300203037350140854553
:10483800130505C0EF10506309CDEFF07FB283C7B1
:10484800C1B8CD46850793F7F70F63E6F6002386D0
:10485800F1B873002030238601B8EFD0DFA0D5BFB0
:10486800EFE05F9473002030EFB29F830545EF10AF
:10487800603245290523EF10605C13054006952B2F
:10488800EFB05F97EFE0BFEDEFF00FD7EFB03FA1CC
:10489800EFF0BFC0EFF0CFE5EFF06FFAEFF0CFCD5C
:1048A800EFE0FFA4EFF0CFCBEFF0DFAFEFF0BFF416
:1048B8001305800C3D2BEFC00FC3EFB0FFA8EFC06E
:1048C8001FA5EFF08FAEEFD01F9FF5BFAA873387E4
:1048D800B7004165420705667D1541831306160238
:1048E80093960701C1826313D700828094238507BA
:1048F800A206358DA1469315050106054205C18519
:10490800418163D30500318DFD1693F6F60FE5F668
:10491800C1BF1041B7464643938616736313D60446
:1049280012258946AA870145631FD602B627639CCC
:10493800B602130700026368D702945B3767A55A6B
:10494800130757AA6391E602EFB28FF5C2371385B2
:10495800C700EFF0BFF73305A440133515006FB05B
:10496800CFF4014582808280EFB28FF351112EC0BF
:1049780032C22AC439CD014505CE37F400081305E3
:104988000450EFF01FF98245AA8413050460EFF084
:104998005FF822438DE009CD9304046002469385B5
:1049A800C4001A85EFB0EFF8DC40124705451CC378
:1049B80031016FB08FEF93040450268665D19307B9
:1049C8000460D440D843BE84998EE359D0FCB284A5
:1049D800F1B70145F1BFEFB2AFEC1301C1EB37F40A
:1049E80000082AC2130504502EC032C4EFF07FF22B
:1049F80082452AC613050460EFF0BFF1924732479B
:104A080091E70145130141146FB02FEA82477D46B3
:104A18009386F7FFC206C182E365D6FE930404506D
:104A280001CF9304046009C993070450D840D443C4
:104A3800158F6353E000BE84130680029305F00FC0
:104A48006808EFB06FF0B7474643938717733EC8BF
:104A5800A247924568083ECA8947FC8482473E8639
:104A6800FC85EFB00FED82456808EFF03FE6B767C9
:104A7800A55A938757AA231EA1021306C00C9305B3
:104A8800F00FA818BEC0EFB02FEC130640030C08B7
:104A9800C800EFB00FEA930500102685EF00C07E2E
:104AA80091472A84E31FF5F413060010CC002685ED
:104AB800EF00101AE31785F413060010CC002685C2
:104AC800EF20A0271335150035BF03C741B9930759
:104AD80040086318F702EFB2AFDCA92737F50008E2
:104AE80013050570EF00E075B7270240984BA166E3
:104AF8000145558F98CB984B1367070898CB6FB033
:104B0800CFDA05458280EFB2AFD983C711B92547FF
:104B180061116363F7141D678A07130747F1BA9792
:104B28009C4382879307A00A631FF5008547A388E3
:104B3800F1B811A8930750056310F5128947A388A7
:104B4800F1B8239701B821016FB02FD6238AA1B8F5
:104B580083D7E1B8AA972397F1B88D47C9BF03D780
:104B6800E1B8938741B92A972397E1B8982388B386
:104B780085469307F70793F7F70F63E8F600914721
:104B8800A388F1B8238801B87DBF93070008631094
:104B9800F70415CD9547EDB783C701B9138741B918
:104BA800B306F700A8A283D6E1B8850793F7F70FF5
:104BB800AA962397D1B82388F1B88D46E3F5F6F87D
:104BC8001423930720086394F6001C33E1F79947F0
:104BD800B9BF83C701B9138741B9B306F700A8A2C3
:104BE80083D6E1B885071833AA9693F7F70F23976A
:104BF800D1B82388F1B8E3FCE7FCB1B783C7E1B8C3
:104C0800639CA7049D4725B783D7E1B8A183639523
:104C1800A704A14729BF93075005631FF502A547BD
:104C280039B79307A00A6319F502EFF01FEA89471D
:104C38006304F50295679387A75A7D151335150008
:104C48007C80ED77C881938757A599450A8523010C
:104C580001007C82EFF03F99A38801B8EDB5EFB26F
:104C68002FC48946B72702403714024094C31C401A
:104C78003707FF68C17493E717001CC05C40FD1438
:104C8800F98F5CC01C403707D7FE6D17F98F3707BF
:104C98001000D98F1CC01C403707FCFF7D17F98F07
:104CA8001CC05C40E58F5CC0B7079D001CC41C4C51
:104CB80093E707021CCCB717014093870740984336
:104CC8001377F7F098C398431367070898C394CBF2
:104CD800EF00701A5C4037070001B70600025CC09D
:104CE8005C40E58F5CC05C405CC01C40D98F1CC038
:104CF800B71702409843758F75DFD843B71602403F
:104D0800719BD8C3D84313672700D8C32147DC4217
:104D1800B18BE39EE7FEB7270240094798C36FB0FF
:104D2800CFB8371702405C43A146B18B6394D704D0
:104D38005C433775DC02130505C0B7160240D8423C
:104D4800B70700209387470511833D8BBA979C23AB
:104D5800D84293F5F70F13770708B357F50005E323
:104D6800EFB20FB4EFB08FB5370700202322A706A4
:104D78006FB0AFB337356E01130505607DBF3707D8
:104D880000202322F706828073250030828073106A
:104D980005308280EFB2CFB0B707002003A54706E1
:104DA800B7157A0093850520EFB04FB11375F50F4D
:104DB800238DA1BC9307803E3305F502239CA1BC3B
:104DC8006FB0AFAEB7F700E0D843799BD8C303C73D
:104DD800A1BD3307A70298CB23A407009843136704
:104DE800170098C3D843058B75DF9843799B98C300
:104DF8008280B7F700E0D843799BD8C303D781BD39
:104E08003307A70298CB23A407009843136717001A
:104E180098C3D843058B75DF9843799B98C38280E4
:104E2800B7270140938707406310F502EFB24FA7F9
:104E3800854513050020EF00907C8145130500206F
:104E4800EF00F07B6FB06FA682805841B707F1FF83
:104E58009387F7EF7D8FDC419441A207D58FD98FD7
:104E68005CC11845B7F7F1FF9387D77FD4457D8F8D
:104E78009C49D58F94458606D58FD98F1CC5585522
:104E8800B70710FFFD177D8FDC29FD1793F7F70F84
:104E9800D207D98F5CD582801C4589C593E7170056
:104EA8001CC58280F99BEDBF1C4589C593E7071097
:104EB8001CC5828093F7F7EFE5BF0D473387E502FE
:104EC800032305019D47B397E70093C7F7FFB3F79F
:104ED8006700B396E600DD8E14C9994763E2C702FE
:104EE80095477D163306F6025859FD47B397C70014
:104EF80093C7F7FFF98F3396C5005D8E50D982802E
:104F0800B14763E2C702954765163306F60218599A
:104F1800FD47B397C70093C7F7FFF98F3396C500CE
:104F28005D8E10D9828095474D163306F602585586
:104F3800FD47B397C70093C7F7FFF98FB395C5002F
:104F4800DD8D4CD582801C4591C537071000D98F5F
:104F58001CC582803707F0FF7D17F98FD5BF5C41EC
:104F680089C593E707405CC1828093F7F7BFE5BF27
:104F78001C4565777D17F98FCD8F1CC582801C4530
:104F880089C52167D98F1CC5828061777D17F98F04
:104F9800DDBF1C4591C537872000D98F1CC582808D
:104FA8003787DFFF7D17F98FD5BF0D473387E502B8
:104FB800032305019D47B397E70093C7F7FFB3F7AE
:104FC8006700B396E600DD8E14C9145D93072600CA
:104FD80013D746010D8B998F93F7F70F1547B387B2
:104FE800E7027D473317F7001347F7FF758FB3952F
:104FF800F500D98D0CDD82801C5D3707D0FF7D1749
:10500800FD15F98FD205DD8D0CDD8280711102C08E
:105018002AC0824793878702AE973EC0824788435B
:1050280011014205418182801C4133F5F500333579
:10503800A000828093C5F5FF0CC182805C4191C5B8
:1050480037070004D98F5CC18280370700FC7D17C1
:10505800F98FD5BF3C49F99B3CC93C49CD8F3CC928
:1050680082801C4141677917F98F1CC123200500F4
:105078002322050023240500B70702402326050044
:10508800138787006317E500D8431367F700D8C371
:1050980082801387C7016316E500D8431367070F9B
:1050A800FDB7138707036318E500D8438566938621
:1050B80006F0558FE9BF138747046315E500D84309
:1050C800BD66C5BF138787056316E500D843B706D5
:1050D8000F00C5B71387C7066316E500D843B706A0
:1050E800F000C1BF13870708E314E5FAD843B706F1
:1050F800000FC1B71841E177BD0794517D8F9C45DA
:10510800D58F9449D58FD449D58F944DD58FD44D0B
:10511800D58FD451D58F9455D58FD98F1CC1DC45E7
:105128005CC19C411CC5DC415CC582801C4189C5B1
:1051380093E717001CC1828041677917F98FDDBF9B
:105148001C4101C6CD8F1CC1828093C5F5FFFD8D22
:105158000CC18280B70702409C437D8D3335A00087
:105168008280B7070240C8C382806FF0BFFEB707CE
:105178000240C8C38280B72602409C4A01771307C1
:10518800F7FDF98F9CCAA1676319F600372702401B
:105198001C4BB7068000D58F11A893070040631FEA
:1051A800F602372702401C4B93E727001CCBB72792
:1051B8000240C8CB984B1367070498CBD847058B98
:1051C80075FF2167FD156315E602984BB70680FF4A
:1051D800FD16758F98CB3295D5F98280930700100C
:1051E800E317F6FC372702401C4BB706020065B7E9
:1051F800130700406319E600984B13050540759B9B
:1052080098CBC1FD828013070010631BE600984B02
:105218008176FD16758F98CB13050510BDFD82802C
:10522800ADFD8280B7066745B727024093863612E0
:105238003797EFCDD4C31307B79AD8C3D4D3D8D3ED
:105248008280370700F8BD672A979387F77F63EC5A
:10525800E702B7270240984B81769386F6FD758F53
:1052680098CB984BB7060200558F98CBC8CB984B74
:105278001367070498CBD847058B75FF984B817641
:10528800FD16758F98CB8280B70600F83D67AA9601
:105298001307F77F636AD71AB70601083306B50004
:1052A80093860680AA871307D00F63E1C61AEFA278
:1052B8003FDFB364B50093F4F40F41111307E00F17
:1052C800639704146385051437066745372702403A
:1052D80013063612B796EFCD50C39386B69A54C3C9
:1052E80050D354D3216663E0C5061303F6FF337326
:1052F8006500B30666403384C5403307D5001A9469
:10530800638BC610B684636EC40433068700931596
:10531800160193D215013A8381C561733373660010
:10532800B30554403A852166BD813EC636C41AC2CB
:1053380016C0EFF05FE4A24682421243B247B68439
:1053480016841A8739A81307F03F637EB708937647
:10535800F53F93040040958C138405C033079500EE
:1053680036949306F03F63F9960293F6F73F89C6A1
:1053780013060040B306D640B385D4403385F60003
:1053880013060040A9813AC43EC236C0EFF0BFDE22
:10539800824622479247B6849306F03F63FA860214
:1053A8003306E4009376F63F3A8399C2137306C036
:1053B800B305D4403A8513060040A9813EC41AC2F9
:1053C80036C0EFF05FDB82461243A24736841A8765
:1053D800BDC01306001093D584003E853AC0EFF097
:1053E8009FD9024789A89307F00F63F7B700130600
:1053F8000010A181EFF03FD8B7270240984BA16673
:10540800558F98CB984B1367070898CB11473A8567
:1054180041016FA09FC92166854536C23AC02AC49A
:10542800EFF07FD592460247A247637DD4009306EA
:10543800F03FE3E786F669D0130600109355840021
:105448003A854DBF8146D1B51307F00F3A85828062
:10545800B70600F83D67AA961307F77F6365D70E6E
:1054680037070108B306C50013070780AA87130585
:10547800D00F636DD70C33E7C7001377F70F130509
:10548800E00F69E761C651113705674537270240C4
:1054980022C426C213053512B796EFCD48C39386AA
:1054A800B69A54C348D354D3144B01751305F5FD6C
:1054B800E98E14CB41777D173E859D8D2182B727D4
:1054C8000240C166370304003AC0984B370408000D
:1054D800B383A500558F98CB984B418F98CBD8476D
:1054E800058B75FF930200103384E30004403304F6
:1054F800E50004C0804B3364640080CBC047058856
:1055080075FC1107E31257FEC8CB984B93020510A0
:105518001367070498CBD847058B75FF984B02454E
:105528007D16698F98CB11EE984BA1662244558F52
:1055380098CB984B924411451367070898CB3101D3
:105548008280168559B71305F00F828082809445B2
:1055580093F7060113F3F60081C7DC413363F300C8
:1055680083D2050093F7F20FA9CF0C41611122C233
:1055780026C08147930380023D4493048004054775
:105588003317F70033F6E2006310C7026397760219
:1055980058C9139627003317C4001347F7FF6D8FB8
:1055A8003316C300B365E60085072147E399E7FC96
:1055B80012440CC1824421018280E39C96FC18C9E4
:1055C800C9BF82801C4533F5F5003335A0008280C1
:1055D8000CC9828037030140B70700088326C3003F
:1055E8001356050113170501E98F3D8A4183BDC78D
:1055F800B7073000B372F5006394F202370600F97A
:105608007D16B3F7C6008326C300F18E2326D30088
:1056180095C54581137505073317A700D98F39A894
:10562800B7074000E98F99CF9D47B397C70093C745
:10563800F7FFF58F81C53316C700D18F37070140B3
:105648005CC78280B70720006393F20041069D473C
:10565800B397C70093C7F7FFF58F5DBFB707100073
:10566800E98F99C3BD47EDB79357150193F707071E
:10567800B317F700C5B7EFA2BFA2511185451305AF
:10568800C00302C002C202C42D2FB7F7FF1F03A731
:105698004770B7065200938606609377F7F06388E1
:1056A800D70A63E5F60CB706240093860660638C78
:1056B800D72063E0F604B70622009386066063806D
:1056C800D72863EFF600C1779387F7F0F98F37078C
:1056D800200013070760639BE7009307900F35A826
:1056E80037072300130707606383E72231016FA0A0
:1056F800DF9BB706500093860660638FD71A63E274
:10570800F604C1779387F7F07D8FB707400093873A
:105718000760E39DE7FC9307900E371401407C80F7
:105728008A8593078002130504803EC4EFF03FE2A8
:105738009307F0077C808A85130504C0EFF03FE1EA
:1057480075B73707510013070760E391E7FA930726
:105758009006371401407C808A85930780021305E0
:1057680004803EC4EFF0BFDEAD47E9B737076400F9
:1057780013070760E383E7F66363F70637076200FA
:1057880013070760E389E7F86366F70437075300F0
:10579800130707606383E70E370761001307076085
:1057A800E396E7F493070008371401407C808A8564
:1057B80093078002130504803EC4EFF05FD9930776
:1057C80040078A85130504C07C80EFF05FD89307F3
:1057D800800CBDA037076300130707601DBF37178C
:1057E8007300130707806386E702636BF7003717B8
:1057F800700013070780638AE7043707710079BFD1
:105808003717740013070780E392E7EE9307000C3D
:1058180061BF9307000C371401407C808A85930789
:105828008002130504803EC4EFF07FD2930740073F
:105838008A85130504C07C80EFF07FD19307900C14
:105848007C808A8537150140D5BD9307000C371435
:1058580001407C808A8593078002130504803EC43A
:10586800EFF0FFCE930740078A85130504C07C80BC
:10587800EFF0FFCD9307B00CE1B79307900637140C
:1058880001407C808A8593078002130504803EC40A
:10589800EFF0FFCBAD478A85130504C07C80EFF09D
:1058A8001FCB9307C0028A85371501407C80EFF033
:1058B8001FCA9307C006B9A09307800C7C80930782
:1058C80080023EC4BDBF9307900F371401407C800F
:1058D8008A8593078002130504803EC4EFF03FC712
:1058E8009307F0078A85130504C07C80EFF03FC654
:1058F8009307900E8A85371501407C80EFF03FC5ED
:105908009307D0087C808A851305044005BD93075A
:10591800900F371401407C808A8593078002130515
:1059280004803EC4EFF0BFC29307F0078A851305D1
:1059380004C07C80EFF0BFC193076002ADB7930746
:10594800900F371401407C808A85930780021305E5
:1059580004803EC4EFF0BFBF9307F0078A851305A4
:1059680004C07C80EFF0BFBE930700028A8537151C
:1059780001407C80EFF0BFBDB54769B7EFA24FF299
:105988005E211111AA84C207C18393F707FCC207DD
:10599800C18328002E843EC2AD26C247B7450F00FA
:1059A800938505243E853EC0EFA04FF192470C40F9
:1059B800C98FC207C183DEA09E20C207C183F99B9D
:1059C800C207C1839EA0E1679387076A63E5B704AE
:1059D80002458605EFA08FEEAA87420541819146D0
:1059E8006373D5009147C207C183DEAC9E20562061
:1059F800322493E717009EA09E20D18EC207C18350
:105A080093F757BFD58F9EA016245E24D58F9EA4EA
:105A180071016FA08FE97620B167FD176393F602D5
:105A28008D47B385F5020245EFA04FE993170501AD
:105A3800C1839396470199E293E71700A166D58F32
:105A48006DB7E547B385F5020245EFA02FE7931739
:105A58000501C1839166D58FE9BF1E2189C593E7EA
:105A680017001EA18280C207C183F99BC207C183A8
:105A7800CDBF1E2189C593E707101EA18280C207EA
:105A8800C18393F7F7EFC207C183C5BF1E2189C53C
:105A980093E707201EA18280C207C18393F7F7DF2F
:105AA800C207C183C5BF1E2189C593E707401EA150
:105AB8008280C207C18393F7F7BFC207C183C5BFFE
:105AC8000EA982800A291375F50F828093F7E50FD6
