:100000006F00E0740000000060010000700100005B
:1000100000000000000000000000000000000000E0
:1000200000000000000000000000000000000000D0
:100030004C070000000000004C070000000000001A
:100040004C0700004C0700004C0700004C07000064
:100050004C0700004C070000CA0100004C070000DC
:100060004C0700004C0700004C0700004C07000044
:100070004C0700004C0700004C0700004C07000034
:10008000800100004C0700004C07000090010000B8
:100090004C070000880100004C0700004C070000DE
:0800A0004C0700000000000005
:1000A800511126C022C206C4828282441244A24050
:1000B80031018280634E050263C305042E86AA853A
:1000C8007D5515C285466378B6006356C00006069E
:1000D8008606E36CB6FE014563E4C500918D558D37
:1000E80085820582F5FA82808682C93F2E858282C2
:1000F8003305A0406347B000B305B040C1B7B305AE
:10010800B0408682653F3305A0408282868263C7FD
:100118000500634905005D372E858282B305B0402E
:10012800E35B05FE3305A040513F3305B0408282B2
:1001380000002A8309CA83830500230073007D1603
:10014800050385056DFA82802A8311C62300B30052
:100158007D16050365FE8280B707EFBE37E700E02E
:10016800938707083CC701A0B707EFBE37E700E051
:10017800938707083CC701A0EF30A05A73002030CE
:10018800EF302012730020303735014085451305C4
:1001980005C0EF10D06A19CDEF30A0213707002035
:1001A80083470709CD46850793F7F70F63E6F600FF
:1001B8002308F7087300203023080708EF30307051
:1001C800D5BFEF20202C73002030EFF27FED0545DE
:1001D800EF10203A3923EF10307EEF10006413053A
:1001E8004006EF204003EF405073EF20405DEF20C2
:1001F800D043EF50C003EF30602FEF207052EF2054
:100208001067EF20903AEF202007EF209038EF306A
:10021800801EEF3040631305800CEF10D07FEF5045
:100228001043EF50800CEF60C029EF20D01DEF3055
:10023800106EF5BFAA873387B70041654207056688
:100248007D1541831306160293960701C182631335
:10025800D700828094238507A206358DA146931581
:10026800050106054205C185418163D30500318D2D
:10027800FD1693F6F60FE5F6C1BF1041B7464643A3
:10028800938616736311D60412258946AA870145F9
:10029800631DD602B627639AB60213070002636687
:1002A800D702945B3767A55A130757AA639FE600DE
:1002B800EFF21FDFC2371385C700AD3F3305A440F7
:1002C80013351500DDB3014582808280EFF25FDDD2
:1002D80051112EC032C22AC439C901450DCA37F49A
:1002E800000813050450513F8245AA841305046091
:1002F8006937224399EC01CD930404600246938543
:10030800C4001A853D35DC40124705451CC3310140
:1003180069BB93040450268675D193070460D440C2
:10032800D843BE84998EE35BD0FCB284C1BF01453B
:10033800F9BFEFF2FFD61301C1EB37F400082AC268
:10034800130504502EC032C40D3F82452AC613053A
:10035800046025379247324789E701451301411464
:10036800A9B382477D469386F7FFC206C182E3663A
:10037800D6FE9304045001CF9304046009C993077F
:100388000450D840D443158F6353E000BE8413064D
:1003980080029305F00F6808453BB74746439387AB
:1003A80017733EC8A247924568083ECA8947FC842D
:1003B80082473E86FC85B53B82456808A53DB76700
:1003C800A55A938757AA231EA1021306C00C9305AA
:1003D800F00FA818BEC08D3B130640030C08C800D8
:1003E800893B930500102685EF00300B91472A843E
:1003F800E315F5F613060010CC002685EF00B025AE
:10040800E31D85F413060010CC002685EF60D06C40
:1004180013351500A1B7B707002003C7870993074D
:1004280040086318F702EFF2BFC7EF00007D37F509
:10043800000813050570EF00207EB7270240984B8F
:10044800A1660145558F98CB984B1367070898CB41
:10045800A9B905458280EFF2BFC43704002083475D
:10046800540925476111636DF7161D678A0713073D
:100478004731BA979C4382879307A00A6311F50214
:100488008547A30AF40821A893075005631AF514B1
:100498008947A30AF408B707002023990708210110
:1004A80029B1B707002037070020238CA7088357F6
:1004B8002709AA972319F7088D47E1B7B70600203F
:1004C80003D72609B7070020938787092A97239916
:1004D800E608982388B385469307F70793F7F70F3D
:1004E80063EAF6009147A30AF408B7070020238AB5
:1004F800070875B7930700086316F70421C59547E1
:10050800DDB7370600208347460937070020130761
:100518008709B306F700B7050020A8A283D62509E6
:10052800850793F7F70FAA962399D508230AF608A3
:100538008D46E3F6F6F61423930720086394F60035
:100548001C33D5FF994735BF370600208347460936
:100558003707002013078709B306F700B7050020FF
:10056800A8A283D6250985071833AA9693F7F70F0B
:100578002399D508230AF608E3F6E7FC0DB7B70771
:10058800002083C72709639DA7049D47DDBDB707E2
:10059800002083D72709A1836394A704A147D5B571
:1005A80093075005631EF502A547E1BD9307A00A0E
:1005B8006318F5028D3589476304F50295679387BB
:1005C800A75A7D15133515007C80ED77C881938770
:1005D80057A599450A85230101007C82EF30C005A3
:1005E800A30A04086DBDEFF2BFABEF10002311653D
:1005F800BD25B707EFBE37E700E0938707083CC77C
:100608006DB4B7F7000803A7C77FB767A55A9387E4
:1006180057AA6306F700EFF2BFA8F13701A082805E
:10062800EFF21FA88946B72702403714024094C347
:100638001C403707FF68C17493E717001CC05C4073
:10064800FD14F98F5CC01C403707D7FE6D17F98F72
:1006580037071000D98F1CC01C403707FCFF7D17D7
:10066800F98F1CC05C40E58F5CC0B7079D001CC4B7
:100678001C4C93E707021CCCB7170140938707402F
:1006880098431377F7F098C398431367070898C3FC
:1006980094CBEF00B01E5C4037070001B70600029C
:1006A8005CC05C40E58F5CC05C405CC01C40D98F7E
:1006B8001CC0B71702409843758F75DFD843B7162B
:1006C8000240719BD8C3D84313672700D8C321477A
:1006D800DC42B18BE39EE7FEB7270240094798C387
:1006E800E9B2371702405C43A146B18B6392D70445
:1006F8005C433775DC02130505C0B7160240D842C3
:10070800B70700209387070011833D8BBA979C2376
:10071800D84293F5F70F13770708B357F50011EF91
:10072800EFF21F98613A370700202328A700B5BACF
:1007380037356E0113050560C9B737070020232830
:10074800F700828001A097010020938121141721CE
:1007580000201301A18A177500001305E5E9970524
:1007680000209385A589170600201306269263FAB0
:10077800C5008322050023A0550011059105E3EA71
:10078800C5FE1705002013056590938501C06377A2
:10079800B500232005001105E36DB5FE896293823B
:1007A8000288739002308D42739042809702000055
:1007B8009382C28493E2320073905230EFF05FE686
:1007C800970200009382A2A0739012347300203025
:1007D800B7270140938707406310F502EFF25F8C5B
:1007E800854513050020EF00707F81451305002023
:1007F800EF00D07E6FF07F8B82805841B707F1FF02
:100808009387F7EF7D8FDC419441A207D58FD98F6D
:100818005CC11845B7F7F1FF9387D77FD4457D8F23
:100828009C49D58F94458606D58FD98F1CC55855B8
:10083800B70710FFFD177D8FDC29FD1793F7F70F1A
:10084800D207D98F5CD582801C4589C593E71700EC
:100858001CC58280F99BEDBF1C4589C593E707102D
:100868001CC5828093F7F7EFE5BF0D473387E50294
:10087800032305019D47B397E70093C7F7FFB3F735
:100888006700B396E600DD8E14C9994763E2C70294
:1008980095477D163306F6025859FD47B397C700AA
:1008A80093C7F7FFF98F3396C5005D8E50D98280C4
:1008B800B14763E2C702954765163306F602185931
:1008C800FD47B397C70093C7F7FFF98F3396C50065
:1008D8005D8E10D9828095474D163306F60258551D
:1008E800FD47B397C70093C7F7FFF98FB395C500C6
:1008F800DD8D4CD582801C4591C537071000D98FF6
:100908001CC582803707F0FF7D17F98FD5BF5C4182
:1009180089C593E707405CC1828093F7F7BFE5BFBD
:100928001C4565777D17F98FCD8F1CC582801C45C6
:1009380089C52167D98F1CC5828061777D17F98F9A
:10094800DDBF1C4591C537872000D98F1CC5828023
:100958003787DFFF7D17F98FD5BF0D473387E5024E
:10096800032305019D47B397E70093C7F7FFB3F744
:100978006700B396E600DD8E14C9145D9307260060
:1009880013D746010D8B998F93F7F70F1547B38748
:10099800E7027D473317F7001347F7FF758FB395C5
:1009A800F500D98D0CDD82801C5D3707D0FF7D17DF
:1009B800FD15F98FD205DD8D0CDD8280711102C025
:1009C8002AC0824793878702AE973EC082478843F2
:1009D80011014205418182801C4133F5F500333510
:1009E800A000828093C5F5FF0CC182805C4191C54F
:1009F80037070004D98F5CC18280370700FC7D1758
:100A0800F98FD5BF3C49F99B3CC93C49CD8F3CC9BE
:100A180082801C4141677917F98F1CC1232005008A
:100A28002322050023240500B707024023260500DA
:100A3800138787006317E500D8431367F700D8C307
:100A480082801387C7016316E500D8431367070F31
:100A5800FDB7138707036318E500D84385669386B7
:100A680006F0558FE9BF138747046315E500D8439F
:100A7800BD66C5BF138787056316E500D843B7066B
:100A88000F00C5B71387C7066316E500D843B70636
:100A9800F000C1BF13870708E314E5FAD843B70687
:100AA800000FC1B71841E177BD0794517D8F9C4570
:100AB800D58F9449D58FD449D58F944DD58FD44DA2
:100AC800D58FD451D58F9455D58FD98F1CC1DC457E
:100AD8005CC19C411CC5DC415CC582801C4189C548
:100AE80093E717001CC1828041677917F98FDDBF32
:100AF8001C4101C6CD8F1CC1828093C5F5FFFD8DB9
:100B08000CC18280B70702409C437D8D3335A0001D
:100B18008280B7070240C8C38280EDB7B70702409A
:100B2800C8C38280B72602409C4A01771307F7FDA5
:100B3800F98F9CCAA1676319F600372702401C4B3E
:100B4800B7068000D58F11A893070040631FF602EF
:100B5800372702401C4B93E727001CCBB7270240DE
:100B6800C8CB984B1367070498CBD847058B75FFFC
:100B78002167FD156315E602984BB70680FFFD1641
:100B8800758F98CB3295D5F9828093070010E317BB
:100B9800F6FC372702401C4BB706020065B713075F
:100BA80000406319E600984B13050540759B98CBE8
:100BB800C1FD828013070010631BE600984B817605
:100BC800FD16758F98CB13050510BDFD8280ADFD10
:100BD8008280B707674537270240938737125CC37F
:100BE800B797EFCD9387B79A5CC3828037270240C7
:100BF8001C4B93E707081CCB8280B7066745B727CD
:100C08000240938636123797EFCDD4C31307B79AAD
:100C1800D8C3D4D3D8D38280370700F8BD672A97C2
:100C28009387F77F63ECE702B7270240984B8176FA
:100C38009386F6FD758F98CB984BB7060200558FB3
:100C480098CBC8CB984B1367070498CBD847058B2C
:100C580075FF984B8176FD16758F98CB8280EFF2E1
:100C68002FC42A84BD3737076745B72702401307C3
:100C7800371298D73797EFCD1307B79A98D7D84731
:100C8800F176FD16758FD8C711676315E400D8474C
:100C9800418FD8C7A13F6FF04FC1B70600F83D6735
:100CA800AA961307F77F6364D71AB70601083306B5
:100CB800B50093860680AA871307D00F63EBC61882
:100CC800EFF20FBEB364B50093F4F40F41111307AC
:100CD800E00F6392041463800514370667453727CD
:100CE800024013063612B796EFCD50C39386B69AD4
:100CF80054C350D354D3216663EFC5041303F6FFDE
:100D080033736500B30666403384C5403307D500A6
:100D18001A946386C610B684636DC40433068700CC
:100D28009315160193D215013A8381C56173337304
:100D38006600B30554403A852166BD813EC636C477
:100D48001AC216C0C533A24682421243B247B684BD
:100D580016841A8739A81307F03F637BB708937680
:100D6800F53F93040040958C138405C03307950024
:100D780036949306F03F63F8960293F6F73F89C6D8
:100D880013060040B306D640B385D4403385F60039
:100D980013060040A9813AC43EC236C06133824678
:100DA80022479247B6849306F03F63F986023306DA
:100DB800E4009376F63F3A8399C2137306C0B305ED
:100DC800D4403A8513060040A9813EC41AC236C0F1
:100DD800913B82461243A24736841A87A5C0130660
:100DE800001093D584003E853AC02D3B0247B9A038
:100DF8009307F00F63F6B70013060010A1811D33A7
:100E0800B7270240984BA166558F98CB984B13672C
:100E1800070898CB11473A8541016FF00FA9216661
:100E2800854536C23AC02AC4F53992460247A247D8
:100E3800637DD4009306F03FE3EB86F671D013068A
:100E48000010935584003A855DBF8146C1BD1307E4
:100E5800F00F3A858280B70600F83D67AA96130717
:100E6800F77F6365D70E37070108B306C500130778
:100E78000780AA871305D00F636DD70C33E7C70027
:100E88001377F70F1305E00F69E761C651113705AE
:100E980067453727024022C426C213053512B79684
:100EA800EFCD48C39386B69A54C348D354D3144B52
:100EB80001751305F5FDE98E14CB41777D173E8545
:100EC8009D8D2182B7270240C166370304003AC0CE
:100ED800984B37040800B383A500558F98CB984BDF
:100EE800418F98CBD847058B75FF93020010338448
:100EF800E30004403304E50004C0804B336464001D
:100F080080CBC047058875FC1107E31257FEC8CB94
:100F1800984B930205101367070498CBD847058BA5
:100F280075FF984B02457D16698F98CB11EE984B4B
:100F3800A1662244558F98CB984B9244114513676C
:100F4800070898CB31018280168559B71305F00F31
:100F580082808280944593F7060113F3F60081C7D7
:100F6800DC413363F30083D2050093F7F20FA9CF76
:100F78000C41611122C226C08147930380023D447F
:100F88009304800405473317F70033F6E200631033
:100F9800C7026397760258C9139627003317C4000F
:100FA8001347F7FF6D8F3316C300B365E600850757
:100FB8002147E399E7FC12440CC182442101828055
:100FC800E39C96FC18C9C9BF82801C4533F5F5001F
:100FD8003335A00082800CC9828037030140B707EF
:100FE80000088326C3001356050113170501E98F6E
:100FF8003D8A4183BDC7B7073000B372F5006394DB
:10100800F202370600F97D16B3F7C6008326C3003F
:10101800F18E2326D30095C545811375050733172F
:10102800A700D98F39A8B7074000E98F99CF9D4706
:10103800B397C70093C7F7FFF58F81C53316C7006D
:10104800D18F370701405CC78280B70720006393C0
:10105800F20041069D47B397C70093C7F7FFF58F86
:101068005DBFB7071000E98F99C3BD47EDB7935728
:10107800150193F70707B317F700C5B7EFF24F82CB
:10108800511185451305C00302C002C202C4092FCD
:10109800B7F7FF1F03A74770B7065200938606608D
:1010A8009377F7F06386D70A63E2F60CB706240055
:1010B800938606606380D72063E0F604B7062200B3
:1010C80093860660638FD72463EFF600C177938712
:1010D800F7F0F98F3707200013070760639BE700D5
:1010E8009307900F35A83707230013070760638419
:1010F800E72031016FE07FFBB7065000938606605A
:101108006383D71A63E0F604C1779387F7F07D8F7E
:10111800B707400093870760E39DE7FC9307900EAD
:10112800371401407C808A85930780021305048068
:101138003EC40D359307F0077C808A85130504C0EB
:10114800113D45BF3707510013070760E393E7FADE
:1011580093079006371401407C808A8593078002A4
:10116800130504803EC4FD33AD47F9B73707640063
:1011780013070760E386E7F66361F706370762003F
:1011880013070760E38CE7F86364F7043707530035
:1011980013070760638DE70C3707610013070760C3
:1011A800E399E7F493070008371401407C808A85A7
:1011B80093078002130504803EC4693B93074007E8
:1011C8008A85130504C07C8071339307800CADA019
:1011D800370763001307076081B7371773001307D2
:1011E80007806386E702636BF70037177000130701
:1011F80007806388E704370771004DB73717740015
:1012080013070780E397E7EE9307000C71BF930776
:10121800000C371401407C808A85930780021305EF
:1012280004803EC4053B930740078A85130504C024
:101238007C800D339307900C7C808A85371501409C
:1012480001B79307000C371401407C808A85930707
:101258008002130504803EC4F539930740078A8548
:10126800130504C07C80FD319307B00CF1B79307D8
:101278009006371401407C808A8593078002130505
:1012880004803EC4C139AD478A85130504C07C80FB
:10129800D1319307C0028A85371501407C805D39BA
:1012A8009307C006A1A09307800C7C809307800257
:1012B8003EC461B79307900F371401407C808A853C
:1012C80093078002130504803EC469319307F00731
:1012D8008A85130504C07C80B5399307900E8A85EA
:1012E800371501407C80BD319307D0087C808A8502
:1012F80013050440B1B59307900F371401407C8063
:101308008A8593078002130504803EC4A1319307A0
:10131800F0078A85130504C07C802D399307600285
:101328009DBF9307900F371401407C808A859307EF
:101338008002130504803EC431399307F0078A857B
:10134800130504C07C803931930700028A8537155C
:1013580001407C800131B54751BFEFE27FD45E2167
:101368001111AA84C207C18393F707FCC207C1837E
:1013780028002E843EC2AD26C247B7450F0093858C
:1013880005243E853EC0EFE07FD392470C40C98FCD
:10139800C207C183DEA09E20C207C183F99BC20792
:1013A800C1839EA0E1679387076A63E5B704024596
:1013B8008605EFE0BFD0AA87420541819146637355
:1013C800D5009147C207C183DEAC9E205620322447
:1013D80093E717009EA09E20D18EC207C18393F782
:1013E80057BFD58F9EA016245E24D58F9EA4710169
:1013F8006FE0BFCB7620B167FD176393F6028D4788
:10140800B385F5020245EFE07FCB93170501C18351
:101418009396470199E293E71700A166D58F6DB7B8
:10142800E547B385F5020245EFE05FC9931705016B
:10143800C1839166D58FE9BF1E2189C593E717003F
:101448001EA18280C207C183F99BC207C183CDBF99
:101458001E2189C593E707101EA18280C207C18398
:1014680093F7F7EFC207C183C5BF1E2189C593E76C
:1014780007201EA18280C207C18393F7F7DFC20746
:10148800C183C5BF1E2189C593E707401EA182807D
:10149800C207C18393F7F7BFC207C183C5BF0EA9AF
:1014A80082800A291375F50F828093F7E50F19C218
:1014B80093E715001EA982801E2189C52167D98F4F
:1014C8001EA18280C607C583E5BF1E2193850580BE
:1014D80089E9056713070780D98FC207C1831EA151
:1014E80082807D771307F77FF98FD5BF5E290A2D94
:1014F80042055D8D6D8D220521810D8D13351500F9
:101508008280611102C002C293D7C5012AC23EC0BF
:101518008247A205A18199CB9247D1073EC2924743
:10152800884321016D8D3335A00082809247C181A7
:10153800E107EDB7B737004088C38280B73700406E
:10154800C8C38280B737004088C78280AD67373705
:1015580000409387A7AA1CC38280B567373700402D
:101568009387C7CC1CC3371702405C53898BF5DFC0
:10157800828023A6A184828003A7C1848547142181
:101588006310F7021C31639CE7023C219A0793E73A
:1015980007F837E700E093F7F70F36972300F7408F
:1015A800054793D756003317D700544189CE938700
:1015B80007048A07B7E600E0B69798C38280EDF380
:1015C8003C219A07F9B793870706B7E600E08A0730
:1015D800B69798C30F1000008280B7076745374752
:1015E8000240938737121CCBB797EFCD9387B79AF2
:1015F8001CCB8280374702405C43B7060080D58FFA
:101608005CC38280374702401C433706C1F113068A
:1016180026A0F18F10410C595443D18F50419205A7
:101628000A06D18F10451206D18F50451606D18F64
:1016380010491E06D18F50492206D18F104D2A0617
:10164800D18F504D4206D18F10514A06D18F50513B
:101658005206D18F105566065D8E5C558607CD8F74
:10166800B7E5E0FF9385950CED8ED58F5459A2060A
:10167800D58F145DAE06D58F545DB206D58F344133
:10168800C206D58F7441C606D58F3445CA06D58F94
:10169800744510C3D206D58F5CC38280854737470F
:1016A80002406317F5005C4393E717005CC3828030
:1016B8005C43F99BE5BFB7160240DC423707FF7F62
:1016C8001307F77FF98FC98FDCC282803717024072
:1016D8005C5309C593E717005CD38280F99BEDBF83
:1016E800EFE21F9C371702405C43A1462A84B18B66
:1016F8006394D7085C43B777DC02938707C01CC0A4
:101708003716024054423707002013078702918298
:10171800BD8A3697082358429375F50F1377070843
:1017280033D5A70001E73E85EFE05F9948C008C4BC
:1017380048C4B7170240DC438D46AD83FD8B13D7F1
:1017480037008A07F18BD98F13F6370113F7370063
:1017580063F4C600138747FFB7170240DC4363CA28
:101768000700B707002093874701BA978C23EFE05B
:10177800FF9408C86FE07F93B7376E0193870760BF
:10178800BDBF99C5371702405C4BC98F5CCB8280BF
:10179800B7170240D84B1345F5FF798DC8CB828027
:1017A80099C5371702401C4FC98F1CCF8280B717C5
:1017B8000240984F1345F5FF798D88CF828099C5EF
:1017C800371702405C4FC98F5CCF8280B717024041
:1017D800D84F1345F5FF798DC8CF828099C5371743
:1017E80002405C47C98F5CC78280B7170240D84760
:1017F8001345F5FF798DC8C7828013575500854773
:101808006319F700B71702409C4333D5A700058931
:101818008280B7170240DC53CDBF371702405C53B4
:10182800B7060001D58F5CD382801E218D66938612
:10183800060433F7D700B6219E21D58FD621D58F40
:10184800F621D58F9625D58FB625D58FD625D58F58
:10185800F625D58FD98F1EA19E291EA982801E210B
:1018680089C593E707041EA18280C207C18393F745
:10187800F7FBC207C183C5BF4EA582800A256D8DBF
:101888003335A00082801E319206C207C183F99BBE
:10189800C207C1831EB11E2D1A3103538501C20729
:1018A800C1833363C30093F7C7F0558ED18FB73622
:1018B80001404207C207231C6500938606C0418386
:1018C800C1836306D500B70600406316D500759B33
:1018D800D98D13E715001EAD1AB182801E3105633C
:1018E8001303F3CFC207C183BD9BC207C1831EB1D7
:1018F8001A2D22061E3133776700035385014206ED
:101908004182B2063363C300558E518FB73601400A
:10191800C2074207231C6500938606C0C183418322
:101928006306D500B7060040631AD50093F7F7FDA4
:101938009205DD8DC205C18193E705011AAD1EB17F
:101948008280B7370140938707C06306F500B70761
:101958000040631DF5021E21BA21C207C18393F717
:10196800F7F8D98FFA2193F7F7CFD98F1EA1DE2187
:101978005EB59E211EB5B7370140938707C0631433
:10198800F5009C251EB985475EA98280B7170040DF
:1019980093870780631CF5001E21BA21C207C18303
:1019A80093F7F7F8D98F1EA1DE215EA582801E313C
:1019B8009A2103D38500C207C183F99BC207C1835B
:1019C8001EB11E315221162DC207C183C206C18223
:1019D80093F6C6F8D98EBA21F59B42063367E30021
:1019E800D98F37370140130707C041826316E502D4
:1019F800BA25DD9B03D3E500D98FDA21ED9B137659
:101A0800F6CFD98FDA2533676700598EFA2152A1AC
:101A180016AD58D91EB1828037070040E318E5FE9D
:101A280003574504060342074183499B4207418304
:101A38002312E50483524504DA2183D3A5000983E0
:101A4800B3E2720033675700336767004207418388
:101A58002312E50465BF1E3165771307F7CFC20768
:101A6800C183BD9BC207C1831EB11E315221162DF1
:101A780003D38500C207F98E9A21C18393F7F7FD36
:101A88002207D98EBA214206C2063367E30012073D
:101A9800D98F37370140C207130707C04182C18277
:101AA800C1836314E504BA2593F7F7F703D3C50098
:101AB8001207D98FDA21C207C183120793F7F7FB00
:101AC800D98F7D771307F73F718FF225C207C1833E
:101AD800336666000A06518F131607014182FA2100
:101AE80052A116AD18DD1EB1828037070040E318F9
:101AF800E5FE035745040E03420741831377D7FCDD
:101B0800420741832312E504BA25835245040A0794
:101B18003367670003D345001353130033E36200B0
:101B280033676700420741832312E5044DBF1E3126
:101B38007D777D17F98F1EB11E315221562D65779D
:101B48001307F7CFF98E9A2103D38500420622079F
:101B5800D98E79777D17F98FBA21C206418233670A
:101B680067003207D98F37370140C207130707C00C
:101B7800C182C183631BE50071777D17718FD22500
:101B88001A06518F131607014182FA2152A156AD48
:101B980038C11EB1828023100500231105002312CD
:101BA800050023130500231405002315050023163B
:101BB800050023170500828085472310050023119F
:101BC80005005EA123130500231405008280B737A2
:101BD8000140938707C09DC16306F500B707004021
:101BE8006317F5001E2193E717001EA139A0B71748
:101BF800004093870780E307F5FE82806306F500BF
:101C0800B70700406319F5001E21C207C183F99B7D
:101C1800C207C183D9BFB717004093870780E31E67
:101C2800F5FCDDB78357450491C52167D98F231289
:101C3800F5048280C607C583DDBF5E2501C6CD8F4A
:101C48005EA5828093C5F5FFED8FDDBF1E25C20717
:101C5800C18393F7F7F8CD8F1EA58280B73701406F
:101C6800938707C09DC16306F500B7070040631757
:101C7800F5001E2193E707081EA139A0B7170040F9
:101C880093870780E307F5FE82806306F500B707B0
:101C98000040631AF5001E21C207C18393F7F7F7C6
:101CA800C207C183D1BFB717004093870780E31DE0
:101CB800F5FCD5B7B7370140938707C06306F50031
:101CC800B70700406319F5001E2DC207C183DD9BCD
:101CD800DD8D0EAD8280B7170040938707806319AA
:101CE800F5005E218D81C207C183F99BDD8D4EA170
:101CF8008280B7370140938707C06306F500B707AE
:101D08000040631DF5001E2D7D771307F77FF98FBF
:101D1800A205CD8FC207C1831EAD8280B7170040D0
:101D2800938707806319F5005E218981C207C18303
:101D3800F59BDD8D4EA18280B7370140938707C0A0
:101D48002E876306F500B7070040631DF5004E2D8A
:101D5800FD779387F77FFD8D2207D98DC205C18155
:101D68004EAD8280B7170040938707806318F5004F
:101D78005E21C207C183DD9BDD8D4EA182801E31AD
:101D88009205C207C18393F7F7FDCD8FC207C183C0
:101D98001EB182801A318547B397B70093C7F7FF02
:101DA800F98F1EB11E313316B600D18FC207C18319
:101DB8001EB182805E21C207C18393F7F7F8C2077C
:101DC800C1835EA15E21CD8F5EA18280B7370140BD
:101DD800938707C06306F500B7070040631DF50049
:101DE8001E25C207C183E19BC207C1831EA51E250C
:101DF800CD8F1EA58280B717004093870780631098
:101E0800F5021E21A205C207C18393F7F78FC20707
:101E1800C1831EA11E21CD8FC207C1831EA182804E
:101E2800B7370140938707C06306F500B70700403E
:101E38006314F5004CD98280B71700409387078058
:101E48006313F5000EA98280B7370140938707C056
:101E58006306F500B70700406314F5000CDD8280C7
:101E6800B7170040938707806313F5004EA9828057
:101E7800B7370140938707C06306F500B7070040EE
:101E88006314F5002CC18280B71700409387078040
:101E98006313F5004EAD82801E2DC207C183CD9B12
:101EA800C207C1831EAD1E2DCD8F1EAD82801E2D93
:101EB8007D771307F73FF98F1EAD1E2DA205CD8F35
:101EC800C207C1831EAD82805E2DC207C183CD9B30
:101ED800C207C1835EAD5E2DCD8F5EAD82805E2D63
:101EE8007D771307F73FF98F5EAD5E2DA205CD8F85
:101EF800C207C1835EAD8280EFE28F9A9A21BE212C
:101F0800D22196252A84AE8409EBBE85EFF0BF97CF
:101F1800EE20228551376FE04F9991456319B7003C
:101F2800BE85EFF0BF9BEE2022855137EDB72145E6
:101F3800EE206314A7061A309206420741831377EE
:101F4800F7EF420741831AB05A2C0A300353C401F1
:101F5800420741831377C7F0518F558F3363C3000E
:101F6800B736014042054207231E6400938606C027
:101F7800418141836306D400B7060040631AD40048
:101F88001375F5DFA207C98FC207C18313E50710D0
:101F98005AAC0AB022850D3FBDBF1A307D757D153C
:101FA800698F1AB04A2C05631303F3CF1A303375BF
:101FB800650022060353C40142064182B206336318
:101FC800C300558E518DB736014042074205231E86
:101FD8006400938606C0418341816306D400B70636
:101FE8000040631BD400F976FD16758FB207D98FB0
:101FF800C207C18305675D8F4AAC1AB02285C53513
:1020080019BF37370140130707C0AA876306E500E1
:10201800370700406316E500885F420541818280EA
:1020280037170040130707800145E39AE7FECA2BDC
:10203800EDB793C5F5FFC205C1810EA982801E299F
:102048004A25ED8F4205418189C76D8D3335A00042
:1020580082800145828093C5F5FFC205C1810EA922
:102068008280EFE2EF831629F577FD17FD8EFE21BA
:10207800DA252111D58F1EA95625FD779387379F1D
:10208800FD8EDE212A84AE84D58F9625D58FB62580
:10209800D58F5EA55E29C207C18393F7F7CFD98F85
:1020A8005EA94800EFF0CFE3B74701409387078068
:1020B8006315F404C24765453385A7028C408A0539
:1020C800EFD0DFFF930540062AC0EFD03FFF9314FF
:1020D8004500024593054006EFE00F811205930580
:1020E800400613052503EFD07FFD3D89458D420548
:1020F80041810AA461016FD05FFBB2476DBF5E25C5
:1021080089C50967D98F5EA5828079777D17F98F90
:10211800DDBF13F7F50F85471583B395B70063192E
:10212800F7009307C500984301CE4D8F98C382806E
:10213800894693074501E318D7FE93070501E5B7DC
:1021480093C5F5FFF98D8CC3828093F5F51F4EA1D9
:1021580082804A211375F51F82805E2989C593E71D
:1021680087005EA98280C207C183DD9BC207C18345
:10217800CDBF0A216D8D3335A000828013F7F50F8E
:1021880085461583AA873395B6006310D702DA27E8
:102198009E23798DC207C18301C9A18105473317E1
:1021A800B700F98F3335F000828089466314D70071
:1021B8009A2BF9BFDA2BE9BFEFD29FEEB7070020C1
:1021C80003A50701B7157A0093850520EFD01FEF07
:1021D8001375F50F2389A1849307803E3305F50213
:1021E8002398A1846FD07FECB7F700E0D843799BA0
:1021F800D8C303C721853307A70298CB23A40700B8
:1022080098431367170098C3D843058B75DF984325
:10221800799B98C38280B7F700E0D843799BD8C3ED
:1022280003D701853307A70298CB23A40700984357
:102238001367170098C3D843058B75DF9843799BBC
:1022480098C38280732500308280731005308280A5
:10225800131715003A96AA871387C1860145639319
:10226800B700828093161600BA969622850793F7D0
:10227800F70F36950906E5B7EFD29FE2130181FA09
:10228800614681454808EFD03FEC1306C0028145FE
:102298006810EFD07FEB8545054502C402C602C829
:1022A80002C002C2EFF0EFCD854513050023EFF021
:1022B8002FCF0145EFF02FC03715014093070004D9
:1022C8002C00130505407C8402C8EFE0BFC8C14755
:1022D8002C0037150140372401407C84EFE09FC76C
:1022E80013050440EFE0CFCEB707060005473ED000
:1022F8004C088947130504403ACC2304F10202CA6A
:1023080002CE02D2EFE06FCF8D460546A5451305F4
:102318000440EFE08FD59D460946894513050440E2
:10232800EFE0AFD4854513050440EFE0EFE79D46A5
:102338000546994513050440EFE02FE29D65130516
:102348000440EFE0EFDD814513050440EFE02FDEA8
:10235800814513050440EFE08FDB854513050440F4
:10236800EFE04FEA814513050440EFE02FE8B7049A
:10237800024013858400EFE0CFE99307C4443ED6BA
:102388009387C1863ED8930780023EDC93070008F6
:10239800BEC093070010BEC293070040BEC4930797
:1023A80000026C10BEC6138584008967BEC802DAB5
:1023B80002DE82CAEFE00FEF0545EFE08FF5054634
:1023C800B94513858400EFE0AFF20547D9470A8580
:1023D8003AC27C8023010100EFF00F9A2392018614
:1023E8002391018623A4018623800186A38F01847B
:1023F800239E0184238F018423AC0184239A0184C2
:10240800994513050440A3890184EFE0AFDD8545B4
:1024180013050440EFE04FC4854513858400EFE0C1
:10242800EFEB854513050440EFE00FC209456D3B0E
:10243800854513050440EFE00FCC03D7C185C1459E
:10244800814742074183E1621385026A83D3C185CC
:102458006398E3007D157DF9130181056FD0FFC4F2
:1024680003D7C18503D54186FD15420793F5F50FBE
:102478004183AA97F1F9A1079183C207C1832391E8
:10248800F186D9BFEFD2DFC12145EFE00FE901CDD9
:102498000545EFE0AFE82380018623920186A389F2
:1024A80001846FD09FC01145EFE02FE705C11145AA
:1024B800EFE0CFE60146A9450145593B23A4A18693
:1024C8000546A9450145693323ACA1840945EFE0D8
:1024D800CFE461D90945EFE06FE40546D1452945C8
:1024E800853B83A78185D1453E9512052905EFD007
:1024F800FFBC42054181239AA18405470146D14585
:102508002945A389E184A93383A78186D145A907F1
:102518003E95EFD0BFBA83C7018689CB83D7418662
:10252800420541818507AA9713D5170042054181C5
:102538002392A18683C7E18593B71700A38FF184FF
:1025480085472380F18683D7C1858507C207C18364
:10255800239EF184B9B713351500238FA184828097
:10256800EFD21FB451112A84F1392DC09307800886
:1025780073B007300F10000083C6018683C7F1854A
:1025880093F6F60F93F4F70F83D7418603D7218686
:1025980036C4C2074207C18341833EC23AC075317F
:1025A800A24695C20247924781466356F700998F23
:1025B80093960701C182B337900016A013F5F70F61
:1025C80031016FD09FAE81468147C5BF0145CDBF60
:1025D800EFD21FAD7111AA84B53191E4014422856F
:1025E80011016FD09FAC9307800873B007300F10AC
:1025F800000003C4318583D741851374F40FC207E3
:10260800C1833EC0993179D882479EA0C9BFEFD215
:102618003FA937240140814513050440EFE0AFADE1
:102628001145EFF07FBC130504409145EFE08FBBE7
:102638001305044085456164EFE0AFB01304046AF4
:10264800B7240140B7270140914513850740EFE0C3
:10265800AFB815E17D147DF4B7240140138504401B
:102668009145EFE02FB8138504408545EFE0AFA80A
:1026780022856FD09FA3D14513850440EFE00FB4A6
:102688002A84D9BF7111E147DC8198819307F7FF4C
:1026980093F7F70FDC8119E3110182800100F5B788
:1026A800EFD21FA05111231101009947371701409C
:1026B8001CCB7C802AC485478A85371501403EC2D9
:1026C800EFE05F8931016FD05F9EB7570040056624
:1026D8009306803E93870740130606F0DA2B698F2E
:1026E80019C301458280DA2B718F19E3FD16FDF6B7
:1026F80005458280EFD2DF9AB727060041119387FC
:1027080007A83EC0B7070040375400403EC2B7078D
:1027180000043EC48A859167130504403EC6EFE075
:10272800DFC3BD65130504409385F57FEFE0FFD94E
:10273800854513050440EFE03FD041016FD0FF9677
:10274800EFD21F9637550040814513050540EFE04D
:10275800BFCE5145B137B7170140194798CB1D3740
:102768002544894537150140EFE03F8609ED91473B
:10277800B7140140DCC8393791477D149CC81374DD
:10278800F40F093779FC3714014099475CC8DD3DDF
:1027980091471CC8C53D89471CC8ED3571450937A7
:1027A80037540040130504408545EFE0FFD08145CC
:1027B80013050440EFE05FD0353F6FD01F8FEFD295
:1027C8003F8E83C7C18B51119DEB8545454502C09E
:1027D80002C202C4EFE0DFFC854537052000EFE0C8
:1027E8001FFE99477C808544F1478A85371501404B
:1027F8003EC426C2EFE00FF6F53D238E918A3101E3
:102808006FD0BF8AEFD2DF8941112AC22EC436C0E9
:1028180061CAF9C632849307803EB75400403EC669
:10282800B757004013850740B7050200EFE07FCD9A
:10283800B24745E5854513850440EFE07FC1B704FD
:1028480003009307803E93851400B7540040138516
:1028580004403EC6EFE09FC9B70703009385170001
:10286800B24759C192471385044001469395170012
:1028780093F5E50FEFE07FC3B70407009307803EA9
:1028880093852408B7540040138504403EC2EFE006
:10289800FFC5B707070093852708924729C9A245AE
:1028A80013850440B7040700EFE07FBF9307803E1D
:1028B8009384440837550040A685130505403EC259
:1028C800EFE0DFC292471DC53707001093070708DE
:1028D800A2843EC21307803E1DA0FD17A9F38D35C3
:1028E800054541016FD06FFCFD17A5F3CDBFFD175E
:1028F800D1FBF5B7FD17DDFFDDB77D176DD3924529
:10290800B7560040138506403AC4EFE09FBF224700
:10291800B75600407DD18C20138506408504EFE032
:102928001FB8824793F6F40F3307F4001377F70FB5
:10293800E312D7FA370407009304803E930544084E
:102948003754004013050440EFE05FBAB7070700AB
:102958009385470801C9130504408545EFE0FFB09A
:10296800014541B7FD14E9FC9DBFEFD26FF331116A
:102978002AC22EC436C06308061663860616375464
:102988000040130504408545B284EFE0BFAFBD6544
:10299800130504409385F57FEFE03FB38357444127
:1029A8007D771307F70FF98F130404401307803E50
:1029B8005EA81E2C898B6393071222858545EFE05C
:1029C8003FA90545EFF07FD0631D0510924722858A
:1029D8000146860793F7F70FBE853EC2EFE0FFACCE
:1029E8000945EFF09FCE631E050E5E28A24522859D
:1029F800C207C1837C861E2CC207C1837C863C86A5
:102A0800EFE0FFA91145EFF05FCC631C050C2285B0
:102A18008545EFE0FFA30545EFF03FCB79E102479D
:102A280089476318F7008565938505802285EFE05F
:102A3800DFA9924537540040054613050440EFE0EE
:102A4800DFA60945EFF07FC82AC241ED0247854756
:102A5800631EF708EFF00FFF2AC09307800873B0D2
:102A680007300F100000814513050440EFE09FA1D7
:102A780083574441130404408545C207C1837C87BA
:102A88001E2C2285C207C1837C873C87EFE0FF9D0F
:102A98000245EFF08FFB13050004EFF01FC331E18F
:102AA8002285EFE01FA088A0375500401307803E1D
:102AB800130505401E2D898B639307148545EFE0A8
:102AC8007F9CBD65B75700409385F57F1385074008
:102AD800EFE0BF9F124551016FD02FDD7D17E31A3C
:102AE80007ECEFF0FFC585473EC2EDB702478947BF
:102AF800631CF706EFF00FF52AC09307800873B040
:102B080007300F100000814513050440EFE09F9740
:102B180083574441024513040440C207C183FC8023
:102B28001E2CC207C183FC80BC80EFF00FF2114558
:102B3800EFF0BFB95DF5EFF0EFF02AC0930780081A
:102B480073B007300F10000085452285EFE0FF9134
:102B58002285EFE01F9588A02285EFE09F9488B03A
:102B68000245EFF08FEE89B783574441C207C1830E
:102B7800FC8183578441C207C183FC81BC818247A1
:102B8800A69713F4F70FB307944093F7F70F0D4781
:102B98006397E7041145EFF05FB321F53754004020
:102BA800814513050440EFE0FF8D13050440EFE075
:102BB8005F8F88A01145EFF05FB1E31405F28545FA
:102BC80013050440EFE07F8A13050440EFE07F8D92
:102BD80088B013050440EFE0DF8CA8A0F1B5130519
:102BE8000004EFF09FAEE31E05EE375500401305D5
:102BF80005408504EFE0FF8AA38FA4FE69B77D171F
:102C0800E31A07EAF9BDEFD2AFC905456164EFE001
:102C1800FFAB1304046A13051006EFE01FBE09E5B5
:102C28007D1475F86FD06FC8156513055555EFE01D
:102C38007F901945EFE09F901305803EEFE09F904D
:102C4800EFE0DF90EFE07F91F1BF6FE03F90EFD2D0
:102C58002FC5FD769386066A41112A87B687634396
:102C6800D500AA871396070185664186938606963E
:102C780063D3C600B68793960701C18636C2B706E6
:102C88000020839686031396070141866388C60849
:102C98001395070141818544634AE000814419C7BF
:102CA800B307A040139507014181FD54056413043F
:102CB8000496098C93170401C1833EC08387D18B86
:102CC8003AC63EC4992EEFF01F89A2473247638067
:102CD800F4028145370500403AC4EFF0EF963735E6
:102CE80001408145130505C0EFF08F9322478565A4
:102CF800938505966348070237050040EFF0CF94A7
:102D0800824537350140130505C0EFF06F91124732
:102D1800B7070020A38E918A239CE7021245410140
:102D28006FD0AFB837350140130505C0EFF04F8FAE
:102D3800824537050040EFF02F91D1BFEFD24FB653
:102D48002A840145D92CEFF01F811DC80564373549
:102D5800014093050496130505C0EFF06F8C9305A9
:102D6800049637050040EFF02F8EA38E018A856701
:102D78003707002093871796231CF7026FD0EFB20E
:102D8800373501408145130505C0EFF06F8981454E
:102D9800C9BFEFD2EFB071110A8689468D45194532
:102DA800EFF0BFBC11016FD04FB0EFD26FAF13017E
:102DB80041FA130600058145680002C002C202C438
:102DC800EFD08FB8EFE07F8185451145EFE05F9D3B
:102DD800371501408A85114413050580608002C4B7
:102DE800EFE04F9785476800BEC2BECCBEC6BEC8DE
:102DF800A2C002DC82C402DEEFE0DF800545EFE01E
:102E0800FF89EFE02FFF1301C1056FD00FAAEFD2A2
:102E18002FA9814537350140EFE07FA48545373537
:102E28000140EFE0DFA36FD04FA8EFD26FA7056591
:102E380001118545410502C002C202C402C602C88A
:102E480002CA02CC231E0100EFE09F9593070002FF
:102E58007C80E1473EC48A858547371501403EC2DC
:102E6800EFE04F8F930700048A85371501407C8077
:102E7800EFE04F8EB70704013EC6B70700023ECA0F
:102E8800C1473ECC6C009D4737350140FC8602C8DF
:102E9800EFE0BF99854537350140EFE05F9C05615C
:102EA8006FD0AFA0EFD2CF9F6111B307B50009640F
:102EB800AA843EC01304047182476394F402930504
:102EC800000837350140EFE07F9B85476318F50020
:102ED8007D1475F419A07D1711E7153F21016FD0F6
:102EE800CF9C22878945373501403AC2EFE01F99C8
:102EF800124775D18C20373501408504EFE0DF9704
:102F080065BFA386018C2386018C3735014023A435
:102F1800018C8145130505C02382018C6FE03FE6D3
:102F2800EFD20F98130181FD85451305000202C6F3
:102F380002C802CA02C002C22314010002CC02CE97
:102F480002D002D2EFE0DF8585450545EFE03F87F7
:102F5800A1477C863715014085473EC86C00E1478C
:102F6800130505403ECAEFD0FFFE85679387F795A6
:102F78008A85370500403EC202C0EFE09F9C2808C2
:102F8800EFE07FC1C167938707062C08370500402B
:102F98003ECC231F010023100102EFE0DFAB054602
:102FA800914537050040EFE0FFDEA14537050040B9
:102FB800EFE03FD4854537050040EFE03FCA2808D9
:102FC800EFE07FBD930700073ECC2C089307004B2A
:102FD80037050040FC8723100102EFE05FB5A145EB
:102FE80037050040EFE05FD593050007370500403F
:102FF800EFE05FDC814537050040EFE03FC59145D4
:1030080037050040EFE09FDC854537050040EFE0DD
:103018001FBC130181026FD04F89EFD26F8885677B
:103028009387079663EFA7009307300D63ECA7001B
:10303800370500409305004BEFE09FE301456FD053
:10304800CF863E8585671357150093850794938728
:10305800679C3385A740998D63F3A500AA85C205AF
:1030680037050040C181EFE0BFE00545C9BFEFD299
:103078002F830566130141FC1305468285453714E5
:10308800014002D002D202D402C002C202C402C667
:103098002318010002D602D802DA02DC02CA02CCE6
:1030A800231E0100EFE0CFEF1147E14785440C10E4
:1030B800130504402310E1023ED426D2EFD09FE945
:1030C800130504808945EFD01FF189462310D102EA
:1030D8000C10D1461305048036D4EFD0BFE705663F
:1030E8001304F69522C6373401402C00130504C09A
:1030F80002C423080100EFE0DF846810EFE0BFA9F5
:10310800C167938707066C10130504C03ED62319C0
:103118000102231A0102EFE09F89130504C08545C7
:10312800EFE0DFB3130504C093050002EFE09FC88A
:10313800A145130504C0EFE0FFB74808EFE0DFA79B
:1031480011474C08130504C03ACA26CC231E0100B7
:10315800EFE09FDA130504C09545EFE0DFEF1305B4
:1031680004C093050040EFE0DFEC054685451305F4
:1031780004C0EFE09FAC930750020A857C8044812D
:1031880002C2EFE06FBF930730120A857C8026C227
:1031980023010100EFE04FBE130504C08545EFE0B1
:1031A8007FA88545130504C0EFE07FA21301C10382
:1031B8006FC0BFEFEFC2DFEEEFF0CF889307800854
:1031C80073B007300F10000003D4E18B239F018AEE
:1031D800EFF0AF874204418022856FC01FEDEFC238
:1031E8003FEC41110947373401402AC07882014633
:1031F80005479145130504C0231301002316010058
:10320800231701003AC4EFE05FA393040002B7E775
:1032180000E023A297180F1000009145130504C081
:10322800EFE07FE393050040130504C0EFE07FE083
:1032380023A0018CEFF0FFCC8247239F018AB9C3FA
:1032480037150140930780044C00130505803EC6DE
:10325800EFD05FD09145130504C0EFE0DFDF9305A1
:103268000040130504C0EFE0DFDC05469145130577
:1032780004C0EFE09F9CB7E700E023A2971041014C
:103288006FC0BFE237140140130504808945EFD0B1
:103298009FD4D1474C00130504803EC6EFD09FCB86
:1032A800F9BFEFC2FFDF37350140835705C113056A
:1032B80005C01394070193F7474085C7418093776A
:1032C800044095C3EFF0FFC3373401409305004035
:1032D800130504C0EFE0FFD59145130504C0EFE0E6
:1032E8009FD76FC09FDCEFE0DFD103A7018C856714
:1032F800938707963307F70205882A9711C4930620
:10330800F04A63E3A6003E9703A5818C83C7D18C5E
:103318003305A740A9E783C6C18C81CEB7D7F2FF92
:1033280093870710B7F60200AA97938616E0B3B7FB
:10333800D7002382F18C854723A4E18C2386F18C66
:10334800A386F18C894537350140130505C0EFE0A8
:103358001FA3373501409145130505C049B783C7F9
:10336800418CA1C3ED77938707BA6567AA971307BE
:10337800079C6368F702196761051307F7DB930772
:10338800401F637CA700F5679387F74E63EFA7009C
:1033980093050003EFC09FD2AA87C207C183239F6A
:1033A800F18AA386018C814579BF85679387479CFD
:1033B800EDB7EFC2FFCEB73401408545138504C091
:1033C800EFE0FFC71DC5EFE0FFE72A8493078008F9
:1033D80073B007300F10000083A7018C138504C059
:1033E8008545850723A0F18CEFE0FFC62285EFE035
:1033F800DFE56FC09FCBEFC2BFCA711189460A864D
:10340800854513058004EFF04FD609C50545110120
:103418006FC0BFC9E9779387070689460A8685453D
:10342800130580047C80EFF0EFBDD5B7EFC25FC70E
:10343800711189460A86814513058004EFF0EFD2A1
:10344800AA8761759DE33880130510279305803E90
:10345800931787002183D98FC207C1879187338546
:10346800A702EFC03FC54205418511016FC0FFC3E8
:10347800EFC21FC3411137440140B14702C42AC0FB
:103488008145130504807C8502C202C6EFE03FC770
:103498008A8513050480EFE0DFBC130504808545A9
:1034A800EFE0BFCB854513050480EFE05FC5410120
:1034B8006FC0BFBFEFC2DFBE3744014093050002B3
:1034C80013050480EFE0FFCA09C513050480EFE087
:1034D8005FC83745014005469305505213050580DE
:1034E800EFE03FC3A38A018C6FC03FBCEFC25FBB54
:1034F800AA84116531118545450502C402C602C872
:1035080002C002C2EFE0CFA93705160085451305B2
:10351800050CEFD09FAC05442C00E147371501405E
:103528003EC8608422C6EFD0FFA21385C195EF0084
:10353800F00E1385818DEF00700E2685A38A018C0D
:1035480023A8018CEFF0DFF23745014005469305CB
:10355800505213050580EFE0DFBB930700120A8580
:103568007C80408122C2EFE02F81238A818C510127
:103578006FC0BFB3EFC2DFB2511185442311010000
:103588002314010023150100648026C21DCD614764
:103598008A85371501403AC437440140EFD09F9BD4
:1035A800854513050480EFE09FB505469305505205
:1035B80013050480238A918CEFE0BFB537E700E05C
:1035C8002322971031016FC05FAE374401401305C5
:1035D8000480014693055052EFE0BFB31305048001
:1035E800014693057072EFE0DFB201469305606211
:1035F80013050480EFE0FFB137E700E023229718B6
:103608000F100000814513050480EFE05FAF238AA7
:10361800018C1385818DA38A018CEF0030009147BE
:103628008A85371501403EC4EFD0DF9261BFAA8575
:103638001385C1956F00100283C7418D99E7014535
:103648008280014521016FC05FA6EFC27FA561118D
:103658002A8465D92EC0F5D51385818DEF00B00277
:1036680082459307F0072E95E3CDA7FCB307B40076
:103678000C201385818D3EC0EF00007B8247050436
:10368800E318F4FEEFE01FBC2AC09307800873B06C
:1036980007300F10000003C7518D39E793057100FB
:1036A8001385818DEF00007B21C1B7440140054798
:1036B80001469305505213850480A38AE18CEFE0FC
:1036C8005FA501469305606213850480EFE07FA43F
:1036D8008C8313850480EFE05FA70546930570721D
:1036E80013850480EFE0FFA20245EFE01FB6054511
:1036F80091BF23A8A18C8280EFC29F9A83A7018DD6
:1037080099CF83C7518D81EF1385818DEF00A07705
:1037180019E503A5018DEFF0BFD523A8018C6FC073
:10372800DF9883C7418DCDC7EFC29F9737440140CB
:1037380071119305505213050480EFE03FA411CD99
:1037480013050480EFE0FFA09375F50F1385C1956D
:10375800CC81D92D11016FC05F9593057072130547
:103768000480EFE0BFA131C5930531001385818D39
:10377800D52519C58C8113050480EFE01F9DD9BF9D
:1037880093057072130504800146EFE09F98930536
:10379800000413050480EFE0DF9D01C5EFF09FD121
:1037A80055BF05469305606213050480EFE07F96D8
:1037B80055B79305606213050480EFE03F9C59D923
:1037C80001469305606213050480EFE09F94F9B702
:1037D8008280814721461317850161879306800FF0
:1037E800634407009306000C3387F500060514A30D
:1037F80085071375F50FE390C7FE8280EFC25F8AD5
:103808007111AA842E859385019E32C0EFF07FFC4A
:1038180026859385819EEFF0DFFB02459385019F06
:10382800EFF03FFBE1451385019EEFF0AFE713058D
:10383800C003EFE07F9B11016FC03F8701468145C0
:1038480001456FF0BFFB6FF07FFF9387819F23A037
:103858000700238207002393070023A40700239669
:1038680007002387070082809387819F1307701CB6
:10387800D8CB0567130707969AAB6FF01FFD930720
:10388800F5FFC2070567C1839306F79563F4F60051
:10389800130507962394A1A08280EFC27F801301AD
:1038A80081FC32CC630E05302A83014563840556BA
:1038B800D84102C2B6839357F74133C4E7001D8C41
:1038C80019CA9C4593D6F741B58F958F93A757078B
:1038D80093C717003EC283A205001385819F8325E5
:1038E8004300831605019304C0203306B74036D839
:1038F800B306960233169602C1829384819FE247EB
:103908004206D18E032603009696B3025640B306AC
:10391800D64013D6F24136C6B3465600918E502192
:103928002DE2B5CF9307000563C4D706930700645B
:1039380063C08706FE2041667D166396C7028547E9
:10394800DCA0FCA49247B9E79307F00363C4D7044B
:103958009307000363C3D7289307801063CF872694
:1039680085479CA49DAC8507C207C183FEA04D4630
:10397800E367F6FC924799EF9307F00363DFD724D8
:1039880011A881CF9307F00763D0D70223820400E0
:10399800239304002384040089A42382040023932E
:1039A800040023870400FDB78547631DF62092476E
:1039B800F0A4EDF39307F003E3CED7FC930700647C
:1039C800E3CA87FC71B7B247815663D3F6008157C3
:1039D8009387070211AC9387F7F9B306F602B3177A
:1039E800F602D1821395C700C98ED18763D405002A
:1039F8003307E04001456357E0029305F020216555
:103A080063C2E502930500211315F7003EDA36D6A6
:103A18001ED432D016CAEFC0EFE9D257B256A2531D
:103A28000256D2421357F5413307D702B387A7028C
:103A3800BA973307D5023335D5023D83AA97C6070F
:103A4800B5A4A247130780EF6354F700930780EFEC
:103A580093878710A5AC05671307C757B5AC9307BD
:103A6800801063CD8706DE244D476369F70085071C
:103A7800C207C183DEA49C3481C7FDACA3840400C3
:103A880082470247FD873D8FB307F740130780043D
:103A98006358F7048397A400130740076344F700AB
:103AA8008907BEA4A25772473E9782573E979357FD
:103AB80005413E978397A40036979387B70E3383C3
:103AC800B702B397B7021353F300C607B3E767000B
:103AD800635BF000635DF700998F55AC814759BF70
:103AE80023950400C1B76384072AE3C7E7FE81472B
:103AF80079AC32439352F34133C3620033035340EA
:103B08009302000263C36202924691EE9356C54047
:103B18005246B306D54094C085466316D600930630
:103B2800801063DD86283A8559ACF5FE9356F64138
:103B3800358E158EA1669386A60B63D7C6025246AC
:103B48008546E312D6FE9246F9FE93068010E3CC32
:103B580086FC9356F74133C6E600B306D6401306F3
:103B6800A00E635DD624C1B722469306B002B30601
:103B7800D602624611CE13068010634B86001306E8
:103B880000036357660022469306C00AB306D602AE
:103B98006353B702E345D0FA3695B706E0FC6354A1
:103BA800D5003705E0FCB706200363D4A600370527
:103BB800200388C069B7E301B7FEE3DF06FC41B71D
:103BC800014589AC9247E39707DC9307F003E3C309
:103BD800D7DC93070064E3CF87DAB2469307000285
:103BE800E3D3D7DE938706FE8566938606903386F1
:103BF800D702B397D7022182E207D18F3EC8C246C7
:103C0800F9779387B75463D3F6003EC8C2468967ED
:103C1800938757AB63D3D7003EC803268300930628
:103C28003008B307D602B316D602C183C206D58FB1
:103C3800C246AE97B6973EC08246E5779387B7529D
:103C480063D3F6003EC082469D67938757AD63D322
:103C5800D7003EC0C24702D2AE97998F3EC49307A1
:103C6800800463DC8700B317E602854636D263C654
:103C78000700E247B337F0003ED2024502438567AA
:103C88009386C7263305D502B316D3024181C206EF
:103C9800C98E36CEB316B602E3CF06D2938737F570
:103CA8003307F602B317F6025183B207D98F3ED411
:103CB800DC2005473ECAD246A2476399E600224760
:103CC80093078010E3DFE7D6930787EF1257E314D3
:103CD80007D805671307375193D6F741B385E7022D
:103CE800B386E602B3B7E702BE96C20693D70501CC
:103CF800D58F3ED09C2481463ED6FC24B1C7B2570E
:103D0800A1E793070002938602FE63C95700815713
:103D1800968663D3570081569386060285679387F4
:103D280007C03387F602B396F6022183930700B5DE
:103D3800E206D98E63D4F600930600B59307004BCC
:103D480063D4D7009306004B8840CC48935705416D
:103D58003EDA8247B385B702E17763D3F500E175B0
:103D6800A16763D3B700A1659307F020E3D987CE95
:103D780085479CB423960400930790033387F50284
:103D880023950400B397F5023D83C607D98FF24502
:103D980022534257BE959A9502539A95135305415B
:103DA8009A95B6956347B7003307E0406353B70069
:103DB8002E873253E30F03D223A0040001454205A6
:103DC8004185638903042398F300F247B2460D8FB7
:103DD8002399F300A25723A0D300A246239AF30005
:103DE800825723A2D300C246239BF300D25723A4B1
:103DF800D3008246239CF300D2473337E00023A642
:103E0800D300238EF3009257239DA300A38EE300D3
:103E1800238FF300130181036FC02FA909C5230065
:103E28000508A30005088280AA871DC10347050865
:103E380083461508014505071377F707638BE600E6
:103E480083C607080545BE968CA22380E7088280B2
:103E580001458280AA87014595C78DC583C6070895
:103E680003C717086380E60203C7170805453E978E
:103E7800182398A103C7170805071377F707A38026
:103E8800E7088280828005C903470508834715082B
:103E9800636BF70083470508034715083385E74038
:103EA8001375F50F828083470508034715081385A6
:103EB80007F8198DF5B7014582809387C1A123A022
:103EC800070023A2070023A4070023A6070005670D
:103ED800938701A1130757DE98D31307C04E220515
:103EE800D8D313072010238E070088C323A2070006
:103EF80023A407009AB78280EFC28F9A938701A103
:103F080083C7970261112A84938401A199E732C279
:103F18002EC0EFF09FFA12468245DC2CD44013974E
:103F2800170026974EA703C7840285079D8BDCAC34
:103F3800998F9D079D8B86072567A6971307477B53
:103F48008395C700B387E6023397E602C183420729
:103F5800D98F617763D3E700E17721676353F7006F
:103F6800A167930290033383570288509844B39211
:103F780057021353F300C60233E3620033836540EC
:103F8800AE82930570FC63D4B200930270FC930573
:103F9800900363D455009302900393D3F741B3C5BC
:103FA800F300B3857540A1678D8FB385F2022204B3
:103FB800B397F202BD81C607DD8DB307B340B3875F
:103FC800A702B305E5023315E502A1816205C98D93
:103FD800C8508D8F958FB385A702B397A702C1816B
:103FE800C207DD8D856713832706B695338566027C
:103FF8009387D75EB39666025981AA06558D944079
:10400800AA96158C3305F402B317F4023D81C6074E
:104018005D8DAA9637E504001305954AB307A402F7
:1040280094C03315A402BD834605C98FAE97B7F572
:1040380070FF938505C063D3B700AE87B7158F00AF
:104048009385054063D3F500AE875D751305F515B7
:10405800B305A402DCC03314A402BD814604C18D9B
:104068002E97B7E5FCFF6354B70037E7FCFFB72589
:10407800030063D4E5003727030098C419C6A18656
:10408800A187218714C25CC218C621016FC0EF81C5
:1040980023A0A1A411E18145238EB1A28147639396
:1040A800B70082805A2123000500A3000500850778
:1040B800231305003AA193F7F70F4105CDB703C5C0
:1040C800C1A383A701A4416681467D166313D50069
:1040D8008280CE2399C5BA237D174207418319C729
:1040E800BAA3850693F6F60FC107CDB79823AEA3FA
:1040F80019E3983311CBFA23E305C7FEFA23050722
:1041080042074183FAA3F1BF054798A3D9BFEFB28D
:104118003FF9EFE02F939307800873B007300F1033
:10412800000003A701A403C3C1A3BA861306F00FB6
:104138001304F00F8147631AF3009307F00F63121B
:10414800F402EFE08F906FB05FF68C2291C58C2659
:1041580063F4C5002E863E84850793F7F70FC106E2
:10416800D9BF1204B307870023800700054798B317
:10417800EFE0AF8D83A701A4A297DC4791C3829794
:10418800EFE04F8C9307800873B007300F100000E2
:1041980083A701A4A297A380070065B701C983C6B6
:1041A800C1A383A701A401476394E6000145828067
:1041B800CC47138607016394A5003E8582800507D6
:1041C8001377F70FB287CDB7C1460147814713561A
:1041D800E5018A070607D18F0A056375F700998FED
:1041E800FD170907FD16E5F613551700B337F0005C
:1041F8003E958280370700109306F6FF7917AA8745
:104208007D55636CD70463FAC5049316160013131F
:104218002600931236002147014593D3C701920522
:10422800B3E5B3009207120563E65500B385554020
:104238001365850063E66500B38565401365450031
:1042480063E5D500958D1365250063E5C500918D5F
:10425800136515007D1771F382808280B306B5025D
:104268003315B5026347050293172500F9823747CE
:104278000F0013070724DD8E79853306E502B3B7EF
:10428800E6023387E602B297C207418333E5E700C7
:1042980082803307D040B307A040B336D000958F53
:1042A800939627007983558FF987B366F700E9DE7F
:1042B800B7460F00938606243305D702B387D70283
:1042C80041813337D702BA97C2075D8D3305A040C5
:1042D8008280138741A403270709938741A463C6F3
:1042E800E50003A747096356B70023A20700BA856C
:1042F8000146D4431307803E8CC3B307D7020CC1D1
:1043080010C53317D702C1834207D98F5CC1828099
:10431800EFB21FD931112A84BA82BE846342B00237
:10432800B307A50223A0A2003314A502C183420447
:10433800C18F9CC0A16702571CC351016FB0FFD643
:10434800A1678D8F2E8563D887021C0821653AC224
:104358003EC038007C00018D653FA247924232473B
:104368002165B303F540F177A297BA9723A07200AD
:104378009CC0C247C9B7B6833307C4023283B31699
:10438800C4026358B406825533868302B397830206
:104398003D82C6075D8EB307660233136602BD838E
:1043A8004603B367F3009CC19357F641B387E7020E
:1043B800B386C602BE96B307E6023336E602FD832D
:1043C8003387C6000607D98F3386870223A0F200F9
:1043D800956693865655B39787023307D602B387F7
:1043E800D7027D833336D602B29786075D8F98C091
:1043F800A9B7825790C393D71540B307F4403386C3
:10440800C702098CB39767023D82C6075D8E23A059
:10441800C20033866502339365024182FD85931796
:1044280003015D8E93570341B385C50215631303DA
:104438005355B387A702AE97B305A6023336A60233
:10444800B297B387670233866502B3B565027D828A
:10445800AE9786075D8E9357F441B3868602B3877D
:10446800E702B697B306E4023334E40213D7F60141
:10447800A29786075D8F3A9690C0C1B5EFB25FC22A
:104488009C41B28263C5A70008426FB01FC2DC55C9
:104498002A87854631456348F70003A5C202F5B768
:1044A8008506E38CA6FE939726003386F500032342
:1044B8000600E347E3FE9386C7FFB6958C419697BF
:1044C80088433306B340E352C0FC96968042935625
:1044D800F641B30785403305B740B395A702338546
:1044E800A702EF20B01222954DB7EFB27FBB0111A2
:1044F8002AC893074006B28463D4B70093054006E0
:1045080081461395E500130640068145EF201010FB
:10451800938641A4C8CA2AC02ECA930640062A8791
:10452800138441A463D496009304400613064006FE
:1045380081461395E40081453ACEEF20300D82473D
:10454800A1642AC23386F4409356F6412ECC2AC67B
:1045580008CC814537050040EF20500B92472AC40C
:1045680048CC3386F4409356F641370500408145E0
:10457800EF20D009724708D0AA84014309CB02462C
:10458800D246370500408145EF2050082A83B247BC
:1045980023226402014591CB1246E24637050040CA
:1045A80081451AC6EF2090063243A5664247938696
:1045B80006CA08D423280408232AD40863D1E606A7
:1045C8003687824718C0232204007CD0924758D4EB
:1045D800232804023CD4A247232A040218DC58DC0E
:1045E80038C0232204042324040423260404232893
:1045F8000404232E0404232004067CD424D8232A6C
:10460800640628DC232E0406232004082322040839
:10461800232404082326040805616FB01FA9E35268
:1046280007FA014779BF63C4A504138741A4232867
:10463800A708232AB7081843938741A46346A7000D
:104648002E856353B7003A85054788C323A2070020
:10465800C8D788DFC8DFA8C323AA0702F8DF23A0CA
:10466800070823A2E70823A4070823A607088280CF
:10467800938641A403A70609938741A483A6460904
:104688006346E50036876353D5002A8798C3B8C3C5
:10469800D8DF98DFD8D7054723A2070023A007064D
:1046A80023AE070423AA070223A8070223A2E708C8
:1046B800F8DF23A6070823A4070823A00708828099
:1046C800EFB21F9E938741A494435D71138741A461
:1046D800D4D736D2D4432ED63AC094DB9387070872
:1046E80036CA944BDC4B36CE6346D5003ECE635378
:1046F800F5002ACEF2471257998F3EC663D8073085
:10470800BA877247998F3EC6D247B307F0403EC278
:10471800FD573ED8B2471305803E13066004B39593
:10472800A70281463385A702EF20406E9D679387D5
:1047380057AD63DBA72E3E8592471247FD873D8F15
:10474800B307F7403ECCE2461307803EB387E70243
:104758003397E602C183931607014187D58F3AD470
:104768003E8463D3A7002A843EDE9357F441139313
:104778000701935504011306803E8146B3E56500A1
:10478800131504013EC4EF2060682AC82ADC2AD029
:104798001305803E2EDAAEC0B315A40279468146D1
:1047A8003305A402EF2080668247B7D619009386A6
:1047B800C658C44F2AC4F2573386D402B396D402DB
:1047C8003D8293951601BD864D8E6346D000639950
:1047D800062663070626BEC2B24737853E00B39554
:1047E800A7023385A702EF2060621D669D65130648
:1047F800C6399385C536EFF07FC89357F4411397B0
:10480800F7009355140121662ADE1306F6F21315F4
:10481800F4008146D98DEF20605F725396472A8451
:104828006353A3001A84A25613D7170121669395E0
:10483800F6001395F700D98D1306F6F28146EF209E
:10484800E05C2167AA876344E5009307F7FF2285A8
:104858006353F4003E851D669D651306C633938534
:10486800C539EFF0BFC1B7970900938767DD3307F4
:10487800F502B317F5023D83C607D98F2246634672
:10488800F6003E866343F00005469356F641370529
:104898004042BD45EF2080572246B78704009387E2
:1048A800A7402A8463D3C7003E869356F64137054E
:1048B8004042BD45EF20805533079402AA872E86D3
:1048C800B31694023D83C606B3E2E60002471453CA
:1048D8002324570093D5F6413387C602B385F502E2
:1048E80033B6F602BA953387F602B295C6053D830C
:1048F8004D8F3AC42246024750C763D38700A28728
:1049080033869702339797029357F60022469355BA
:10491800F641124646075D8F824798CBE247A1874A
:104928006355C012224662443385C7021353F441CB
:104938003396C7023303A3023306F6021A963303EB
:10494800F5023335F5022A96324506056346C50059
:104958006312A61063000310BA8205473AD40247CF
:104968000246584B64D634DA78D2585278DA184E60
:1049780038D6185638DE13D7F2413ADE225769CFB7
:104988003385570222473306570013D7F741B395AB
:1049980057023307A702B385F502BA953337F502F4
:1049A800BA9532473305F5020607998D63D4050099
:1049B80001458145BEC216DAEFF0DF83EFF0DF80F4
:1049C80082562205D25296473307A04063D5A600E7
:1049D80042473307E0409246998EB3845602B39615
:1049E8005602B3349000B694634390008544A246BF
:1049F8003307E0403304D7023317D702333480003B
:104A08003A946343800005440145DDA8B24789EB29
:104A1800D24799EF1255EFF0BFC561616FB0EFE86B
:104A2800D2473EC28547F5B1E348A0D0054529B332
:104A3800D2471D65130555AD3EC285473ED8EDB931
:104A4800B71709009387271A15BD124602D401DA51
:104A5800BA8231B702D421B742479246158FB304C0
:104A6800570233175702B3349000BA946343900047
:104A78008544D256224742463307D702C246B385F9
:104A8800D502A2463384C602B28622462E97B3B612
:104A9800C6023334800036973A9463438000054455
:104AA8001247C246C2453306D7009356F441B3862F
:104AB800B602D255B305B402AE96C2453307960284
:104AC8003305B402B335B4023A953337E50045816E
:104AD80033169602AE96369632973E07598D324770
:104AE8006349A724BEC2C2473305A74042051387BE
:104AF800F7FFBE853A9516DAEFB04FDCD2529647EB
:104B08003EDAB2572695330785006355F704BA8510
:104B18001395870016C8EFB06FDA3304A402A256C3
:104B2800C242D2572A87218063930628924663C0DF
:104B380006283387A4028544218311C3BA843257D7
:104B4800B38784006354F7003304974063438000BD
:104B580005443257B2470143BD873ED4B247C60722
:104B68003EC6B7070080FD173ECCB38784003ED60B
:104B78006353F7003E879246324593171700B38375
:104B88009602858F33868740B3959602B246B386E0
:104B980076403335D50036C8A2568D8E898E63DEB1
:104BA80006283245A2503385A340B3B3A300B3858A
:104BB8001540B3857540FD53635606003306F4402F
:104BC800B3037040B6C69EC49AC216DE3ADAEFF056
:104BD8006FE262465257F2521643A643B646AA8778
:104BE8006373A600B2870546638DC32482553306D6
:104BF800F04063CDF52AB2878D466308D304924608
:104C080012469D8E6354F600B386C7403386D2029F
:104C1800B396D2023336C00036966343C0000546C9
:104C280093D6F741B3C5F600958DA2462245B386C3
:104C3800D502B395A502B336D000AE966343D00033
:104C4800854663C9C4266348D426C2560246B305BE
:104C58009740B387D702824664DE818DDCDAD2467C
:104C68003383D74082461AC423AE6604B306F040A5
:104C780034D21306060818C602470CC240C22326BF
:104C880007083316930236C23307930246063D835C
:104C9800518F0246339586029353270178C633868F
:104CA8008602824646053D82498EB0CAD2461355D1
:104CB800F7413A053386D4023A0733E5A300B392A5
:104CC800D40232973336C70041839256AA92169679
:104CD8004206518F3386B702369782463705004021
:104CE80098DEB397B70241828145C2075D8E32973D
:104CF800D8DE72472686B8C2EFF0CFCF8247228629
:104D0800AA84E8C3814537050040EFF0AFCE82475B
:104D180022432A84A8C7A6851A85EFF02FD4824794
:104D28009246A285E8CB3685EFF04FD38247A8CFCD
:104D3800EDB13385570293D6F74196C23EDA3397E1
:104D48005702B386A6023307F7023697B336F50241
:104D58003305F5023697B24693951600A246BA95E2
:104D680033865600EFF00FC9EFF00FC60257220541
:104D7800D25796426353A700424512479246098F7D
:104D880063D4A6003307D540B3045702331757023C
:104D9800B3349000BA9463439000854422473304A7
:104DA800E5023315E502333480002A9499B93AD4E0
:104DB800ADCBB396F7023247014516C89355374035
:104DC80086053386F702EF206004C2422257634506
:104DD800B00099E563560500370500807D158145CB
:104DE80033065702B3A7E202B306E602B387E70227
:104DF8003336E60213D70601B29713960701C18727
:104E0800518F63C6B7006396F5006374A7003A85AF
:104E1800BE85F25763C6B7006395F50063F3A20039
:104E2800AA82E247B3845702B3975702B33490007B
:104E3800BE94E34690D0854419B34245B685854370
:104E4800A5BB0256E35AF6DA3EDEC24713D5F64151
:104E58003346D500B343F500E257B385A340098E26
:104E68003385F5008647B3B6B300158E3E96B33644
:104E7800B500B296625693351500B385B6407D15D8
:104E88009AC496C23ADAEFF0EFB6B2575257964242
:104E98009386170036950581F2572643634BA70280
:104EA8006348F0008257B307F040B9B3B28769BFCF
:104EB800825799B3B2846353D4003684B3079400FD
:104EC8000503E354F7CAB3079740E3C0D7CA3E8443
:104ED80069B9050311476304E3002A8779B12A8772
:104EE800ADB3630E0516EFB2AF9B138741A48327BA
:104EF800C708832687087971AA82138441A463DCD2
:104F0800D70099C5785C03260408329763C5E70083
:104F180085072326F4088323C40863C9D3023440D1
:104F2800832704090327440963C6F600B687635339
:104F3800D700BA871CC02322040023A0F20023A2B2
:104F4800020023A4020045616FB02F96645C83279A
:104F580004083387F4003ACA63CB740A5C54032309
:104F6800040368403EC87C4C6C5070543EC27C447C
:104F780074589E843EC47C483EC63385A402A1670B
:104F88003D8163F3A70021657C103EC058103C109A
:104F980016D01ACE1ECCEFF0AFB73257B246B24792
:104FA80072433396E6029246E2438252B387E7029F
:104FB80046061257BD835D8E9247B387E702339743
:104FC800E602BD83A2464607D98F9A9722475CC05E
:104FD800A2573307F702B396F602B30793023313C7
:104FE8009302BA9733B7E700C1839A963697420778
:104FF800D98F4247B305F700D24763DD7702585887
:105008003C40634B070463D7B702BE8525A05247CF
:1050180003234403B384934063427702B387640253
:105028000C5C232264000146B3946402C183C20469
:10503800C58FBE951685EFF0CFA931B79D8C5C5C06
:1050480028442C543EC83C503058345C3EC23C483E
:105058003EC43C4C3EC615B7E3DEF5FC7DB7828006
:10506800938741A403A5C70883A787083325F500BC
:1050780013451500828003A5C1ACC1676344F500E0
:105088001385F7FF42054181828005472380E1AE01
:1050980083A7C1AD91C398A382809306C05D13878F
:1050A80081AE23A4D1AE1827938781AE11C13A856A
:1050B800054798B713075020BAA73707F401130715
:1050C8004706D8C705671307479C88A723A2070088
:1050D80098CB238A07006FF05FFB23AEA1AC83C790
:1050E80001AE81C719C185471CA18280EFA25FFB71
:1050F80083C701AE8DC303A641AED9450506138506
:1051080081AEEFB00FA301C983A741AE238001AEE2
:10511800850723A2F1AE6FA05FF9EFA27FF813868F
:1051280041AED945138581AEEFB04F9A938781AED2
:105138000DED59468145138581AEEFB0EF8013869A
:1051480041AEB945138581AEEFB04F98938781AED4
:1051580009CD1307401FFAA705671307479C98CB8B
:105168000547238A07002380E1AE9A239306007D32
:105178001307C7E04207418363E1E60AF2271307F2
:10518800301F637CC708962B05671307479C636627
:10519800D7086374D608D82B894663E0E60819C790
:1051A800B62B1D67130787976369D706B62325674C
:1051B8001307F7C96363D70690279306F00F630EAA
:1051C800D6049037A9459306F6FF93F6F60F63E6E3
:1051D800D504D6236363D704F6236360D704CC379A
:1051E8000547636CB7022D476316E60013073006C0
:1051F8006375D702B8279D467D171377F70F63EEBF
:10520800E600B83789467D171377F70F63E7E6009E
:10521800D8279307400663F5E7000145EFF0FFE75D
:1052280083C701AE99C3EFF07FEC6FA01FE883C777
:1052380021AF9D461147FD1713F6F70F63E3C6002C
:105248003E879D670A079387C73CBA978843828041
:10525800EFA21FE503C741AF930640069307400638
:1052680063E3E600BA87138701B013F4F70F3CA392
:105278008567138587BB3305A40293054006EFA015
:10528800FFE38567938707963304F402138701B019
:105298002AA793073006938401B0054563F9870070
:1052A800930540062285EFA07FE142054185EAA4E7
:1052B800E9236FA09FDF9307400663EDA700EFA2E5
:1052C8003FDE238AA1AEEFF05FDCEFF07FF8054503
:1052D8006FA0BFDD0145828003C521B0828003C570
:1052E80001B0828003D5C1B08280938701B023A02A
:1052F800070023A2070023A4070023A607006FF0D6
:105308003FF5EFA2FFD9938701B003C741AFBC2394
:10531800411123110100138401B06304F700EFF079
:105328003FF313052100952438811E245AA4B1C3E4
:10533800FD17C207C1831EA481E71C20F59B1CA092
:105348003C208316E400A1CFB6872DC932246370B0
:10535800E60C118F0D468547635AE6001306306444
:10536800930700196344E60093572740B387F64034
:10537800B1A08316E4002C20B68715CD0566130668
:1053880086BB6377E60230300945636CC5000506C5
:105398001376F60F30B00D456305A600C5F98547AD
:1053A80059A010201366260010A01306200312A48B
:1053B800A3010400E5B7A3010400F5D10545634442
:1053C800F006420541856304D5006AA47D215C305E
:1053D8000547850793F7F70F637FF70A4800A3028D
:1053E8000400E9211C87A1EB230304005C2061472A
:1053F800850793F7F70F6362F70A5CA01C20C5EFD7
:105408001C30E9C3A3000400EF00607265A80567BB
:105418001306F7956349D600938706031307079683
:10542800E35EF7F8BA873E85856793870796E3DAE0
:10543800A7F83E8579B7A24713D7F741B98F998F57
:1054480012479356F741358F158F9306F00763C6B9
:10545800E600348639476377D70213070002634EA4
:10546800F7007C201147850793F7F70F6373F7025E
:10547800930700107EA0212595BF23030400A303F2
:105488000400ADB72303040013070002E350F7F646
:10549800FDB77CA0A1BF5CB091BF23020400E5204A
:1054A800E177E30DF5F41307301F1C20635FA700B5
:1054B80093E717001CA0F52611C50145EF004066CB
:1054C80085471CB041016FA05FBE1307201CE3474E
:1054D800A7F2F99B1CA01DB7EFA29FBC7111130581
:1054E800210023110100EFD0AF8E2DC92881930729
:1054F800F06363F5A706FD77938707A23E959D673E
:10550800138787973305E50263460502138707A4C7
:10551800B706CB5A2A979386F647138507D663C8EA
:10552800E600B565938505483A85EFA0BFB8110137
:105538006FA0BFB7E5779387075C3304F500B565BF
:10554800938505482285EFA0FFB6B717C1FC93875E
:105558001778E35EF4FC130580C1D1BF41657D1562
:10556800F9B7EFA2FFB3EFD08F8AB777020093871E
:10557800477A3305F502B7450600EFA03FB4420568
:1055880041816FA09FB26FD07FEAEFA27FB1711106
:105598002311010005C92A8413052100EFC05FFC0F
:1055A8003C8109671307B7ADB387E70237070010D7
:1055B80063F7E700B1831EA011016FA01FAFC16799
:1055C800FD17D5BF0145CDBF83A701B119470545D3
:1055D8006375F700D51713B51700828083A701B14B
:1055E8002D476395E70003D5E1AE82801947014551
:1055F8006369F7001D67FD17F99B1307C73EBA9744
:105608008A23828083A601B12D47938781AE639D4B
:10561800E600CA239D67938707D663D6A700DD7780
:10562800938707363E958280AA23EDB79D679387B7
:10563800879763D9B702BE8585476319F5029D67C9
:10564800938787978D8F63D3F500AE87860763535B
:10565800F600B28713D6F7013E960586918D0CC3E6
:105668009EA28280E3DA05FC8145F9B783C761B35E
:1056780089EB9D67938787978D8FE352F6FEB287F4
:10568800F9BFB28763D3C500AE879D8DC9BFEFA2AE
:105698003FA11307F5FFA9475111138401B163E82E
:1056A800E7009307B5FF0547AA846369F7008547B4
:1056B8001CC0854493C7F4FF858B39A008C0AD474B
:1056C800E31AF5FE83C751AF2303F402EFF01FF18D
:1056D8000AA82AC0EFF01FF3024648C815CE9387E0
:1056E80081AEC82BAE2B01EDAD476387F402EFF016
:1056F8007FF102460DC593551600AA950545380059
:1057080093066100EFF09FF23C8313073006637540
:10571800F7001EA8A2475CC831016FA01F998D65CC
:105728009385C54BE1BF938701B113071010FAB7F2
:105738002388070223990702239A0702A3830702F3
:105748008280EFA2FF95EFF03FE8AA871305C05DBE
:1057580085CB938701B18E2B85C5CA2383C7670282
:1057680099C33385A5409307007D3305F50293D788
:1057780015003E95EFA09F941305451F42054181F2
:105788006FA0BF92EFA2DF91938701B1C623138464
:1057980001B101C50844EFE04FF22685EFE05FED67
:1057A800EFE0AF8A8145138501B7EFF08FF3130659
:1057B80000028145138581B8EFA01F995E201EACB9
:1057C8006FA0BF8E938601B1C84A1D678E2A130742
:1057D80087971356F541098F3305A040938701B188
:1057E800718D6353B700BA8533A7A5001347170017
:1057F800A382E70263D7A500239E0700239D070025
:105808008280AAAFCEAF6FE01FE2EFA27F89EFF0F0
:10581800BFCC4167AA877D1701456388E702938655
:1058280001B1D04ADCC63385C74088C6938701B129
:105838000147634805009A2B6345A7001317050124
:105848004183DAA3A383070205456FA01F86EFA251
:105858003F85938701B103C5D702138401B119E5C8
:10586800EFD0EFBE2318A4046FA03F847915133539
:105878001500EFD0AFCC0145F5B7056713070796BC
:10588800BA876349A700AA8713970701418763432B
:10589800E0008547139507014185239FF1B46FD038
:1058A8001FFE03C5D1B313351500828035C5EFA29D
:1058B8002FFFAA84EFF05FD1138401B181470DC196
:1058C8000347540211CF834694020347D402558FED
:1058D8008346E402558F09E7EFF08FF893371500F8
:1058E8003050585C144493F5F70F3307E64098C0DE
:1058F80038403387E640D8C07A389AA489C78347A6
:105908008403B337F000BCA450DC34C0230CB402C9
:10591800231B04026FA06FF98280EFA26FF803C502
:1059280011AF138401B1EFF09FD6EFF01FEE83475C
:10593800E402A308040223220404FD1793B7170006
:10594800A304F402232404042316040423150402E4
:1059580023090404EFF05FC711C9EFF0BFE605455E
:10596800EFF05FE2EFF0BFEE6FA02FF42307040221
:10597800A3040402EFD07FEDF5B78280EFA24FF2C7
:10598800138701B18347D70203479702D98F8DEF59
:10599800138401B18347A40203471403D98F8DC729
:1059A8008547A304F4022305F402EFF0FFC101C9FF
:1059B800062CEFF09FE50145EFF0DFDC06AC014572
:1059C800EFD0EFA82318A4046FA02FEEEFA24FED9D
:1059D800938701B183C79702A5C3138401B1834795
:1059E800A402B9CBEFF05FBE0347E40201CD8547BF
:1059F800630AF700EFF07FE121C1062C0545EFF0BF
:105A08007FD806AC0347E402A30404028547630574
:105A1800F702EFF07FBB0DC10347B4023C440A2CE8
:105A2800814519C7BE85C16763E4F5009385F7FF13
:105A3800C205C181EFE0DFC86FA02FE7EFA24FE6F4
:105A4800938701B103C7E702A388070223A20704CB
:105A58007D1713371700A384E70223A407042396AE
:105A6800070423950702EFF03FB611C5EFF0FFD901
:105A78000145EFF03FD1EFF09FDD6FA00FE3EFA2FC
:105A88002FE2EFF07FB411C583C7D1B399E3EFF0EC
:105A9800FFFA6FA08FE1EFA2AFE03111AA84EFF017
:105AA800BFA32AC0EFF05FB219C582459D679387EF
:105AB800879763F6B700014551016FA00FDF2EC429
:105AC800EFF0DFB12A8665D9138481AE0343440120
